{
    "_format": "hh-sol-artifact-1",
    "contractName": "View",
    "sourceName": "contracts/support/View.sol",
    "abi": [
        {
            "inputs": [
                {
                    "internalType": "address",
                    "name": "token",
                    "type": "address"
                },
                {
                    "internalType": "address",
                    "name": "feeTo",
                    "type": "address"
                },
                {
                    "internalType": "uint256",
                    "name": "feeRate",
                    "type": "uint256"
                }
            ],
            "stateMutability": "nonpayable",
            "type": "constructor"
        },
        {
            "inputs": [],
            "name": "T",
            "type": "error"
        },
        {
            "anonymous": false,
            "inputs": [
                {
                    "indexed": true,
                    "internalType": "address",
                    "name": "payer",
                    "type": "address"
                },
                {
                    "indexed": true,
                    "internalType": "address",
                    "name": "recipient",
                    "type": "address"
                },
                {
                    "indexed": true,
                    "internalType": "uint256",
                    "name": "sideMax",
                    "type": "uint256"
                },
                {
                    "indexed": false,
                    "internalType": "uint256",
                    "name": "sideIn",
                    "type": "uint256"
                },
                {
                    "indexed": false,
                    "internalType": "uint256",
                    "name": "sideOut",
                    "type": "uint256"
                },
                {
                    "indexed": false,
                    "internalType": "uint256",
                    "name": "maturity",
                    "type": "uint256"
                },
                {
                    "indexed": false,
                    "internalType": "uint256",
                    "name": "amountIn",
                    "type": "uint256"
                },
                {
                    "indexed": false,
                    "internalType": "uint256",
                    "name": "amountOut",
                    "type": "uint256"
                },
                {
                    "indexed": false,
                    "internalType": "uint256",
                    "name": "price",
                    "type": "uint256"
                }
            ],
            "name": "Swap",
            "type": "event"
        },
        {
            "inputs": [
                {
                    "internalType": "address",
                    "name": "TOKEN",
                    "type": "address"
                },
                {
                    "internalType": "uint256",
                    "name": "FEE_RATE",
                    "type": "uint256"
                }
            ],
            "name": "compute",
            "outputs": [
                {
                    "components": [
                        {
                            "components": [
                                {
                                    "internalType": "address",
                                    "name": "FETCHER",
                                    "type": "address"
                                },
                                {
                                    "internalType": "bytes32",
                                    "name": "ORACLE",
                                    "type": "bytes32"
                                },
                                {
                                    "internalType": "address",
                                    "name": "TOKEN_R",
                                    "type": "address"
                                },
                                {
                                    "internalType": "uint256",
                                    "name": "K",
                                    "type": "uint256"
                                },
                                {
                                    "internalType": "uint256",
                                    "name": "MARK",
                                    "type": "uint256"
                                },
                                {
                                    "internalType": "uint256",
                                    "name": "INTEREST_HL",
                                    "type": "uint256"
                                },
                                {
                                    "internalType": "uint256",
                                    "name": "PREMIUM_HL",
                                    "type": "uint256"
                                },
                                {
                                    "internalType": "uint256",
                                    "name": "MATURITY",
                                    "type": "uint256"
                                },
                                {
                                    "internalType": "uint256",
                                    "name": "MATURITY_VEST",
                                    "type": "uint256"
                                },
                                {
                                    "internalType": "uint256",
                                    "name": "MATURITY_RATE",
                                    "type": "uint256"
                                },
                                {
                                    "internalType": "uint256",
                                    "name": "OPEN_RATE",
                                    "type": "uint256"
                                }
                            ],
                            "internalType": "struct Config",
                            "name": "config",
                            "type": "tuple"
                        },
                        {
                            "components": [
                                {
                                    "internalType": "uint256",
                                    "name": "R",
                                    "type": "uint256"
                                },
                                {
                                    "internalType": "uint256",
                                    "name": "a",
                                    "type": "uint256"
                                },
                                {
                                    "internalType": "uint256",
                                    "name": "b",
                                    "type": "uint256"
                                }
                            ],
                            "internalType": "struct State",
                            "name": "state",
                            "type": "tuple"
                        },
                        {
                            "internalType": "uint256",
                            "name": "sA",
                            "type": "uint256"
                        },
                        {
                            "internalType": "uint256",
                            "name": "sB",
                            "type": "uint256"
                        },
                        {
                            "internalType": "uint256",
                            "name": "sC",
                            "type": "uint256"
                        },
                        {
                            "internalType": "uint256",
                            "name": "rA",
                            "type": "uint256"
                        },
                        {
                            "internalType": "uint256",
                            "name": "rB",
                            "type": "uint256"
                        },
                        {
                            "internalType": "uint256",
                            "name": "rC",
                            "type": "uint256"
                        },
                        {
                            "internalType": "uint256",
                            "name": "twap",
                            "type": "uint256"
                        },
                        {
                            "internalType": "uint256",
                            "name": "spot",
                            "type": "uint256"
                        }
                    ],
                    "internalType": "struct View.StateView",
                    "name": "stateView",
                    "type": "tuple"
                }
            ],
            "stateMutability": "view",
            "type": "function"
        },
        {
            "inputs": [],
            "name": "ensureStateIntegrity",
            "outputs": [],
            "stateMutability": "view",
            "type": "function"
        },
        {
            "inputs": [
                {
                    "internalType": "uint256",
                    "name": "ORACLE",
                    "type": "uint256"
                }
            ],
            "name": "fetch",
            "outputs": [
                {
                    "internalType": "uint256",
                    "name": "twap",
                    "type": "uint256"
                },
                {
                    "internalType": "uint256",
                    "name": "spot",
                    "type": "uint256"
                }
            ],
            "stateMutability": "view",
            "type": "function"
        },
        {
            "inputs": [],
            "name": "getStates",
            "outputs": [
                {
                    "internalType": "uint256",
                    "name": "R",
                    "type": "uint256"
                },
                {
                    "internalType": "uint256",
                    "name": "a",
                    "type": "uint256"
                },
                {
                    "internalType": "uint256",
                    "name": "b",
                    "type": "uint256"
                },
                {
                    "internalType": "uint32",
                    "name": "i",
                    "type": "uint32"
                },
                {
                    "internalType": "uint32",
                    "name": "f",
                    "type": "uint32"
                }
            ],
            "stateMutability": "view",
            "type": "function"
        },
        {
            "inputs": [
                {
                    "components": [
                        {
                            "internalType": "uint256",
                            "name": "R",
                            "type": "uint256"
                        },
                        {
                            "internalType": "uint256",
                            "name": "a",
                            "type": "uint256"
                        },
                        {
                            "internalType": "uint256",
                            "name": "b",
                            "type": "uint256"
                        }
                    ],
                    "internalType": "struct State",
                    "name": "state",
                    "type": "tuple"
                },
                {
                    "components": [
                        {
                            "internalType": "address",
                            "name": "utr",
                            "type": "address"
                        },
                        {
                            "internalType": "bytes",
                            "name": "payer",
                            "type": "bytes"
                        },
                        {
                            "internalType": "address",
                            "name": "recipient",
                            "type": "address"
                        }
                    ],
                    "internalType": "struct Payment",
                    "name": "payment",
                    "type": "tuple"
                }
            ],
            "name": "init",
            "outputs": [],
            "stateMutability": "nonpayable",
            "type": "function"
        },
        {
            "inputs": [],
            "name": "loadConfig",
            "outputs": [
                {
                    "components": [
                        {
                            "internalType": "address",
                            "name": "FETCHER",
                            "type": "address"
                        },
                        {
                            "internalType": "bytes32",
                            "name": "ORACLE",
                            "type": "bytes32"
                        },
                        {
                            "internalType": "address",
                            "name": "TOKEN_R",
                            "type": "address"
                        },
                        {
                            "internalType": "uint256",
                            "name": "K",
                            "type": "uint256"
                        },
                        {
                            "internalType": "uint256",
                            "name": "MARK",
                            "type": "uint256"
                        },
                        {
                            "internalType": "uint256",
                            "name": "INTEREST_HL",
                            "type": "uint256"
                        },
                        {
                            "internalType": "uint256",
                            "name": "PREMIUM_HL",
                            "type": "uint256"
                        },
                        {
                            "internalType": "uint256",
                            "name": "MATURITY",
                            "type": "uint256"
                        },
                        {
                            "internalType": "uint256",
                            "name": "MATURITY_VEST",
                            "type": "uint256"
                        },
                        {
                            "internalType": "uint256",
                            "name": "MATURITY_RATE",
                            "type": "uint256"
                        },
                        {
                            "internalType": "uint256",
                            "name": "OPEN_RATE",
                            "type": "uint256"
                        }
                    ],
                    "internalType": "struct Config",
                    "name": "config",
                    "type": "tuple"
                }
            ],
            "stateMutability": "pure",
            "type": "function"
        },
        {
            "inputs": [
                {
                    "internalType": "address",
                    "name": "",
                    "type": "address"
                },
                {
                    "internalType": "address",
                    "name": "",
                    "type": "address"
                },
                {
                    "internalType": "uint256[]",
                    "name": "",
                    "type": "uint256[]"
                },
                {
                    "internalType": "uint256[]",
                    "name": "",
                    "type": "uint256[]"
                },
                {
                    "internalType": "bytes",
                    "name": "",
                    "type": "bytes"
                }
            ],
            "name": "onERC1155BatchReceived",
            "outputs": [
                {
                    "internalType": "bytes4",
                    "name": "",
                    "type": "bytes4"
                }
            ],
            "stateMutability": "nonpayable",
            "type": "function"
        },
        {
            "inputs": [
                {
                    "internalType": "address",
                    "name": "",
                    "type": "address"
                },
                {
                    "internalType": "address",
                    "name": "",
                    "type": "address"
                },
                {
                    "internalType": "uint256",
                    "name": "",
                    "type": "uint256"
                },
                {
                    "internalType": "uint256",
                    "name": "",
                    "type": "uint256"
                },
                {
                    "internalType": "bytes",
                    "name": "",
                    "type": "bytes"
                }
            ],
            "name": "onERC1155Received",
            "outputs": [
                {
                    "internalType": "bytes4",
                    "name": "",
                    "type": "bytes4"
                }
            ],
            "stateMutability": "nonpayable",
            "type": "function"
        },
        {
            "inputs": [
                {
                    "internalType": "bytes4",
                    "name": "interfaceId",
                    "type": "bytes4"
                }
            ],
            "name": "supportsInterface",
            "outputs": [
                {
                    "internalType": "bool",
                    "name": "",
                    "type": "bool"
                }
            ],
            "stateMutability": "view",
            "type": "function"
        },
        {
            "inputs": [
                {
                    "components": [
                        {
                            "internalType": "uint256",
                            "name": "sideIn",
                            "type": "uint256"
                        },
                        {
                            "internalType": "uint256",
                            "name": "sideOut",
                            "type": "uint256"
                        },
                        {
                            "internalType": "address",
                            "name": "helper",
                            "type": "address"
                        },
                        {
                            "internalType": "bytes",
                            "name": "payload",
                            "type": "bytes"
                        }
                    ],
                    "internalType": "struct Param",
                    "name": "param",
                    "type": "tuple"
                },
                {
                    "components": [
                        {
                            "internalType": "address",
                            "name": "utr",
                            "type": "address"
                        },
                        {
                            "internalType": "bytes",
                            "name": "payer",
                            "type": "bytes"
                        },
                        {
                            "internalType": "address",
                            "name": "recipient",
                            "type": "address"
                        }
                    ],
                    "internalType": "struct Payment",
                    "name": "payment",
                    "type": "tuple"
                }
            ],
            "name": "swap",
            "outputs": [
                {
                    "internalType": "uint256",
                    "name": "amountIn",
                    "type": "uint256"
                },
                {
                    "internalType": "uint256",
                    "name": "amountOut",
                    "type": "uint256"
                },
                {
                    "internalType": "uint256",
                    "name": "price",
                    "type": "uint256"
                }
            ],
            "stateMutability": "nonpayable",
            "type": "function"
        }
    ],
    "bytecode": "0x60e06040523480156200001157600080fd5b50604051620057f3380380620057f383398101604081905262000034916200012b565b828282826001600160a01b038116620000945760405162461bcd60e51b815260206004820152601660248201527f506f6f6c426173653a205a45524f5f414444524553530000000000000000000060448201526064015b60405180910390fd5b6001600160a01b039081166080528216620000f25760405162461bcd60e51b815260206004820152601760248201527f506f6f6c4c6f6769633a205a45524f5f4144445245535300000000000000000060448201526064016200008b565b6001600160a01b0390911660a05260c052506200016c92505050565b80516001600160a01b03811681146200012657600080fd5b919050565b6000806000606084860312156200014157600080fd5b6200014c846200010e565b92506200015c602085016200010e565b9150604084015190509250925092565b60805160a05160c0516155f5620001fe60003960008181611f0d01528181611f340152611f6d01526000611f9b0152600081816107970152818161085a0152818161091b01528181610a4901528181610b6b01528181610c2a01528181610cd601528181610d9501528181610ed8015281816119bb01528181611a8901528181611ae90152613a9b01526155f56000f3fe608060405234801561001057600080fd5b50600436106100be5760003560e01c8063bc197c8111610076578063dc1a6f331161005b578063dc1a6f3314610218578063eb7e50dd1461022d578063f23a6e611461023557600080fd5b8063bc197c8114610176578063d8ab8274146101df57600080fd5b80632b2f2913116100a75780632b2f29131461010057806349b5b5411461012e5780637a33e3b01461014e57600080fd5b806301ffc9a7146100c357806322d65951146100eb575b600080fd5b6100d66100d13660046147b7565b61026d565b60405190151581526020015b60405180910390f35b6100f3610306565b6040516100e29190614899565b61011361010e366004614ab4565b6103d5565b604080519384526020840192909252908201526060016100e2565b61014161013c366004614b6d565b611004565b6040516100e29190614b99565b61016161015c366004614c2e565b6111b3565b604080519283526020830191909152016100e2565b6101ae610184366004614cd6565b7fbc197c810000000000000000000000000000000000000000000000000000000095945050505050565b6040517fffffffff0000000000000000000000000000000000000000000000000000000090911681526020016100e2565b6101e7611330565b6040805195865260208601949094529284019190915263ffffffff908116606084015216608082015260a0016100e2565b61022b610226366004614d84565b611426565b005b61022b611beb565b6101ae610243366004614df1565b7ff23a6e610000000000000000000000000000000000000000000000000000000095945050505050565b60007fffffffff0000000000000000000000000000000000000000000000000000000082167f4e2312e000000000000000000000000000000000000000000000000000000000148061030057507f01ffc9a7000000000000000000000000000000000000000000000000000000007fffffffff000000000000000000000000000000000000000000000000000000008316145b92915050565b610392604051806101600160405280600073ffffffffffffffffffffffffffffffffffffffff16815260200160008019168152602001600073ffffffffffffffffffffffffffffffffffffffff16815260200160008152602001600081526020016000815260200160008152602001600081526020016000815260200160008152602001600081525090565b6060602036038035808203915060405192506020810183016040528083526020830181838237505050808060200190518101906103cf9190614e6a565b91505090565b60008060006103e2611beb565b600180547fffffffffffffffffffffffffffffffffffffffffffffffffffffffff00000000811663ffffffff90911617811790556000610420610306565b9050600061042e8288611c6e565b8051602082015160408301518a519298509096509450909150600090610745576020870151511561072e578660200151516014036104f55761047587602001516000612902565b604080850151815173ffffffffffffffffffffffffffffffffffffffff808516602083015230938201939093526014606082015291166080820152600060a082015290915060c001604080517fffffffffffffffffffffffffffffffffffffffffffffffffffffffffffffffe081840301815291905260208801526104f8565b50325b60408084015190517f70a0823100000000000000000000000000000000000000000000000000000000815230600482015260009173ffffffffffffffffffffffffffffffffffffffff16906370a0823190602401602060405180830381865afa158015610569573d6000803e3d6000fd5b505050506040513d601f19601f8201168201806040525081019061058d9190614f0b565b6105979088614f53565b885160208a01516040517f715ef7f900000000000000000000000000000000000000000000000000000000815292935073ffffffffffffffffffffffffffffffffffffffff9091169163715ef7f9916105f4918b90600401614fd4565b600060405180830381600087803b15801561060e57600080fd5b505af1158015610622573d6000803e3d6000fd5b50505060408086015190517f70a0823100000000000000000000000000000000000000000000000000000000815230600482015273ffffffffffffffffffffffffffffffffffffffff90911691506370a0823190602401602060405180830381865afa158015610696573d6000803e3d6000fd5b505050506040513d601f19601f820116820180604052508101906106ba9190614f0b565b811115610728576040517f08c379a000000000000000000000000000000000000000000000000000000000815260206004820152601e60248201527f506f6f6c426173653a20494e53554646494349454e545f5041594d454e54000060448201526064015b60405180910390fd5b50610e1a565b61073e8360400151333089612992565b5033610e1a565b875160009060a01b301790506000808960200151511115610ca1576040517efdd58e000000000000000000000000000000000000000000000000000000008152306004820152602481018390526000907f000000000000000000000000000000000000000000000000000000000000000073ffffffffffffffffffffffffffffffffffffffff169062fdd58e90604401602060405180830381865afa1580156107f2573d6000803e3d6000fd5b505050506040513d601f19601f820116820180604052508101906108169190614f0b565b905080156108cc576040517ff5298aca00000000000000000000000000000000000000000000000000000000815230600482015260248101849052604481018290527f000000000000000000000000000000000000000000000000000000000000000073ffffffffffffffffffffffffffffffffffffffff169063f5298aca90606401600060405180830381600087803b1580156108b357600080fd5b505af11580156108c7573d6000803e3d6000fd5b505050505b896020015151601403610987576108e88a602001516000612902565b6040805173ffffffffffffffffffffffffffffffffffffffff8381166020830152309282019290925261048360608201527f0000000000000000000000000000000000000000000000000000000000000000909116608082015260a0810185905290945060c001604080517fffffffffffffffffffffffffffffffffffffffffffffffffffffffffffffffe081840301815291905260208b015261098b565b3293505b895160208b01516040517f715ef7f900000000000000000000000000000000000000000000000000000000815273ffffffffffffffffffffffffffffffffffffffff9092169163715ef7f9916109e5918d90600401614fd4565b600060405180830381600087803b1580156109ff57600080fd5b505af1158015610a13573d6000803e3d6000fd5b50506040517efdd58e000000000000000000000000000000000000000000000000000000008152306004820152602481018690527f000000000000000000000000000000000000000000000000000000000000000073ffffffffffffffffffffffffffffffffffffffff16925062fdd58e9150604401602060405180830381865afa158015610aa6573d6000803e3d6000fd5b505050506040513d601f19601f82011682018060405250810190610aca9190614f0b565b905080891115610b36576040517f08c379a000000000000000000000000000000000000000000000000000000000815260206004820152601e60248201527f506f6f6c426173653a20494e53554646494349454e545f5041594d454e540000604482015260640161071f565b6040517fcb263dc6000000000000000000000000000000000000000000000000000000008152306004820152602481018490527f000000000000000000000000000000000000000000000000000000000000000073ffffffffffffffffffffffffffffffffffffffff169063cb263dc690604401602060405180830381865afa158015610bc7573d6000803e3d6000fd5b505050506040513d601f19601f82011682018060405250810190610beb9190614f0b565b6040517ff5298aca00000000000000000000000000000000000000000000000000000000815230600482015260248101859052604481018390529092507f000000000000000000000000000000000000000000000000000000000000000073ffffffffffffffffffffffffffffffffffffffff169063f5298aca90606401600060405180830381600087803b158015610c8357600080fd5b505af1158015610c97573d6000803e3d6000fd5b5050505050610e0a565b6040517fcb263dc6000000000000000000000000000000000000000000000000000000008152336004820152602481018390527f000000000000000000000000000000000000000000000000000000000000000073ffffffffffffffffffffffffffffffffffffffff169063cb263dc690604401602060405180830381865afa158015610d32573d6000803e3d6000fd5b505050506040513d601f19601f82011682018060405250810190610d569190614f0b565b6040517ff5298aca00000000000000000000000000000000000000000000000000000000815233600482015260248101849052604481018a90529091507f000000000000000000000000000000000000000000000000000000000000000073ffffffffffffffffffffffffffffffffffffffff169063f5298aca90606401600060405180830381600087803b158015610dee57600080fd5b505af1158015610e02573d6000803e3d6000fd5b505050503392505b610e15858289612b31565b965050505b6020880151600090610e3e57610e398460400151896040015188612bb9565b610f36565b602089015160009060a01b301790508460e001514263ffffffff16610e639190614f53565b60408a81015190517f3c8cb4ef00000000000000000000000000000000000000000000000000000000815273ffffffffffffffffffffffffffffffffffffffff918216600482015260248101849052604481018a905263ffffffff8316606482015260a06084820152600060a48201529193507f00000000000000000000000000000000000000000000000000000000000000001690633c8cb4ef9060c401600060405180830381600087803b158015610f1c57600080fd5b505af1158015610f30573d6000803e3d6000fd5b50505050505b610f4889600001518a60200151612d4f565b6040808a01518b516020808e0151845192835290820152918201849052606082018a90526080820189905260a0820188905273ffffffffffffffffffffffffffffffffffffffff90811691908516907f2ad8739d64c070ab4ae9d9c0743d56550b22c3c8c96e7a6045fac37b5b8e89e39060c00160405180910390a45050600180547fffffffffffffffffffffffffffffffffffffffffffffffffffffffff00000000811663fffffffe90911617905550929591945092509050565b61100c6146b8565b6000611016610306565b9050600060405180606001604052806110328460400151612d65565b8152600080547bffffffffffffffffffffffffffffffffffffffffffffffffffffffff640100000000918290048116602080860191909152600154929092041660409093019290925284519185015192935091829161109091612df7565b915091506000806110aa6110a48786612ebc565b86612eeb565b915091506000806110c46110be8987612ebc565b88612eeb565b9150915060006110db8b8a8a600001518888612f45565b8a5191975095509091506110f4908c908b908686612f45565b918a52935091506111058584613147565b60a08b01526111148483613147565b60c08b015261114f846111278784614ff6565b6111319190614ff6565b89518490611140908790614ff6565b61114a9190614ff6565b613147565b60e08b01528751811015611161578088525b61116c8c6010613156565b60408b015261117c8c6020613156565b60608b015261118c8c6030613156565b60808b01525050505061010086019290925261012085015250908252602082015292915050565b600080600083905060008173ffffffffffffffffffffffffffffffffffffffff16633850c7bd6040518163ffffffff1660e01b815260040160e060405180830381865afa158015611208573d6000803e3d6000fd5b505050506040513d601f19601f8201168201806040525081019061122c919061502b565b505050505050905060006112448360c088901c6131ed565b5090506000611252826134b1565b73ffffffffffffffffffffffffffffffffffffffff16905060208373ffffffffffffffffffffffffffffffffffffffff16901b73ffffffffffffffffffffffffffffffffffffffff169450602081901b95507f80000000000000000000000000000000000000000000000000000000000000008716600003611327576112f8857fffffffffffffffffffffffffffffffffffffffffffffffffffffffffffffffff6150f4565b9450611324867fffffffffffffffffffffffffffffffffffffffffffffffffffffffffffffffff6150f4565b95505b50505050915091565b600080600080600080611341610306565b60408082015190517f70a0823100000000000000000000000000000000000000000000000000000000815230600482015291925073ffffffffffffffffffffffffffffffffffffffff16906370a0823190602401602060405180830381865afa1580156113b2573d6000803e3d6000fd5b505050506040513d601f19601f820116820180604052508101906113d69190614f0b565b60005460015491987bffffffffffffffffffffffffffffffffffffffffffffffffffffffff64010000000080840482169a50840416975063ffffffff909116955063fffffffe9091169350915050565b60005463ffffffff1615611496576040517f08c379a000000000000000000000000000000000000000000000000000000000815260206004820152601d60248201527f506f6f6c426173653a20414c52454144595f494e495449414c495a4544000000604482015260640161071f565b81516020830151604084015182158015906114b15750600082115b80156114bd5750600081115b611523576040517f08c379a000000000000000000000000000000000000000000000000000000000815260206004820152601460248201527f506f6f6c426173653a205a45524f5f504152414d000000000000000000000000604482015260640161071f565b600183901c821115801561153b5750600183901c8111155b6115a1576040517f08c379a000000000000000000000000000000000000000000000000000000000815260206004820152601760248201527f506f6f6c426173653a20494e56414c49445f504152414d000000000000000000604482015260640161071f565b4263ffffffff81166401000000007bffffffffffffffffffffffffffffffffffffffffffffffffffffffff858116820292909217600090815563fffffffe90931691841602176001556115f2610306565b602086015151909150156118cb5760408082015190517f70a0823100000000000000000000000000000000000000000000000000000000815230600482015260009173ffffffffffffffffffffffffffffffffffffffff16906370a0823190602401602060405180830381865afa158015611671573d6000803e3d6000fd5b505050506040513d601f19601f820116820180604052508101906116959190614f0b565b61169f9086614f53565b905085602001515160140361173c5760006116bf87602001516000612902565b604080850151815173ffffffffffffffffffffffffffffffffffffffff808516602083015230938201939093526014606082015291166080820152600060a082015290915060c001604080517fffffffffffffffffffffffffffffffffffffffffffffffffffffffffffffffe08184030181529190526020880152505b855160208701516040517f715ef7f900000000000000000000000000000000000000000000000000000000815273ffffffffffffffffffffffffffffffffffffffff9092169163715ef7f991611796918990600401614fd4565b600060405180830381600087803b1580156117b057600080fd5b505af11580156117c4573d6000803e3d6000fd5b50505060408084015190517f70a0823100000000000000000000000000000000000000000000000000000000815230600482015273ffffffffffffffffffffffffffffffffffffffff90911691506370a0823190602401602060405180830381865afa158015611838573d6000803e3d6000fd5b505050506040513d601f19601f8201168201806040525081019061185c9190614f0b565b8111156118c5576040517f08c379a000000000000000000000000000000000000000000000000000000000815260206004820152601e60248201527f506f6f6c426173653a20494e53554646494349454e545f5041594d454e540000604482015260640161071f565b506118db565b6118db8160400151333087612992565b307410000000000000000000000000000000000000000081179074200000000000000000000000000000000000000000811790743000000000000000000000000000000000000000001760006119326003896150f4565b905060008560e00151426119469190614f53565b60408b81015190517f3c8cb4ef00000000000000000000000000000000000000000000000000000000815273ffffffffffffffffffffffffffffffffffffffff9182166004820152602481018890526044810185905263ffffffff8316606482015260a06084820152600060a48201529192507f00000000000000000000000000000000000000000000000000000000000000001690633c8cb4ef9060c401600060405180830381600087803b1580156119ff57600080fd5b505af1158015611a13573d6000803e3d6000fd5b5050505060408a81015190517f3c8cb4ef00000000000000000000000000000000000000000000000000000000815273ffffffffffffffffffffffffffffffffffffffff9182166004820152602481018690526044810184905263ffffffff8316606482015260a06084820152600060a48201527f000000000000000000000000000000000000000000000000000000000000000090911690633c8cb4ef9060c401600060405180830381600087803b158015611acf57600080fd5b505af1158015611ae3573d6000803e3d6000fd5b505050507f000000000000000000000000000000000000000000000000000000000000000073ffffffffffffffffffffffffffffffffffffffff16633c8cb4ef8b6040015185600186901b8d611b399190614ff6565b6040517fffffffff0000000000000000000000000000000000000000000000000000000060e086901b16815273ffffffffffffffffffffffffffffffffffffffff90931660048401526024830191909152604482015263ffffffff8416606482015260a06084820152600060a482015260c401600060405180830381600087803b158015611bc657600080fd5b505af1158015611bda573d6000803e3d6000fd5b505050505050505050505050505050565b6001805463ffffffff81169116158015611c055750600081115b611c6b576040517f08c379a000000000000000000000000000000000000000000000000000000000815260206004820152601960248201527f506f6f6c426173653a2053544154455f494e5445475249545900000000000000604482015260640161071f565b50565b611c9260405180606001604052806000815260200160008152602001600081525090565b81516020830151808203611d02576040517f08c379a000000000000000000000000000000000000000000000000000000000815260206004820152601460248201527f506f6f6c4c6f6769633a2053414d455f53494445000000000000000000000000604482015260640161071f565b811580611d0f5750601082145b80611d1a5750602082145b80611d255750603082145b611d8b576040517f08c379a000000000000000000000000000000000000000000000000000000000815260206004820152601a60248201527f506f6f6c4c6f6769633a20494e56414c49445f534944455f494e000000000000604482015260640161071f565b801580611d985750601081145b80611da35750602081145b80611dae5750603081145b611e14576040517f08c379a000000000000000000000000000000000000000000000000000000000815260206004820152601b60248201527f506f6f6c4c6f6769633a20494e56414c49445f534944455f4f55540000000000604482015260640161071f565b60006040518060600160405280611e2e8860400151612d65565b8152600080547bffffffffffffffffffffffffffffffffffffffffffffffffffffffff640100000000918290048116602085015260015491909104166040909201919091529091508080611e8489858888613818565b60408b0152600054929550909350915063ffffffff90811642039081161561200657600080611ebd8363ffffffff168d60a001516138f0565b905068010000000000000000811015612003576000611ee6868368010000000000000000613936565b90506000611efe868468010000000000000000613936565b905080828789010303935060007f00000000000000000000000000000000000000000000000000000000000000001115611f65577f00000000000000000000000000000000000000000000000000000000000000008481611f6157611f616150c5565b0493505b8315612000577f000000000000000000000000000000000000000000000000000000000000000015611fc857611fc08e604001517f000000000000000000000000000000000000000000000000000000000000000086612bb9565b885184900389525b600080547fffffffffffffffffffffffffffffffffffffffffffffffffffffffff00000000164263ffffffff16179055909550935084845b50505b50505b5060015463fffffffe908116429091160363ffffffff8116156121185760006120398263ffffffff168c60c001516138f0565b90506801000000000000000081101561211657600083851161206b57612066858503858960000151613994565b61207c565b61207c848603868960000151613994565b9050612092818368010000000000000000613936565b808203911461211457838511156120c2576120b48185878a6000015103613936565b8401935080850394506120dd565b6120d38186868a6000015103613936565b8501945080840393505b6001805463ffffffff8082168601167fffffffffffffffffffffffffffffffffffffffffffffffffffffffff000000009091161790555b505b505b506000886040015173ffffffffffffffffffffffffffffffffffffffff1663dc0192e8604051806080016040528087815260200188600001518152602001868152602001858152508b606001516040518363ffffffff1660e01b8152600401612182929190615108565b606060405180830381865afa15801561219f573d6000803e3d6000fd5b505050506040513d601f19601f820116820180604052508101906121c39190615148565b90507bffffffffffffffffffffffffffffffffffffffffffffffffffffffff801681602001511115612251576040517f08c379a000000000000000000000000000000000000000000000000000000000815260206004820152601c60248201527f506f6f6c4c6f6769633a205354415445315f4f564552464c4f575f4100000000604482015260640161071f565b60408101517bffffffffffffffffffffffffffffffffffffffffffffffffffffffff10156122db576040517f08c379a000000000000000000000000000000000000000000000000000000000815260206004820152601c60248201527f506f6f6c4c6f6769633a205354415445315f4f564552464c4f575f4200000000604482015260640161071f565b6000806122e88684612eeb565b90925090508861237d578482101580156123025750838110155b612368576040517f08c379a000000000000000000000000000000000000000000000000000000000815260206004820152601b60248201527f506f6f6c4c6f6769633a20494e56414c49445f5354415445315f520000000000604482015260640161071f565b865183516123769190614ff6565b8a5261263b565b8251875110156123e9576040517f08c379a000000000000000000000000000000000000000000000000000000000815260206004820152601c60248201527f506f6f6c4c6f6769633a20494e56414c49445f5354415445315f4e5200000000604482015260640161071f565b60006123f48a613a64565b905060108a036124835784821015612468576040517f08c379a000000000000000000000000000000000000000000000000000000000815260206004820152601b60248201527f506f6f6c4c6f6769633a20494e56414c49445f5354415445315f410000000000604482015260640161071f565b61247c816124768589614ff6565b88613936565b8b526125ca565b858310156124ed576040517f08c379a000000000000000000000000000000000000000000000000000000000815260206004820152601c60248201527f506f6f6c4c6f6769633a20494e56414c49445f5354415445315f4e4100000000604482015260640161071f565b60208a036125095761247c816125038488614ff6565b87613936565b84821015612573576040517f08c379a000000000000000000000000000000000000000000000000000000000815260206004820152601c60248201527f506f6f6c4c6f6769633a20494e56414c49445f5354415445315f4e4200000000604482015260640161071f565b600085878a600001516125869190614ff6565b6125909190614ff6565b90506000838587600001516125a59190614ff6565b6125af9190614ff6565b90506125c5836125bf8385614ff6565b84613936565b8d5250505b8a5181036103e81115612639576040517f08c379a000000000000000000000000000000000000000000000000000000000815260206004820152601960248201527f506f6f6c4c6f6769633a204d494e494d554d5f535550504c5900000000000000604482015260640161071f565b505b87612658578251875161264e9190614ff6565b60208b01526128a0565b60308803612733576000848689600001516126739190614ff6565b61267d9190614ff6565b90506000828486600001516126929190614ff6565b61269c9190614ff6565b90506103e881101561270a576040517f08c379a000000000000000000000000000000000000000000000000000000000815260206004820152601c60248201527f506f6f6c4c6f6769633a204d494e494d554d5f524553455256455f4300000000604482015260640161071f565b6127266127168b613a64565b6127208484614ff6565b84613994565b60208d0152506128a09050565b601088036127cd576103e88210156127a7576040517f08c379a000000000000000000000000000000000000000000000000000000000815260206004820152601c60248201527f506f6f6c4c6f6769633a204d494e494d554d5f524553455256455f4100000000604482015260640161071f565b6127c36127b389613a64565b6127bd8785614ff6565b87613994565b60208b015261285b565b6103e8811015612839576040517f08c379a000000000000000000000000000000000000000000000000000000000815260206004820152601c60248201527f506f6f6c4c6f6769633a204d494e494d554d5f524553455256455f4200000000604482015260640161071f565b61285561284589613a64565b61284f8684614ff6565b86613994565b60208b01525b7001000000000000000000000000000000008c6101400151146128a05761289d8a600001517001000000000000000000000000000000008e6101400151613994565b8a525b505060208101516000805463ffffffff9081166401000000007bffffffffffffffffffffffffffffffffffffffffffffffffffffffff948516810291909117909255604090930151600180549094169216021790555094979650505050505050565b600061290f826014614f53565b83511015612979576040517f08c379a000000000000000000000000000000000000000000000000000000000815260206004820152601560248201527f746f416464726573735f6f75744f66426f756e64730000000000000000000000604482015260640161071f565b5001602001516c01000000000000000000000000900490565b6040805173ffffffffffffffffffffffffffffffffffffffff85811660248301528481166044830152606480830185905283518084039091018152608490920183526020820180517bffffffffffffffffffffffffffffffffffffffffffffffffffffffff167f23b872dd000000000000000000000000000000000000000000000000000000001790529151600092839290881691612a319190615184565b6000604051808303816000865af19150503d8060008114612a6e576040519150601f19603f3d011682016040523d82523d6000602084013e612a73565b606091505b5091509150818015612a9d575080511580612a9d575080806020019051810190612a9d91906151a0565b612b29576040517f08c379a000000000000000000000000000000000000000000000000000000000815260206004820152603160248201527f5472616e7366657248656c7065723a3a7472616e7366657246726f6d3a20747260448201527f616e7366657246726f6d206661696c6564000000000000000000000000000000606482015260840161071f565b505050505050565b6000428311612b41575080612bb2565b60e0840151428403908110612b5a576000915050612bb2565b6000818660e00151039050856101000151811015612b8c5785610100015181850281612b8857612b886150c5565b0493505b612bad84876101200151700100000000000000000000000000000000613994565b925050505b9392505050565b6040805173ffffffffffffffffffffffffffffffffffffffff8481166024830152604480830185905283518084039091018152606490920183526020820180517bffffffffffffffffffffffffffffffffffffffffffffffffffffffff167fa9059cbb000000000000000000000000000000000000000000000000000000001790529151600092839290871691612c509190615184565b6000604051808303816000865af19150503d8060008114612c8d576040519150601f19603f3d011682016040523d82523d6000602084013e612c92565b606091505b5091509150818015612cbc575080511580612cbc575080806020019051810190612cbc91906151a0565b612d48576040517f08c379a000000000000000000000000000000000000000000000000000000000815260206004820152602d60248201527f5472616e7366657248656c7065723a3a736166655472616e736665723a20747260448201527f616e73666572206661696c656400000000000000000000000000000000000000606482015260840161071f565b5050505050565b6000818311612d5e5781612bb2565b5090919050565b6040517f70a0823100000000000000000000000000000000000000000000000000000000815230600482015260009073ffffffffffffffffffffffffffffffffffffffff8316906370a08231906024015b602060405180830381865afa158015612dd3573d6000803e3d6000fd5b505050506040513d601f19601f820116820180604052508101906103009190614f0b565b60008073ffffffffffffffffffffffffffffffffffffffff8416612e2757612e1e836111b3565b91509150612eb5565b6040517f7a33e3b00000000000000000000000000000000000000000000000000000000081526004810184905273ffffffffffffffffffffffffffffffffffffffff851690637a33e3b0906024016040805180830381865afa158015612e91573d6000803e3d6000fd5b505050506040513d601f19601f82011682018060405250810190612e1e91906151bb565b9250929050565b6000612bb2612ee1700100000000000000000000000000000000848660800151613994565b8460600151613adf565b600080612f018484602001518560000151613b66565b9150612f3c612f30857fffffffffffffffffffffffffffffffffffffffffffffffffffffffffffffffff6150f4565b60408501518551613b66565b90509250929050565b60008054819081908190612f5f9063ffffffff16426151df565b905063ffffffff811615613026576000612f838263ffffffff168a60a001516138f0565b905068010000000000000000811115613024576000612fac888368010000000000000000613936565b90506000612fc4888468010000000000000000613936565b905060008183612fd48b8d614f53565b612fde9190614ff6565b612fe89190614ff6565b90508c15612ffd57612ffa8d826150f4565b90505b8015613020578c1561301657613013818c614ff6565b9a505b9198509650879087905b5050505b505b60015461303d9063fffffffe9081169042166151df565b905063ffffffff8116156131375760006130618263ffffffff168a60c001516138f0565b9050680100000000000000008111156131355760008688116130965761309161308a8989614ff6565b888b613994565b6130aa565b6130aa6130a3888a614ff6565b898b613994565b90506130c0818368010000000000000000613936565b6130ca9082614ff6565b90508015613133578688111561310b576130ee81886130e98b8d614ff6565b613936565b6130f89088614f53565b96506131048189614ff6565b9750613133565b61311a81896130e98a8d614ff6565b6131249089614f53565b97506131308188614ff6565b96505b505b505b5094979396509194509192505050565b6000818310612d5e5781612bb2565b6040517fbd85b0390000000000000000000000000000000000000000000000000000000081523060a083901b17600482015260009073ffffffffffffffffffffffffffffffffffffffff84169063bd85b03990602401602060405180830381865afa1580156131c9573d6000803e3d6000fd5b505050506040513d601f19601f82011682018060405250810190612bb29190614f0b565b6000808263ffffffff16600003613260576040517f08c379a000000000000000000000000000000000000000000000000000000000815260206004820152600260248201527f4250000000000000000000000000000000000000000000000000000000000000604482015260640161071f565b604080516002808252606082018352600092602083019080368337019050509050838160008151811061329557613295615203565b602002602001019063ffffffff16908163ffffffff16815250506000816001815181106132c4576132c4615203565b602002602001019063ffffffff16908163ffffffff16815250506000808673ffffffffffffffffffffffffffffffffffffffff1663883bdbfd846040518263ffffffff1660e01b815260040161331a9190615232565b600060405180830381865afa158015613337573d6000803e3d6000fd5b505050506040513d6000823e601f3d9081017fffffffffffffffffffffffffffffffffffffffffffffffffffffffffffffffe016820160405261337d91908101906152e0565b9150915060008260008151811061339657613396615203565b6020026020010151836001815181106133b1576133b1615203565b60200260200101516133c391906153a2565b90506000826000815181106133da576133da615203565b6020026020010151836001815181106133f5576133f5615203565b602002602001015161340791906153e7565b905061341963ffffffff891683615414565b965060008260060b12801561343f575061343963ffffffff891683615488565b60060b15155b15613452578661344e816154aa565b9750505b600061347873ffffffffffffffffffffffffffffffffffffffff63ffffffff8b16615507565b90506134a277ffffffffffffffffffffffffffffffffffffffff00000000602084901b168261554a565b96505050505050509250929050565b60008060008360020b126134c8578260020b6134d0565b8260020b6000035b9050620d89e881111561350f576040517f2bc80f3a00000000000000000000000000000000000000000000000000000000815260040160405180910390fd5b60008160011660000361353357700100000000000000000000000000000000613545565b6ffffcb933bd6fad37aa2d162d1a5940015b70ffffffffffffffffffffffffffffffffff1690506002821615613579576ffff97272373d413259a46990580e213a0260801c5b6004821615613598576ffff2e50f5f656932ef12357cf3c7fdcc0260801c5b60088216156135b7576fffe5caca7e10e4e61c3624eaa0941cd00260801c5b60108216156135d6576fffcb9843d60f6159c9db58835c9266440260801c5b60208216156135f5576fff973b41fa98c081472e6896dfb254c00260801c5b6040821615613614576fff2ea16466c96a3843ec78b326b528610260801c5b6080821615613633576ffe5dee046a99a2a811c461f1969c30530260801c5b610100821615613653576ffcbe86c7900a88aedcffc83b479aa3a40260801c5b610200821615613673576ff987a7253ac413176f2b074cf7815e540260801c5b610400821615613693576ff3392b0822b70005940c7a398e4b70f30260801c5b6108008216156136b3576fe7159475a2c29b7443b29c7fa6e889d90260801c5b6110008216156136d3576fd097f3bdfd2022b8845ad8f792aa58250260801c5b6120008216156136f3576fa9f746462d870fdf8a65dc1f90e061e50260801c5b614000821615613713576f70d869a156d2a1b890bb3df62baf32f70260801c5b618000821615613733576f31be135f97d08fd981231505542fcfa60260801c5b62010000821615613754576f09aa508b5b7a84e1c677de54f3e99bc90260801c5b62020000821615613774576e5d6af8dedb81196699c329225ee6040260801c5b62040000821615613793576d2216e584f5fa1ea926041bedfe980260801c5b620800008216156137b0576b048a170391f7dc42444e8fa20260801c5b60008460020b13156137ef57807fffffffffffffffffffffffffffffffffffffffffffffffffffffffffffffffff816137eb576137eb6150c5565b0490505b640100000000810615613803576001613806565b60005b60ff16602082901c0192505050919050565b6000806000806000806138368a600001518b6020015160001c612df7565b915091508082111561384457905b60108714806138535750602088145b1561387b576138658a82945084612ebc565b9550613871868a612eeb565b90955093506138e3565b602087148061388a5750601088145b1561389c576138658a83945084612ebc565b6138a98a83945084612ebc565b95506138b5868a612eeb565b90955093508484118815036138e3576138d18a82945084612ebc565b95506138dd868a612eeb565b90955093505b5050945094509450949050565b60008160000361390a575068010000000000000000610300565b600061392b61391d84604087901b6150f4565b61392690615581565b613bcf565b600f0b949350505050565b6000613943848484613994565b905060008280613955576139556150c5565b8486091115612bb2577fffffffffffffffffffffffffffffffffffffffffffffffffffffffffffffffff811061398a57600080fd5b6001019392505050565b600080807fffffffffffffffffffffffffffffffffffffffffffffffffffffffffffffffff858709858702925082811083820303915050806000036139eb57600084116139e057600080fd5b508290049050612bb2565b8084116139f757600080fd5b6000848688096000868103871696879004966002600389028118808a02820302808a02820302808a02820302808a02820302808a02820302808a02909103029181900381900460010186841190950394909402919094039290920491909117919091029150509392505050565b6040517fbd85b0390000000000000000000000000000000000000000000000000000000081523060a083901b1760048201526000907f000000000000000000000000000000000000000000000000000000000000000073ffffffffffffffffffffffffffffffffffffffff169063bd85b03990602401612db6565b6000808260011611613b0257700100000000000000000000000000000000613b04565b825b9050600182901c91505b811561030057613b308384700100000000000000000000000000000000613994565b92506001821615613b5a57613b578184700100000000000000000000000000000000613994565b90505b600182901c9150613b0e565b6000613b848385700100000000000000000000000000000000613994565b9050600182901c811115612bb2576000613bb484600287901b700100000000000000000000000000000000613994565b90506000613bc3848584613994565b9050612bad8185614ff6565b60006840000000000000000082600f0b12613be957600080fd5b7fffffffffffffffffffffffffffffffffffffffffffffffc0000000000000000082600f0b1215613c1c57506000919050565b6f8000000000000000000000000000000060006780000000000000008416600f0b1315613c5a5770016a09e667f3bcc908b2fb1366ea957d3e0260801c5b60008367400000000000000016600f0b1315613c87577001306fe0a31b7152de8d5a46305c85edec0260801c5b60008367200000000000000016600f0b1315613cb4577001172b83c7d517adcdf7c8c50eb14a791f0260801c5b60008367100000000000000016600f0b1315613ce15770010b5586cf9890f6298b92b71842a983630260801c5b60008367080000000000000016600f0b1315613d0e577001059b0d31585743ae7c548eb68ca417fd0260801c5b60008367040000000000000016600f0b1315613d3b57700102c9a3e778060ee6f7caca4f7a29bde80260801c5b60008367020000000000000016600f0b1315613d685770010163da9fb33356d84a66ae336dcdfa3f0260801c5b60008367010000000000000016600f0b1315613d9557700100b1afa5abcbed6129ab13ec11dc95430260801c5b600083668000000000000016600f0b1315613dc15770010058c86da1c09ea1ff19d294cf2f679b0260801c5b600083664000000000000016600f0b1315613ded577001002c605e2e8cec506d21bfc89a23a00f0260801c5b600083662000000000000016600f0b1315613e1957700100162f3904051fa128bca9c55c31e5df0260801c5b600083661000000000000016600f0b1315613e45577001000b175effdc76ba38e31671ca9397250260801c5b600083660800000000000016600f0b1315613e7157700100058ba01fb9f96d6cacd4b180917c3d0260801c5b600083660400000000000016600f0b1315613e9d5770010002c5cc37da9491d0985c348c68e7b30260801c5b600083660200000000000016600f0b1315613ec9577001000162e525ee054754457d59952920260260801c5b600083660100000000000016600f0b1315613ef55770010000b17255775c040618bf4a4ade83fc0260801c5b6000836580000000000016600f0b1315613f20577001000058b91b5bc9ae2eed81e9b7d4cfab0260801c5b6000836540000000000016600f0b1315613f4b57700100002c5c89d5ec6ca4d7c8acc017b7c90260801c5b6000836520000000000016600f0b1315613f765770010000162e43f4f831060e02d839a9d16d0260801c5b6000836510000000000016600f0b1315613fa157700100000b1721bcfc99d9f890ea069117630260801c5b6000836508000000000016600f0b1315613fcc5770010000058b90cf1e6d97f9ca14dbcc16280260801c5b6000836504000000000016600f0b1315613ff7577001000002c5c863b73f016468f6bac5ca2b0260801c5b6000836502000000000016600f0b131561402257700100000162e430e5a18f6119e3c02282a50260801c5b6000836501000000000016600f0b131561404d577001000000b1721835514b86e6d96efd1bfe0260801c5b60008364800000000016600f0b131561407757700100000058b90c0b48c6be5df846c5b2ef0260801c5b60008364400000000016600f0b13156140a15770010000002c5c8601cc6b9e94213c72737a0260801c5b60008364200000000016600f0b13156140cb577001000000162e42fff037df38aa2b219f060260801c5b60008364100000000016600f0b13156140f55770010000000b17217fba9c739aa5819f44f90260801c5b60008364080000000016600f0b131561411f577001000000058b90bfcdee5acd3c1cedc8230260801c5b60008364040000000016600f0b131561414957700100000002c5c85fe31f35a6a30da1be500260801c5b60008364020000000016600f0b13156141735770010000000162e42ff0999ce3541b9fffcf0260801c5b60008364010000000016600f0b131561419d57700100000000b17217f80f4ef5aadda455540260801c5b600083638000000016600f0b13156141c65770010000000058b90bfbf8479bd5a81b51ad0260801c5b600083634000000016600f0b13156141ef577001000000002c5c85fdf84bd62ae30a74cc0260801c5b600083632000000016600f0b131561421857700100000000162e42fefb2fed257559bdaa0260801c5b600083631000000016600f0b1315614241577001000000000b17217f7d5a7716bba4a9ae0260801c5b600083630800000016600f0b131561426a57700100000000058b90bfbe9ddbac5e109cce0260801c5b600083630400000016600f0b13156142935770010000000002c5c85fdf4b15de6f17eb0d0260801c5b600083630200000016600f0b13156142bc577001000000000162e42fefa494f1478fde050260801c5b600083630100000016600f0b13156142e55770010000000000b17217f7d20cf927c8e94c0260801c5b6000836280000016600f0b131561430d577001000000000058b90bfbe8f71cb4e4b33d0260801c5b6000836240000016600f0b131561433557700100000000002c5c85fdf477b662b269450260801c5b6000836220000016600f0b131561435d5770010000000000162e42fefa3ae53369388c0260801c5b6000836210000016600f0b131561438557700100000000000b17217f7d1d351a389d400260801c5b6000836208000016600f0b13156143ad5770010000000000058b90bfbe8e8b2d3d4ede0260801c5b6000836204000016600f0b13156143d5577001000000000002c5c85fdf4741bea6e77e0260801c5b6000836202000016600f0b13156143fd57700100000000000162e42fefa39fe95583c20260801c5b6000836201000016600f0b1315614425577001000000000000b17217f7d1cfb72b45e10260801c5b60008361800016600f0b131561444c57700100000000000058b90bfbe8e7cc35c3f00260801c5b60008361400016600f0b13156144735770010000000000002c5c85fdf473e242ea380260801c5b60008361200016600f0b131561449a577001000000000000162e42fefa39f02b772c0260801c5b60008361100016600f0b13156144c15770010000000000000b17217f7d1cf7d83c1a0260801c5b60008361080016600f0b13156144e8577001000000000000058b90bfbe8e7bdcbe2e0260801c5b60008361040016600f0b131561450f57700100000000000002c5c85fdf473dea871f0260801c5b60008361020016600f0b13156145365770010000000000000162e42fefa39ef44d910260801c5b60008361010016600f0b131561455d57700100000000000000b17217f7d1cf79e9490260801c5b600083608016600f0b13156145835770010000000000000058b90bfbe8e7bce5440260801c5b600083604016600f0b13156145a9577001000000000000002c5c85fdf473de6eca0260801c5b600083602016600f0b13156145cf57700100000000000000162e42fefa39ef366f0260801c5b600083601016600f0b13156145f5577001000000000000000b17217f7d1cf79afa0260801c5b600083600816600f0b131561461b57700100000000000000058b90bfbe8e7bcd6d0260801c5b600083600416600f0b13156146415770010000000000000002c5c85fdf473de6b20260801c5b600083600216600f0b1315614667577001000000000000000162e42fefa39ef3580260801c5b600083600116600f0b131561468d5770010000000000000000b17217f7d1cf79ab0260801c5b600f83810b60401d603f03900b1c6f7fffffffffffffffffffffffffffffff81111561030057600080fd5b604051806101400160405280614750604051806101600160405280600073ffffffffffffffffffffffffffffffffffffffff16815260200160008019168152602001600073ffffffffffffffffffffffffffffffffffffffff16815260200160008152602001600081526020016000815260200160008152602001600081526020016000815260200160008152602001600081525090565b815260200161477960405180606001604052806000815260200160008152602001600081525090565b815260200160008152602001600081526020016000815260200160008152602001600081526020016000815260200160008152602001600081525090565b6000602082840312156147c957600080fd5b81357fffffffff0000000000000000000000000000000000000000000000000000000081168114612bb257600080fd5b805173ffffffffffffffffffffffffffffffffffffffff168252602081015160208301526040810151614844604084018273ffffffffffffffffffffffffffffffffffffffff169052565b50606081810151908301526080808201519083015260a0808201519083015260c0808201519083015260e080820151908301526101008082015190830152610120808201519083015261014090810151910152565b610160810161030082846147f9565b7f4e487b7100000000000000000000000000000000000000000000000000000000600052604160045260246000fd5b6040516060810167ffffffffffffffff811182821017156148fa576148fa6148a8565b60405290565b6040516080810167ffffffffffffffff811182821017156148fa576148fa6148a8565b604051610160810167ffffffffffffffff811182821017156148fa576148fa6148a8565b604051601f82017fffffffffffffffffffffffffffffffffffffffffffffffffffffffffffffffe016810167ffffffffffffffff8111828210171561498e5761498e6148a8565b604052919050565b73ffffffffffffffffffffffffffffffffffffffff81168114611c6b57600080fd5b600082601f8301126149c957600080fd5b813567ffffffffffffffff8111156149e3576149e36148a8565b614a1460207fffffffffffffffffffffffffffffffffffffffffffffffffffffffffffffffe0601f84011601614947565b818152846020838601011115614a2957600080fd5b816020850160208301376000918101602001919091529392505050565b600060608284031215614a5857600080fd5b614a606148d7565b90508135614a6d81614996565b8152602082013567ffffffffffffffff811115614a8957600080fd5b614a95848285016149b8565b6020830152506040820135614aa981614996565b604082015292915050565b60008060408385031215614ac757600080fd5b823567ffffffffffffffff80821115614adf57600080fd5b9084019060808287031215614af357600080fd5b614afb614900565b82358152602083013560208201526040830135614b1781614996565b6040820152606083013582811115614b2e57600080fd5b614b3a888286016149b8565b60608301525093506020850135915080821115614b5657600080fd5b50614b6385828601614a46565b9150509250929050565b60008060408385031215614b8057600080fd5b8235614b8b81614996565b946020939093013593505050565b60006102c082019050614bad8284516147f9565b6020838101518051610160850152908101516101808401526040908101516101a08401528301516101c083015260608301516101e0830152608083015161020083015260a083015161022083015260c083015161024083015260e0830151610260830152610100830151610280830152610120909201516102a09091015290565b600060208284031215614c4057600080fd5b5035919050565b600067ffffffffffffffff821115614c6157614c616148a8565b5060051b60200190565b600082601f830112614c7c57600080fd5b81356020614c91614c8c83614c47565b614947565b82815260059290921b84018101918181019086841115614cb057600080fd5b8286015b84811015614ccb5780358352918301918301614cb4565b509695505050505050565b600080600080600060a08688031215614cee57600080fd5b8535614cf981614996565b94506020860135614d0981614996565b9350604086013567ffffffffffffffff80821115614d2657600080fd5b614d3289838a01614c6b565b94506060880135915080821115614d4857600080fd5b614d5489838a01614c6b565b93506080880135915080821115614d6a57600080fd5b50614d77888289016149b8565b9150509295509295909350565b6000808284036080811215614d9857600080fd5b6060811215614da657600080fd5b50614daf6148d7565b83358152602084013560208201526040840135604082015280925050606083013567ffffffffffffffff811115614de557600080fd5b614b6385828601614a46565b600080600080600060a08688031215614e0957600080fd5b8535614e1481614996565b94506020860135614e2481614996565b93506040860135925060608601359150608086013567ffffffffffffffff811115614e4e57600080fd5b614d77888289016149b8565b8051614e6581614996565b919050565b60006101608284031215614e7d57600080fd5b614e85614923565b614e8e83614e5a565b815260208301516020820152614ea660408401614e5a565b6040820152606083015160608201526080830151608082015260a083015160a082015260c083015160c082015260e083015160e08201526101008084015181830152506101208084015181830152506101408084015181830152508091505092915050565b600060208284031215614f1d57600080fd5b5051919050565b7f4e487b7100000000000000000000000000000000000000000000000000000000600052601160045260246000fd5b8082018082111561030057610300614f24565b60005b83811015614f81578181015183820152602001614f69565b50506000910152565b60008151808452614fa2816020860160208601614f66565b601f017fffffffffffffffffffffffffffffffffffffffffffffffffffffffffffffffe0169290920160200192915050565b604081526000614fe76040830185614f8a565b90508260208301529392505050565b8181038181111561030057610300614f24565b805161ffff81168114614e6557600080fd5b80518015158114614e6557600080fd5b600080600080600080600060e0888a03121561504657600080fd5b875161505181614996565b8097505060208801518060020b811461506957600080fd5b955061507760408901615009565b945061508560608901615009565b935061509360808901615009565b925060a088015160ff811681146150a957600080fd5b91506150b760c0890161501b565b905092959891949750929550565b7f4e487b7100000000000000000000000000000000000000000000000000000000600052601260045260246000fd5b600082615103576151036150c5565b500490565b8251815260208301516020820152604083015160408201526060830151606082015260a06080820152600061514060a0830184614f8a565b949350505050565b60006060828403121561515a57600080fd5b6151626148d7565b8251815260208301516020820152604083015160408201528091505092915050565b60008251615196818460208701614f66565b9190910192915050565b6000602082840312156151b257600080fd5b612bb28261501b565b600080604083850312156151ce57600080fd5b505080516020909101519092909150565b63ffffffff8281168282160390808211156151fc576151fc614f24565b5092915050565b7f4e487b7100000000000000000000000000000000000000000000000000000000600052603260045260246000fd5b6020808252825182820181905260009190848201906040850190845b8181101561527057835163ffffffff168352928401929184019160010161524e565b50909695505050505050565b600082601f83011261528d57600080fd5b8151602061529d614c8c83614c47565b82815260059290921b840181019181810190868411156152bc57600080fd5b8286015b84811015614ccb5780516152d381614996565b83529183019183016152c0565b600080604083850312156152f357600080fd5b825167ffffffffffffffff8082111561530b57600080fd5b818501915085601f83011261531f57600080fd5b8151602061532f614c8c83614c47565b82815260059290921b8401810191818101908984111561534e57600080fd5b948201945b8386101561537c5785518060060b811461536d5760008081fd5b82529482019490820190615353565b9188015191965090935050508082111561539557600080fd5b50614b638582860161527c565b600682810b9082900b037fffffffffffffffffffffffffffffffffffffffffffffffffff800000000000008112667fffffffffffff8213171561030057610300614f24565b73ffffffffffffffffffffffffffffffffffffffff8281168282160390808211156151fc576151fc614f24565b60008160060b8360060b8061542b5761542b6150c5565b7fffffffffffffffffffffffffffffffffffffffffffffffffffffffffffffffff81147fffffffffffffffffffffffffffffffffffffffffffffffffff800000000000008314161561547f5761547f614f24565b90059392505050565b60008260060b8061549b5761549b6150c5565b808360060b0791505092915050565b60008160020b7fffffffffffffffffffffffffffffffffffffffffffffffffffffffffff80000081036154df576154df614f24565b7fffffffffffffffffffffffffffffffffffffffffffffffffffffffffffffffff0192915050565b77ffffffffffffffffffffffffffffffffffffffffffffffff82811682821681810283169291811582850482141761554157615541614f24565b50505092915050565b600077ffffffffffffffffffffffffffffffffffffffffffffffff80841680615575576155756150c5565b92169190910492915050565b600081600f0b7fffffffffffffffffffffffffffffffff8000000000000000000000000000000081036155b6576155b6614f24565b6000039291505056fea26469706673582212204138755fdc906563e041529262d1ea864a2ad469f13df8b892703e3e22d9ce9864736f6c63430008140033",
    "linkReferences": {},
    "deployedLinkReferences": {}
}