{
  "_format": "hh-sol-artifact-1",
  "contractName": "FetcherV2Mock",
  "sourceName": "contracts/support/FetcherV2Mock.sol",
  "abi": [
    {
      "anonymous": false,
      "inputs": [
        {
          "indexed": true,
          "internalType": "bytes32",
          "name": "ORACLE",
          "type": "bytes32"
        },
        {
          "indexed": false,
          "internalType": "uint256",
          "name": "proofBlock",
          "type": "uint256"
        },
        {
          "indexed": false,
          "internalType": "uint256",
          "name": "dataTime",
          "type": "uint256"
        },
        {
          "indexed": false,
          "internalType": "uint256",
          "name": "basePriceCumulative",
          "type": "uint256"
        }
      ],
      "name": "Submit",
      "type": "event"
    },
    {
      "inputs": [
        {
          "internalType": "uint256",
          "name": "ORACLE",
          "type": "uint256"
        }
      ],
      "name": "clear",
      "outputs": [],
      "stateMutability": "nonpayable",
      "type": "function"
    },
    {
      "inputs": [
        {
          "internalType": "uint256",
          "name": "ORACLE",
          "type": "uint256"
        }
      ],
      "name": "ensureStateIntegrity",
      "outputs": [],
      "stateMutability": "view",
      "type": "function"
    },
    {
      "inputs": [
        {
          "internalType": "uint256",
          "name": "ORACLE",
          "type": "uint256"
        }
      ],
      "name": "fetch",
      "outputs": [
        {
          "internalType": "uint256",
          "name": "twap",
          "type": "uint256"
        },
        {
          "internalType": "uint256",
          "name": "spot",
          "type": "uint256"
        }
      ],
      "stateMutability": "view",
      "type": "function"
    },
    {
      "inputs": [
        {
          "internalType": "uint256",
          "name": "ORACLE",
          "type": "uint256"
        },
        {
          "components": [
            {
              "internalType": "bytes",
              "name": "block",
              "type": "bytes"
            },
            {
              "internalType": "bytes",
              "name": "accountProofNodesRlp",
              "type": "bytes"
            },
            {
              "internalType": "bytes",
              "name": "reserveAndTimestampProofNodesRlp",
              "type": "bytes"
            },
            {
              "internalType": "bytes",
              "name": "priceAccumulatorProofNodesRlp",
              "type": "bytes"
            }
          ],
          "internalType": "struct FetcherV2.ProofData",
          "name": "proofData",
          "type": "tuple"
        }
      ],
      "name": "submit",
      "outputs": [],
      "stateMutability": "nonpayable",
      "type": "function"
    },
    {
      "inputs": [
        {
          "internalType": "uint256",
          "name": "ORACLE",
          "type": "uint256"
        },
        {
          "internalType": "uint256",
          "name": "basePriceCumulative",
          "type": "uint256"
        },
        {
          "internalType": "uint256",
          "name": "proofBlock",
          "type": "uint256"
        },
        {
          "internalType": "uint256",
          "name": "dataTime",
          "type": "uint256"
        }
      ],
      "name": "submitPrice",
      "outputs": [],
      "stateMutability": "nonpayable",
      "type": "function"
    }
  ],
  "bytecode": "0x608060405234801561001057600080fd5b5061267d806100206000396000f3fe608060405234801561001057600080fd5b50600436106100675760003560e01c8063c0fe1af811610050578063c0fe1af8146100ad578063dc9609be146100c0578063e2c1ba1c146100d357600080fd5b8063209ae6a81461006c5780637a33e3b014610081575b600080fd5b61007f61007a366004612194565b6100e6565b005b61009461008f366004612194565b610167565b6040805192835260208301919091520160405180910390f35b61007f6100bb366004612194565b61043b565b61007f6100ce3660046121ad565b61047e565b61007f6100e13660046121df565b61071f565b60008181526020819052604090205460ff1615610164576040517f08c379a000000000000000000000000000000000000000000000000000000000815260206004820152601a60248201527f4665746368657256323a2053544154455f494e5445475249545900000000000060448201526064015b60405180910390fd5b50565b600081815260208190526040812054819060c084901c90610100900467ffffffffffffffff164361019e63ffffffff84168361225c565b1015610206576040517f08c379a000000000000000000000000000000000000000000000000000000000815260206004820152600360248201527f4f4c440000000000000000000000000000000000000000000000000000000000604482015260640161015b565b4361021b637fffffff600185901c168361225c565b1115610283576040517f08c379a000000000000000000000000000000000000000000000000000000000815260206004820152600360248201527f4e45570000000000000000000000000000000000000000000000000000000000604482015260640161015b565b8460ff81901c6000806102968484610bdc565b60008b81526020819052604090205491935063ffffffff169150690100000000000000000090046fffffffffffffffffffffffffffffffff16818110610338576040517f08c379a000000000000000000000000000000000000000000000000000000000815260206004820152600360248201527f4e4f570000000000000000000000000000000000000000000000000000000000604482015260640161015b565b6010610344828461226f565b60008c815260208190526040902060010154610360908661226f565b61036a91906122b1565b901b98506000808673ffffffffffffffffffffffffffffffffffffffff16630902f1ac6040518163ffffffff1660e01b8152600401606060405180830381865afa1580156103bc573d6000803e3d6000fd5b505050506040513d601f19601f820116820180604052508101906103e091906122e3565b506dffffffffffffffffffffffffffff1691506dffffffffffffffffffffffffffff1691508560000361040f57905b61042b7001000000000000000000000000000000008284610e1f565b9950505050505050505050915091565b610444816100e6565b600090815260208190526040812080547fffffffffffffff0000000000000000000000000000000000000000000000000016815560010155565b60c084901c61049363ffffffff82164361226f565b8310156104fc576040517f08c379a000000000000000000000000000000000000000000000000000000000815260206004820152600960248201527f4f4c445f50524f4f460000000000000000000000000000000000000000000000604482015260640161015b565b610510637fffffff600183901c164361226f565b831115610579576040517f08c379a000000000000000000000000000000000000000000000000000000000815260206004820152600960248201527f4e45575f50524f4f460000000000000000000000000000000000000000000000604482015260640161015b565b600085815260208190526040902080547fffffffffffffffffffffffffffffffffffffffffffffff0000000000000000ff1661010067ffffffffffffffff8616021790819055690100000000000000000090046fffffffffffffffffffffffffffffffff16821015610647576040517f08c379a000000000000000000000000000000000000000000000000000000000815260206004820152600860248201527f4f4c445f44415441000000000000000000000000000000000000000000000000604482015260640161015b565b600085815260208190526040902080547fffffffffffffff00000000000000000000000000000000ffffffffffffffffff1669010000000000000000006fffffffffffffffffffffffffffffffff851602178155600101548411610707576040517f08c379a000000000000000000000000000000000000000000000000000000000815260206004820152600d60248201527f494e56414c49445f505249434500000000000000000000000000000000000000604482015260640161015b565b50505060009182526020829052604090912060010155565b81610729816100e6565b600081815260208190526040812080547fffffffffffffffffffffffffffffffffffffffffffffffffffffffffffffff001660011790558061076b8585610fb6565b909250905060c085901c61078563ffffffff82164361226f565b8210156107ee576040517f08c379a000000000000000000000000000000000000000000000000000000000815260206004820152600960248201527f4f4c445f50524f4f460000000000000000000000000000000000000000000000604482015260640161015b565b610802637fffffff600183901c164361226f565b82111561086b576040517f08c379a000000000000000000000000000000000000000000000000000000000815260206004820152600960248201527f4e45575f50524f4f460000000000000000000000000000000000000000000000604482015260640161015b565b5060008581526020818152604080832080547fffffffffffffffffffffffffffffffffffffffffffffff0000000000000000ff1661010067ffffffffffffffff87160217905580516008928101929092526109749161096f916109429187916108eb91015b60405160208183030381529060405280519060200120611133565b61093d6109386108fe60408d018d612333565b8080601f01602080910402602001604051908101604052809392919081815260200183838082843760009201919091525061094292505050565b611168565b61127e565b60408051808201825260008082526020918201528151808301909252825182529182019181019190915290565b6116a5565b60008781526020819052604090205490915060e082901c90690100000000000000000090046fffffffffffffffffffffffffffffffff1681811115610a15576040517f08c379a000000000000000000000000000000000000000000000000000000000815260206004820152600860248201527f4f4c445f44415441000000000000000000000000000000000000000000000000604482015260640161015b565b808203610a69576040805185815260006020820181905281830152905189917fb0e292d4b4fe2ac9a9a5725b633044a008f2f62f8fcaaf711b7abfc4b4b93a7e919081900360600190a25050505050610ba4565b50600087815260208190526040812080547fffffffffffffff00000000000000000000000000000000ffffffffffffffffff1669010000000000000000006fffffffffffffffffffffffffffffffff85160217905560ff88901c9060018214610af35760408051600a60208201520160405160208183030381529060405280519060200120610b16565b604080516009602082015201604051602081830303815290604052805190602001205b90506000610b4361096f61094289610b2d86611133565b61093d6109388f80606001906108fe9190612333565b60008b8152602081815260409182902060010183905581518981529081018790529081018290529091508a907fb0e292d4b4fe2ac9a9a5725b633044a008f2f62f8fcaaf711b7abfc4b4b93a7e9060600160405180910390a2505050505050505b600090815260208190526040902080547fffffffffffffffffffffffffffffffffffffffffffffffffffffffffffffff001690555050565b600080610be76116f3565b905082600114610c65578373ffffffffffffffffffffffffffffffffffffffff16635a3d54936040518163ffffffff1660e01b8152600401602060405180830381865afa158015610c3c573d6000803e3d6000fd5b505050506040513d601f19601f82011682018060405250810190610c609190612398565b610cd4565b8373ffffffffffffffffffffffffffffffffffffffff16635909c0d56040518163ffffffff1660e01b8152600401602060405180830381865afa158015610cb0573d6000803e3d6000fd5b505050506040513d601f19601f82011682018060405250810190610cd49190612398565b915060008060008673ffffffffffffffffffffffffffffffffffffffff16630902f1ac6040518163ffffffff1660e01b8152600401606060405180830381865afa158015610d26573d6000803e3d6000fd5b505050506040513d601f19601f82011682018060405250810190610d4a91906122e3565b9250925092508363ffffffff168163ffffffff1614610e15576000610d6f82866123b1565b9050600087600114610dba57610db56e010000000000000000000000000000866dffffffffffffffffffffffffffff16866dffffffffffffffffffffffffffff16610e1f565b610df4565b610df46e010000000000000000000000000000856dffffffffffffffffffffffffffff16876dffffffffffffffffffffffffffff16610e1f565b9050610e0663ffffffff8316826123ce565b610e10908861225c565b965050505b5050509250929050565b600080807fffffffffffffffffffffffffffffffffffffffffffffffffffffffffffffffff85870985870292508281108382030391505080600003610e765760008411610e6b57600080fd5b508290049050610faf565b808411610e8257600080fd5b600084868809808403938111909203919050600085610ea1818361226f565b16958690049593849004936000819003046001019050610ec181846123ce565b909317926000610ed28760036123ce565b6002189050610ee181886123ce565b610eec90600261226f565b610ef690826123ce565b9050610f0281886123ce565b610f0d90600261226f565b610f1790826123ce565b9050610f2381886123ce565b610f2e90600261226f565b610f3890826123ce565b9050610f4481886123ce565b610f4f90600261226f565b610f5990826123ce565b9050610f6581886123ce565b610f7090600261226f565b610f7a90826123ce565b9050610f8681886123ce565b610f9190600261226f565b610f9b90826123ce565b9050610fa781866123ce565b955050505050505b9392505050565b60008080611001610fc78580612333565b8080601f01602080910402602001604051908101604052809392919081815260200183838082843760009201919091525061170992505050565b9350909150508140600003611072576040517f08c379a000000000000000000000000000000000000000000000000000000000815260206004820152600d60248201527f626c6f636b68617368203d203000000000000000000000000000000000000000604482015260640161015b565b6040517fffffffffffffffffffffffffffffffffffffffff000000000000000000000000606087901b1660208201526000906110c99083906110b6906034016108d0565b61093d6109386108fe60208b018b612333565b905060006111016109388360408051808201825260008082526020918201528151808301909252825182529182019181019190915290565b905061112681600281518110611119576111196123e5565b60200260200101516116a5565b94505050505b9250929050565b60408051602180825260608281019093526020820181803683370190505090508160218201526111628161183f565b92915050565b606061117382611a26565b61117c57600080fd5b600061118783611a61565b905060008167ffffffffffffffff8111156111a4576111a4612414565b6040519080825280602002602001820160405280156111e957816020015b60408051808201909152600080825260208201528152602001906001900390816111c25790505b50905060006111fb8560200151611ae6565b856020015161120a919061225c565b90506000805b848110156112735761122183611b61565b915060405180604001604052808381526020018481525084828151811061124a5761124a6123e5565b602090810291909101015261125f828461225c565b92508061126b81612443565b915050611210565b509195945050505050565b606060008060606112a2604051806040016040528060008152602001600081525090565b85516000036112f2577f56e81f171bcc55a6ff8345e692c0f86e5b48e01b996cadc001622fb5e363b42188146112d757600080fd5b50506040805160008152602081019091529250610faf915050565b60005b86518110156116995780158015611334575061133087828151811061131c5761131c6123e5565b602002602001015160208101519051902090565b8914155b1561133e57600080fd5b801580159061136e575061136a87828151811061135d5761135d6123e5565b6020026020010151611c0a565b8414155b1561137857600080fd5b61139a87828151811061138d5761138d6123e5565b6020026020010151611168565b9250825160020361154457600060606113d46113cf866000815181106113c2576113c26123e5565b6020026020010151611c64565b611ce2565b909250905060006113e6888c84611d7d565b90506113f2818961225c565b975081518110156114545760018a5161140b919061226f565b84101561141757600080fd5b60005b6040519080825280601f01601f191660200182016040528015611444576020820181803683370190505b5098505050505050505050610faf565b82156114b95760018a51611468919061226f565b84101561147457600080fd5b8a5188101561148457600061141a565b85600181518110611497576114976123e5565b602002602001015194506114aa85611c64565b98505050505050505050610faf565b60018a516114c7919061226f565b84036114d257600080fd5b6114f5866001815181106114e8576114e86123e5565b6020026020010151611a26565b6115235761151c8660018151811061150f5761150f6123e5565b6020026020010151611e38565b965061153c565b6115398660018151811061131c5761131c6123e5565b96505b505050611687565b8251601103611687578751851461164c576000888681518110611569576115696123e5565b016020015160f81c905061157e60018761225c565b955060108160ff161061159057600080fd5b6115b5848260ff16815181106115a8576115a86123e5565b6020026020010151611e50565b156115f057600188516115c8919061226f565b82146115d357600080fd5b50506040805160008152602081019091529450610faf9350505050565b611608848260ff16815181106114e8576114e86123e5565b61162b57611624848260ff168151811061150f5761150f6123e5565b9450611646565b611643848260ff168151811061131c5761131c6123e5565b94505b50611687565b6001875161165a919061226f565b811461166557600080fd5b61167b836010815181106113c2576113c26123e5565b95505050505050610faf565b8061169181612443565b9150506112f5565b50505050509392505050565b8051600090158015906116ba57508151602110155b6116c357600080fd5b6000806116cf84611e73565b8151919350915060208210156116eb5760208290036101000a90045b949350505050565b60006117046401000000004261247b565b905090565b600080600061178c565b7f08c379a0000000000000000000000000000000000000000000000000000000006000526020600452816024528060445250806044016000fd5b600080825160001a608081106001811461176c57801561177857611785565b84935060019250611785565b6001850193506080820392505b5050915091565b83516020850194607b8101906101e0016117a58161174d565b0190506117b18161174d565b91508181016117bf8161174d565b0190506117cb8161174d565b0190506117d78161174d565b9150825160088502610100031c965086409350858a2095508584146118215761182160147f626c6f636b4861736820213d20726c7048617368000000000000000000000000611713565b84519850805160088302610100031c97505050505050509193909250565b60608082516000036118515792915050565b60008061185f600086611eba565b60f81c9050600181148061187657508060ff166003145b156119365760018551600261188b91906123ce565b611895919061226f565b67ffffffffffffffff8111156118ad576118ad612414565b6040519080825280601f01601f1916602001820160405280156118d7576020820181803683370190505b50925060006118e7600187611eba565b905080846000815181106118fd576118fd6123e5565b60200101907effffffffffffffffffffffffffffffffffffffffffffffffffffffffffffff1916908160001a905350600192505061199a565b60028551600261194691906123ce565b611950919061226f565b67ffffffffffffffff81111561196857611968612414565b6040519080825280601f01601f191660200182016040528015611992576020820181803683370190505b509250600091505b60ff82165b8351811015611a1c576119c96119b860ff85168361226f565b6119c390600261225c565b87611eba565b8482815181106119db576119db6123e5565b60200101907effffffffffffffffffffffffffffffffffffffffffffffffffffffffffffff1916908160001a90535080611a1481612443565b91505061199f565b5091949350505050565b80516000908103611a3957506000919050565b6020820151805160001a9060c0821015611a57575060009392505050565b5060019392505050565b80516000908103611a7457506000919050565b600080611a848460200151611ae6565b8460200151611a93919061225c565b9050600084600001518560200151611aab919061225c565b90505b80821015611add57611abf82611b61565b611ac9908361225c565b915082611ad581612443565b935050611aae565b50909392505050565b8051600090811a6080811015611aff5750600092915050565b60b8811080611b1a575060c08110801590611b1a575060f881105b15611b285750600192915050565b60c0811015611b5557611b3d600160b861248f565b611b4a9060ff168261226f565b610faf90600161225c565b611b3d600160f861248f565b80516000908190811a6080811015611b7c5760019150611c03565b60b8811015611ba257611b9060808261226f565b611b9b90600161225c565b9150611c03565b60c0811015611bcf5760b78103600185019450806020036101000a85510460018201810193505050611c03565b60f8811015611be357611b9060c08261226f565b60f78103600185019450806020036101000a855104600182018101935050505b5092915050565b6000602082600001511015611c2757602082015182519020611162565b602082015182519020604051602001611c4291815260200190565b604051602081830303815290604052805190602001209050919050565b919050565b8051606090611c7257600080fd5b600080611c7e84611e73565b9150915060008167ffffffffffffffff811115611c9d57611c9d612414565b6040519080825280601f01601f191660200182016040528015611cc7576020820181803683370190505b50905060208101611cd9848285611f3b565b50949350505050565b600060606000835111611cf457600080fd5b6000600484600081518110611d0b57611d0b6123e5565b60209101015160f81c901c600f1690506000818103611d305750600092506002611d67565b81600103611d445750600092506001611d67565b81600203611d585750600192506002611d67565b81600303610067575060019250825b83611d728683611fbe565b935093505050915091565b6000805b8351611d8d868361225c565b108015611d9a5750825181105b156116eb57828181518110611db157611db16123e5565b01602001517fff000000000000000000000000000000000000000000000000000000000000001684611de3878461225c565b81518110611df357611df36123e5565b01602001517fff000000000000000000000000000000000000000000000000000000000000001614611e26579050610faf565b80611e3081612443565b915050611d81565b6000806000611e4684611e73565b9020949350505050565b8051600090600114611e6457506000919050565b50602001515160001a60801490565b6000806000611e858460200151611ae6565b90506000818560200151611e99919061225c565b90506000828660000151611ead919061226f565b9196919550909350505050565b6000611ec760028461247b565b15611f0157601082611eda6002866122b1565b81518110611eea57611eea6123e5565b0160200151611efc919060f81c6124a8565b611f31565b601082611f0f6002866122b1565b81518110611f1f57611f1f6123e5565b0160200151611f31919060f81c6124ca565b60f81b9392505050565b80600003611f4857505050565b60208110611f805782518252611f5f60208461225c565b9250611f6c60208361225c565b9150611f7960208261226f565b9050611f48565b8015611fb95760006001611f9583602061226f565b611fa19061010061260c565b611fab919061226f565b845184518216911916178352505b505050565b60606000835111611fce57600080fd5b600083516002611fde91906123ce565b905080831115611fed57600080fd5b611ff7838261226f565b90508067ffffffffffffffff81111561201257612012612414565b6040519080825280601f01601f19166020018201604052801561203c576020820181803683370190505b5091506000835b61204d838661225c565b81101561217b5761205f60028261247b565b6000036120e3576004866120746002846122b1565b81518110612084576120846123e5565b602001015160f81c60f81b60f81c60ff16901c600f1660f81b8483815181106120af576120af6123e5565b60200101907effffffffffffffffffffffffffffffffffffffffffffffffffffffffffffff1916908160001a90535061215c565b6000866120f16002846122b1565b81518110612101576121016123e5565b602001015160f81c60f81b60f81c60ff16901c600f1660f81b84838151811061212c5761212c6123e5565b60200101907effffffffffffffffffffffffffffffffffffffffffffffffffffffffffffff1916908160001a9053505b61216760018361225c565b915061217460018261225c565b9050612043565b508251811461218c5761218c612618565b505092915050565b6000602082840312156121a657600080fd5b5035919050565b600080600080608085870312156121c357600080fd5b5050823594602084013594506040840135936060013592509050565b600080604083850312156121f257600080fd5b82359150602083013567ffffffffffffffff81111561221057600080fd5b83016080818603121561222257600080fd5b809150509250929050565b7f4e487b7100000000000000000000000000000000000000000000000000000000600052601160045260246000fd5b808201808211156111625761116261222d565b818103818111156111625761116261222d565b7f4e487b7100000000000000000000000000000000000000000000000000000000600052601260045260246000fd5b6000826122c0576122c0612282565b500490565b80516dffffffffffffffffffffffffffff81168114611c5f57600080fd5b6000806000606084860312156122f857600080fd5b612301846122c5565b925061230f602085016122c5565b9150604084015163ffffffff8116811461232857600080fd5b809150509250925092565b60008083357fffffffffffffffffffffffffffffffffffffffffffffffffffffffffffffffe184360301811261236857600080fd5b83018035915067ffffffffffffffff82111561238357600080fd5b60200191503681900382131561112c57600080fd5b6000602082840312156123aa57600080fd5b5051919050565b63ffffffff828116828216039080821115611c0357611c0361222d565b80820281158282048414176111625761116261222d565b7f4e487b7100000000000000000000000000000000000000000000000000000000600052603260045260246000fd5b7f4e487b7100000000000000000000000000000000000000000000000000000000600052604160045260246000fd5b60007fffffffffffffffffffffffffffffffffffffffffffffffffffffffffffffffff82036124745761247461222d565b5060010190565b60008261248a5761248a612282565b500690565b60ff82811682821603908111156111625761116261222d565b600060ff8316806124bb576124bb612282565b8060ff84160691505092915050565b600060ff8316806124dd576124dd612282565b8060ff84160491505092915050565b600181815b8085111561254557817fffffffffffffffffffffffffffffffffffffffffffffffffffffffffffffffff0482111561252b5761252b61222d565b8085161561253857918102915b93841c93908002906124f1565b509250929050565b60008261255c57506001611162565b8161256957506000611162565b816001811461257f5760028114612589576125a5565b6001915050611162565b60ff84111561259a5761259a61222d565b50506001821b611162565b5060208310610133831016604e8410600b84101617156125c8575081810a611162565b6125d283836124ec565b807fffffffffffffffffffffffffffffffffffffffffffffffffffffffffffffffff048211156126045761260461222d565b029392505050565b6000610faf838361254d565b7f4e487b7100000000000000000000000000000000000000000000000000000000600052600160045260246000fdfea2646970667358221220fc1dcc01ae2e3b8ea81dd01c86d671a88da1af197285cd6b7c9e9fd4e18022a864736f6c63430008140033",
  "linkReferences": {},
  "deployedLinkReferences": {}
}