{
  "_format": "hh-sol-artifact-1",
  "contractName": "FetcherV2Mock",
  "sourceName": "contracts/support/FetcherV2Mock.sol",
  "abi": [
    {
      "inputs": [
        {
          "internalType": "uint256",
          "name": "ORACLE",
          "type": "uint256"
        }
      ],
      "name": "fetch",
      "outputs": [
        {
          "internalType": "uint256",
          "name": "twap",
          "type": "uint256"
        },
        {
          "internalType": "uint256",
          "name": "spot",
          "type": "uint256"
        }
      ],
      "stateMutability": "nonpayable",
      "type": "function"
    },
    {
      "inputs": [
        {
          "internalType": "uint256",
          "name": "ORACLE",
          "type": "uint256"
        },
        {
          "components": [
            {
              "internalType": "bytes",
              "name": "block",
              "type": "bytes"
            },
            {
              "internalType": "bytes",
              "name": "accountProofNodesRlp",
              "type": "bytes"
            },
            {
              "internalType": "bytes",
              "name": "reserveAndTimestampProofNodesRlp",
              "type": "bytes"
            },
            {
              "internalType": "bytes",
              "name": "priceAccumulatorProofNodesRlp",
              "type": "bytes"
            }
          ],
          "internalType": "struct FetcherV2.ProofData",
          "name": "proofData",
          "type": "tuple"
        }
      ],
      "name": "submit",
      "outputs": [],
      "stateMutability": "nonpayable",
      "type": "function"
    },
    {
      "inputs": [
        {
          "internalType": "uint256",
          "name": "ORACLE",
          "type": "uint256"
        },
        {
          "internalType": "uint256",
          "name": "basePriceCumulative",
          "type": "uint256"
        },
        {
          "internalType": "uint256",
          "name": "blockNumber",
          "type": "uint256"
        },
        {
          "internalType": "uint256",
          "name": "timestamp",
          "type": "uint256"
        }
      ],
      "name": "submitPrice",
      "outputs": [],
      "stateMutability": "nonpayable",
      "type": "function"
    }
  ],
  "bytecode": "0x608060405234801561001057600080fd5b50611bee806100206000396000f3fe608060405234801561001057600080fd5b50600436106100415760003560e01c80637a33e3b014610046578063dc9609be14610070578063e2c1ba1c14610085575b600080fd5b610059610054366004611868565b610098565b604051610067929190611b64565b60405180910390f35b61008361007e366004611979565b6102a2565b005b610083610093366004611898565b6102c9565b6000818152600160209081526040808320546002909252822054829160c085901c914363ffffffff841682011015610105576040517f08c379a00000000000000000000000000000000000000000000000000000000081526004016100fc90611af6565b60405180910390fd5b43637fffffff600185901c168201111561014b576040517f08c379a00000000000000000000000000000000000000000000000000000000081526004016100fc90611b2d565b8560ff81901c60008061015e84846104e6565b63ffffffff16915091508086106101a1576040517f08c379a00000000000000000000000000000000000000000000000000000000081526004016100fc90611a1a565b60008a815260208190526040902054601090878303908403816101c057fe5b04901b98506000808573ffffffffffffffffffffffffffffffffffffffff16630902f1ac6040518163ffffffff1660e01b815260040160606040518083038186803b15801561020e57600080fd5b505afa158015610222573d6000803e3d6000fd5b505050506040513d601f19601f820116820180604052508101906102469190611814565b506dffffffffffffffffffffffffffff1691506dffffffffffffffffffffffffffff169150846000141561027657905b610292700100000000000000000000000000000000828461073c565b9950505050505050505050915091565b60009384526020848152604080862094909455600181528385209190915560029052912055565b816000806102d7838561080a565b909250905060c085901c63ffffffff81164303821015610323576040517f08c379a00000000000000000000000000000000000000000000000000000000081526004016100fc90611a51565b637fffffff600182901c164303821115610369576040517f08c379a00000000000000000000000000000000000000000000000000000000081526004016100fc906119e3565b6000868152600260209081526040808320859055516103dc916103d7916103d29188916103b89161039d91600891016119da565b604051602081830303815290604052805190602001206108bf565b6103cd6103c88c604001516108f4565b61091a565b610a02565b6108f4565b610d74565b60008881526001602052604090205490915060e082901c1161042a576040517f08c379a00000000000000000000000000000000000000000000000000000000081526004016100fc90611a88565b6000878152600160208190526040822060e084901c905560ff89901c9190821461047b57600a60405160200161046091906119da565b604051602081830303815290604052805190602001206104a4565b600960405160200161048d91906119da565b604051602081830303815290604052805190602001205b90506104c96103d76103d2886104b9856108bf565b6103cd6103c88e606001516108f4565b6000998a5260208a90526040909920989098555050505050505050565b6000806104f1610dc2565b90508260011461057e578373ffffffffffffffffffffffffffffffffffffffff16635a3d54936040518163ffffffff1660e01b815260040160206040518083038186803b15801561054157600080fd5b505afa158015610555573d6000803e3d6000fd5b505050506040513d601f19601f820116820180604052508101906105799190611880565b6105fc565b8373ffffffffffffffffffffffffffffffffffffffff16635909c0d56040518163ffffffff1660e01b815260040160206040518083038186803b1580156105c457600080fd5b505afa1580156105d8573d6000803e3d6000fd5b505050506040513d601f19601f820116820180604052508101906105fc9190611880565b915060008060008673ffffffffffffffffffffffffffffffffffffffff16630902f1ac6040518163ffffffff1660e01b815260040160606040518083038186803b15801561064957600080fd5b505afa15801561065d573d6000803e3d6000fd5b505050506040513d601f19601f820116820180604052508101906106819190611814565b9250925092508363ffffffff168163ffffffff1614610732578084036000600188146106e6576106e16e010000000000000000000000000000866dffffffffffffffffffffffffffff16866dffffffffffffffffffffffffffff1661073c565b610720565b6107206e010000000000000000000000000000856dffffffffffffffffffffffffffff16876dffffffffffffffffffffffffffff1661073c565b90508163ffffffff1681028701965050505b5050509250929050565b600080807fffffffffffffffffffffffffffffffffffffffffffffffffffffffffffffffff85870986860292508281109083900303905080610790576000841161078557600080fd5b508290049050610803565b80841161079c57600080fd5b6000848688096000868103871696879004966002600389028118808a02820302808a02820302808a02820302808a02820302808a02820302808a02909103029181900381900460010186841190950394909402919094039290920491909117919091029150505b9392505050565b600080600061081c8460000151610dcc565b935090915050814061085a576040517f08c379a00000000000000000000000000000000000000000000000000000000081526004016100fc90611abf565b6060610884826108748860405160200161039d91906119aa565b6103cd6103c889602001516108f4565b905060606108946103c8836108f4565b90506108b3816002815181106108a657fe5b6020026020010151610d74565b94505050509250929050565b60408051602180825260608281019093526020820181803683370190505090508160218201526108ee81610f00565b92915050565b6108fc611773565b5060408051808201909152815181526020828101908201525b919050565b60606109258261109e565b61092e57600080fd5b6000610939836110d8565b905060608167ffffffffffffffff8111801561095457600080fd5b5060405190808252806020026020018201604052801561098e57816020015b61097b611773565b8152602001906001900390816109735790505b50905060006109a08560200151611134565b60208601510190506000805b848110156109f7576109bd836111d3565b91506040518060400160405280838152602001848152508482815181106109e057fe5b6020908102919091010152918101916001016109ac565b509195945050505050565b606060008082610a10611773565b8551610a5d577f56e81f171bcc55a6ff8345e692c0f86e5b48e01b996cadc001622fb5e363b4218814610a4257600080fd5b50506040805160008152602081019091529250610803915050565b60005b8651811015610d685780158015610a925750610a8e878281518110610a8157fe5b60200260200101516112a8565b8914155b15610a9c57600080fd5b8015801590610ac65750610ac2878281518110610ab557fe5b60200260200101516112b4565b8414155b15610ad057600080fd5b610aec878281518110610adf57fe5b602002602001015161091a565b9250825160021415610c5b5760006060610b21610b1c86600081518110610b0f57fe5b6020026020010151611309565b611386565b90925090506000610b33888c8461141c565b905080880197508151811015610b935760018a5103841015610b5457600080fd5b6000805b506040519080825280601f01601f191660200182016040528015610b83576020820181803683370190505b5098505050505050505050610803565b8215610bea5760018a5103841015610baa57600080fd5b8a51881015610bbb57600080610b58565b85600181518110610bc857fe5b60200260200101519450610bdb85611309565b98505050505050505050610803565b60018a5103841415610bfb57600080fd5b610c1886600181518110610c0b57fe5b602002602001015161109e565b610c4057610c3986600181518110610c2c57fe5b60200260200101516114b9565b9650610c53565b610c5086600181518110610a8157fe5b96505b505050610d60565b825160111415610d605787518514610d34576000888681518110610c7b57fe5b01602001516001969096019560f81c905060108110610c9957600080fd5b610cb8848260ff1681518110610cab57fe5b60200260200101516114d1565b15610cea5760018851038214610ccd57600080fd5b505060408051600081526020810190915294506108039350505050565b610cfc848260ff1681518110610c0b57fe5b610d1957610d12848260ff1681518110610c2c57fe5b9450610d2e565b610d2b848260ff1681518110610a8157fe5b94505b50610d60565b60018751038114610d4457600080fd5b610d5483601081518110610b0f57fe5b95505050505050610803565b600101610a60565b50505050509392505050565b805160009015801590610d8957508151602110155b610d9257600080fd5b600080610d9e846114f4565b815191935091506020821015610dba5760208290036101000a90045b949350505050565b63ffffffff421690565b6000806000610e4e565b7f08c379a00000000000000000000000000000000000000000000000000000000060005260206004528160245280604452816044016000fd5b600080825160001a6080811060018114610e2e578015610e3a57610e47565b84935060019250610e47565b6001850193506080820392505b5050915091565b835160208501946101e0810190607b01610e6782610e0f565b019150610e7382610e0f565b8082019350610e8184610e0f565b019350610e8d84610e0f565b019350610e9984610e0f565b835160088402610100031c975087409550868b209350838614610ee157610ee160147f626c6f636b4861736820213d20726c7048617368000000000000000000000000610dd6565b84519950815160088202610100031c9850505050505050509193909250565b606080825160001415610f14579050610915565b600080610f2260008661151a565b60f81c90506001811480610f3957508060ff166003145b15610fe057600185516002020367ffffffffffffffff81118015610f5c57600080fd5b506040519080825280601f01601f191660200182016040528015610f87576020820181803683370190505b5092506000610f9760018761151a565b90508084600081518110610fa757fe5b60200101907effffffffffffffffffffffffffffffffffffffffffffffffffffffffffffff1916908160001a9053506001925050611031565b600285516002020367ffffffffffffffff81118015610ffe57600080fd5b506040519080825280601f01601f191660200182016040528015611029576020820181803683370190505b509250600091505b60ff82165b8351811015611094576110518360ff1682036002018761151a565b84828151811061105d57fe5b60200101907effffffffffffffffffffffffffffffffffffffffffffffffffffffffffffff1916908160001a905350600101611036565b5091949350505050565b80516000906110af57506000610915565b6020820151805160001a9060c08210156110ce57600092505050610915565b5060019392505050565b80516000906110e957506000610915565b600080905060006110fd8460200151611134565b602085015185519181019250015b8082101561112b5761111c826111d3565b6001909301929091019061110b565b50909392505050565b8051600090811a608081101561114e576000915050610915565b60b8811080611169575060c08110801590611169575060f881105b15611178576001915050610915565b60c08110156111aa577fffffffffffffffffffffffffffffffffffffffffffffffffffffffffffffff4a019050610915565b7fffffffffffffffffffffffffffffffffffffffffffffffffffffffffffffff0a019050610915565b80516000908190811a60808110156111ee57600191506112a1565b60b8811015611221577fffffffffffffffffffffffffffffffffffffffffffffffffffffffffffffff81810191506112a1565b60c081101561124e5760b78103600185019450806020036101000a855104600182018101935050506112a1565b60f8811015611281577fffffffffffffffffffffffffffffffffffffffffffffffffffffffffffffff41810191506112a1565b60f78103600185019450806020036101000a855104600182018101935050505b5092915050565b60208101519051902090565b60006020826000015110156112d3576112cc826112a8565b9050610915565b6112dc826112a8565b6040516020016112ec91906119da565b604051602081830303815290604052805190602001209050610915565b805160609061131757600080fd5b600080611323846114f4565b9150915060608167ffffffffffffffff8111801561134057600080fd5b506040519080825280601f01601f19166020018201604052801561136b576020820181803683370190505b5090506020810161137d848285611577565b50949350505050565b60006060600083511161139857600080fd5b60006004846000815181106113a957fe5b60209101015160f81c901c600f1690506000816113cc5750600092506002611406565b81600114156113e15750600092506001611406565b81600214156113f65750600192506002611406565b8160031415610041575060019250825b836114118683611604565b935093505050915091565b6000805b83518582011080156114325750825181105b15610dba5782818151811061144357fe5b602001015160f81c60f81b7effffffffffffffffffffffffffffffffffffffffffffffffffffffffffffff1916848683018151811061147e57fe5b01602001517fff0000000000000000000000000000000000000000000000000000000000000016146114b1579050610803565b600101611420565b60008060006114c7846114f4565b9020949350505050565b80516000906001146114e557506000610915565b50602001515160001a60801490565b60008060006115068460200151611134565b602085015194519481019594039392505050565b6000600283061561154b57601082600285048151811061153657fe5b016020015160f81c8161154557fe5b0661156d565b601082600285048151811061155c57fe5b016020015160f81c8161156b57fe5b045b60f81b9392505050565b80611581576115ff565b5b602081106115bf5782518252602092830192909101907fffffffffffffffffffffffffffffffffffffffffffffffffffffffffffffffe001611582565b80156115ff578251825160208390036101000a7fffffffffffffffffffffffffffffffffffffffffffffffffffffffffffffffff01801990921691161782525b505050565b6060600083511161161457600080fd5b82516002028083111561162657600080fd5b8290038067ffffffffffffffff8111801561164057600080fd5b506040519080825280601f01601f19166020018201604052801561166b576020820181803683370190505b5091506000835b82850181101561176057600281066116ee57600486600283048151811061169557fe5b602001015160f81c60f81b60f81c60ff16901c600f1660f81b8483815181106116ba57fe5b60200101907effffffffffffffffffffffffffffffffffffffffffffffffffffffffffffff1916908160001a905350611754565b60008660028304815181106116ff57fe5b602001015160f81c60f81b60f81c60ff16901c600f1660f81b84838151811061172457fe5b60200101907effffffffffffffffffffffffffffffffffffffffffffffffffffffffffffff1916908160001a9053505b60019182019101611672565b508251811461176b57fe5b505092915050565b604051806040016040528060008152602001600081525090565b600082601f83011261179d578081fd5b813567ffffffffffffffff8111156117b3578182fd5b6117e460207fffffffffffffffffffffffffffffffffffffffffffffffffffffffffffffffe0601f84011601611b72565b91508082528360208285010111156117fb57600080fd5b8060208401602084013760009082016020015292915050565b600080600060608486031215611828578283fd5b835161183381611b99565b602085015190935061184481611b99565b604085015190925063ffffffff8116811461185d578182fd5b809150509250925092565b600060208284031215611879578081fd5b5035919050565b600060208284031215611891578081fd5b5051919050565b600080604083850312156118aa578182fd5b82359150602083013567ffffffffffffffff808211156118c8578283fd5b818501608081880312156118da578384fd5b6118e46080611b72565b92508035828111156118f4578485fd5b6119008882840161178d565b845250602081013582811115611914578485fd5b6119208882840161178d565b602085015250604081013582811115611937578485fd5b6119438882840161178d565b60408501525060608101358281111561195a578485fd5b6119668882840161178d565b6060850152505050809150509250929050565b6000806000806080858703121561198e578081fd5b5050823594602084013594506040840135936060013592509050565b60609190911b7fffffffffffffffffffffffffffffffffffffffff00000000000000000000000016815260140190565b90815260200190565b60208082526009908201527f4e45575f50524f4f460000000000000000000000000000000000000000000000604082015260600190565b60208082526003908201527f4e4f570000000000000000000000000000000000000000000000000000000000604082015260600190565b60208082526009908201527f4f4c445f50524f4f460000000000000000000000000000000000000000000000604082015260600190565b60208082526005908201527f4558495354000000000000000000000000000000000000000000000000000000604082015260600190565b6020808252600d908201527f626c6f636b68617368203d203000000000000000000000000000000000000000604082015260600190565b60208082526003908201527f4f4c440000000000000000000000000000000000000000000000000000000000604082015260600190565b60208082526003908201527f4e45570000000000000000000000000000000000000000000000000000000000604082015260600190565b918252602082015260400190565b60405181810167ffffffffffffffff81118282101715611b9157600080fd5b604052919050565b6dffffffffffffffffffffffffffff81168114611bb557600080fd5b5056fea2646970667358221220f44e5dced10ad1a0a44d011659db647e615f5eab613c1a99dd210db9a555aaeb64736f6c63430006080033",
  "linkReferences": {},
  "deployedLinkReferences": {}
}