{
  "_format": "hh-sol-artifact-1",
  "contractName": "FetcherV2Mock",
  "sourceName": "contracts/support/FetcherV2Mock.sol",
  "abi": [
    {
      "inputs": [
        {
          "internalType": "uint256",
          "name": "ORACLE",
          "type": "uint256"
        }
      ],
      "name": "fetch",
      "outputs": [
        {
          "internalType": "uint256",
          "name": "twap",
          "type": "uint256"
        },
        {
          "internalType": "uint256",
          "name": "spot",
          "type": "uint256"
        }
      ],
      "stateMutability": "nonpayable",
      "type": "function"
    },
    {
      "inputs": [
        {
          "internalType": "uint256",
          "name": "ORACLE",
          "type": "uint256"
        },
        {
          "components": [
            {
              "internalType": "bytes",
              "name": "block",
              "type": "bytes"
            },
            {
              "internalType": "bytes",
              "name": "accountProofNodesRlp",
              "type": "bytes"
            },
            {
              "internalType": "bytes",
              "name": "reserveAndTimestampProofNodesRlp",
              "type": "bytes"
            },
            {
              "internalType": "bytes",
              "name": "priceAccumulatorProofNodesRlp",
              "type": "bytes"
            }
          ],
          "internalType": "struct FetcherV2.ProofData",
          "name": "proofData",
          "type": "tuple"
        }
      ],
      "name": "submit",
      "outputs": [],
      "stateMutability": "nonpayable",
      "type": "function"
    },
    {
      "inputs": [
        {
          "internalType": "uint256",
          "name": "ORACLE",
          "type": "uint256"
        },
        {
          "internalType": "uint256",
          "name": "basePriceCumulative",
          "type": "uint256"
        },
        {
          "internalType": "uint256",
          "name": "blockNumber",
          "type": "uint256"
        },
        {
          "internalType": "uint256",
          "name": "timestamp",
          "type": "uint256"
        }
      ],
      "name": "submitPrice",
      "outputs": [],
      "stateMutability": "nonpayable",
      "type": "function"
    }
  ],
  "bytecode": "0x608060405234801561001057600080fd5b50611d47806100206000396000f3fe608060405234801561001057600080fd5b50600436106100415760003560e01c80637a33e3b014610046578063dc9609be14610070578063e2c1ba1c14610085575b600080fd5b61005961005436600461198a565b610098565b604051610067929190611cbd565b60405180910390f35b61008361007e366004611a9b565b6102a2565b005b6100836100933660046119ba565b6103eb565b6000818152600160209081526040808320546002909252822054829160c085901c914363ffffffff841682011015610105576040517f08c379a00000000000000000000000000000000000000000000000000000000081526004016100fc90611c4f565b60405180910390fd5b43637fffffff600185901c168201111561014b576040517f08c379a00000000000000000000000000000000000000000000000000000000081526004016100fc90611c86565b8560ff81901c60008061015e8484610608565b63ffffffff16915091508086106101a1576040517f08c379a00000000000000000000000000000000000000000000000000000000081526004016100fc90611b73565b60008a815260208190526040902054601090878303908403816101c057fe5b04901b98506000808573ffffffffffffffffffffffffffffffffffffffff16630902f1ac6040518163ffffffff1660e01b815260040160606040518083038186803b15801561020e57600080fd5b505afa158015610222573d6000803e3d6000fd5b505050506040513d601f19601f820116820180604052508101906102469190611936565b506dffffffffffffffffffffffffffff1691506dffffffffffffffffffffffffffff169150846000141561027657905b610292700100000000000000000000000000000000828461085e565b9950505050505050505050915091565b60c084901c63ffffffff811643038310156102e9576040517f08c379a00000000000000000000000000000000000000000000000000000000081526004016100fc90611baa565b637fffffff600182901c16430383111561032f576040517f08c379a00000000000000000000000000000000000000000000000000000000081526004016100fc90611b3c565b600085815260026020908152604080832086905560019091529020548211610383576040517f08c379a00000000000000000000000000000000000000000000000000000000081526004016100fc90611be1565b60008581526001602090815260408083208590559082905290205484116103d6576040517f08c379a00000000000000000000000000000000000000000000000000000000081526004016100fc90611b05565b50505060009182526020829052604090912055565b816000806103f9838561092c565b909250905060c085901c63ffffffff81164303821015610445576040517f08c379a00000000000000000000000000000000000000000000000000000000081526004016100fc90611baa565b637fffffff600182901c16430382111561048b576040517f08c379a00000000000000000000000000000000000000000000000000000000081526004016100fc90611b3c565b6000868152600260209081526040808320859055516104fe916104f9916104f49188916104da916104bf9160089101611afc565b604051602081830303815290604052805190602001206109e1565b6104ef6104ea8c60400151610a16565b610a3c565b610b24565b610a16565b610e96565b60008881526001602052604090205490915060e082901c1161054c576040517f08c379a00000000000000000000000000000000000000000000000000000000081526004016100fc90611be1565b6000878152600160208190526040822060e084901c905560ff89901c9190821461059d57600a6040516020016105829190611afc565b604051602081830303815290604052805190602001206105c6565b60096040516020016105af9190611afc565b604051602081830303815290604052805190602001205b90506105eb6104f96104f4886105db856109e1565b6104ef6104ea8e60600151610a16565b6000998a5260208a90526040909920989098555050505050505050565b600080610613610ee4565b9050826001146106a0578373ffffffffffffffffffffffffffffffffffffffff16635a3d54936040518163ffffffff1660e01b815260040160206040518083038186803b15801561066357600080fd5b505afa158015610677573d6000803e3d6000fd5b505050506040513d601f19601f8201168201806040525081019061069b91906119a2565b61071e565b8373ffffffffffffffffffffffffffffffffffffffff16635909c0d56040518163ffffffff1660e01b815260040160206040518083038186803b1580156106e657600080fd5b505afa1580156106fa573d6000803e3d6000fd5b505050506040513d601f19601f8201168201806040525081019061071e91906119a2565b915060008060008673ffffffffffffffffffffffffffffffffffffffff16630902f1ac6040518163ffffffff1660e01b815260040160606040518083038186803b15801561076b57600080fd5b505afa15801561077f573d6000803e3d6000fd5b505050506040513d601f19601f820116820180604052508101906107a39190611936565b9250925092508363ffffffff168163ffffffff161461085457808403600060018814610808576108036e010000000000000000000000000000866dffffffffffffffffffffffffffff16866dffffffffffffffffffffffffffff1661085e565b610842565b6108426e010000000000000000000000000000856dffffffffffffffffffffffffffff16876dffffffffffffffffffffffffffff1661085e565b90508163ffffffff1681028701965050505b5050509250929050565b600080807fffffffffffffffffffffffffffffffffffffffffffffffffffffffffffffffff858709868602925082811090839003039050806108b257600084116108a757600080fd5b508290049050610925565b8084116108be57600080fd5b6000848688096000868103871696879004966002600389028118808a02820302808a02820302808a02820302808a02820302808a02820302808a02909103029181900381900460010186841190950394909402919094039290920491909117919091029150505b9392505050565b600080600061093e8460000151610eee565b935090915050814061097c576040517f08c379a00000000000000000000000000000000000000000000000000000000081526004016100fc90611c18565b60606109a682610996886040516020016104bf9190611acc565b6104ef6104ea8960200151610a16565b905060606109b66104ea83610a16565b90506109d5816002815181106109c857fe5b6020026020010151610e96565b94505050509250929050565b6040805160218082526060828101909352602082018180368337019050509050816021820152610a1081611022565b92915050565b610a1e611895565b5060408051808201909152815181526020828101908201525b919050565b6060610a47826111c0565b610a5057600080fd5b6000610a5b836111fa565b905060608167ffffffffffffffff81118015610a7657600080fd5b50604051908082528060200260200182016040528015610ab057816020015b610a9d611895565b815260200190600190039081610a955790505b5090506000610ac28560200151611256565b60208601510190506000805b84811015610b1957610adf836112f5565b9150604051806040016040528083815260200184815250848281518110610b0257fe5b602090810291909101015291810191600101610ace565b509195945050505050565b606060008082610b32611895565b8551610b7f577f56e81f171bcc55a6ff8345e692c0f86e5b48e01b996cadc001622fb5e363b4218814610b6457600080fd5b50506040805160008152602081019091529250610925915050565b60005b8651811015610e8a5780158015610bb45750610bb0878281518110610ba357fe5b60200260200101516113ca565b8914155b15610bbe57600080fd5b8015801590610be85750610be4878281518110610bd757fe5b60200260200101516113d6565b8414155b15610bf257600080fd5b610c0e878281518110610c0157fe5b6020026020010151610a3c565b9250825160021415610d7d5760006060610c43610c3e86600081518110610c3157fe5b602002602001015161142b565b6114a8565b90925090506000610c55888c8461153e565b905080880197508151811015610cb55760018a5103841015610c7657600080fd5b6000805b506040519080825280601f01601f191660200182016040528015610ca5576020820181803683370190505b5098505050505050505050610925565b8215610d0c5760018a5103841015610ccc57600080fd5b8a51881015610cdd57600080610c7a565b85600181518110610cea57fe5b60200260200101519450610cfd8561142b565b98505050505050505050610925565b60018a5103841415610d1d57600080fd5b610d3a86600181518110610d2d57fe5b60200260200101516111c0565b610d6257610d5b86600181518110610d4e57fe5b60200260200101516115db565b9650610d75565b610d7286600181518110610ba357fe5b96505b505050610e82565b825160111415610e825787518514610e56576000888681518110610d9d57fe5b01602001516001969096019560f81c905060108110610dbb57600080fd5b610dda848260ff1681518110610dcd57fe5b60200260200101516115f3565b15610e0c5760018851038214610def57600080fd5b505060408051600081526020810190915294506109259350505050565b610e1e848260ff1681518110610d2d57fe5b610e3b57610e34848260ff1681518110610d4e57fe5b9450610e50565b610e4d848260ff1681518110610ba357fe5b94505b50610e82565b60018751038114610e6657600080fd5b610e7683601081518110610c3157fe5b95505050505050610925565b600101610b82565b50505050509392505050565b805160009015801590610eab57508151602110155b610eb457600080fd5b600080610ec084611616565b815191935091506020821015610edc5760208290036101000a90045b949350505050565b63ffffffff421690565b6000806000610f70565b7f08c379a00000000000000000000000000000000000000000000000000000000060005260206004528160245280604452816044016000fd5b600080825160001a6080811060018114610f50578015610f5c57610f69565b84935060019250610f69565b6001850193506080820392505b5050915091565b835160208501946101e0810190607b01610f8982610f31565b019150610f9582610f31565b8082019350610fa384610f31565b019350610faf84610f31565b019350610fbb84610f31565b835160088402610100031c975087409550868b2093508386146110035761100360147f626c6f636b4861736820213d20726c7048617368000000000000000000000000610ef8565b84519950815160088202610100031c9850505050505050509193909250565b606080825160001415611036579050610a37565b60008061104460008661163c565b60f81c9050600181148061105b57508060ff166003145b1561110257600185516002020367ffffffffffffffff8111801561107e57600080fd5b506040519080825280601f01601f1916602001820160405280156110a9576020820181803683370190505b50925060006110b960018761163c565b905080846000815181106110c957fe5b60200101907effffffffffffffffffffffffffffffffffffffffffffffffffffffffffffff1916908160001a9053506001925050611153565b600285516002020367ffffffffffffffff8111801561112057600080fd5b506040519080825280601f01601f19166020018201604052801561114b576020820181803683370190505b509250600091505b60ff82165b83518110156111b6576111738360ff1682036002018761163c565b84828151811061117f57fe5b60200101907effffffffffffffffffffffffffffffffffffffffffffffffffffffffffffff1916908160001a905350600101611158565b5091949350505050565b80516000906111d157506000610a37565b6020820151805160001a9060c08210156111f057600092505050610a37565b5060019392505050565b805160009061120b57506000610a37565b6000809050600061121f8460200151611256565b602085015185519181019250015b8082101561124d5761123e826112f5565b6001909301929091019061122d565b50909392505050565b8051600090811a6080811015611270576000915050610a37565b60b881108061128b575060c0811080159061128b575060f881105b1561129a576001915050610a37565b60c08110156112cc577fffffffffffffffffffffffffffffffffffffffffffffffffffffffffffffff4a019050610a37565b7fffffffffffffffffffffffffffffffffffffffffffffffffffffffffffffff0a019050610a37565b80516000908190811a608081101561131057600191506113c3565b60b8811015611343577fffffffffffffffffffffffffffffffffffffffffffffffffffffffffffffff81810191506113c3565b60c08110156113705760b78103600185019450806020036101000a855104600182018101935050506113c3565b60f88110156113a3577fffffffffffffffffffffffffffffffffffffffffffffffffffffffffffffff41810191506113c3565b60f78103600185019450806020036101000a855104600182018101935050505b5092915050565b60208101519051902090565b60006020826000015110156113f5576113ee826113ca565b9050610a37565b6113fe826113ca565b60405160200161140e9190611afc565b604051602081830303815290604052805190602001209050610a37565b805160609061143957600080fd5b60008061144584611616565b9150915060608167ffffffffffffffff8111801561146257600080fd5b506040519080825280601f01601f19166020018201604052801561148d576020820181803683370190505b5090506020810161149f848285611699565b50949350505050565b6000606060008351116114ba57600080fd5b60006004846000815181106114cb57fe5b60209101015160f81c901c600f1690506000816114ee5750600092506002611528565b81600114156115035750600092506001611528565b81600214156115185750600192506002611528565b8160031415610041575060019250825b836115338683611726565b935093505050915091565b6000805b83518582011080156115545750825181105b15610edc5782818151811061156557fe5b602001015160f81c60f81b7effffffffffffffffffffffffffffffffffffffffffffffffffffffffffffff191684868301815181106115a057fe5b01602001517fff0000000000000000000000000000000000000000000000000000000000000016146115d3579050610925565b600101611542565b60008060006115e984611616565b9020949350505050565b805160009060011461160757506000610a37565b50602001515160001a60801490565b60008060006116288460200151611256565b602085015194519481019594039392505050565b6000600283061561166d57601082600285048151811061165857fe5b016020015160f81c8161166757fe5b0661168f565b601082600285048151811061167e57fe5b016020015160f81c8161168d57fe5b045b60f81b9392505050565b806116a357611721565b5b602081106116e15782518252602092830192909101907fffffffffffffffffffffffffffffffffffffffffffffffffffffffffffffffe0016116a4565b8015611721578251825160208390036101000a7fffffffffffffffffffffffffffffffffffffffffffffffffffffffffffffffff01801990921691161782525b505050565b6060600083511161173657600080fd5b82516002028083111561174857600080fd5b8290038067ffffffffffffffff8111801561176257600080fd5b506040519080825280601f01601f19166020018201604052801561178d576020820181803683370190505b5091506000835b82850181101561188257600281066118105760048660028304815181106117b757fe5b602001015160f81c60f81b60f81c60ff16901c600f1660f81b8483815181106117dc57fe5b60200101907effffffffffffffffffffffffffffffffffffffffffffffffffffffffffffff1916908160001a905350611876565b600086600283048151811061182157fe5b602001015160f81c60f81b60f81c60ff16901c600f1660f81b84838151811061184657fe5b60200101907effffffffffffffffffffffffffffffffffffffffffffffffffffffffffffff1916908160001a9053505b60019182019101611794565b508251811461188d57fe5b505092915050565b604051806040016040528060008152602001600081525090565b600082601f8301126118bf578081fd5b813567ffffffffffffffff8111156118d5578182fd5b61190660207fffffffffffffffffffffffffffffffffffffffffffffffffffffffffffffffe0601f84011601611ccb565b915080825283602082850101111561191d57600080fd5b8060208401602084013760009082016020015292915050565b60008060006060848603121561194a578283fd5b835161195581611cf2565b602085015190935061196681611cf2565b604085015190925063ffffffff8116811461197f578182fd5b809150509250925092565b60006020828403121561199b578081fd5b5035919050565b6000602082840312156119b3578081fd5b5051919050565b600080604083850312156119cc578182fd5b82359150602083013567ffffffffffffffff808211156119ea578283fd5b818501608081880312156119fc578384fd5b611a066080611ccb565b9250803582811115611a16578485fd5b611a22888284016118af565b845250602081013582811115611a36578485fd5b611a42888284016118af565b602085015250604081013582811115611a59578485fd5b611a65888284016118af565b604085015250606081013582811115611a7c578485fd5b611a88888284016118af565b6060850152505050809150509250929050565b60008060008060808587031215611ab0578081fd5b5050823594602084013594506040840135936060013592509050565b60609190911b7fffffffffffffffffffffffffffffffffffffffff00000000000000000000000016815260140190565b90815260200190565b6020808252600d908201527f494e56414c49445f505249434500000000000000000000000000000000000000604082015260600190565b60208082526009908201527f4e45575f50524f4f460000000000000000000000000000000000000000000000604082015260600190565b60208082526003908201527f4e4f570000000000000000000000000000000000000000000000000000000000604082015260600190565b60208082526009908201527f4f4c445f50524f4f460000000000000000000000000000000000000000000000604082015260600190565b60208082526005908201527f4558495354000000000000000000000000000000000000000000000000000000604082015260600190565b6020808252600d908201527f626c6f636b68617368203d203000000000000000000000000000000000000000604082015260600190565b60208082526003908201527f4f4c440000000000000000000000000000000000000000000000000000000000604082015260600190565b60208082526003908201527f4e45570000000000000000000000000000000000000000000000000000000000604082015260600190565b918252602082015260400190565b60405181810167ffffffffffffffff81118282101715611cea57600080fd5b604052919050565b6dffffffffffffffffffffffffffff81168114611d0e57600080fd5b5056fea26469706673582212207772cee497589b0b7ada9c4dcb8b59eadf67a0aebf928a95e08a2c3fea39f98864736f6c63430006080033",
  "linkReferences": {},
  "deployedLinkReferences": {}
}