{
  "_format": "hh-sol-artifact-1",
  "contractName": "PoolLogic",
  "sourceName": "contracts/PoolLogic.sol",
  "abi": [
    {
      "inputs": [
        {
          "internalType": "address",
          "name": "token",
          "type": "address"
        },
        {
          "internalType": "address",
          "name": "feeTo",
          "type": "address"
        },
        {
          "internalType": "uint256",
          "name": "feeRate",
          "type": "uint256"
        }
      ],
      "stateMutability": "nonpayable",
      "type": "constructor"
    },
    {
      "inputs": [],
      "name": "T",
      "type": "error"
    },
    {
      "anonymous": false,
      "inputs": [
        {
          "indexed": true,
          "internalType": "address",
          "name": "payer",
          "type": "address"
        },
        {
          "indexed": true,
          "internalType": "address",
          "name": "recipient",
          "type": "address"
        },
        {
          "indexed": true,
          "internalType": "uint256",
          "name": "sideMax",
          "type": "uint256"
        },
        {
          "indexed": false,
          "internalType": "uint256",
          "name": "sideIn",
          "type": "uint256"
        },
        {
          "indexed": false,
          "internalType": "uint256",
          "name": "sideOut",
          "type": "uint256"
        },
        {
          "indexed": false,
          "internalType": "uint256",
          "name": "maturity",
          "type": "uint256"
        },
        {
          "indexed": false,
          "internalType": "uint256",
          "name": "amountIn",
          "type": "uint256"
        },
        {
          "indexed": false,
          "internalType": "uint256",
          "name": "amountOut",
          "type": "uint256"
        },
        {
          "indexed": false,
          "internalType": "uint256",
          "name": "price",
          "type": "uint256"
        }
      ],
      "name": "Swap",
      "type": "event"
    },
    {
      "inputs": [],
      "name": "ensureStateIntegrity",
      "outputs": [],
      "stateMutability": "view",
      "type": "function"
    },
    {
      "inputs": [
        {
          "internalType": "uint256",
          "name": "ORACLE",
          "type": "uint256"
        }
      ],
      "name": "fetch",
      "outputs": [
        {
          "internalType": "uint256",
          "name": "twap",
          "type": "uint256"
        },
        {
          "internalType": "uint256",
          "name": "spot",
          "type": "uint256"
        }
      ],
      "stateMutability": "view",
      "type": "function"
    },
    {
      "inputs": [],
      "name": "getStates",
      "outputs": [
        {
          "internalType": "uint256",
          "name": "R",
          "type": "uint256"
        },
        {
          "internalType": "uint256",
          "name": "a",
          "type": "uint256"
        },
        {
          "internalType": "uint256",
          "name": "b",
          "type": "uint256"
        },
        {
          "internalType": "uint32",
          "name": "i",
          "type": "uint32"
        },
        {
          "internalType": "uint32",
          "name": "f",
          "type": "uint32"
        }
      ],
      "stateMutability": "view",
      "type": "function"
    },
    {
      "inputs": [
        {
          "components": [
            {
              "internalType": "uint256",
              "name": "R",
              "type": "uint256"
            },
            {
              "internalType": "uint256",
              "name": "a",
              "type": "uint256"
            },
            {
              "internalType": "uint256",
              "name": "b",
              "type": "uint256"
            }
          ],
          "internalType": "struct State",
          "name": "state",
          "type": "tuple"
        },
        {
          "components": [
            {
              "internalType": "address",
              "name": "utr",
              "type": "address"
            },
            {
              "internalType": "bytes",
              "name": "payer",
              "type": "bytes"
            },
            {
              "internalType": "address",
              "name": "recipient",
              "type": "address"
            }
          ],
          "internalType": "struct Payment",
          "name": "payment",
          "type": "tuple"
        }
      ],
      "name": "init",
      "outputs": [],
      "stateMutability": "nonpayable",
      "type": "function"
    },
    {
      "inputs": [],
      "name": "loadConfig",
      "outputs": [
        {
          "components": [
            {
              "internalType": "address",
              "name": "FETCHER",
              "type": "address"
            },
            {
              "internalType": "bytes32",
              "name": "ORACLE",
              "type": "bytes32"
            },
            {
              "internalType": "address",
              "name": "TOKEN_R",
              "type": "address"
            },
            {
              "internalType": "uint256",
              "name": "K",
              "type": "uint256"
            },
            {
              "internalType": "uint256",
              "name": "MARK",
              "type": "uint256"
            },
            {
              "internalType": "uint256",
              "name": "INTEREST_HL",
              "type": "uint256"
            },
            {
              "internalType": "uint256",
              "name": "PREMIUM_HL",
              "type": "uint256"
            },
            {
              "internalType": "uint256",
              "name": "MATURITY",
              "type": "uint256"
            },
            {
              "internalType": "uint256",
              "name": "MATURITY_VEST",
              "type": "uint256"
            },
            {
              "internalType": "uint256",
              "name": "MATURITY_RATE",
              "type": "uint256"
            },
            {
              "internalType": "uint256",
              "name": "OPEN_RATE",
              "type": "uint256"
            }
          ],
          "internalType": "struct Config",
          "name": "config",
          "type": "tuple"
        }
      ],
      "stateMutability": "pure",
      "type": "function"
    },
    {
      "inputs": [
        {
          "internalType": "address",
          "name": "",
          "type": "address"
        },
        {
          "internalType": "address",
          "name": "",
          "type": "address"
        },
        {
          "internalType": "uint256[]",
          "name": "",
          "type": "uint256[]"
        },
        {
          "internalType": "uint256[]",
          "name": "",
          "type": "uint256[]"
        },
        {
          "internalType": "bytes",
          "name": "",
          "type": "bytes"
        }
      ],
      "name": "onERC1155BatchReceived",
      "outputs": [
        {
          "internalType": "bytes4",
          "name": "",
          "type": "bytes4"
        }
      ],
      "stateMutability": "nonpayable",
      "type": "function"
    },
    {
      "inputs": [
        {
          "internalType": "address",
          "name": "",
          "type": "address"
        },
        {
          "internalType": "address",
          "name": "",
          "type": "address"
        },
        {
          "internalType": "uint256",
          "name": "",
          "type": "uint256"
        },
        {
          "internalType": "uint256",
          "name": "",
          "type": "uint256"
        },
        {
          "internalType": "bytes",
          "name": "",
          "type": "bytes"
        }
      ],
      "name": "onERC1155Received",
      "outputs": [
        {
          "internalType": "bytes4",
          "name": "",
          "type": "bytes4"
        }
      ],
      "stateMutability": "nonpayable",
      "type": "function"
    },
    {
      "inputs": [
        {
          "internalType": "bytes4",
          "name": "interfaceId",
          "type": "bytes4"
        }
      ],
      "name": "supportsInterface",
      "outputs": [
        {
          "internalType": "bool",
          "name": "",
          "type": "bool"
        }
      ],
      "stateMutability": "view",
      "type": "function"
    },
    {
      "inputs": [
        {
          "components": [
            {
              "internalType": "uint256",
              "name": "sideIn",
              "type": "uint256"
            },
            {
              "internalType": "uint256",
              "name": "sideOut",
              "type": "uint256"
            },
            {
              "internalType": "address",
              "name": "helper",
              "type": "address"
            },
            {
              "internalType": "bytes",
              "name": "payload",
              "type": "bytes"
            }
          ],
          "internalType": "struct Param",
          "name": "param",
          "type": "tuple"
        },
        {
          "components": [
            {
              "internalType": "address",
              "name": "utr",
              "type": "address"
            },
            {
              "internalType": "bytes",
              "name": "payer",
              "type": "bytes"
            },
            {
              "internalType": "address",
              "name": "recipient",
              "type": "address"
            }
          ],
          "internalType": "struct Payment",
          "name": "payment",
          "type": "tuple"
        }
      ],
      "name": "swap",
      "outputs": [
        {
          "internalType": "uint256",
          "name": "amountIn",
          "type": "uint256"
        },
        {
          "internalType": "uint256",
          "name": "amountOut",
          "type": "uint256"
        },
        {
          "internalType": "uint256",
          "name": "price",
          "type": "uint256"
        }
      ],
      "stateMutability": "nonpayable",
      "type": "function"
    }
  ],
  "bytecode": "0x60e06040523480156200001157600080fd5b506040516200524a3803806200524a833981016040819052620000349162000124565b826001600160a01b038116620000915760405162461bcd60e51b815260206004820152601660248201527f506f6f6c426173653a205a45524f5f414444524553530000000000000000000060448201526064015b60405180910390fd5b6001600160a01b039081166080528216620000ef5760405162461bcd60e51b815260206004820152601760248201527f506f6f6c4c6f6769633a205a45524f5f41444452455353000000000000000000604482015260640162000088565b6001600160a01b0390911660a05260c0525062000165565b80516001600160a01b03811681146200011f57600080fd5b919050565b6000806000606084860312156200013a57600080fd5b620001458462000107565b9250620001556020850162000107565b9150604084015190509250925092565b60805160a05160c05161505a620001f060003960008181611e960152611ebe01526000611f0801526000818161071f015281816107e2015281816108a3015281816109d101528181610af301528181610bb201528181610c5e01528181610d1d01528181610e60015281816116f7015281816117c50152818161182501526135e7015261505a6000f3fe608060405234801561001057600080fd5b50600436106100a35760003560e01c8063bc197c8111610076578063dc1a6f331161005b578063dc1a6f33146101dd578063eb7e50dd146101f2578063f23a6e61146101fa57600080fd5b8063bc197c811461013b578063d8ab8274146101a457600080fd5b806301ffc9a7146100a857806322d65951146100d05780632b2f2913146100e55780637a33e3b014610113575b600080fd5b6100bb6100b63660046143a5565b610232565b60405190151581526020015b60405180910390f35b6100d861028e565b6040516100c791906143e7565b6100f86100f33660046146a0565b61035d565b604080519384526020840192909252908201526060016100c7565b610126610121366004614759565b610f8c565b604080519283526020830191909152016100c7565b610173610149366004614801565b7fbc197c810000000000000000000000000000000000000000000000000000000095945050505050565b6040517fffffffff0000000000000000000000000000000000000000000000000000000090911681526020016100c7565b6101ac61106c565b6040805195865260208601949094529284019190915263ffffffff908116606084015216608082015260a0016100c7565b6101f06101eb3660046148af565b611162565b005b6101f0611927565b61017361020836600461491c565b7ff23a6e610000000000000000000000000000000000000000000000000000000095945050505050565b60007f61206120000000000000000000000000000000000000000000000000000000007fffffffff00000000000000000000000000000000000000000000000000000000831614806102885750610288826119aa565b92915050565b61031a604051806101600160405280600073ffffffffffffffffffffffffffffffffffffffff16815260200160008019168152602001600073ffffffffffffffffffffffffffffffffffffffff16815260200160008152602001600081526020016000815260200160008152602001600081526020016000815260200160008152602001600081525090565b6060602036038035808203915060405192506020810183016040528083526020830181838237505050808060200190518101906103579190614995565b91505090565b600080600061036a611927565b600180547fffffffffffffffffffffffffffffffffffffffffffffffffffffffff00000000811663ffffffff909116178117905560006103a861028e565b905060006103b68288611a41565b8051602082015160408301518a5192985090965094509091506000906106cd57602087015151156106b65786602001515160140361047d576103fd87602001516000612721565b604080850151815173ffffffffffffffffffffffffffffffffffffffff808516602083015230938201939093526014606082015291166080820152600060a082015290915060c001604080517fffffffffffffffffffffffffffffffffffffffffffffffffffffffffffffffe08184030181529190526020880152610480565b50325b60408084015190517f70a0823100000000000000000000000000000000000000000000000000000000815230600482015260009173ffffffffffffffffffffffffffffffffffffffff16906370a0823190602401602060405180830381865afa1580156104f1573d6000803e3d6000fd5b505050506040513d601f19601f820116820180604052508101906105159190614a36565b61051f9088614a7e565b885160208a01516040517f715ef7f900000000000000000000000000000000000000000000000000000000815292935073ffffffffffffffffffffffffffffffffffffffff9091169163715ef7f99161057c918b90600401614aff565b600060405180830381600087803b15801561059657600080fd5b505af11580156105aa573d6000803e3d6000fd5b50505060408086015190517f70a0823100000000000000000000000000000000000000000000000000000000815230600482015273ffffffffffffffffffffffffffffffffffffffff90911691506370a0823190602401602060405180830381865afa15801561061e573d6000803e3d6000fd5b505050506040513d601f19601f820116820180604052508101906106429190614a36565b8111156106b0576040517f08c379a000000000000000000000000000000000000000000000000000000000815260206004820152601e60248201527f506f6f6c426173653a20494e53554646494349454e545f5041594d454e54000060448201526064015b60405180910390fd5b50610da2565b6106c683604001513330896127b1565b5033610da2565b875160009060a01b301790506000808960200151511115610c29576040517efdd58e000000000000000000000000000000000000000000000000000000008152306004820152602481018390526000907f000000000000000000000000000000000000000000000000000000000000000073ffffffffffffffffffffffffffffffffffffffff169062fdd58e90604401602060405180830381865afa15801561077a573d6000803e3d6000fd5b505050506040513d601f19601f8201168201806040525081019061079e9190614a36565b90508015610854576040517ff5298aca00000000000000000000000000000000000000000000000000000000815230600482015260248101849052604481018290527f000000000000000000000000000000000000000000000000000000000000000073ffffffffffffffffffffffffffffffffffffffff169063f5298aca90606401600060405180830381600087803b15801561083b57600080fd5b505af115801561084f573d6000803e3d6000fd5b505050505b89602001515160140361090f576108708a602001516000612721565b6040805173ffffffffffffffffffffffffffffffffffffffff8381166020830152309282019290925261048360608201527f0000000000000000000000000000000000000000000000000000000000000000909116608082015260a0810185905290945060c001604080517fffffffffffffffffffffffffffffffffffffffffffffffffffffffffffffffe081840301815291905260208b0152610913565b3293505b895160208b01516040517f715ef7f900000000000000000000000000000000000000000000000000000000815273ffffffffffffffffffffffffffffffffffffffff9092169163715ef7f99161096d918d90600401614aff565b600060405180830381600087803b15801561098757600080fd5b505af115801561099b573d6000803e3d6000fd5b50506040517efdd58e000000000000000000000000000000000000000000000000000000008152306004820152602481018690527f000000000000000000000000000000000000000000000000000000000000000073ffffffffffffffffffffffffffffffffffffffff16925062fdd58e9150604401602060405180830381865afa158015610a2e573d6000803e3d6000fd5b505050506040513d601f19601f82011682018060405250810190610a529190614a36565b905080891115610abe576040517f08c379a000000000000000000000000000000000000000000000000000000000815260206004820152601e60248201527f506f6f6c426173653a20494e53554646494349454e545f5041594d454e54000060448201526064016106a7565b6040517fcb263dc6000000000000000000000000000000000000000000000000000000008152306004820152602481018490527f000000000000000000000000000000000000000000000000000000000000000073ffffffffffffffffffffffffffffffffffffffff169063cb263dc690604401602060405180830381865afa158015610b4f573d6000803e3d6000fd5b505050506040513d601f19601f82011682018060405250810190610b739190614a36565b6040517ff5298aca00000000000000000000000000000000000000000000000000000000815230600482015260248101859052604481018390529092507f000000000000000000000000000000000000000000000000000000000000000073ffffffffffffffffffffffffffffffffffffffff169063f5298aca90606401600060405180830381600087803b158015610c0b57600080fd5b505af1158015610c1f573d6000803e3d6000fd5b5050505050610d92565b6040517fcb263dc6000000000000000000000000000000000000000000000000000000008152336004820152602481018390527f000000000000000000000000000000000000000000000000000000000000000073ffffffffffffffffffffffffffffffffffffffff169063cb263dc690604401602060405180830381865afa158015610cba573d6000803e3d6000fd5b505050506040513d601f19601f82011682018060405250810190610cde9190614a36565b6040517ff5298aca00000000000000000000000000000000000000000000000000000000815233600482015260248101849052604481018a90529091507f000000000000000000000000000000000000000000000000000000000000000073ffffffffffffffffffffffffffffffffffffffff169063f5298aca90606401600060405180830381600087803b158015610d7657600080fd5b505af1158015610d8a573d6000803e3d6000fd5b505050503392505b610d9d858289612950565b965050505b6020880151600090610dc657610dc184604001518960400151886129d8565b610ebe565b602089015160009060a01b301790508460e001514263ffffffff16610deb9190614a7e565b60408a81015190517f3c8cb4ef00000000000000000000000000000000000000000000000000000000815273ffffffffffffffffffffffffffffffffffffffff918216600482015260248101849052604481018a905263ffffffff8316606482015260a06084820152600060a48201529193507f00000000000000000000000000000000000000000000000000000000000000001690633c8cb4ef9060c401600060405180830381600087803b158015610ea457600080fd5b505af1158015610eb8573d6000803e3d6000fd5b50505050505b610ed089600001518a60200151612b6e565b6040808a01518b516020808e0151845192835290820152918201849052606082018a90526080820189905260a0820188905273ffffffffffffffffffffffffffffffffffffffff90811691908516907f2ad8739d64c070ab4ae9d9c0743d56550b22c3c8c96e7a6045fac37b5b8e89e39060c00160405180910390a45050600180547fffffffffffffffffffffffffffffffffffffffffffffffffffffffff00000000811663fffffffe90911617905550929591945092509050565b6000808281610f9a82612b84565b90506000610fac8360c088901c612c66565b5090506000610fba82612f2a565b73ffffffffffffffffffffffffffffffffffffffff169050602083901b9450602081901b95507f8000000000000000000000000000000000000000000000000000000000000000871660000361106357611034857fffffffffffffffffffffffffffffffffffffffffffffffffffffffffffffffff614b50565b9450611060867fffffffffffffffffffffffffffffffffffffffffffffffffffffffffffffffff614b50565b95505b50505050915091565b60008060008060008061107d61028e565b60408082015190517f70a0823100000000000000000000000000000000000000000000000000000000815230600482015291925073ffffffffffffffffffffffffffffffffffffffff16906370a0823190602401602060405180830381865afa1580156110ee573d6000803e3d6000fd5b505050506040513d601f19601f820116820180604052508101906111129190614a36565b60005460015491987bffffffffffffffffffffffffffffffffffffffffffffffffffffffff64010000000080840482169a50840416975063ffffffff909116955063fffffffe9091169350915050565b60005463ffffffff16156111d2576040517f08c379a000000000000000000000000000000000000000000000000000000000815260206004820152601d60248201527f506f6f6c426173653a20414c52454144595f494e495449414c495a454400000060448201526064016106a7565b81516020830151604084015182158015906111ed5750600082115b80156111f95750600081115b61125f576040517f08c379a000000000000000000000000000000000000000000000000000000000815260206004820152601460248201527f506f6f6c426173653a205a45524f5f504152414d00000000000000000000000060448201526064016106a7565b600183901c82111580156112775750600183901c8111155b6112dd576040517f08c379a000000000000000000000000000000000000000000000000000000000815260206004820152601760248201527f506f6f6c426173653a20494e56414c49445f504152414d00000000000000000060448201526064016106a7565b4263ffffffff81166401000000007bffffffffffffffffffffffffffffffffffffffffffffffffffffffff858116820292909217600090815563fffffffe909316918416021760015561132e61028e565b602086015151909150156116075760408082015190517f70a0823100000000000000000000000000000000000000000000000000000000815230600482015260009173ffffffffffffffffffffffffffffffffffffffff16906370a0823190602401602060405180830381865afa1580156113ad573d6000803e3d6000fd5b505050506040513d601f19601f820116820180604052508101906113d19190614a36565b6113db9086614a7e565b90508560200151516014036114785760006113fb87602001516000612721565b604080850151815173ffffffffffffffffffffffffffffffffffffffff808516602083015230938201939093526014606082015291166080820152600060a082015290915060c001604080517fffffffffffffffffffffffffffffffffffffffffffffffffffffffffffffffe08184030181529190526020880152505b855160208701516040517f715ef7f900000000000000000000000000000000000000000000000000000000815273ffffffffffffffffffffffffffffffffffffffff9092169163715ef7f9916114d2918990600401614aff565b600060405180830381600087803b1580156114ec57600080fd5b505af1158015611500573d6000803e3d6000fd5b50505060408084015190517f70a0823100000000000000000000000000000000000000000000000000000000815230600482015273ffffffffffffffffffffffffffffffffffffffff90911691506370a0823190602401602060405180830381865afa158015611574573d6000803e3d6000fd5b505050506040513d601f19601f820116820180604052508101906115989190614a36565b811115611601576040517f08c379a000000000000000000000000000000000000000000000000000000000815260206004820152601e60248201527f506f6f6c426173653a20494e53554646494349454e545f5041594d454e54000060448201526064016106a7565b50611617565b61161781604001513330876127b1565b3074100000000000000000000000000000000000000000811790742000000000000000000000000000000000000000008117907430000000000000000000000000000000000000000017600061166e600389614b50565b905060008560e00151426116829190614a7e565b60408b81015190517f3c8cb4ef00000000000000000000000000000000000000000000000000000000815273ffffffffffffffffffffffffffffffffffffffff9182166004820152602481018890526044810185905263ffffffff8316606482015260a06084820152600060a48201529192507f00000000000000000000000000000000000000000000000000000000000000001690633c8cb4ef9060c401600060405180830381600087803b15801561173b57600080fd5b505af115801561174f573d6000803e3d6000fd5b5050505060408a81015190517f3c8cb4ef00000000000000000000000000000000000000000000000000000000815273ffffffffffffffffffffffffffffffffffffffff9182166004820152602481018690526044810184905263ffffffff8316606482015260a06084820152600060a48201527f000000000000000000000000000000000000000000000000000000000000000090911690633c8cb4ef9060c401600060405180830381600087803b15801561180b57600080fd5b505af115801561181f573d6000803e3d6000fd5b505050507f000000000000000000000000000000000000000000000000000000000000000073ffffffffffffffffffffffffffffffffffffffff16633c8cb4ef8b6040015185600186901b8d6118759190614b64565b6040517fffffffff0000000000000000000000000000000000000000000000000000000060e086901b16815273ffffffffffffffffffffffffffffffffffffffff90931660048401526024830191909152604482015263ffffffff8416606482015260a06084820152600060a482015260c401600060405180830381600087803b15801561190257600080fd5b505af1158015611916573d6000803e3d6000fd5b505050505050505050505050505050565b6001805463ffffffff811691161580156119415750600081115b6119a7576040517f08c379a000000000000000000000000000000000000000000000000000000000815260206004820152601960248201527f506f6f6c426173653a2053544154455f494e544547524954590000000000000060448201526064016106a7565b50565b60007fffffffff0000000000000000000000000000000000000000000000000000000082167f4e2312e000000000000000000000000000000000000000000000000000000000148061028857507f01ffc9a7000000000000000000000000000000000000000000000000000000007fffffffff00000000000000000000000000000000000000000000000000000000831614610288565b611a6560405180606001604052806000815260200160008152602001600081525090565b81516020830151808203611ad5576040517f08c379a000000000000000000000000000000000000000000000000000000000815260206004820152601460248201527f506f6f6c4c6f6769633a2053414d455f5349444500000000000000000000000060448201526064016106a7565b811580611ae25750601082145b80611aed5750602082145b80611af85750603082145b611b5e576040517f08c379a000000000000000000000000000000000000000000000000000000000815260206004820152601a60248201527f506f6f6c4c6f6769633a20494e56414c49445f534944455f494e00000000000060448201526064016106a7565b801580611b6b5750601081145b80611b765750602081145b80611b815750603081145b611be7576040517f08c379a000000000000000000000000000000000000000000000000000000000815260206004820152601b60248201527f506f6f6c4c6f6769633a20494e56414c49445f534944455f4f5554000000000060448201526064016106a7565b60006040518060600160405280611c018860400151613291565b8152600080547bffffffffffffffffffffffffffffffffffffffffffffffffffffffff640100000000918290048116602085015260015491909104166040909201919091529091508080611c5789858888613323565b60408b0152865160a08d015193965091945092508390038290039015611d305760005463ffffffff9081164203168015611d2e576000611c9b828d60a001516133fb565b90506000611cb3868368010000000000000000613428565b90506000611ccb868468010000000000000000613428565b905086821080611cda57508581105b15611d2a57611cea826001612b6e565b9650611cf7816001612b6e565b600080547fffffffffffffffffffffffffffffffffffffffffffffffffffffffff00000000164263ffffffff1617905595505b5050505b505b60c08a015115611e94576000828411611d4b57838303611d4f565b8284035b90506001811115611e925785516001547fffffffffffffffffffffffffffffffffffffffffffffffffffffffffffffffff9092019163fffffffe908116429091160363ffffffff168015611e8f57600085871115611dbd57611db48387868603613486565b87039050611dcf565b611dca8388868603613486565b860390505b6000611de08f60c001518387613428565b9050611ded600182612b6e565b90506000611dfb84836133fb565b9050611e11838268010000000000000000613428565b8084039314611e8b5787891115611e3d57611e2f83898b8803613486565b880197508289039850611e54565b611e4a838a8a8803613486565b8901985082880397505b6001805463ffffffff8082168701167fffffffffffffffffffffffffffffffffffffffffffffffffffffffff000000009091161790555b5050505b50505b505b7f000000000000000000000000000000000000000000000000000000000000000015611f375760007f0000000000000000000000000000000000000000000000000000000000000000828486896000015103030381611ef557611ef5614b21565b0490508015611f3557611f2d8b604001517f0000000000000000000000000000000000000000000000000000000000000000836129d8565b855181900386525b505b506000886040015173ffffffffffffffffffffffffffffffffffffffff1663dc0192e8604051806080016040528087815260200188600001518152602001868152602001858152508b606001516040518363ffffffff1660e01b8152600401611fa1929190614b77565b606060405180830381865afa158015611fbe573d6000803e3d6000fd5b505050506040513d601f19601f82011682018060405250810190611fe29190614bb7565b90507bffffffffffffffffffffffffffffffffffffffffffffffffffffffff801681602001511115612070576040517f08c379a000000000000000000000000000000000000000000000000000000000815260206004820152601c60248201527f506f6f6c4c6f6769633a205354415445315f4f564552464c4f575f410000000060448201526064016106a7565b60408101517bffffffffffffffffffffffffffffffffffffffffffffffffffffffff10156120fa576040517f08c379a000000000000000000000000000000000000000000000000000000000815260206004820152601c60248201527f506f6f6c4c6f6769633a205354415445315f4f564552464c4f575f420000000060448201526064016106a7565b6000806121078684613556565b90925090508861219c578482101580156121215750838110155b612187576040517f08c379a000000000000000000000000000000000000000000000000000000000815260206004820152601b60248201527f506f6f6c4c6f6769633a20494e56414c49445f5354415445315f52000000000060448201526064016106a7565b865183516121959190614b64565b8a5261245a565b825187511015612208576040517f08c379a000000000000000000000000000000000000000000000000000000000815260206004820152601c60248201527f506f6f6c4c6f6769633a20494e56414c49445f5354415445315f4e520000000060448201526064016106a7565b60006122138a6135b0565b905060108a036122a25784821015612287576040517f08c379a000000000000000000000000000000000000000000000000000000000815260206004820152601b60248201527f506f6f6c4c6f6769633a20494e56414c49445f5354415445315f41000000000060448201526064016106a7565b61229b816122958589614b64565b88613428565b8b526123e9565b8583101561230c576040517f08c379a000000000000000000000000000000000000000000000000000000000815260206004820152601c60248201527f506f6f6c4c6f6769633a20494e56414c49445f5354415445315f4e410000000060448201526064016106a7565b60208a036123285761229b816123228488614b64565b87613428565b84821015612392576040517f08c379a000000000000000000000000000000000000000000000000000000000815260206004820152601c60248201527f506f6f6c4c6f6769633a20494e56414c49445f5354415445315f4e420000000060448201526064016106a7565b600085878a600001516123a59190614b64565b6123af9190614b64565b90506000838587600001516123c49190614b64565b6123ce9190614b64565b90506123e4836123de8385614b64565b84613428565b8d5250505b8a5181036103e81115612458576040517f08c379a000000000000000000000000000000000000000000000000000000000815260206004820152601960248201527f506f6f6c4c6f6769633a204d494e494d554d5f535550504c590000000000000060448201526064016106a7565b505b87612477578251875161246d9190614b64565b60208b01526126bf565b60308803612552576000848689600001516124929190614b64565b61249c9190614b64565b90506000828486600001516124b19190614b64565b6124bb9190614b64565b90506103e8811015612529576040517f08c379a000000000000000000000000000000000000000000000000000000000815260206004820152601c60248201527f506f6f6c4c6f6769633a204d494e494d554d5f524553455256455f430000000060448201526064016106a7565b6125456125358b6135b0565b61253f8484614b64565b84613486565b60208d0152506126bf9050565b601088036125ec576103e88210156125c6576040517f08c379a000000000000000000000000000000000000000000000000000000000815260206004820152601c60248201527f506f6f6c4c6f6769633a204d494e494d554d5f524553455256455f410000000060448201526064016106a7565b6125e26125d2896135b0565b6125dc8785614b64565b87613486565b60208b015261267a565b6103e8811015612658576040517f08c379a000000000000000000000000000000000000000000000000000000000815260206004820152601c60248201527f506f6f6c4c6f6769633a204d494e494d554d5f524553455256455f420000000060448201526064016106a7565b612674612664896135b0565b61266e8684614b64565b86613486565b60208b01525b7001000000000000000000000000000000008c6101400151146126bf576126bc8a600001517001000000000000000000000000000000008e6101400151613486565b8a525b505060208101516000805463ffffffff9081166401000000007bffffffffffffffffffffffffffffffffffffffffffffffffffffffff948516810291909117909255604090930151600180549094169216021790555094979650505050505050565b600061272e826014614a7e565b83511015612798576040517f08c379a000000000000000000000000000000000000000000000000000000000815260206004820152601560248201527f746f416464726573735f6f75744f66426f756e6473000000000000000000000060448201526064016106a7565b5001602001516c01000000000000000000000000900490565b6040805173ffffffffffffffffffffffffffffffffffffffff85811660248301528481166044830152606480830185905283518084039091018152608490920183526020820180517bffffffffffffffffffffffffffffffffffffffffffffffffffffffff167f23b872dd0000000000000000000000000000000000000000000000000000000017905291516000928392908816916128509190614bf3565b6000604051808303816000865af19150503d806000811461288d576040519150601f19603f3d011682016040523d82523d6000602084013e612892565b606091505b50915091508180156128bc5750805115806128bc5750808060200190518101906128bc9190614c0f565b612948576040517f08c379a000000000000000000000000000000000000000000000000000000000815260206004820152603160248201527f5472616e7366657248656c7065723a3a7472616e7366657246726f6d3a20747260448201527f616e7366657246726f6d206661696c656400000000000000000000000000000060648201526084016106a7565b505050505050565b60004283116129605750806129d1565b60e08401514284039081106129795760009150506129d1565b6000818660e001510390508561010001518110156129ab57856101000151818502816129a7576129a7614b21565b0493505b6129cc84876101200151700100000000000000000000000000000000613486565b925050505b9392505050565b6040805173ffffffffffffffffffffffffffffffffffffffff8481166024830152604480830185905283518084039091018152606490920183526020820180517bffffffffffffffffffffffffffffffffffffffffffffffffffffffff167fa9059cbb000000000000000000000000000000000000000000000000000000001790529151600092839290871691612a6f9190614bf3565b6000604051808303816000865af19150503d8060008114612aac576040519150601f19603f3d011682016040523d82523d6000602084013e612ab1565b606091505b5091509150818015612adb575080511580612adb575080806020019051810190612adb9190614c0f565b612b67576040517f08c379a000000000000000000000000000000000000000000000000000000000815260206004820152602d60248201527f5472616e7366657248656c7065723a3a736166655472616e736665723a20747260448201527f616e73666572206661696c65640000000000000000000000000000000000000060648201526084016106a7565b5050505050565b6000818311612b7d57816129d1565b5090919050565b60408051600481526024810182526020810180517bffffffffffffffffffffffffffffffffffffffffffffffffffffffff167f3850c7bd000000000000000000000000000000000000000000000000000000001790529051600091908290819073ffffffffffffffffffffffffffffffffffffffff861690612c07908590614bf3565b600060405180830381855afa9150503d8060008114612c42576040519150601f19603f3d011682016040523d82523d6000602084013e612c47565b606091505b50909250905081612c5a57805160208201fd5b60200151949350505050565b6000808263ffffffff16600003612cd9576040517f08c379a000000000000000000000000000000000000000000000000000000000815260206004820152600260248201527f425000000000000000000000000000000000000000000000000000000000000060448201526064016106a7565b6040805160028082526060820183526000926020830190803683370190505090508381600081518110612d0e57612d0e614c31565b602002602001019063ffffffff16908163ffffffff1681525050600081600181518110612d3d57612d3d614c31565b602002602001019063ffffffff16908163ffffffff16815250506000808673ffffffffffffffffffffffffffffffffffffffff1663883bdbfd846040518263ffffffff1660e01b8152600401612d939190614c60565b600060405180830381865afa158015612db0573d6000803e3d6000fd5b505050506040513d6000823e601f3d9081017fffffffffffffffffffffffffffffffffffffffffffffffffffffffffffffffe0168201604052612df69190810190614d0e565b91509150600082600081518110612e0f57612e0f614c31565b602002602001015183600181518110612e2a57612e2a614c31565b6020026020010151612e3c9190614dd0565b9050600082600081518110612e5357612e53614c31565b602002602001015183600181518110612e6e57612e6e614c31565b6020026020010151612e809190614e15565b9050612e9263ffffffff891683614e49565b965060008260060b128015612eb85750612eb263ffffffff891683614ebd565b60060b15155b15612ecb5786612ec781614edf565b9750505b6000612ef173ffffffffffffffffffffffffffffffffffffffff63ffffffff8b16614f3c565b9050612f1b77ffffffffffffffffffffffffffffffffffffffff00000000602084901b1682614f7f565b96505050505050509250929050565b60008060008360020b12612f41578260020b612f49565b8260020b6000035b9050620d89e8811115612f88576040517f2bc80f3a00000000000000000000000000000000000000000000000000000000815260040160405180910390fd5b600081600116600003612fac57700100000000000000000000000000000000612fbe565b6ffffcb933bd6fad37aa2d162d1a5940015b70ffffffffffffffffffffffffffffffffff1690506002821615612ff2576ffff97272373d413259a46990580e213a0260801c5b6004821615613011576ffff2e50f5f656932ef12357cf3c7fdcc0260801c5b6008821615613030576fffe5caca7e10e4e61c3624eaa0941cd00260801c5b601082161561304f576fffcb9843d60f6159c9db58835c9266440260801c5b602082161561306e576fff973b41fa98c081472e6896dfb254c00260801c5b604082161561308d576fff2ea16466c96a3843ec78b326b528610260801c5b60808216156130ac576ffe5dee046a99a2a811c461f1969c30530260801c5b6101008216156130cc576ffcbe86c7900a88aedcffc83b479aa3a40260801c5b6102008216156130ec576ff987a7253ac413176f2b074cf7815e540260801c5b61040082161561310c576ff3392b0822b70005940c7a398e4b70f30260801c5b61080082161561312c576fe7159475a2c29b7443b29c7fa6e889d90260801c5b61100082161561314c576fd097f3bdfd2022b8845ad8f792aa58250260801c5b61200082161561316c576fa9f746462d870fdf8a65dc1f90e061e50260801c5b61400082161561318c576f70d869a156d2a1b890bb3df62baf32f70260801c5b6180008216156131ac576f31be135f97d08fd981231505542fcfa60260801c5b620100008216156131cd576f09aa508b5b7a84e1c677de54f3e99bc90260801c5b620200008216156131ed576e5d6af8dedb81196699c329225ee6040260801c5b6204000082161561320c576d2216e584f5fa1ea926041bedfe980260801c5b62080000821615613229576b048a170391f7dc42444e8fa20260801c5b60008460020b131561326857807fffffffffffffffffffffffffffffffffffffffffffffffffffffffffffffffff8161326457613264614b21565b0490505b64010000000081061561327c57600161327f565b60005b60ff16602082901c0192505050919050565b6040517f70a0823100000000000000000000000000000000000000000000000000000000815230600482015260009073ffffffffffffffffffffffffffffffffffffffff8316906370a08231906024015b602060405180830381865afa1580156132ff573d6000803e3d6000fd5b505050506040513d601f19601f820116820180604052508101906102889190614a36565b6000806000806000806133418a600001518b6020015160001c61362b565b915091508082111561334f57905b601087148061335e5750602088145b15613386576133708a829450846136f2565b955061337c868a613556565b90955093506133ee565b60208714806133955750601088145b156133a7576133708a839450846136f2565b6133b48a839450846136f2565b95506133c0868a613556565b90955093508484118815036133ee576133dc8a829450846136f2565b95506133e8868a613556565b90955093505b5050945094509450949050565b60008061341d61340f84604087901b614b50565b61341890614fb6565b613787565b600f0b949350505050565b6000613435848484613486565b90506000828061344757613447614b21565b84860911156129d1577fffffffffffffffffffffffffffffffffffffffffffffffffffffffffffffffff811061347c57600080fd5b6001019392505050565b600080807fffffffffffffffffffffffffffffffffffffffffffffffffffffffffffffffff858709858702925082811083820303915050806000036134dd57600084116134d257600080fd5b5082900490506129d1565b8084116134e957600080fd5b6000848688096000868103871696879004966002600389028118808a02820302808a02820302808a02820302808a02820302808a02820302808a02909103029181900381900460010186841190950394909402919094039290920491909117919091029150509392505050565b60008061356c8484602001518560000151614270565b91506135a761359b857fffffffffffffffffffffffffffffffffffffffffffffffffffffffffffffffff614b50565b60408501518551614270565b90509250929050565b6040517fbd85b0390000000000000000000000000000000000000000000000000000000081523060a083901b1760048201526000907f000000000000000000000000000000000000000000000000000000000000000073ffffffffffffffffffffffffffffffffffffffff169063bd85b039906024016132e2565b60008073ffffffffffffffffffffffffffffffffffffffff841661365b5761365283610f8c565b915091506136eb565b6040517f7a33e3b00000000000000000000000000000000000000000000000000000000081526004810184905273ffffffffffffffffffffffffffffffffffffffff851690637a33e3b09060240160408051808303816000875af11580156136c7573d6000803e3d6000fd5b505050506040513d601f19601f820116820180604052508101906136529190614ff4565b9250929050565b60808201516000908281108015613707579092905b6137306137267001000000000000000000000000000000008685613486565b86606001516142d4565b92508260000361374c576137498483876060015161435b565b92505b801561377f5761377c837fffffffffffffffffffffffffffffffffffffffffffffffffffffffffffffffff614b50565b92505b505092915050565b60006840000000000000000082600f0b126137a157600080fd5b7fffffffffffffffffffffffffffffffffffffffffffffffc0000000000000000082600f0b12156137d457506000919050565b6f8000000000000000000000000000000060006780000000000000008416600f0b13156138125770016a09e667f3bcc908b2fb1366ea957d3e0260801c5b60008367400000000000000016600f0b131561383f577001306fe0a31b7152de8d5a46305c85edec0260801c5b60008367200000000000000016600f0b131561386c577001172b83c7d517adcdf7c8c50eb14a791f0260801c5b60008367100000000000000016600f0b13156138995770010b5586cf9890f6298b92b71842a983630260801c5b60008367080000000000000016600f0b13156138c6577001059b0d31585743ae7c548eb68ca417fd0260801c5b60008367040000000000000016600f0b13156138f357700102c9a3e778060ee6f7caca4f7a29bde80260801c5b60008367020000000000000016600f0b13156139205770010163da9fb33356d84a66ae336dcdfa3f0260801c5b60008367010000000000000016600f0b131561394d57700100b1afa5abcbed6129ab13ec11dc95430260801c5b600083668000000000000016600f0b13156139795770010058c86da1c09ea1ff19d294cf2f679b0260801c5b600083664000000000000016600f0b13156139a5577001002c605e2e8cec506d21bfc89a23a00f0260801c5b600083662000000000000016600f0b13156139d157700100162f3904051fa128bca9c55c31e5df0260801c5b600083661000000000000016600f0b13156139fd577001000b175effdc76ba38e31671ca9397250260801c5b600083660800000000000016600f0b1315613a2957700100058ba01fb9f96d6cacd4b180917c3d0260801c5b600083660400000000000016600f0b1315613a555770010002c5cc37da9491d0985c348c68e7b30260801c5b600083660200000000000016600f0b1315613a81577001000162e525ee054754457d59952920260260801c5b600083660100000000000016600f0b1315613aad5770010000b17255775c040618bf4a4ade83fc0260801c5b6000836580000000000016600f0b1315613ad8577001000058b91b5bc9ae2eed81e9b7d4cfab0260801c5b6000836540000000000016600f0b1315613b0357700100002c5c89d5ec6ca4d7c8acc017b7c90260801c5b6000836520000000000016600f0b1315613b2e5770010000162e43f4f831060e02d839a9d16d0260801c5b6000836510000000000016600f0b1315613b5957700100000b1721bcfc99d9f890ea069117630260801c5b6000836508000000000016600f0b1315613b845770010000058b90cf1e6d97f9ca14dbcc16280260801c5b6000836504000000000016600f0b1315613baf577001000002c5c863b73f016468f6bac5ca2b0260801c5b6000836502000000000016600f0b1315613bda57700100000162e430e5a18f6119e3c02282a50260801c5b6000836501000000000016600f0b1315613c05577001000000b1721835514b86e6d96efd1bfe0260801c5b60008364800000000016600f0b1315613c2f57700100000058b90c0b48c6be5df846c5b2ef0260801c5b60008364400000000016600f0b1315613c595770010000002c5c8601cc6b9e94213c72737a0260801c5b60008364200000000016600f0b1315613c83577001000000162e42fff037df38aa2b219f060260801c5b60008364100000000016600f0b1315613cad5770010000000b17217fba9c739aa5819f44f90260801c5b60008364080000000016600f0b1315613cd7577001000000058b90bfcdee5acd3c1cedc8230260801c5b60008364040000000016600f0b1315613d0157700100000002c5c85fe31f35a6a30da1be500260801c5b60008364020000000016600f0b1315613d2b5770010000000162e42ff0999ce3541b9fffcf0260801c5b60008364010000000016600f0b1315613d5557700100000000b17217f80f4ef5aadda455540260801c5b600083638000000016600f0b1315613d7e5770010000000058b90bfbf8479bd5a81b51ad0260801c5b600083634000000016600f0b1315613da7577001000000002c5c85fdf84bd62ae30a74cc0260801c5b600083632000000016600f0b1315613dd057700100000000162e42fefb2fed257559bdaa0260801c5b600083631000000016600f0b1315613df9577001000000000b17217f7d5a7716bba4a9ae0260801c5b600083630800000016600f0b1315613e2257700100000000058b90bfbe9ddbac5e109cce0260801c5b600083630400000016600f0b1315613e4b5770010000000002c5c85fdf4b15de6f17eb0d0260801c5b600083630200000016600f0b1315613e74577001000000000162e42fefa494f1478fde050260801c5b600083630100000016600f0b1315613e9d5770010000000000b17217f7d20cf927c8e94c0260801c5b6000836280000016600f0b1315613ec5577001000000000058b90bfbe8f71cb4e4b33d0260801c5b6000836240000016600f0b1315613eed57700100000000002c5c85fdf477b662b269450260801c5b6000836220000016600f0b1315613f155770010000000000162e42fefa3ae53369388c0260801c5b6000836210000016600f0b1315613f3d57700100000000000b17217f7d1d351a389d400260801c5b6000836208000016600f0b1315613f655770010000000000058b90bfbe8e8b2d3d4ede0260801c5b6000836204000016600f0b1315613f8d577001000000000002c5c85fdf4741bea6e77e0260801c5b6000836202000016600f0b1315613fb557700100000000000162e42fefa39fe95583c20260801c5b6000836201000016600f0b1315613fdd577001000000000000b17217f7d1cfb72b45e10260801c5b60008361800016600f0b131561400457700100000000000058b90bfbe8e7cc35c3f00260801c5b60008361400016600f0b131561402b5770010000000000002c5c85fdf473e242ea380260801c5b60008361200016600f0b1315614052577001000000000000162e42fefa39f02b772c0260801c5b60008361100016600f0b13156140795770010000000000000b17217f7d1cf7d83c1a0260801c5b60008361080016600f0b13156140a0577001000000000000058b90bfbe8e7bdcbe2e0260801c5b60008361040016600f0b13156140c757700100000000000002c5c85fdf473dea871f0260801c5b60008361020016600f0b13156140ee5770010000000000000162e42fefa39ef44d910260801c5b60008361010016600f0b131561411557700100000000000000b17217f7d1cf79e9490260801c5b600083608016600f0b131561413b5770010000000000000058b90bfbe8e7bce5440260801c5b600083604016600f0b1315614161577001000000000000002c5c85fdf473de6eca0260801c5b600083602016600f0b131561418757700100000000000000162e42fefa39ef366f0260801c5b600083601016600f0b13156141ad577001000000000000000b17217f7d1cf79afa0260801c5b600083600816600f0b13156141d357700100000000000000058b90bfbe8e7bcd6d0260801c5b600083600416600f0b13156141f95770010000000000000002c5c85fdf473de6b20260801c5b600083600216600f0b131561421f577001000000000000000162e42fefa39ef3580260801c5b600083600116600f0b13156142455770010000000000000000b17217f7d1cf79ab0260801c5b600f83810b60401d603f03900b1c6f7fffffffffffffffffffffffffffffff81111561028857600080fd5b600061428e8385700100000000000000000000000000000000613486565b9050600182901c8111156129d15760006142b984866f40000000000000000000000000000000613486565b905060006142c8848584613428565b90506129cc8185614b64565b60008082600116116142f7577001000000000000000000000000000000006142f9565b825b9050600182901c91505b8115610288576143258384700100000000000000000000000000000000613486565b9250600182161561434f5761434c8184700100000000000000000000000000000000613486565b90505b600182901c9150614303565b7001000000000000000000000000000000005b81156129d1576000614381828686613486565b90508060000361439157506129d1565b90508061439d83615018565b92505061436e565b6000602082840312156143b757600080fd5b81357fffffffff00000000000000000000000000000000000000000000000000000000811681146129d157600080fd5b815173ffffffffffffffffffffffffffffffffffffffff1681526101608101602083015160208301526040830151614437604084018273ffffffffffffffffffffffffffffffffffffffff169052565b50606083015160608301526080830151608083015260a083015160a083015260c083015160c083015260e083015160e083015261010080840151818401525061012080840151818401525061014080840151818401525092915050565b7f4e487b7100000000000000000000000000000000000000000000000000000000600052604160045260246000fd5b6040516060810167ffffffffffffffff811182821017156144e6576144e6614494565b60405290565b6040516080810167ffffffffffffffff811182821017156144e6576144e6614494565b604051610160810167ffffffffffffffff811182821017156144e6576144e6614494565b604051601f82017fffffffffffffffffffffffffffffffffffffffffffffffffffffffffffffffe016810167ffffffffffffffff8111828210171561457a5761457a614494565b604052919050565b73ffffffffffffffffffffffffffffffffffffffff811681146119a757600080fd5b600082601f8301126145b557600080fd5b813567ffffffffffffffff8111156145cf576145cf614494565b61460060207fffffffffffffffffffffffffffffffffffffffffffffffffffffffffffffffe0601f84011601614533565b81815284602083860101111561461557600080fd5b816020850160208301376000918101602001919091529392505050565b60006060828403121561464457600080fd5b61464c6144c3565b9050813561465981614582565b8152602082013567ffffffffffffffff81111561467557600080fd5b614681848285016145a4565b602083015250604082013561469581614582565b604082015292915050565b600080604083850312156146b357600080fd5b823567ffffffffffffffff808211156146cb57600080fd5b90840190608082870312156146df57600080fd5b6146e76144ec565b8235815260208301356020820152604083013561470381614582565b604082015260608301358281111561471a57600080fd5b614726888286016145a4565b6060830152509350602085013591508082111561474257600080fd5b5061474f85828601614632565b9150509250929050565b60006020828403121561476b57600080fd5b5035919050565b600067ffffffffffffffff82111561478c5761478c614494565b5060051b60200190565b600082601f8301126147a757600080fd5b813560206147bc6147b783614772565b614533565b82815260059290921b840181019181810190868411156147db57600080fd5b8286015b848110156147f657803583529183019183016147df565b509695505050505050565b600080600080600060a0868803121561481957600080fd5b853561482481614582565b9450602086013561483481614582565b9350604086013567ffffffffffffffff8082111561485157600080fd5b61485d89838a01614796565b9450606088013591508082111561487357600080fd5b61487f89838a01614796565b9350608088013591508082111561489557600080fd5b506148a2888289016145a4565b9150509295509295909350565b60008082840360808112156148c357600080fd5b60608112156148d157600080fd5b506148da6144c3565b83358152602084013560208201526040840135604082015280925050606083013567ffffffffffffffff81111561491057600080fd5b61474f85828601614632565b600080600080600060a0868803121561493457600080fd5b853561493f81614582565b9450602086013561494f81614582565b93506040860135925060608601359150608086013567ffffffffffffffff81111561497957600080fd5b6148a2888289016145a4565b805161499081614582565b919050565b600061016082840312156149a857600080fd5b6149b061450f565b6149b983614985565b8152602083015160208201526149d160408401614985565b6040820152606083015160608201526080830151608082015260a083015160a082015260c083015160c082015260e083015160e08201526101008084015181830152506101208084015181830152506101408084015181830152508091505092915050565b600060208284031215614a4857600080fd5b5051919050565b7f4e487b7100000000000000000000000000000000000000000000000000000000600052601160045260246000fd5b8082018082111561028857610288614a4f565b60005b83811015614aac578181015183820152602001614a94565b50506000910152565b60008151808452614acd816020860160208601614a91565b601f017fffffffffffffffffffffffffffffffffffffffffffffffffffffffffffffffe0169290920160200192915050565b604081526000614b126040830185614ab5565b90508260208301529392505050565b7f4e487b7100000000000000000000000000000000000000000000000000000000600052601260045260246000fd5b600082614b5f57614b5f614b21565b500490565b8181038181111561028857610288614a4f565b8251815260208301516020820152604083015160408201526060830151606082015260a060808201526000614baf60a0830184614ab5565b949350505050565b600060608284031215614bc957600080fd5b614bd16144c3565b8251815260208301516020820152604083015160408201528091505092915050565b60008251614c05818460208701614a91565b9190910192915050565b600060208284031215614c2157600080fd5b815180151581146129d157600080fd5b7f4e487b7100000000000000000000000000000000000000000000000000000000600052603260045260246000fd5b6020808252825182820181905260009190848201906040850190845b81811015614c9e57835163ffffffff1683529284019291840191600101614c7c565b50909695505050505050565b600082601f830112614cbb57600080fd5b81516020614ccb6147b783614772565b82815260059290921b84018101918181019086841115614cea57600080fd5b8286015b848110156147f6578051614d0181614582565b8352918301918301614cee565b60008060408385031215614d2157600080fd5b825167ffffffffffffffff80821115614d3957600080fd5b818501915085601f830112614d4d57600080fd5b81516020614d5d6147b783614772565b82815260059290921b84018101918181019089841115614d7c57600080fd5b948201945b83861015614daa5785518060060b8114614d9b5760008081fd5b82529482019490820190614d81565b91880151919650909350505080821115614dc357600080fd5b5061474f85828601614caa565b600682810b9082900b037fffffffffffffffffffffffffffffffffffffffffffffffffff800000000000008112667fffffffffffff8213171561028857610288614a4f565b73ffffffffffffffffffffffffffffffffffffffff828116828216039080821115614e4257614e42614a4f565b5092915050565b60008160060b8360060b80614e6057614e60614b21565b7fffffffffffffffffffffffffffffffffffffffffffffffffffffffffffffffff81147fffffffffffffffffffffffffffffffffffffffffffffffffff8000000000000083141615614eb457614eb4614a4f565b90059392505050565b60008260060b80614ed057614ed0614b21565b808360060b0791505092915050565b60008160020b7fffffffffffffffffffffffffffffffffffffffffffffffffffffffffff8000008103614f1457614f14614a4f565b7fffffffffffffffffffffffffffffffffffffffffffffffffffffffffffffffff0192915050565b77ffffffffffffffffffffffffffffffffffffffffffffffff828116828216818102831692918115828504821417614f7657614f76614a4f565b50505092915050565b600077ffffffffffffffffffffffffffffffffffffffffffffffff80841680614faa57614faa614b21565b92169190910492915050565b600081600f0b7fffffffffffffffffffffffffffffffff800000000000000000000000000000008103614feb57614feb614a4f565b60000392915050565b6000806040838503121561500757600080fd5b505080516020909101519092909150565b60008161502757615027614a4f565b507fffffffffffffffffffffffffffffffffffffffffffffffffffffffffffffffff019056fea164736f6c6343000814000a",
  "linkReferences": {},
  "deployedLinkReferences": {}
}