{
  "_format": "hh-sol-artifact-1",
  "contractName": "PairDetailsV3",
  "sourceName": "contracts/PairDetailsV3.sol",
  "abi": [
    {
      "inputs": [
        {
          "internalType": "address[]",
          "name": "pairs",
          "type": "address[]"
        },
        {
          "internalType": "uint256",
          "name": "flags",
          "type": "uint256"
        }
      ],
      "name": "query",
      "outputs": [
        {
          "components": [
            {
              "internalType": "address",
              "name": "factory",
              "type": "address"
            },
            {
              "components": [
                {
                  "internalType": "address",
                  "name": "adr",
                  "type": "address"
                },
                {
                  "internalType": "string",
                  "name": "symbol",
                  "type": "string"
                },
                {
                  "internalType": "string",
                  "name": "name",
                  "type": "string"
                },
                {
                  "internalType": "uint256",
                  "name": "decimals",
                  "type": "uint256"
                },
                {
                  "internalType": "uint256",
                  "name": "totalSupply",
                  "type": "uint256"
                }
              ],
              "internalType": "struct PairDetailsV3.Token",
              "name": "token0",
              "type": "tuple"
            },
            {
              "components": [
                {
                  "internalType": "address",
                  "name": "adr",
                  "type": "address"
                },
                {
                  "internalType": "string",
                  "name": "symbol",
                  "type": "string"
                },
                {
                  "internalType": "string",
                  "name": "name",
                  "type": "string"
                },
                {
                  "internalType": "uint256",
                  "name": "decimals",
                  "type": "uint256"
                },
                {
                  "internalType": "uint256",
                  "name": "totalSupply",
                  "type": "uint256"
                }
              ],
              "internalType": "struct PairDetailsV3.Token",
              "name": "token1",
              "type": "tuple"
            }
          ],
          "internalType": "struct PairDetailsV3.PairDetail[]",
          "name": "details",
          "type": "tuple[]"
        }
      ],
      "stateMutability": "view",
      "type": "function"
    }
  ],
  "bytecode": "0x608060405234801561001057600080fd5b50610dec806100206000396000f3fe608060405234801561001057600080fd5b506004361061002b5760003560e01c8063de0c9b4914610030575b600080fd5b61004361003e366004610963565b610059565b6040516100509190610ac7565b60405180910390f35b60608267ffffffffffffffff81111561007457610074610b8c565b6040519080825280602002602001820160405280156100ad57816020015b61009a6108a1565b8152602001906001900390816100925790505b50905060005b838110156108995760008585838181106100cf576100cf610bbb565b90506020020160208101906100e49190610c0f565b90507d0100000000000000000000000000000000000000000000000000000000008416156101b3578073ffffffffffffffffffffffffffffffffffffffff1663c45a01556040518163ffffffff1660e01b8152600401602060405180830381865afa158015610157573d6000803e3d6000fd5b505050506040513d601f19601f8201168201806040525081019061017b9190610c33565b83838151811061018d5761018d610bbb565b602090810291909101015173ffffffffffffffffffffffffffffffffffffffff90911690525b60008173ffffffffffffffffffffffffffffffffffffffff16630dfe16816040518163ffffffff1660e01b8152600401602060405180830381865afa158015610200573d6000803e3d6000fd5b505050506040513d601f19601f820116820180604052508101906102249190610c33565b84848151811061023657610236610bbb565b6020026020010151602001516000019073ffffffffffffffffffffffffffffffffffffffff16908173ffffffffffffffffffffffffffffffffffffffff16815250905060008273ffffffffffffffffffffffffffffffffffffffff1663d21220a76040518163ffffffff1660e01b8152600401602060405180830381865afa1580156102c6573d6000803e3d6000fd5b505050506040513d601f19601f820116820180604052508101906102ea9190610c33565b8585815181106102fc576102fc610bbb565b60209081029190910101516040015173ffffffffffffffffffffffffffffffffffffffff909116908190529050600186161561049f578173ffffffffffffffffffffffffffffffffffffffff166395d89b416040518163ffffffff1660e01b8152600401600060405180830381865afa15801561037d573d6000803e3d6000fd5b505050506040513d6000823e601f3d9081017fffffffffffffffffffffffffffffffffffffffffffffffffffffffffffffffe01682016040526103c39190810190610c50565b8585815181106103d5576103d5610bbb565b602002602001015160200151602001819052508073ffffffffffffffffffffffffffffffffffffffff166395d89b416040518163ffffffff1660e01b8152600401600060405180830381865afa158015610433573d6000803e3d6000fd5b505050506040513d6000823e601f3d9081017fffffffffffffffffffffffffffffffffffffffffffffffffffffffffffffffe01682016040526104799190810190610c50565b85858151811061048b5761048b610bbb565b602002602001015160400151602001819052505b6010861615610615578173ffffffffffffffffffffffffffffffffffffffff166306fdde036040518163ffffffff1660e01b8152600401600060405180830381865afa1580156104f3573d6000803e3d6000fd5b505050506040513d6000823e601f3d9081017fffffffffffffffffffffffffffffffffffffffffffffffffffffffffffffffe01682016040526105399190810190610c50565b85858151811061054b5761054b610bbb565b602002602001015160200151604001819052508073ffffffffffffffffffffffffffffffffffffffff166306fdde036040518163ffffffff1660e01b8152600401600060405180830381865afa1580156105a9573d6000803e3d6000fd5b505050506040513d6000823e601f3d9081017fffffffffffffffffffffffffffffffffffffffffffffffffffffffffffffffe01682016040526105ef9190810190610c50565b85858151811061060157610601610bbb565b602002602001015160400151604001819052505b610100861615610750578173ffffffffffffffffffffffffffffffffffffffff1663313ce5676040518163ffffffff1660e01b8152600401602060405180830381865afa15801561066a573d6000803e3d6000fd5b505050506040513d601f19601f8201168201806040525081019061068e9190610d1b565b60ff168585815181106106a3576106a3610bbb565b60200260200101516020015160600181815250508073ffffffffffffffffffffffffffffffffffffffff1663313ce5676040518163ffffffff1660e01b8152600401602060405180830381865afa158015610702573d6000803e3d6000fd5b505050506040513d601f19601f820116820180604052508101906107269190610d1b565b60ff1685858151811061073b5761073b610bbb565b60200260200101516040015160600181815250505b611000861615610885578173ffffffffffffffffffffffffffffffffffffffff166318160ddd6040518163ffffffff1660e01b8152600401602060405180830381865afa1580156107a5573d6000803e3d6000fd5b505050506040513d601f19601f820116820180604052508101906107c99190610d3e565b8585815181106107db576107db610bbb565b60200260200101516020015160800181815250508073ffffffffffffffffffffffffffffffffffffffff166318160ddd6040518163ffffffff1660e01b8152600401602060405180830381865afa15801561083a573d6000803e3d6000fd5b505050506040513d601f19601f8201168201806040525081019061085e9190610d3e565b85858151811061087057610870610bbb565b60200260200101516040015160800181815250505b5050508061089290610d57565b90506100b3565b509392505050565b6040518060600160405280600073ffffffffffffffffffffffffffffffffffffffff1681526020016109116040518060a00160405280600073ffffffffffffffffffffffffffffffffffffffff168152602001606081526020016060815260200160008152602001600081525090565b815260200161095e6040518060a00160405280600073ffffffffffffffffffffffffffffffffffffffff168152602001606081526020016060815260200160008152602001600081525090565b905290565b60008060006040848603121561097857600080fd5b833567ffffffffffffffff8082111561099057600080fd5b818601915086601f8301126109a457600080fd5b8135818111156109b357600080fd5b8760208260051b85010111156109c857600080fd5b6020928301989097509590910135949350505050565b60005b838110156109f95781810151838201526020016109e1565b83811115610a08576000848401525b50505050565b60008151808452610a268160208601602086016109de565b601f017fffffffffffffffffffffffffffffffffffffffffffffffffffffffffffffffe0169290920160200192915050565b73ffffffffffffffffffffffffffffffffffffffff81511682526000602082015160a06020850152610a8d60a0850182610a0e565b905060408301518482036040860152610aa68282610a0e565b91505060608301516060850152608083015160808501528091505092915050565b60006020808301818452808551808352604092508286019150828160051b87010184880160005b83811015610b7e577fffffffffffffffffffffffffffffffffffffffffffffffffffffffffffffffc08984030185528151606073ffffffffffffffffffffffffffffffffffffffff825116855288820151818a870152610b5082870182610a58565b91505087820151915084810388860152610b6a8183610a58565b968901969450505090860190600101610aee565b509098975050505050505050565b7f4e487b7100000000000000000000000000000000000000000000000000000000600052604160045260246000fd5b7f4e487b7100000000000000000000000000000000000000000000000000000000600052603260045260246000fd5b73ffffffffffffffffffffffffffffffffffffffff81168114610c0c57600080fd5b50565b600060208284031215610c2157600080fd5b8135610c2c81610bea565b9392505050565b600060208284031215610c4557600080fd5b8151610c2c81610bea565b600060208284031215610c6257600080fd5b815167ffffffffffffffff80821115610c7a57600080fd5b818401915084601f830112610c8e57600080fd5b815181811115610ca057610ca0610b8c565b604051601f82017fffffffffffffffffffffffffffffffffffffffffffffffffffffffffffffffe0908116603f01168101908382118183101715610ce657610ce6610b8c565b81604052828152876020848701011115610cff57600080fd5b610d108360208301602088016109de565b979650505050505050565b600060208284031215610d2d57600080fd5b815160ff81168114610c2c57600080fd5b600060208284031215610d5057600080fd5b5051919050565b60007fffffffffffffffffffffffffffffffffffffffffffffffffffffffffffffffff8203610daf577f4e487b7100000000000000000000000000000000000000000000000000000000600052601160045260246000fd5b506001019056fea2646970667358221220b8182352dd61150b4e9cb5ef7c56fdc8e70bce6c52a7cdaa5bb4e9fca58bb89764736f6c634300080d0033",
  "linkReferences": {},
  "deployedLinkReferences": {}
}