{
  "_format": "hh-sol-artifact-1",
  "contractName": "PairDetailsV3",
  "sourceName": "contracts/test/PairDetailsV3.sol",
  "abi": [
    {
      "inputs": [
        {
          "internalType": "address[]",
          "name": "pairs",
          "type": "address[]"
        },
        {
          "internalType": "uint256",
          "name": "flags",
          "type": "uint256"
        }
      ],
      "name": "query",
      "outputs": [
        {
          "components": [
            {
              "internalType": "address",
              "name": "factory",
              "type": "address"
            },
            {
              "components": [
                {
                  "internalType": "address",
                  "name": "adr",
                  "type": "address"
                },
                {
                  "internalType": "string",
                  "name": "symbol",
                  "type": "string"
                },
                {
                  "internalType": "string",
                  "name": "name",
                  "type": "string"
                },
                {
                  "internalType": "uint256",
                  "name": "decimals",
                  "type": "uint256"
                },
                {
                  "internalType": "uint256",
                  "name": "totalSupply",
                  "type": "uint256"
                }
              ],
              "internalType": "struct PairDetailsV3.Token",
              "name": "token0",
              "type": "tuple"
            },
            {
              "components": [
                {
                  "internalType": "address",
                  "name": "adr",
                  "type": "address"
                },
                {
                  "internalType": "string",
                  "name": "symbol",
                  "type": "string"
                },
                {
                  "internalType": "string",
                  "name": "name",
                  "type": "string"
                },
                {
                  "internalType": "uint256",
                  "name": "decimals",
                  "type": "uint256"
                },
                {
                  "internalType": "uint256",
                  "name": "totalSupply",
                  "type": "uint256"
                }
              ],
              "internalType": "struct PairDetailsV3.Token",
              "name": "token1",
              "type": "tuple"
            }
          ],
          "internalType": "struct PairDetailsV3.PairDetail[]",
          "name": "details",
          "type": "tuple[]"
        }
      ],
      "stateMutability": "view",
      "type": "function"
    },
    {
      "inputs": [],
      "name": "test",
      "outputs": [
        {
          "internalType": "uint256",
          "name": "a",
          "type": "uint256"
        }
      ],
      "stateMutability": "view",
      "type": "function"
    }
  ],
  "bytecode": "0x608060405234801561001057600080fd5b50610e07806100206000396000f3fe608060405234801561001057600080fd5b50600436106100365760003560e01c8063de0c9b491461003b578063f8a8fd6d14610064575b600080fd5b61004e61004936600461097e565b610074565b60405161005b9190610ae2565b60405180910390f35b6040516103e8815260200161005b565b60608267ffffffffffffffff81111561008f5761008f610ba7565b6040519080825280602002602001820160405280156100c857816020015b6100b56108bc565b8152602001906001900390816100ad5790505b50905060005b838110156108b45760008585838181106100ea576100ea610bd6565b90506020020160208101906100ff9190610c2a565b90507d0100000000000000000000000000000000000000000000000000000000008416156101ce578073ffffffffffffffffffffffffffffffffffffffff1663c45a01556040518163ffffffff1660e01b8152600401602060405180830381865afa158015610172573d6000803e3d6000fd5b505050506040513d601f19601f820116820180604052508101906101969190610c4e565b8383815181106101a8576101a8610bd6565b602090810291909101015173ffffffffffffffffffffffffffffffffffffffff90911690525b60008173ffffffffffffffffffffffffffffffffffffffff16630dfe16816040518163ffffffff1660e01b8152600401602060405180830381865afa15801561021b573d6000803e3d6000fd5b505050506040513d601f19601f8201168201806040525081019061023f9190610c4e565b84848151811061025157610251610bd6565b6020026020010151602001516000019073ffffffffffffffffffffffffffffffffffffffff16908173ffffffffffffffffffffffffffffffffffffffff16815250905060008273ffffffffffffffffffffffffffffffffffffffff1663d21220a76040518163ffffffff1660e01b8152600401602060405180830381865afa1580156102e1573d6000803e3d6000fd5b505050506040513d601f19601f820116820180604052508101906103059190610c4e565b85858151811061031757610317610bd6565b60209081029190910101516040015173ffffffffffffffffffffffffffffffffffffffff90911690819052905060018616156104ba578173ffffffffffffffffffffffffffffffffffffffff166395d89b416040518163ffffffff1660e01b8152600401600060405180830381865afa158015610398573d6000803e3d6000fd5b505050506040513d6000823e601f3d9081017fffffffffffffffffffffffffffffffffffffffffffffffffffffffffffffffe01682016040526103de9190810190610c6b565b8585815181106103f0576103f0610bd6565b602002602001015160200151602001819052508073ffffffffffffffffffffffffffffffffffffffff166395d89b416040518163ffffffff1660e01b8152600401600060405180830381865afa15801561044e573d6000803e3d6000fd5b505050506040513d6000823e601f3d9081017fffffffffffffffffffffffffffffffffffffffffffffffffffffffffffffffe01682016040526104949190810190610c6b565b8585815181106104a6576104a6610bd6565b602002602001015160400151602001819052505b6010861615610630578173ffffffffffffffffffffffffffffffffffffffff166306fdde036040518163ffffffff1660e01b8152600401600060405180830381865afa15801561050e573d6000803e3d6000fd5b505050506040513d6000823e601f3d9081017fffffffffffffffffffffffffffffffffffffffffffffffffffffffffffffffe01682016040526105549190810190610c6b565b85858151811061056657610566610bd6565b602002602001015160200151604001819052508073ffffffffffffffffffffffffffffffffffffffff166306fdde036040518163ffffffff1660e01b8152600401600060405180830381865afa1580156105c4573d6000803e3d6000fd5b505050506040513d6000823e601f3d9081017fffffffffffffffffffffffffffffffffffffffffffffffffffffffffffffffe016820160405261060a9190810190610c6b565b85858151811061061c5761061c610bd6565b602002602001015160400151604001819052505b61010086161561076b578173ffffffffffffffffffffffffffffffffffffffff1663313ce5676040518163ffffffff1660e01b8152600401602060405180830381865afa158015610685573d6000803e3d6000fd5b505050506040513d601f19601f820116820180604052508101906106a99190610d36565b60ff168585815181106106be576106be610bd6565b60200260200101516020015160600181815250508073ffffffffffffffffffffffffffffffffffffffff1663313ce5676040518163ffffffff1660e01b8152600401602060405180830381865afa15801561071d573d6000803e3d6000fd5b505050506040513d601f19601f820116820180604052508101906107419190610d36565b60ff1685858151811061075657610756610bd6565b60200260200101516040015160600181815250505b6110008616156108a0578173ffffffffffffffffffffffffffffffffffffffff166318160ddd6040518163ffffffff1660e01b8152600401602060405180830381865afa1580156107c0573d6000803e3d6000fd5b505050506040513d601f19601f820116820180604052508101906107e49190610d59565b8585815181106107f6576107f6610bd6565b60200260200101516020015160800181815250508073ffffffffffffffffffffffffffffffffffffffff166318160ddd6040518163ffffffff1660e01b8152600401602060405180830381865afa158015610855573d6000803e3d6000fd5b505050506040513d601f19601f820116820180604052508101906108799190610d59565b85858151811061088b5761088b610bd6565b60200260200101516040015160800181815250505b505050806108ad90610d72565b90506100ce565b509392505050565b6040518060600160405280600073ffffffffffffffffffffffffffffffffffffffff16815260200161092c6040518060a00160405280600073ffffffffffffffffffffffffffffffffffffffff168152602001606081526020016060815260200160008152602001600081525090565b81526020016109796040518060a00160405280600073ffffffffffffffffffffffffffffffffffffffff168152602001606081526020016060815260200160008152602001600081525090565b905290565b60008060006040848603121561099357600080fd5b833567ffffffffffffffff808211156109ab57600080fd5b818601915086601f8301126109bf57600080fd5b8135818111156109ce57600080fd5b8760208260051b85010111156109e357600080fd5b6020928301989097509590910135949350505050565b60005b83811015610a145781810151838201526020016109fc565b83811115610a23576000848401525b50505050565b60008151808452610a418160208601602086016109f9565b601f017fffffffffffffffffffffffffffffffffffffffffffffffffffffffffffffffe0169290920160200192915050565b73ffffffffffffffffffffffffffffffffffffffff81511682526000602082015160a06020850152610aa860a0850182610a29565b905060408301518482036040860152610ac18282610a29565b91505060608301516060850152608083015160808501528091505092915050565b60006020808301818452808551808352604092508286019150828160051b87010184880160005b83811015610b99577fffffffffffffffffffffffffffffffffffffffffffffffffffffffffffffffc08984030185528151606073ffffffffffffffffffffffffffffffffffffffff825116855288820151818a870152610b6b82870182610a73565b91505087820151915084810388860152610b858183610a73565b968901969450505090860190600101610b09565b509098975050505050505050565b7f4e487b7100000000000000000000000000000000000000000000000000000000600052604160045260246000fd5b7f4e487b7100000000000000000000000000000000000000000000000000000000600052603260045260246000fd5b73ffffffffffffffffffffffffffffffffffffffff81168114610c2757600080fd5b50565b600060208284031215610c3c57600080fd5b8135610c4781610c05565b9392505050565b600060208284031215610c6057600080fd5b8151610c4781610c05565b600060208284031215610c7d57600080fd5b815167ffffffffffffffff80821115610c9557600080fd5b818401915084601f830112610ca957600080fd5b815181811115610cbb57610cbb610ba7565b604051601f82017fffffffffffffffffffffffffffffffffffffffffffffffffffffffffffffffe0908116603f01168101908382118183101715610d0157610d01610ba7565b81604052828152876020848701011115610d1a57600080fd5b610d2b8360208301602088016109f9565b979650505050505050565b600060208284031215610d4857600080fd5b815160ff81168114610c4757600080fd5b600060208284031215610d6b57600080fd5b5051919050565b60007fffffffffffffffffffffffffffffffffffffffffffffffffffffffffffffffff8203610dca577f4e487b7100000000000000000000000000000000000000000000000000000000600052601160045260246000fd5b506001019056fea26469706673582212200aa2ebe7a20c1e845e67f75fb6f6b985e81124c57d8b1d32d985e05ed933603064736f6c634300080d0033",
  "linkReferences": {},
  "deployedLinkReferences": {}
}