{
  "_format": "hh-sol-artifact-1",
  "contractName": "View",
  "sourceName": "contracts/View.sol",
  "abi": [
    {
      "inputs": [],
      "name": "T",
      "type": "error"
    },
    {
      "inputs": [
        {
          "internalType": "bytes32",
          "name": "ORACLE",
          "type": "bytes32"
        },
        {
          "internalType": "uint256",
          "name": "MARK",
          "type": "uint256"
        },
        {
          "internalType": "address",
          "name": "TOKEN_R",
          "type": "address"
        },
        {
          "internalType": "uint256",
          "name": "k",
          "type": "uint256"
        },
        {
          "internalType": "address",
          "name": "TOKEN",
          "type": "address"
        }
      ],
      "name": "getStates",
      "outputs": [
        {
          "components": [
            {
              "internalType": "uint256",
              "name": "sA",
              "type": "uint256"
            },
            {
              "internalType": "uint256",
              "name": "sB",
              "type": "uint256"
            },
            {
              "internalType": "uint256",
              "name": "sC",
              "type": "uint256"
            },
            {
              "internalType": "uint256",
              "name": "R",
              "type": "uint256"
            },
            {
              "internalType": "uint256",
              "name": "rA",
              "type": "uint256"
            },
            {
              "internalType": "uint256",
              "name": "rB",
              "type": "uint256"
            },
            {
              "internalType": "uint256",
              "name": "rC",
              "type": "uint256"
            },
            {
              "internalType": "uint256",
              "name": "a",
              "type": "uint256"
            },
            {
              "internalType": "uint256",
              "name": "b",
              "type": "uint256"
            },
            {
              "internalType": "uint256",
              "name": "xk",
              "type": "uint256"
            },
            {
              "internalType": "uint256",
              "name": "twap",
              "type": "uint256"
            },
            {
              "internalType": "uint256",
              "name": "spot",
              "type": "uint256"
            },
            {
              "internalType": "bytes32",
              "name": "ORACLE",
              "type": "bytes32"
            }
          ],
          "internalType": "struct View.StateView",
          "name": "states",
          "type": "tuple"
        }
      ],
      "stateMutability": "view",
      "type": "function"
    },
    {
      "inputs": [],
      "name": "test",
      "outputs": [
        {
          "internalType": "uint256",
          "name": "",
          "type": "uint256"
        }
      ],
      "stateMutability": "pure",
      "type": "function"
    }
  ],
  "bytecode": "0x608060405234801561001057600080fd5b506114d0806100206000396000f3fe608060405234801561001057600080fd5b50600436106100365760003560e01c806378ace0fb1461003b578063f8a8fd6d146100ea575b600080fd5b61004e610049366004610e6d565b6100fa565b6040516100e19190815181526020808301519082015260408083015190820152606080830151908201526080808301519082015260a0808301519082015260c0808301519082015260e08083015190820152610100808301519082015261012080830151908201526101408083015190820152610160808301519082015261018091820151918101919091526101a00190565b60405180910390f35b6040516103e881526020016100e1565b610168604051806101a00160405280600081526020016000815260200160008152602001600081526020016000815260200160008152602001600081526020016000815260200160008152602001600081526020016000815260200160008152602001600080191681525090565b61017186610462565b610160830152610140820152600061018a3060106105e8565b905060006101993060206105e8565b905060006101a83060306105e8565b6000805460e0870152600154610100870152610140860151919250906101cf908a89610615565b61012086018190526040517f70a0823100000000000000000000000000000000000000000000000000000000815230600482015290915073ffffffffffffffffffffffffffffffffffffffff8916906370a0823190602401602060405180830381865afa158015610244573d6000803e3d6000fd5b505050506040513d601f19601f820116820180604052508101906102689190610ec3565b6060860181905260005461027e91839190610649565b60808601526001546060860151610296918391610649565b60a08601526040517fbd85b0390000000000000000000000000000000000000000000000000000000081526004810185905273ffffffffffffffffffffffffffffffffffffffff87169063bd85b03990602401602060405180830381865afa158015610306573d6000803e3d6000fd5b505050506040513d601f19601f8201168201806040525081019061032a9190610ec3565b85526040517fbd85b0390000000000000000000000000000000000000000000000000000000081526004810184905273ffffffffffffffffffffffffffffffffffffffff87169063bd85b03990602401602060405180830381865afa158015610397573d6000803e3d6000fd5b505050506040513d601f19601f820116820180604052508101906103bb9190610ec3565b60208601526040517fbd85b0390000000000000000000000000000000000000000000000000000000081526004810183905273ffffffffffffffffffffffffffffffffffffffff87169063bd85b03990602401602060405180830381865afa15801561042b573d6000803e3d6000fd5b505050506040513d601f19601f8201168201806040525081019061044f9190610ec3565b6040860152509298975050505050505050565b60008060008360001c905060008173ffffffffffffffffffffffffffffffffffffffff16633850c7bd6040518163ffffffff1660e01b815260040160e060405180830381865afa1580156104ba573d6000803e3d6000fd5b505050506040513d601f19601f820116820180604052508101906104de9190610ef3565b505050505050905060006104f98360c08860001c901c6106bc565b509050600061050782610984565b602081811b77ffffffffffffffffffffffffffffffffffffffff0000000016975073ffffffffffffffffffffffffffffffff000000009085901b16955073ffffffffffffffffffffffffffffffffffffffff1690507f800000000000000000000000000000000000000000000000000000000000000087166000036105df576105b0857fffffffffffffffffffffffffffffffffffffffffffffffffffffffffffffffff610ff5565b94506105dc867fffffffffffffffffffffffffffffffffffffffffffffffffffffffffffffffff610ff5565b95505b50505050915091565b600061060e73ffffffffffffffffffffffffffffffffffffffff841660a084901b611009565b9392505050565b6000806106348570010000000000000000000000000000000086610ceb565b90506106408184610dbb565b95945050505050565b60006106678385700100000000000000000000000000000000610ceb565b9050600182901c81111561060e57600061069784600287901b700100000000000000000000000000000000610ceb565b905060006106a6848584610ceb565b90506106b28185611021565b9695505050505050565b6000808263ffffffff16600003610733576040517f08c379a000000000000000000000000000000000000000000000000000000000815260206004820152600260248201527f4250000000000000000000000000000000000000000000000000000000000000604482015260640160405180910390fd5b604080516002808252606082018352600092602083019080368337019050509050838160008151811061076857610768611067565b602002602001019063ffffffff16908163ffffffff168152505060008160018151811061079757610797611067565b602002602001019063ffffffff16908163ffffffff16815250506000808673ffffffffffffffffffffffffffffffffffffffff1663883bdbfd846040518263ffffffff1660e01b81526004016107ed9190611096565b600060405180830381865afa15801561080a573d6000803e3d6000fd5b505050506040513d6000823e601f3d9081017fffffffffffffffffffffffffffffffffffffffffffffffffffffffffffffffe016820160405261085091908101906111c7565b9150915060008260008151811061086957610869611067565b60200260200101518360018151811061088457610884611067565b60200260200101516108969190611293565b90506000826000815181106108ad576108ad611067565b6020026020010151836001815181106108c8576108c8611067565b60200260200101516108da91906112fb565b90506108ec63ffffffff891683611330565b965060008260060b128015610912575061090c63ffffffff8916836113a4565b60060b15155b156109255786610921816113c6565b9750505b600061094b73ffffffffffffffffffffffffffffffffffffffff63ffffffff8b16611423565b905061097577ffffffffffffffffffffffffffffffffffffffff00000000602084901b1682611463565b96505050505050509250929050565b60008060008360020b1261099b578260020b6109a3565b8260020b6000035b9050620d89e88111156109e2576040517f2bc80f3a00000000000000000000000000000000000000000000000000000000815260040160405180910390fd5b600081600116600003610a0657700100000000000000000000000000000000610a18565b6ffffcb933bd6fad37aa2d162d1a5940015b70ffffffffffffffffffffffffffffffffff1690506002821615610a4c576ffff97272373d413259a46990580e213a0260801c5b6004821615610a6b576ffff2e50f5f656932ef12357cf3c7fdcc0260801c5b6008821615610a8a576fffe5caca7e10e4e61c3624eaa0941cd00260801c5b6010821615610aa9576fffcb9843d60f6159c9db58835c9266440260801c5b6020821615610ac8576fff973b41fa98c081472e6896dfb254c00260801c5b6040821615610ae7576fff2ea16466c96a3843ec78b326b528610260801c5b6080821615610b06576ffe5dee046a99a2a811c461f1969c30530260801c5b610100821615610b26576ffcbe86c7900a88aedcffc83b479aa3a40260801c5b610200821615610b46576ff987a7253ac413176f2b074cf7815e540260801c5b610400821615610b66576ff3392b0822b70005940c7a398e4b70f30260801c5b610800821615610b86576fe7159475a2c29b7443b29c7fa6e889d90260801c5b611000821615610ba6576fd097f3bdfd2022b8845ad8f792aa58250260801c5b612000821615610bc6576fa9f746462d870fdf8a65dc1f90e061e50260801c5b614000821615610be6576f70d869a156d2a1b890bb3df62baf32f70260801c5b618000821615610c06576f31be135f97d08fd981231505542fcfa60260801c5b62010000821615610c27576f09aa508b5b7a84e1c677de54f3e99bc90260801c5b62020000821615610c47576e5d6af8dedb81196699c329225ee6040260801c5b62040000821615610c66576d2216e584f5fa1ea926041bedfe980260801c5b62080000821615610c83576b048a170391f7dc42444e8fa20260801c5b60008460020b1315610cc257807fffffffffffffffffffffffffffffffffffffffffffffffffffffffffffffffff81610cbe57610cbe610f97565b0490505b640100000000810615610cd6576001610cd9565b60005b60ff16602082901c0192505050919050565b600080807fffffffffffffffffffffffffffffffffffffffffffffffffffffffffffffffff85870985870292508281108382030391505080600003610d425760008411610d3757600080fd5b50829004905061060e565b808411610d4e57600080fd5b6000848688096000868103871696879004966002600389028118808a02820302808a02820302808a02820302808a02820302808a02820302808a02909103029181900381900460010186841190950394909402919094039290920491909117919091029150509392505050565b6000808260011611610dde57700100000000000000000000000000000000610de0565b825b9050600182901c91505b8115610e4257610e0c8384700100000000000000000000000000000000610ceb565b92506001821615610e3657610e338184700100000000000000000000000000000000610ceb565b90505b600182901c9150610dea565b92915050565b73ffffffffffffffffffffffffffffffffffffffff81168114610e6a57600080fd5b50565b600080600080600060a08688031215610e8557600080fd5b85359450602086013593506040860135610e9e81610e48565b9250606086013591506080860135610eb581610e48565b809150509295509295909350565b600060208284031215610ed557600080fd5b5051919050565b805161ffff81168114610eee57600080fd5b919050565b600080600080600080600060e0888a031215610f0e57600080fd5b8751610f1981610e48565b8097505060208801518060020b8114610f3157600080fd5b9550610f3f60408901610edc565b9450610f4d60608901610edc565b9350610f5b60808901610edc565b925060a088015160ff81168114610f7157600080fd5b60c08901519092508015158114610f8757600080fd5b8091505092959891949750929550565b7f4e487b7100000000000000000000000000000000000000000000000000000000600052601260045260246000fd5b7f4e487b7100000000000000000000000000000000000000000000000000000000600052601160045260246000fd5b60008261100457611004610f97565b500490565b6000821982111561101c5761101c610fc6565b500190565b60008282101561103357611033610fc6565b500390565b7f4e487b7100000000000000000000000000000000000000000000000000000000600052604160045260246000fd5b7f4e487b7100000000000000000000000000000000000000000000000000000000600052603260045260246000fd5b6020808252825182820181905260009190848201906040850190845b818110156110d457835163ffffffff16835292840192918401916001016110b2565b50909695505050505050565b604051601f82017fffffffffffffffffffffffffffffffffffffffffffffffffffffffffffffffe016810167ffffffffffffffff8111828210171561112757611127611038565b604052919050565b600067ffffffffffffffff82111561114957611149611038565b5060051b60200190565b600082601f83011261116457600080fd5b815160206111796111748361112f565b6110e0565b82815260059290921b8401810191818101908684111561119857600080fd5b8286015b848110156111bc5780516111af81610e48565b835291830191830161119c565b509695505050505050565b600080604083850312156111da57600080fd5b825167ffffffffffffffff808211156111f257600080fd5b818501915085601f83011261120657600080fd5b815160206112166111748361112f565b82815260059290921b8401810191818101908984111561123557600080fd5b948201945b838610156112635785518060060b81146112545760008081fd5b8252948201949082019061123a565b9188015191965090935050508082111561127c57600080fd5b5061128985828601611153565b9150509250929050565b60008160060b8360060b60008112817fffffffffffffffffffffffffffffffffffffffffffffffffff80000000000000018312811516156112d6576112d6610fc6565b81667fffffffffffff0183138116156112f1576112f1610fc6565b5090039392505050565b600073ffffffffffffffffffffffffffffffffffffffff8381169083168181101561132857611328610fc6565b039392505050565b60008160060b8360060b8061134757611347610f97565b7fffffffffffffffffffffffffffffffffffffffffffffffffffffffffffffffff81147fffffffffffffffffffffffffffffffffffffffffffffffffff800000000000008314161561139b5761139b610fc6565b90059392505050565b60008260060b806113b7576113b7610f97565b808360060b0791505092915050565b60008160020b7fffffffffffffffffffffffffffffffffffffffffffffffffffffffffff80000081036113fb576113fb610fc6565b7fffffffffffffffffffffffffffffffffffffffffffffffffffffffffffffffff0192915050565b600077ffffffffffffffffffffffffffffffffffffffffffffffff8083168185168183048111821515161561145a5761145a610fc6565b02949350505050565b600077ffffffffffffffffffffffffffffffffffffffffffffffff8084168061148e5761148e610f97565b9216919091049291505056fea2646970667358221220407f46775c8ee482f3124bfda8773299f86ddac629426b80af243fa46d2416db64736f6c634300080d0033",
  "linkReferences": {},
  "deployedLinkReferences": {}
}