{
  "_format": "hh-sol-artifact-1",
  "contractName": "View",
  "sourceName": "contracts/support/View.sol",
  "abi": [
    {
      "inputs": [
        {
          "internalType": "address",
          "name": "token",
          "type": "address"
        },
        {
          "internalType": "address",
          "name": "feeTo",
          "type": "address"
        },
        {
          "internalType": "uint256",
          "name": "feeRate",
          "type": "uint256"
        }
      ],
      "stateMutability": "nonpayable",
      "type": "constructor"
    },
    {
      "inputs": [],
      "name": "T",
      "type": "error"
    },
    {
      "anonymous": false,
      "inputs": [
        {
          "indexed": true,
          "internalType": "address",
          "name": "payer",
          "type": "address"
        },
        {
          "indexed": true,
          "internalType": "address",
          "name": "recipient",
          "type": "address"
        },
        {
          "indexed": true,
          "internalType": "uint256",
          "name": "sideMax",
          "type": "uint256"
        },
        {
          "indexed": false,
          "internalType": "uint256",
          "name": "sideIn",
          "type": "uint256"
        },
        {
          "indexed": false,
          "internalType": "uint256",
          "name": "sideOut",
          "type": "uint256"
        },
        {
          "indexed": false,
          "internalType": "uint256",
          "name": "maturity",
          "type": "uint256"
        },
        {
          "indexed": false,
          "internalType": "uint256",
          "name": "amountIn",
          "type": "uint256"
        },
        {
          "indexed": false,
          "internalType": "uint256",
          "name": "amountOut",
          "type": "uint256"
        },
        {
          "indexed": false,
          "internalType": "uint256",
          "name": "price",
          "type": "uint256"
        }
      ],
      "name": "Swap",
      "type": "event"
    },
    {
      "inputs": [
        {
          "internalType": "address",
          "name": "TOKEN",
          "type": "address"
        },
        {
          "internalType": "uint256",
          "name": "FEE_RATE",
          "type": "uint256"
        }
      ],
      "name": "compute",
      "outputs": [
        {
          "components": [
            {
              "components": [
                {
                  "internalType": "address",
                  "name": "FETCHER",
                  "type": "address"
                },
                {
                  "internalType": "bytes32",
                  "name": "ORACLE",
                  "type": "bytes32"
                },
                {
                  "internalType": "address",
                  "name": "TOKEN_R",
                  "type": "address"
                },
                {
                  "internalType": "uint256",
                  "name": "K",
                  "type": "uint256"
                },
                {
                  "internalType": "uint256",
                  "name": "MARK",
                  "type": "uint256"
                },
                {
                  "internalType": "uint256",
                  "name": "INTEREST_HL",
                  "type": "uint256"
                },
                {
                  "internalType": "uint256",
                  "name": "PREMIUM_HL",
                  "type": "uint256"
                },
                {
                  "internalType": "uint256",
                  "name": "MATURITY",
                  "type": "uint256"
                },
                {
                  "internalType": "uint256",
                  "name": "MATURITY_VEST",
                  "type": "uint256"
                },
                {
                  "internalType": "uint256",
                  "name": "MATURITY_RATE",
                  "type": "uint256"
                },
                {
                  "internalType": "uint256",
                  "name": "OPEN_RATE",
                  "type": "uint256"
                }
              ],
              "internalType": "struct Config",
              "name": "config",
              "type": "tuple"
            },
            {
              "components": [
                {
                  "internalType": "uint256",
                  "name": "R",
                  "type": "uint256"
                },
                {
                  "internalType": "uint256",
                  "name": "a",
                  "type": "uint256"
                },
                {
                  "internalType": "uint256",
                  "name": "b",
                  "type": "uint256"
                }
              ],
              "internalType": "struct State",
              "name": "state",
              "type": "tuple"
            },
            {
              "internalType": "uint256",
              "name": "sA",
              "type": "uint256"
            },
            {
              "internalType": "uint256",
              "name": "sB",
              "type": "uint256"
            },
            {
              "internalType": "uint256",
              "name": "sC",
              "type": "uint256"
            },
            {
              "internalType": "uint256",
              "name": "rA",
              "type": "uint256"
            },
            {
              "internalType": "uint256",
              "name": "rB",
              "type": "uint256"
            },
            {
              "internalType": "uint256",
              "name": "rC",
              "type": "uint256"
            },
            {
              "internalType": "uint256",
              "name": "twap",
              "type": "uint256"
            },
            {
              "internalType": "uint256",
              "name": "spot",
              "type": "uint256"
            }
          ],
          "internalType": "struct View.StateView",
          "name": "stateView",
          "type": "tuple"
        }
      ],
      "stateMutability": "nonpayable",
      "type": "function"
    },
    {
      "inputs": [],
      "name": "ensureStateIntegrity",
      "outputs": [],
      "stateMutability": "view",
      "type": "function"
    },
    {
      "inputs": [
        {
          "internalType": "uint256",
          "name": "ORACLE",
          "type": "uint256"
        }
      ],
      "name": "fetch",
      "outputs": [
        {
          "internalType": "uint256",
          "name": "twap",
          "type": "uint256"
        },
        {
          "internalType": "uint256",
          "name": "spot",
          "type": "uint256"
        }
      ],
      "stateMutability": "view",
      "type": "function"
    },
    {
      "inputs": [],
      "name": "getStates",
      "outputs": [
        {
          "internalType": "uint256",
          "name": "R",
          "type": "uint256"
        },
        {
          "internalType": "uint256",
          "name": "a",
          "type": "uint256"
        },
        {
          "internalType": "uint256",
          "name": "b",
          "type": "uint256"
        },
        {
          "internalType": "uint32",
          "name": "i",
          "type": "uint32"
        },
        {
          "internalType": "uint32",
          "name": "f",
          "type": "uint32"
        }
      ],
      "stateMutability": "view",
      "type": "function"
    },
    {
      "inputs": [
        {
          "components": [
            {
              "internalType": "uint256",
              "name": "R",
              "type": "uint256"
            },
            {
              "internalType": "uint256",
              "name": "a",
              "type": "uint256"
            },
            {
              "internalType": "uint256",
              "name": "b",
              "type": "uint256"
            }
          ],
          "internalType": "struct State",
          "name": "state",
          "type": "tuple"
        },
        {
          "components": [
            {
              "internalType": "address",
              "name": "utr",
              "type": "address"
            },
            {
              "internalType": "bytes",
              "name": "payer",
              "type": "bytes"
            },
            {
              "internalType": "address",
              "name": "recipient",
              "type": "address"
            }
          ],
          "internalType": "struct Payment",
          "name": "payment",
          "type": "tuple"
        }
      ],
      "name": "init",
      "outputs": [],
      "stateMutability": "nonpayable",
      "type": "function"
    },
    {
      "inputs": [],
      "name": "loadConfig",
      "outputs": [
        {
          "components": [
            {
              "internalType": "address",
              "name": "FETCHER",
              "type": "address"
            },
            {
              "internalType": "bytes32",
              "name": "ORACLE",
              "type": "bytes32"
            },
            {
              "internalType": "address",
              "name": "TOKEN_R",
              "type": "address"
            },
            {
              "internalType": "uint256",
              "name": "K",
              "type": "uint256"
            },
            {
              "internalType": "uint256",
              "name": "MARK",
              "type": "uint256"
            },
            {
              "internalType": "uint256",
              "name": "INTEREST_HL",
              "type": "uint256"
            },
            {
              "internalType": "uint256",
              "name": "PREMIUM_HL",
              "type": "uint256"
            },
            {
              "internalType": "uint256",
              "name": "MATURITY",
              "type": "uint256"
            },
            {
              "internalType": "uint256",
              "name": "MATURITY_VEST",
              "type": "uint256"
            },
            {
              "internalType": "uint256",
              "name": "MATURITY_RATE",
              "type": "uint256"
            },
            {
              "internalType": "uint256",
              "name": "OPEN_RATE",
              "type": "uint256"
            }
          ],
          "internalType": "struct Config",
          "name": "config",
          "type": "tuple"
        }
      ],
      "stateMutability": "pure",
      "type": "function"
    },
    {
      "inputs": [
        {
          "internalType": "address",
          "name": "",
          "type": "address"
        },
        {
          "internalType": "address",
          "name": "",
          "type": "address"
        },
        {
          "internalType": "uint256[]",
          "name": "",
          "type": "uint256[]"
        },
        {
          "internalType": "uint256[]",
          "name": "",
          "type": "uint256[]"
        },
        {
          "internalType": "bytes",
          "name": "",
          "type": "bytes"
        }
      ],
      "name": "onERC1155BatchReceived",
      "outputs": [
        {
          "internalType": "bytes4",
          "name": "",
          "type": "bytes4"
        }
      ],
      "stateMutability": "nonpayable",
      "type": "function"
    },
    {
      "inputs": [
        {
          "internalType": "address",
          "name": "",
          "type": "address"
        },
        {
          "internalType": "address",
          "name": "",
          "type": "address"
        },
        {
          "internalType": "uint256",
          "name": "",
          "type": "uint256"
        },
        {
          "internalType": "uint256",
          "name": "",
          "type": "uint256"
        },
        {
          "internalType": "bytes",
          "name": "",
          "type": "bytes"
        }
      ],
      "name": "onERC1155Received",
      "outputs": [
        {
          "internalType": "bytes4",
          "name": "",
          "type": "bytes4"
        }
      ],
      "stateMutability": "nonpayable",
      "type": "function"
    },
    {
      "inputs": [
        {
          "internalType": "bytes4",
          "name": "interfaceId",
          "type": "bytes4"
        }
      ],
      "name": "supportsInterface",
      "outputs": [
        {
          "internalType": "bool",
          "name": "",
          "type": "bool"
        }
      ],
      "stateMutability": "view",
      "type": "function"
    },
    {
      "inputs": [
        {
          "components": [
            {
              "internalType": "uint256",
              "name": "sideIn",
              "type": "uint256"
            },
            {
              "internalType": "uint256",
              "name": "sideOut",
              "type": "uint256"
            },
            {
              "internalType": "address",
              "name": "helper",
              "type": "address"
            },
            {
              "internalType": "bytes",
              "name": "payload",
              "type": "bytes"
            }
          ],
          "internalType": "struct Param",
          "name": "param",
          "type": "tuple"
        },
        {
          "components": [
            {
              "internalType": "address",
              "name": "utr",
              "type": "address"
            },
            {
              "internalType": "bytes",
              "name": "payer",
              "type": "bytes"
            },
            {
              "internalType": "address",
              "name": "recipient",
              "type": "address"
            }
          ],
          "internalType": "struct Payment",
          "name": "payment",
          "type": "tuple"
        }
      ],
      "name": "swap",
      "outputs": [
        {
          "internalType": "uint256",
          "name": "amountIn",
          "type": "uint256"
        },
        {
          "internalType": "uint256",
          "name": "amountOut",
          "type": "uint256"
        },
        {
          "internalType": "uint256",
          "name": "price",
          "type": "uint256"
        }
      ],
      "stateMutability": "nonpayable",
      "type": "function"
    }
  ],
  "bytecode": "0x60e06040523480156200001157600080fd5b50604051620058763803806200587683398101604081905262000034916200012b565b828282826001600160a01b038116620000945760405162461bcd60e51b815260206004820152601660248201527f506f6f6c426173653a205a45524f5f414444524553530000000000000000000060448201526064015b60405180910390fd5b6001600160a01b039081166080528216620000f25760405162461bcd60e51b815260206004820152601760248201527f506f6f6c4c6f6769633a205a45524f5f4144445245535300000000000000000060448201526064016200008b565b6001600160a01b0390911660a05260c052506200016c92505050565b80516001600160a01b03811681146200012657600080fd5b919050565b6000806000606084860312156200014157600080fd5b6200014c846200010e565b92506200015c602085016200010e565b9150604084015190509250925092565b60805160a05160c05161567f620001f76000396000818161207c01526120a4015260006120ee0152600081816107970152818161085a0152818161091b01528181610a4901528181610b6b01528181610c2a01528181610cd601528181610d9501528181610ed8015281816119bb01528181611a8901528181611ae90152613b4e015261567f6000f3fe608060405234801561001057600080fd5b50600436106100be5760003560e01c8063bc197c8111610076578063dc1a6f331161005b578063dc1a6f3314610218578063eb7e50dd1461022d578063f23a6e611461023557600080fd5b8063bc197c8114610176578063d8ab8274146101df57600080fd5b80632b2f2913116100a75780632b2f29131461010057806349b5b5411461012e5780637a33e3b01461014e57600080fd5b806301ffc9a7146100c357806322d65951146100eb575b600080fd5b6100d66100d136600461486a565b61026d565b60405190151581526020015b60405180910390f35b6100f3610306565b6040516100e2919061494c565b61011361010e366004614b67565b6103d5565b604080519384526020840192909252908201526060016100e2565b61014161013c366004614c20565b611004565b6040516100e29190614c4c565b61016161015c366004614ce1565b6111b3565b604080519283526020830191909152016100e2565b6101ae610184366004614d89565b7fbc197c810000000000000000000000000000000000000000000000000000000095945050505050565b6040517fffffffff0000000000000000000000000000000000000000000000000000000090911681526020016100e2565b6101e7611330565b6040805195865260208601949094529284019190915263ffffffff908116606084015216608082015260a0016100e2565b61022b610226366004614e37565b611426565b005b61022b611beb565b6101ae610243366004614ea4565b7ff23a6e610000000000000000000000000000000000000000000000000000000095945050505050565b60007fffffffff0000000000000000000000000000000000000000000000000000000082167f4e2312e000000000000000000000000000000000000000000000000000000000148061030057507f01ffc9a7000000000000000000000000000000000000000000000000000000007fffffffff000000000000000000000000000000000000000000000000000000008316145b92915050565b610392604051806101600160405280600073ffffffffffffffffffffffffffffffffffffffff16815260200160008019168152602001600073ffffffffffffffffffffffffffffffffffffffff16815260200160008152602001600081526020016000815260200160008152602001600081526020016000815260200160008152602001600081525090565b6060602036038035808203915060405192506020810183016040528083526020830181838237505050808060200190518101906103cf9190614f1d565b91505090565b60008060006103e2611beb565b600180547fffffffffffffffffffffffffffffffffffffffffffffffffffffffff00000000811663ffffffff90911617811790556000610420610306565b9050600061042e8288611c6e565b8051602082015160408301518a519298509096509450909150600090610745576020870151511561072e578660200151516014036104f55761047587602001516000612922565b604080850151815173ffffffffffffffffffffffffffffffffffffffff808516602083015230938201939093526014606082015291166080820152600060a082015290915060c001604080517fffffffffffffffffffffffffffffffffffffffffffffffffffffffffffffffe081840301815291905260208801526104f8565b50325b60408084015190517f70a0823100000000000000000000000000000000000000000000000000000000815230600482015260009173ffffffffffffffffffffffffffffffffffffffff16906370a0823190602401602060405180830381865afa158015610569573d6000803e3d6000fd5b505050506040513d601f19601f8201168201806040525081019061058d9190614fbe565b6105979088615006565b885160208a01516040517f715ef7f900000000000000000000000000000000000000000000000000000000815292935073ffffffffffffffffffffffffffffffffffffffff9091169163715ef7f9916105f4918b90600401615087565b600060405180830381600087803b15801561060e57600080fd5b505af1158015610622573d6000803e3d6000fd5b50505060408086015190517f70a0823100000000000000000000000000000000000000000000000000000000815230600482015273ffffffffffffffffffffffffffffffffffffffff90911691506370a0823190602401602060405180830381865afa158015610696573d6000803e3d6000fd5b505050506040513d601f19601f820116820180604052508101906106ba9190614fbe565b811115610728576040517f08c379a000000000000000000000000000000000000000000000000000000000815260206004820152601e60248201527f506f6f6c426173653a20494e53554646494349454e545f5041594d454e54000060448201526064015b60405180910390fd5b50610e1a565b61073e83604001513330896129b2565b5033610e1a565b875160009060a01b301790506000808960200151511115610ca1576040517efdd58e000000000000000000000000000000000000000000000000000000008152306004820152602481018390526000907f000000000000000000000000000000000000000000000000000000000000000073ffffffffffffffffffffffffffffffffffffffff169062fdd58e90604401602060405180830381865afa1580156107f2573d6000803e3d6000fd5b505050506040513d601f19601f820116820180604052508101906108169190614fbe565b905080156108cc576040517ff5298aca00000000000000000000000000000000000000000000000000000000815230600482015260248101849052604481018290527f000000000000000000000000000000000000000000000000000000000000000073ffffffffffffffffffffffffffffffffffffffff169063f5298aca90606401600060405180830381600087803b1580156108b357600080fd5b505af11580156108c7573d6000803e3d6000fd5b505050505b896020015151601403610987576108e88a602001516000612922565b6040805173ffffffffffffffffffffffffffffffffffffffff8381166020830152309282019290925261048360608201527f0000000000000000000000000000000000000000000000000000000000000000909116608082015260a0810185905290945060c001604080517fffffffffffffffffffffffffffffffffffffffffffffffffffffffffffffffe081840301815291905260208b015261098b565b3293505b895160208b01516040517f715ef7f900000000000000000000000000000000000000000000000000000000815273ffffffffffffffffffffffffffffffffffffffff9092169163715ef7f9916109e5918d90600401615087565b600060405180830381600087803b1580156109ff57600080fd5b505af1158015610a13573d6000803e3d6000fd5b50506040517efdd58e000000000000000000000000000000000000000000000000000000008152306004820152602481018690527f000000000000000000000000000000000000000000000000000000000000000073ffffffffffffffffffffffffffffffffffffffff16925062fdd58e9150604401602060405180830381865afa158015610aa6573d6000803e3d6000fd5b505050506040513d601f19601f82011682018060405250810190610aca9190614fbe565b905080891115610b36576040517f08c379a000000000000000000000000000000000000000000000000000000000815260206004820152601e60248201527f506f6f6c426173653a20494e53554646494349454e545f5041594d454e540000604482015260640161071f565b6040517fcb263dc6000000000000000000000000000000000000000000000000000000008152306004820152602481018490527f000000000000000000000000000000000000000000000000000000000000000073ffffffffffffffffffffffffffffffffffffffff169063cb263dc690604401602060405180830381865afa158015610bc7573d6000803e3d6000fd5b505050506040513d601f19601f82011682018060405250810190610beb9190614fbe565b6040517ff5298aca00000000000000000000000000000000000000000000000000000000815230600482015260248101859052604481018390529092507f000000000000000000000000000000000000000000000000000000000000000073ffffffffffffffffffffffffffffffffffffffff169063f5298aca90606401600060405180830381600087803b158015610c8357600080fd5b505af1158015610c97573d6000803e3d6000fd5b5050505050610e0a565b6040517fcb263dc6000000000000000000000000000000000000000000000000000000008152336004820152602481018390527f000000000000000000000000000000000000000000000000000000000000000073ffffffffffffffffffffffffffffffffffffffff169063cb263dc690604401602060405180830381865afa158015610d32573d6000803e3d6000fd5b505050506040513d601f19601f82011682018060405250810190610d569190614fbe565b6040517ff5298aca00000000000000000000000000000000000000000000000000000000815233600482015260248101849052604481018a90529091507f000000000000000000000000000000000000000000000000000000000000000073ffffffffffffffffffffffffffffffffffffffff169063f5298aca90606401600060405180830381600087803b158015610dee57600080fd5b505af1158015610e02573d6000803e3d6000fd5b505050503392505b610e15858289612b51565b965050505b6020880151600090610e3e57610e398460400151896040015188612bd9565b610f36565b602089015160009060a01b301790508460e001514263ffffffff16610e639190615006565b60408a81015190517f3c8cb4ef00000000000000000000000000000000000000000000000000000000815273ffffffffffffffffffffffffffffffffffffffff918216600482015260248101849052604481018a905263ffffffff8316606482015260a06084820152600060a48201529193507f00000000000000000000000000000000000000000000000000000000000000001690633c8cb4ef9060c401600060405180830381600087803b158015610f1c57600080fd5b505af1158015610f30573d6000803e3d6000fd5b50505050505b610f4889600001518a60200151612d6f565b6040808a01518b516020808e0151845192835290820152918201849052606082018a90526080820189905260a0820188905273ffffffffffffffffffffffffffffffffffffffff90811691908516907f2ad8739d64c070ab4ae9d9c0743d56550b22c3c8c96e7a6045fac37b5b8e89e39060c00160405180910390a45050600180547fffffffffffffffffffffffffffffffffffffffffffffffffffffffff00000000811663fffffffe90911617905550929591945092509050565b61100c61476b565b6000611016610306565b9050600060405180606001604052806110328460400151612d85565b8152600080547bffffffffffffffffffffffffffffffffffffffffffffffffffffffff640100000000918290048116602080860191909152600154929092041660409093019290925284519185015192935091829161109091612e17565b915091506000806110aa6110a48786612ede565b86612f0d565b915091506000806110c46110be8987612ede565b88612f0d565b9150915060006110db8b8a8a600001518888612f67565b8a5191975095509091506110f4908c908b908686612f67565b918a52935091506111058584613213565b60a08b01526111148483613213565b60c08b015261114f8461112787846150a9565b61113191906150a9565b895184906111409087906150a9565b61114a91906150a9565b613213565b60e08b01528751811015611161578088525b61116c8c6010613222565b60408b015261117c8c6020613222565b60608b015261118c8c6030613222565b60808b01525050505061010086019290925261012085015250908252602082015292915050565b600080600083905060008173ffffffffffffffffffffffffffffffffffffffff16633850c7bd6040518163ffffffff1660e01b815260040160e060405180830381865afa158015611208573d6000803e3d6000fd5b505050506040513d601f19601f8201168201806040525081019061122c91906150de565b505050505050905060006112448360c088901c6132b9565b50905060006112528261357d565b73ffffffffffffffffffffffffffffffffffffffff16905060208373ffffffffffffffffffffffffffffffffffffffff16901b73ffffffffffffffffffffffffffffffffffffffff169450602081901b95507f80000000000000000000000000000000000000000000000000000000000000008716600003611327576112f8857fffffffffffffffffffffffffffffffffffffffffffffffffffffffffffffffff6151a7565b9450611324867fffffffffffffffffffffffffffffffffffffffffffffffffffffffffffffffff6151a7565b95505b50505050915091565b600080600080600080611341610306565b60408082015190517f70a0823100000000000000000000000000000000000000000000000000000000815230600482015291925073ffffffffffffffffffffffffffffffffffffffff16906370a0823190602401602060405180830381865afa1580156113b2573d6000803e3d6000fd5b505050506040513d601f19601f820116820180604052508101906113d69190614fbe565b60005460015491987bffffffffffffffffffffffffffffffffffffffffffffffffffffffff64010000000080840482169a50840416975063ffffffff909116955063fffffffe9091169350915050565b60005463ffffffff1615611496576040517f08c379a000000000000000000000000000000000000000000000000000000000815260206004820152601d60248201527f506f6f6c426173653a20414c52454144595f494e495449414c495a4544000000604482015260640161071f565b81516020830151604084015182158015906114b15750600082115b80156114bd5750600081115b611523576040517f08c379a000000000000000000000000000000000000000000000000000000000815260206004820152601460248201527f506f6f6c426173653a205a45524f5f504152414d000000000000000000000000604482015260640161071f565b600183901c821115801561153b5750600183901c8111155b6115a1576040517f08c379a000000000000000000000000000000000000000000000000000000000815260206004820152601760248201527f506f6f6c426173653a20494e56414c49445f504152414d000000000000000000604482015260640161071f565b4263ffffffff81166401000000007bffffffffffffffffffffffffffffffffffffffffffffffffffffffff858116820292909217600090815563fffffffe90931691841602176001556115f2610306565b602086015151909150156118cb5760408082015190517f70a0823100000000000000000000000000000000000000000000000000000000815230600482015260009173ffffffffffffffffffffffffffffffffffffffff16906370a0823190602401602060405180830381865afa158015611671573d6000803e3d6000fd5b505050506040513d601f19601f820116820180604052508101906116959190614fbe565b61169f9086615006565b905085602001515160140361173c5760006116bf87602001516000612922565b604080850151815173ffffffffffffffffffffffffffffffffffffffff808516602083015230938201939093526014606082015291166080820152600060a082015290915060c001604080517fffffffffffffffffffffffffffffffffffffffffffffffffffffffffffffffe08184030181529190526020880152505b855160208701516040517f715ef7f900000000000000000000000000000000000000000000000000000000815273ffffffffffffffffffffffffffffffffffffffff9092169163715ef7f991611796918990600401615087565b600060405180830381600087803b1580156117b057600080fd5b505af11580156117c4573d6000803e3d6000fd5b50505060408084015190517f70a0823100000000000000000000000000000000000000000000000000000000815230600482015273ffffffffffffffffffffffffffffffffffffffff90911691506370a0823190602401602060405180830381865afa158015611838573d6000803e3d6000fd5b505050506040513d601f19601f8201168201806040525081019061185c9190614fbe565b8111156118c5576040517f08c379a000000000000000000000000000000000000000000000000000000000815260206004820152601e60248201527f506f6f6c426173653a20494e53554646494349454e545f5041594d454e540000604482015260640161071f565b506118db565b6118db81604001513330876129b2565b307410000000000000000000000000000000000000000081179074200000000000000000000000000000000000000000811790743000000000000000000000000000000000000000001760006119326003896151a7565b905060008560e00151426119469190615006565b60408b81015190517f3c8cb4ef00000000000000000000000000000000000000000000000000000000815273ffffffffffffffffffffffffffffffffffffffff9182166004820152602481018890526044810185905263ffffffff8316606482015260a06084820152600060a48201529192507f00000000000000000000000000000000000000000000000000000000000000001690633c8cb4ef9060c401600060405180830381600087803b1580156119ff57600080fd5b505af1158015611a13573d6000803e3d6000fd5b5050505060408a81015190517f3c8cb4ef00000000000000000000000000000000000000000000000000000000815273ffffffffffffffffffffffffffffffffffffffff9182166004820152602481018690526044810184905263ffffffff8316606482015260a06084820152600060a48201527f000000000000000000000000000000000000000000000000000000000000000090911690633c8cb4ef9060c401600060405180830381600087803b158015611acf57600080fd5b505af1158015611ae3573d6000803e3d6000fd5b505050507f000000000000000000000000000000000000000000000000000000000000000073ffffffffffffffffffffffffffffffffffffffff16633c8cb4ef8b6040015185600186901b8d611b3991906150a9565b6040517fffffffff0000000000000000000000000000000000000000000000000000000060e086901b16815273ffffffffffffffffffffffffffffffffffffffff90931660048401526024830191909152604482015263ffffffff8416606482015260a06084820152600060a482015260c401600060405180830381600087803b158015611bc657600080fd5b505af1158015611bda573d6000803e3d6000fd5b505050505050505050505050505050565b6001805463ffffffff81169116158015611c055750600081115b611c6b576040517f08c379a000000000000000000000000000000000000000000000000000000000815260206004820152601960248201527f506f6f6c426173653a2053544154455f494e5445475249545900000000000000604482015260640161071f565b50565b611c9260405180606001604052806000815260200160008152602001600081525090565b81516020830151808203611d02576040517f08c379a000000000000000000000000000000000000000000000000000000000815260206004820152601460248201527f506f6f6c4c6f6769633a2053414d455f53494445000000000000000000000000604482015260640161071f565b811580611d0f5750601082145b80611d1a5750602082145b80611d255750603082145b611d8b576040517f08c379a000000000000000000000000000000000000000000000000000000000815260206004820152601a60248201527f506f6f6c4c6f6769633a20494e56414c49445f534944455f494e000000000000604482015260640161071f565b801580611d985750601081145b80611da35750602081145b80611dae5750603081145b611e14576040517f08c379a000000000000000000000000000000000000000000000000000000000815260206004820152601b60248201527f506f6f6c4c6f6769633a20494e56414c49445f534944455f4f55540000000000604482015260640161071f565b60006040518060600160405280611e2e8860400151612d85565b8152600080547bffffffffffffffffffffffffffffffffffffffffffffffffffffffff640100000000918290048116602085015260015491909104166040909201919091529091508080611e84898588886138e4565b60408b0152865160a08d015193965091945092508390038290039015611f445760005463ffffffff9081164203168015611f42576000611ec8828d60a001516139bc565b90506000611ee08683680100000000000000006139e9565b90506000611ef88684680100000000000000006139e9565b90508082018688011115611f3e57600080547fffffffffffffffffffffffffffffffffffffffffffffffffffffffff00000000164263ffffffff16179055909550935084845b5050505b505b60008a60c00151118015611f585750818314155b1561207a57845160015463fffffffe908116429091160363ffffffff1680156120775760008085871115611fa05750848603611f978487838203613a47565b87039150611fb6565b50858503611fb18488838203613a47565b860391505b6000611fc78f60c0015184846139e9565b9050611fd4600182612d6f565b90506000611fe285836139bc565b9050611ff88482680100000000000000006139e9565b808503941461207257878911156120245761201684898b8903613a47565b88019750838903985061203b565b612031848a8a8903613a47565b8901985083880397505b6001805463ffffffff8082168801167fffffffffffffffffffffffffffffffffffffffffffffffffffffffff000000009091161790555b505050505b50505b7f00000000000000000000000000000000000000000000000000000000000000001561211d5760007f00000000000000000000000000000000000000000000000000000000000000008284868960000151030303816120db576120db615178565b049050801561211b576121138b604001517f000000000000000000000000000000000000000000000000000000000000000083612bd9565b855181900386525b505b50600182101561212c57600191505b6001811015612139575060015b6000886040015173ffffffffffffffffffffffffffffffffffffffff1663dc0192e8604051806080016040528087815260200188600001518152602001868152602001858152508b606001516040518363ffffffff1660e01b81526004016121a29291906151bb565b606060405180830381865afa1580156121bf573d6000803e3d6000fd5b505050506040513d601f19601f820116820180604052508101906121e391906151fb565b90507bffffffffffffffffffffffffffffffffffffffffffffffffffffffff801681602001511115612271576040517f08c379a000000000000000000000000000000000000000000000000000000000815260206004820152601c60248201527f506f6f6c4c6f6769633a205354415445315f4f564552464c4f575f4100000000604482015260640161071f565b60408101517bffffffffffffffffffffffffffffffffffffffffffffffffffffffff10156122fb576040517f08c379a000000000000000000000000000000000000000000000000000000000815260206004820152601c60248201527f506f6f6c4c6f6769633a205354415445315f4f564552464c4f575f4200000000604482015260640161071f565b6000806123088684612f0d565b90925090508861239d578482101580156123225750838110155b612388576040517f08c379a000000000000000000000000000000000000000000000000000000000815260206004820152601b60248201527f506f6f6c4c6f6769633a20494e56414c49445f5354415445315f520000000000604482015260640161071f565b8651835161239691906150a9565b8a5261265b565b825187511015612409576040517f08c379a000000000000000000000000000000000000000000000000000000000815260206004820152601c60248201527f506f6f6c4c6f6769633a20494e56414c49445f5354415445315f4e5200000000604482015260640161071f565b60006124148a613b17565b905060108a036124a35784821015612488576040517f08c379a000000000000000000000000000000000000000000000000000000000815260206004820152601b60248201527f506f6f6c4c6f6769633a20494e56414c49445f5354415445315f410000000000604482015260640161071f565b61249c8161249685896150a9565b886139e9565b8b526125ea565b8583101561250d576040517f08c379a000000000000000000000000000000000000000000000000000000000815260206004820152601c60248201527f506f6f6c4c6f6769633a20494e56414c49445f5354415445315f4e4100000000604482015260640161071f565b60208a036125295761249c8161252384886150a9565b876139e9565b84821015612593576040517f08c379a000000000000000000000000000000000000000000000000000000000815260206004820152601c60248201527f506f6f6c4c6f6769633a20494e56414c49445f5354415445315f4e4200000000604482015260640161071f565b600085878a600001516125a691906150a9565b6125b091906150a9565b90506000838587600001516125c591906150a9565b6125cf91906150a9565b90506125e5836125df83856150a9565b846139e9565b8d5250505b8a5181036103e81115612659576040517f08c379a000000000000000000000000000000000000000000000000000000000815260206004820152601960248201527f506f6f6c4c6f6769633a204d494e494d554d5f535550504c5900000000000000604482015260640161071f565b505b87612678578251875161266e91906150a9565b60208b01526128c0565b603088036127535760008486896000015161269391906150a9565b61269d91906150a9565b90506000828486600001516126b291906150a9565b6126bc91906150a9565b90506103e881101561272a576040517f08c379a000000000000000000000000000000000000000000000000000000000815260206004820152601c60248201527f506f6f6c4c6f6769633a204d494e494d554d5f524553455256455f4300000000604482015260640161071f565b6127466127368b613b17565b61274084846150a9565b84613a47565b60208d0152506128c09050565b601088036127ed576103e88210156127c7576040517f08c379a000000000000000000000000000000000000000000000000000000000815260206004820152601c60248201527f506f6f6c4c6f6769633a204d494e494d554d5f524553455256455f4100000000604482015260640161071f565b6127e36127d389613b17565b6127dd87856150a9565b87613a47565b60208b015261287b565b6103e8811015612859576040517f08c379a000000000000000000000000000000000000000000000000000000000815260206004820152601c60248201527f506f6f6c4c6f6769633a204d494e494d554d5f524553455256455f4200000000604482015260640161071f565b61287561286589613b17565b61286f86846150a9565b86613a47565b60208b01525b7001000000000000000000000000000000008c6101400151146128c0576128bd8a600001517001000000000000000000000000000000008e6101400151613a47565b8a525b505060208101516000805463ffffffff9081166401000000007bffffffffffffffffffffffffffffffffffffffffffffffffffffffff948516810291909117909255604090930151600180549094169216021790555094979650505050505050565b600061292f826014615006565b83511015612999576040517f08c379a000000000000000000000000000000000000000000000000000000000815260206004820152601560248201527f746f416464726573735f6f75744f66426f756e64730000000000000000000000604482015260640161071f565b5001602001516c01000000000000000000000000900490565b6040805173ffffffffffffffffffffffffffffffffffffffff85811660248301528481166044830152606480830185905283518084039091018152608490920183526020820180517bffffffffffffffffffffffffffffffffffffffffffffffffffffffff167f23b872dd000000000000000000000000000000000000000000000000000000001790529151600092839290881691612a519190615237565b6000604051808303816000865af19150503d8060008114612a8e576040519150601f19603f3d011682016040523d82523d6000602084013e612a93565b606091505b5091509150818015612abd575080511580612abd575080806020019051810190612abd9190615253565b612b49576040517f08c379a000000000000000000000000000000000000000000000000000000000815260206004820152603160248201527f5472616e7366657248656c7065723a3a7472616e7366657246726f6d3a20747260448201527f616e7366657246726f6d206661696c6564000000000000000000000000000000606482015260840161071f565b505050505050565b6000428311612b61575080612bd2565b60e0840151428403908110612b7a576000915050612bd2565b6000818660e00151039050856101000151811015612bac5785610100015181850281612ba857612ba8615178565b0493505b612bcd84876101200151700100000000000000000000000000000000613a47565b925050505b9392505050565b6040805173ffffffffffffffffffffffffffffffffffffffff8481166024830152604480830185905283518084039091018152606490920183526020820180517bffffffffffffffffffffffffffffffffffffffffffffffffffffffff167fa9059cbb000000000000000000000000000000000000000000000000000000001790529151600092839290871691612c709190615237565b6000604051808303816000865af19150503d8060008114612cad576040519150601f19603f3d011682016040523d82523d6000602084013e612cb2565b606091505b5091509150818015612cdc575080511580612cdc575080806020019051810190612cdc9190615253565b612d68576040517f08c379a000000000000000000000000000000000000000000000000000000000815260206004820152602d60248201527f5472616e7366657248656c7065723a3a736166655472616e736665723a20747260448201527f616e73666572206661696c656400000000000000000000000000000000000000606482015260840161071f565b5050505050565b6000818311612d7e5781612bd2565b5090919050565b6040517f70a0823100000000000000000000000000000000000000000000000000000000815230600482015260009073ffffffffffffffffffffffffffffffffffffffff8316906370a08231906024015b602060405180830381865afa158015612df3573d6000803e3d6000fd5b505050506040513d601f19601f820116820180604052508101906103009190614fbe565b60008073ffffffffffffffffffffffffffffffffffffffff8416612e4757612e3e836111b3565b91509150612ed7565b6040517f7a33e3b00000000000000000000000000000000000000000000000000000000081526004810184905273ffffffffffffffffffffffffffffffffffffffff851690637a33e3b09060240160408051808303816000875af1158015612eb3573d6000803e3d6000fd5b505050506040513d601f19601f82011682018060405250810190612e3e919061526e565b9250929050565b6000612bd2612f03700100000000000000000000000000000000848660800151613a47565b8460600151613b92565b600080612f238484602001518560000151613c19565b9150612f5e612f52857fffffffffffffffffffffffffffffffffffffffffffffffffffffffffffffffff6151a7565b60408501518551613c19565b90509250929050565b600080808084612f7787896150a9565b612f8191906150a9565b60a08901519091501561302c5760008054612fa29063ffffffff1642615292565b63ffffffff169050801561302a576000612fc0828b60a001516139bc565b905068010000000000000000811015613028576000612fe98983680100000000000000006139e9565b905060006130018984680100000000000000006139e9565b905061300d8183615006565b6130178a8c615006565b111561302557909850965087875b50505b505b505b60008860c001511180156130405750848614155b1561319d5760015460009061305f9063fffffffe908116904216615292565b63ffffffff169050801561319b57600080878911156130a957613082888a6150a9565b90506130988a8961309384836150a9565b613a47565b6130a2908a6150a9565b91506130d1565b6130b389896150a9565b90506130c48a8a61309384836150a9565b6130ce90896150a9565b91505b60006130e28c60c0015184846139e9565b90506130ef600182612d6f565b905060006130fd85836139bc565b905068010000000000000000811015613196576131248482680100000000000000006139e9565b61312e90856150a9565b9350831561319657898b111561316c5761314f848b8d8f61309391906150a9565b613159908b615006565b9950613165848c6150a9565b9a50613196565b61317d848c8c8f61309391906150a9565b613187908c615006565b9a50613193848b6150a9565b99505b505050505b505b88156131e75760008982876131b28a8c6150a9565b6131bc91906150a9565b6131c691906150a9565b6131d091906151a7565b905080156131e5576131e281896150a9565b97505b505b60018610156131f557600195505b600185101561320357600194505b5094979396509194509192505050565b6000818310612d7e5781612bd2565b6040517fbd85b0390000000000000000000000000000000000000000000000000000000081523060a083901b17600482015260009073ffffffffffffffffffffffffffffffffffffffff84169063bd85b03990602401602060405180830381865afa158015613295573d6000803e3d6000fd5b505050506040513d601f19601f82011682018060405250810190612bd29190614fbe565b6000808263ffffffff1660000361332c576040517f08c379a000000000000000000000000000000000000000000000000000000000815260206004820152600260248201527f4250000000000000000000000000000000000000000000000000000000000000604482015260640161071f565b6040805160028082526060820183526000926020830190803683370190505090508381600081518110613361576133616152b6565b602002602001019063ffffffff16908163ffffffff1681525050600081600181518110613390576133906152b6565b602002602001019063ffffffff16908163ffffffff16815250506000808673ffffffffffffffffffffffffffffffffffffffff1663883bdbfd846040518263ffffffff1660e01b81526004016133e691906152e5565b600060405180830381865afa158015613403573d6000803e3d6000fd5b505050506040513d6000823e601f3d9081017fffffffffffffffffffffffffffffffffffffffffffffffffffffffffffffffe01682016040526134499190810190615393565b91509150600082600081518110613462576134626152b6565b60200260200101518360018151811061347d5761347d6152b6565b602002602001015161348f9190615455565b90506000826000815181106134a6576134a66152b6565b6020026020010151836001815181106134c1576134c16152b6565b60200260200101516134d3919061549a565b90506134e563ffffffff8916836154c7565b965060008260060b12801561350b575061350563ffffffff89168361553b565b60060b15155b1561351e578661351a8161555d565b9750505b600061354473ffffffffffffffffffffffffffffffffffffffff63ffffffff8b166155ba565b905061356e77ffffffffffffffffffffffffffffffffffffffff00000000602084901b16826155fd565b96505050505050509250929050565b60008060008360020b12613594578260020b61359c565b8260020b6000035b9050620d89e88111156135db576040517f2bc80f3a00000000000000000000000000000000000000000000000000000000815260040160405180910390fd5b6000816001166000036135ff57700100000000000000000000000000000000613611565b6ffffcb933bd6fad37aa2d162d1a5940015b70ffffffffffffffffffffffffffffffffff1690506002821615613645576ffff97272373d413259a46990580e213a0260801c5b6004821615613664576ffff2e50f5f656932ef12357cf3c7fdcc0260801c5b6008821615613683576fffe5caca7e10e4e61c3624eaa0941cd00260801c5b60108216156136a2576fffcb9843d60f6159c9db58835c9266440260801c5b60208216156136c1576fff973b41fa98c081472e6896dfb254c00260801c5b60408216156136e0576fff2ea16466c96a3843ec78b326b528610260801c5b60808216156136ff576ffe5dee046a99a2a811c461f1969c30530260801c5b61010082161561371f576ffcbe86c7900a88aedcffc83b479aa3a40260801c5b61020082161561373f576ff987a7253ac413176f2b074cf7815e540260801c5b61040082161561375f576ff3392b0822b70005940c7a398e4b70f30260801c5b61080082161561377f576fe7159475a2c29b7443b29c7fa6e889d90260801c5b61100082161561379f576fd097f3bdfd2022b8845ad8f792aa58250260801c5b6120008216156137bf576fa9f746462d870fdf8a65dc1f90e061e50260801c5b6140008216156137df576f70d869a156d2a1b890bb3df62baf32f70260801c5b6180008216156137ff576f31be135f97d08fd981231505542fcfa60260801c5b62010000821615613820576f09aa508b5b7a84e1c677de54f3e99bc90260801c5b62020000821615613840576e5d6af8dedb81196699c329225ee6040260801c5b6204000082161561385f576d2216e584f5fa1ea926041bedfe980260801c5b6208000082161561387c576b048a170391f7dc42444e8fa20260801c5b60008460020b13156138bb57807fffffffffffffffffffffffffffffffffffffffffffffffffffffffffffffffff816138b7576138b7615178565b0490505b6401000000008106156138cf5760016138d2565b60005b60ff16602082901c0192505050919050565b6000806000806000806139028a600001518b6020015160001c612e17565b915091508082111561391057905b601087148061391f5750602088145b15613947576139318a82945084612ede565b955061393d868a612f0d565b90955093506139af565b60208714806139565750601088145b15613968576139318a83945084612ede565b6139758a83945084612ede565b9550613981868a612f0d565b90955093508484118815036139af5761399d8a82945084612ede565b95506139a9868a612f0d565b90955093505b5050945094509450949050565b6000806139de6139d084604087901b6151a7565b6139d990615634565b613c82565b600f0b949350505050565b60006139f6848484613a47565b905060008280613a0857613a08615178565b8486091115612bd2577fffffffffffffffffffffffffffffffffffffffffffffffffffffffffffffffff8110613a3d57600080fd5b6001019392505050565b600080807fffffffffffffffffffffffffffffffffffffffffffffffffffffffffffffffff85870985870292508281108382030391505080600003613a9e5760008411613a9357600080fd5b508290049050612bd2565b808411613aaa57600080fd5b6000848688096000868103871696879004966002600389028118808a02820302808a02820302808a02820302808a02820302808a02820302808a02909103029181900381900460010186841190950394909402919094039290920491909117919091029150509392505050565b6040517fbd85b0390000000000000000000000000000000000000000000000000000000081523060a083901b1760048201526000907f000000000000000000000000000000000000000000000000000000000000000073ffffffffffffffffffffffffffffffffffffffff169063bd85b03990602401612dd6565b6000808260011611613bb557700100000000000000000000000000000000613bb7565b825b9050600182901c91505b811561030057613be38384700100000000000000000000000000000000613a47565b92506001821615613c0d57613c0a8184700100000000000000000000000000000000613a47565b90505b600182901c9150613bc1565b6000613c378385700100000000000000000000000000000000613a47565b9050600182901c811115612bd2576000613c6784600287901b700100000000000000000000000000000000613a47565b90506000613c76848584613a47565b9050612bcd81856150a9565b60006840000000000000000082600f0b12613c9c57600080fd5b7fffffffffffffffffffffffffffffffffffffffffffffffc0000000000000000082600f0b1215613ccf57506000919050565b6f8000000000000000000000000000000060006780000000000000008416600f0b1315613d0d5770016a09e667f3bcc908b2fb1366ea957d3e0260801c5b60008367400000000000000016600f0b1315613d3a577001306fe0a31b7152de8d5a46305c85edec0260801c5b60008367200000000000000016600f0b1315613d67577001172b83c7d517adcdf7c8c50eb14a791f0260801c5b60008367100000000000000016600f0b1315613d945770010b5586cf9890f6298b92b71842a983630260801c5b60008367080000000000000016600f0b1315613dc1577001059b0d31585743ae7c548eb68ca417fd0260801c5b60008367040000000000000016600f0b1315613dee57700102c9a3e778060ee6f7caca4f7a29bde80260801c5b60008367020000000000000016600f0b1315613e1b5770010163da9fb33356d84a66ae336dcdfa3f0260801c5b60008367010000000000000016600f0b1315613e4857700100b1afa5abcbed6129ab13ec11dc95430260801c5b600083668000000000000016600f0b1315613e745770010058c86da1c09ea1ff19d294cf2f679b0260801c5b600083664000000000000016600f0b1315613ea0577001002c605e2e8cec506d21bfc89a23a00f0260801c5b600083662000000000000016600f0b1315613ecc57700100162f3904051fa128bca9c55c31e5df0260801c5b600083661000000000000016600f0b1315613ef8577001000b175effdc76ba38e31671ca9397250260801c5b600083660800000000000016600f0b1315613f2457700100058ba01fb9f96d6cacd4b180917c3d0260801c5b600083660400000000000016600f0b1315613f505770010002c5cc37da9491d0985c348c68e7b30260801c5b600083660200000000000016600f0b1315613f7c577001000162e525ee054754457d59952920260260801c5b600083660100000000000016600f0b1315613fa85770010000b17255775c040618bf4a4ade83fc0260801c5b6000836580000000000016600f0b1315613fd3577001000058b91b5bc9ae2eed81e9b7d4cfab0260801c5b6000836540000000000016600f0b1315613ffe57700100002c5c89d5ec6ca4d7c8acc017b7c90260801c5b6000836520000000000016600f0b13156140295770010000162e43f4f831060e02d839a9d16d0260801c5b6000836510000000000016600f0b131561405457700100000b1721bcfc99d9f890ea069117630260801c5b6000836508000000000016600f0b131561407f5770010000058b90cf1e6d97f9ca14dbcc16280260801c5b6000836504000000000016600f0b13156140aa577001000002c5c863b73f016468f6bac5ca2b0260801c5b6000836502000000000016600f0b13156140d557700100000162e430e5a18f6119e3c02282a50260801c5b6000836501000000000016600f0b1315614100577001000000b1721835514b86e6d96efd1bfe0260801c5b60008364800000000016600f0b131561412a57700100000058b90c0b48c6be5df846c5b2ef0260801c5b60008364400000000016600f0b13156141545770010000002c5c8601cc6b9e94213c72737a0260801c5b60008364200000000016600f0b131561417e577001000000162e42fff037df38aa2b219f060260801c5b60008364100000000016600f0b13156141a85770010000000b17217fba9c739aa5819f44f90260801c5b60008364080000000016600f0b13156141d2577001000000058b90bfcdee5acd3c1cedc8230260801c5b60008364040000000016600f0b13156141fc57700100000002c5c85fe31f35a6a30da1be500260801c5b60008364020000000016600f0b13156142265770010000000162e42ff0999ce3541b9fffcf0260801c5b60008364010000000016600f0b131561425057700100000000b17217f80f4ef5aadda455540260801c5b600083638000000016600f0b13156142795770010000000058b90bfbf8479bd5a81b51ad0260801c5b600083634000000016600f0b13156142a2577001000000002c5c85fdf84bd62ae30a74cc0260801c5b600083632000000016600f0b13156142cb57700100000000162e42fefb2fed257559bdaa0260801c5b600083631000000016600f0b13156142f4577001000000000b17217f7d5a7716bba4a9ae0260801c5b600083630800000016600f0b131561431d57700100000000058b90bfbe9ddbac5e109cce0260801c5b600083630400000016600f0b13156143465770010000000002c5c85fdf4b15de6f17eb0d0260801c5b600083630200000016600f0b131561436f577001000000000162e42fefa494f1478fde050260801c5b600083630100000016600f0b13156143985770010000000000b17217f7d20cf927c8e94c0260801c5b6000836280000016600f0b13156143c0577001000000000058b90bfbe8f71cb4e4b33d0260801c5b6000836240000016600f0b13156143e857700100000000002c5c85fdf477b662b269450260801c5b6000836220000016600f0b13156144105770010000000000162e42fefa3ae53369388c0260801c5b6000836210000016600f0b131561443857700100000000000b17217f7d1d351a389d400260801c5b6000836208000016600f0b13156144605770010000000000058b90bfbe8e8b2d3d4ede0260801c5b6000836204000016600f0b1315614488577001000000000002c5c85fdf4741bea6e77e0260801c5b6000836202000016600f0b13156144b057700100000000000162e42fefa39fe95583c20260801c5b6000836201000016600f0b13156144d8577001000000000000b17217f7d1cfb72b45e10260801c5b60008361800016600f0b13156144ff57700100000000000058b90bfbe8e7cc35c3f00260801c5b60008361400016600f0b13156145265770010000000000002c5c85fdf473e242ea380260801c5b60008361200016600f0b131561454d577001000000000000162e42fefa39f02b772c0260801c5b60008361100016600f0b13156145745770010000000000000b17217f7d1cf7d83c1a0260801c5b60008361080016600f0b131561459b577001000000000000058b90bfbe8e7bdcbe2e0260801c5b60008361040016600f0b13156145c257700100000000000002c5c85fdf473dea871f0260801c5b60008361020016600f0b13156145e95770010000000000000162e42fefa39ef44d910260801c5b60008361010016600f0b131561461057700100000000000000b17217f7d1cf79e9490260801c5b600083608016600f0b13156146365770010000000000000058b90bfbe8e7bce5440260801c5b600083604016600f0b131561465c577001000000000000002c5c85fdf473de6eca0260801c5b600083602016600f0b131561468257700100000000000000162e42fefa39ef366f0260801c5b600083601016600f0b13156146a8577001000000000000000b17217f7d1cf79afa0260801c5b600083600816600f0b13156146ce57700100000000000000058b90bfbe8e7bcd6d0260801c5b600083600416600f0b13156146f45770010000000000000002c5c85fdf473de6b20260801c5b600083600216600f0b131561471a577001000000000000000162e42fefa39ef3580260801c5b600083600116600f0b13156147405770010000000000000000b17217f7d1cf79ab0260801c5b600f83810b60401d603f03900b1c6f7fffffffffffffffffffffffffffffff81111561030057600080fd5b604051806101400160405280614803604051806101600160405280600073ffffffffffffffffffffffffffffffffffffffff16815260200160008019168152602001600073ffffffffffffffffffffffffffffffffffffffff16815260200160008152602001600081526020016000815260200160008152602001600081526020016000815260200160008152602001600081525090565b815260200161482c60405180606001604052806000815260200160008152602001600081525090565b815260200160008152602001600081526020016000815260200160008152602001600081526020016000815260200160008152602001600081525090565b60006020828403121561487c57600080fd5b81357fffffffff0000000000000000000000000000000000000000000000000000000081168114612bd257600080fd5b805173ffffffffffffffffffffffffffffffffffffffff1682526020810151602083015260408101516148f7604084018273ffffffffffffffffffffffffffffffffffffffff169052565b50606081810151908301526080808201519083015260a0808201519083015260c0808201519083015260e080820151908301526101008082015190830152610120808201519083015261014090810151910152565b610160810161030082846148ac565b7f4e487b7100000000000000000000000000000000000000000000000000000000600052604160045260246000fd5b6040516060810167ffffffffffffffff811182821017156149ad576149ad61495b565b60405290565b6040516080810167ffffffffffffffff811182821017156149ad576149ad61495b565b604051610160810167ffffffffffffffff811182821017156149ad576149ad61495b565b604051601f82017fffffffffffffffffffffffffffffffffffffffffffffffffffffffffffffffe016810167ffffffffffffffff81118282101715614a4157614a4161495b565b604052919050565b73ffffffffffffffffffffffffffffffffffffffff81168114611c6b57600080fd5b600082601f830112614a7c57600080fd5b813567ffffffffffffffff811115614a9657614a9661495b565b614ac760207fffffffffffffffffffffffffffffffffffffffffffffffffffffffffffffffe0601f840116016149fa565b818152846020838601011115614adc57600080fd5b816020850160208301376000918101602001919091529392505050565b600060608284031215614b0b57600080fd5b614b1361498a565b90508135614b2081614a49565b8152602082013567ffffffffffffffff811115614b3c57600080fd5b614b4884828501614a6b565b6020830152506040820135614b5c81614a49565b604082015292915050565b60008060408385031215614b7a57600080fd5b823567ffffffffffffffff80821115614b9257600080fd5b9084019060808287031215614ba657600080fd5b614bae6149b3565b82358152602083013560208201526040830135614bca81614a49565b6040820152606083013582811115614be157600080fd5b614bed88828601614a6b565b60608301525093506020850135915080821115614c0957600080fd5b50614c1685828601614af9565b9150509250929050565b60008060408385031215614c3357600080fd5b8235614c3e81614a49565b946020939093013593505050565b60006102c082019050614c608284516148ac565b6020838101518051610160850152908101516101808401526040908101516101a08401528301516101c083015260608301516101e0830152608083015161020083015260a083015161022083015260c083015161024083015260e0830151610260830152610100830151610280830152610120909201516102a09091015290565b600060208284031215614cf357600080fd5b5035919050565b600067ffffffffffffffff821115614d1457614d1461495b565b5060051b60200190565b600082601f830112614d2f57600080fd5b81356020614d44614d3f83614cfa565b6149fa565b82815260059290921b84018101918181019086841115614d6357600080fd5b8286015b84811015614d7e5780358352918301918301614d67565b509695505050505050565b600080600080600060a08688031215614da157600080fd5b8535614dac81614a49565b94506020860135614dbc81614a49565b9350604086013567ffffffffffffffff80821115614dd957600080fd5b614de589838a01614d1e565b94506060880135915080821115614dfb57600080fd5b614e0789838a01614d1e565b93506080880135915080821115614e1d57600080fd5b50614e2a88828901614a6b565b9150509295509295909350565b6000808284036080811215614e4b57600080fd5b6060811215614e5957600080fd5b50614e6261498a565b83358152602084013560208201526040840135604082015280925050606083013567ffffffffffffffff811115614e9857600080fd5b614c1685828601614af9565b600080600080600060a08688031215614ebc57600080fd5b8535614ec781614a49565b94506020860135614ed781614a49565b93506040860135925060608601359150608086013567ffffffffffffffff811115614f0157600080fd5b614e2a88828901614a6b565b8051614f1881614a49565b919050565b60006101608284031215614f3057600080fd5b614f386149d6565b614f4183614f0d565b815260208301516020820152614f5960408401614f0d565b6040820152606083015160608201526080830151608082015260a083015160a082015260c083015160c082015260e083015160e08201526101008084015181830152506101208084015181830152506101408084015181830152508091505092915050565b600060208284031215614fd057600080fd5b5051919050565b7f4e487b7100000000000000000000000000000000000000000000000000000000600052601160045260246000fd5b8082018082111561030057610300614fd7565b60005b8381101561503457818101518382015260200161501c565b50506000910152565b60008151808452615055816020860160208601615019565b601f017fffffffffffffffffffffffffffffffffffffffffffffffffffffffffffffffe0169290920160200192915050565b60408152600061509a604083018561503d565b90508260208301529392505050565b8181038181111561030057610300614fd7565b805161ffff81168114614f1857600080fd5b80518015158114614f1857600080fd5b600080600080600080600060e0888a0312156150f957600080fd5b875161510481614a49565b8097505060208801518060020b811461511c57600080fd5b955061512a604089016150bc565b9450615138606089016150bc565b9350615146608089016150bc565b925060a088015160ff8116811461515c57600080fd5b915061516a60c089016150ce565b905092959891949750929550565b7f4e487b7100000000000000000000000000000000000000000000000000000000600052601260045260246000fd5b6000826151b6576151b6615178565b500490565b8251815260208301516020820152604083015160408201526060830151606082015260a0608082015260006151f360a083018461503d565b949350505050565b60006060828403121561520d57600080fd5b61521561498a565b8251815260208301516020820152604083015160408201528091505092915050565b60008251615249818460208701615019565b9190910192915050565b60006020828403121561526557600080fd5b612bd2826150ce565b6000806040838503121561528157600080fd5b505080516020909101519092909150565b63ffffffff8281168282160390808211156152af576152af614fd7565b5092915050565b7f4e487b7100000000000000000000000000000000000000000000000000000000600052603260045260246000fd5b6020808252825182820181905260009190848201906040850190845b8181101561532357835163ffffffff1683529284019291840191600101615301565b50909695505050505050565b600082601f83011261534057600080fd5b81516020615350614d3f83614cfa565b82815260059290921b8401810191818101908684111561536f57600080fd5b8286015b84811015614d7e57805161538681614a49565b8352918301918301615373565b600080604083850312156153a657600080fd5b825167ffffffffffffffff808211156153be57600080fd5b818501915085601f8301126153d257600080fd5b815160206153e2614d3f83614cfa565b82815260059290921b8401810191818101908984111561540157600080fd5b948201945b8386101561542f5785518060060b81146154205760008081fd5b82529482019490820190615406565b9188015191965090935050508082111561544857600080fd5b50614c168582860161532f565b600682810b9082900b037fffffffffffffffffffffffffffffffffffffffffffffffffff800000000000008112667fffffffffffff8213171561030057610300614fd7565b73ffffffffffffffffffffffffffffffffffffffff8281168282160390808211156152af576152af614fd7565b60008160060b8360060b806154de576154de615178565b7fffffffffffffffffffffffffffffffffffffffffffffffffffffffffffffffff81147fffffffffffffffffffffffffffffffffffffffffffffffffff800000000000008314161561553257615532614fd7565b90059392505050565b60008260060b8061554e5761554e615178565b808360060b0791505092915050565b60008160020b7fffffffffffffffffffffffffffffffffffffffffffffffffffffffffff800000810361559257615592614fd7565b7fffffffffffffffffffffffffffffffffffffffffffffffffffffffffffffffff0192915050565b77ffffffffffffffffffffffffffffffffffffffffffffffff8281168282168181028316929181158285048214176155f4576155f4614fd7565b50505092915050565b600077ffffffffffffffffffffffffffffffffffffffffffffffff8084168061562857615628615178565b92169190910492915050565b600081600f0b7fffffffffffffffffffffffffffffffff80000000000000000000000000000000810361566957615669614fd7565b6000039291505056fea164736f6c6343000814000a",
  "linkReferences": {},
  "deployedLinkReferences": {}
}