{
  "_format": "hh-sol-artifact-1",
  "contractName": "View",
  "sourceName": "contracts/support/View.sol",
  "abi": [
    {
      "inputs": [],
      "stateMutability": "nonpayable",
      "type": "constructor"
    },
    {
      "inputs": [],
      "name": "T",
      "type": "error"
    },
    {
      "anonymous": false,
      "inputs": [
        {
          "indexed": true,
          "internalType": "address",
          "name": "payer",
          "type": "address"
        },
        {
          "indexed": true,
          "internalType": "address",
          "name": "recipient",
          "type": "address"
        },
        {
          "indexed": true,
          "internalType": "uint256",
          "name": "sideMax",
          "type": "uint256"
        },
        {
          "indexed": false,
          "internalType": "uint256",
          "name": "sideIn",
          "type": "uint256"
        },
        {
          "indexed": false,
          "internalType": "uint256",
          "name": "sideOut",
          "type": "uint256"
        },
        {
          "indexed": false,
          "internalType": "uint256",
          "name": "maturity",
          "type": "uint256"
        },
        {
          "indexed": false,
          "internalType": "uint256",
          "name": "amountIn",
          "type": "uint256"
        },
        {
          "indexed": false,
          "internalType": "uint256",
          "name": "amountOut",
          "type": "uint256"
        }
      ],
      "name": "Swap",
      "type": "event"
    },
    {
      "inputs": [
        {
          "internalType": "address",
          "name": "TOKEN",
          "type": "address"
        }
      ],
      "name": "compute",
      "outputs": [
        {
          "components": [
            {
              "components": [
                {
                  "internalType": "bytes32",
                  "name": "ORACLE",
                  "type": "bytes32"
                },
                {
                  "internalType": "address",
                  "name": "TOKEN_R",
                  "type": "address"
                },
                {
                  "internalType": "uint256",
                  "name": "K",
                  "type": "uint256"
                },
                {
                  "internalType": "uint256",
                  "name": "MARK",
                  "type": "uint256"
                },
                {
                  "internalType": "uint256",
                  "name": "INTEREST_HL",
                  "type": "uint256"
                },
                {
                  "internalType": "uint256",
                  "name": "PREMIUM_RATE",
                  "type": "uint256"
                },
                {
                  "internalType": "uint256",
                  "name": "MATURITY",
                  "type": "uint256"
                },
                {
                  "internalType": "uint256",
                  "name": "MATURITY_VEST",
                  "type": "uint256"
                },
                {
                  "internalType": "uint256",
                  "name": "MATURITY_RATE",
                  "type": "uint256"
                },
                {
                  "internalType": "uint256",
                  "name": "OPEN_RATE",
                  "type": "uint256"
                }
              ],
              "internalType": "struct Config",
              "name": "config",
              "type": "tuple"
            },
            {
              "components": [
                {
                  "internalType": "uint256",
                  "name": "R",
                  "type": "uint256"
                },
                {
                  "internalType": "uint256",
                  "name": "a",
                  "type": "uint256"
                },
                {
                  "internalType": "uint256",
                  "name": "b",
                  "type": "uint256"
                }
              ],
              "internalType": "struct State",
              "name": "state",
              "type": "tuple"
            },
            {
              "internalType": "uint256",
              "name": "sA",
              "type": "uint256"
            },
            {
              "internalType": "uint256",
              "name": "sB",
              "type": "uint256"
            },
            {
              "internalType": "uint256",
              "name": "sC",
              "type": "uint256"
            },
            {
              "internalType": "uint256",
              "name": "rA",
              "type": "uint256"
            },
            {
              "internalType": "uint256",
              "name": "rB",
              "type": "uint256"
            },
            {
              "internalType": "uint256",
              "name": "rC",
              "type": "uint256"
            },
            {
              "internalType": "uint256",
              "name": "twap",
              "type": "uint256"
            },
            {
              "internalType": "uint256",
              "name": "spot",
              "type": "uint256"
            }
          ],
          "internalType": "struct View.StateView",
          "name": "stateView",
          "type": "tuple"
        }
      ],
      "stateMutability": "view",
      "type": "function"
    },
    {
      "inputs": [],
      "name": "ensureStateIntegrity",
      "outputs": [],
      "stateMutability": "view",
      "type": "function"
    },
    {
      "inputs": [],
      "name": "getStates",
      "outputs": [
        {
          "internalType": "uint256",
          "name": "R",
          "type": "uint256"
        },
        {
          "internalType": "uint256",
          "name": "a",
          "type": "uint256"
        },
        {
          "internalType": "uint256",
          "name": "b",
          "type": "uint256"
        },
        {
          "internalType": "uint32",
          "name": "i",
          "type": "uint32"
        },
        {
          "internalType": "uint32",
          "name": "f",
          "type": "uint32"
        }
      ],
      "stateMutability": "view",
      "type": "function"
    },
    {
      "inputs": [
        {
          "components": [
            {
              "internalType": "uint256",
              "name": "R",
              "type": "uint256"
            },
            {
              "internalType": "uint256",
              "name": "a",
              "type": "uint256"
            },
            {
              "internalType": "uint256",
              "name": "b",
              "type": "uint256"
            }
          ],
          "internalType": "struct State",
          "name": "state",
          "type": "tuple"
        },
        {
          "components": [
            {
              "internalType": "address",
              "name": "utr",
              "type": "address"
            },
            {
              "internalType": "address",
              "name": "payer",
              "type": "address"
            },
            {
              "internalType": "address",
              "name": "recipient",
              "type": "address"
            }
          ],
          "internalType": "struct Payment",
          "name": "payment",
          "type": "tuple"
        }
      ],
      "name": "init",
      "outputs": [],
      "stateMutability": "nonpayable",
      "type": "function"
    },
    {
      "inputs": [],
      "name": "loadConfig",
      "outputs": [
        {
          "components": [
            {
              "internalType": "bytes32",
              "name": "ORACLE",
              "type": "bytes32"
            },
            {
              "internalType": "address",
              "name": "TOKEN_R",
              "type": "address"
            },
            {
              "internalType": "uint256",
              "name": "K",
              "type": "uint256"
            },
            {
              "internalType": "uint256",
              "name": "MARK",
              "type": "uint256"
            },
            {
              "internalType": "uint256",
              "name": "INTEREST_HL",
              "type": "uint256"
            },
            {
              "internalType": "uint256",
              "name": "PREMIUM_RATE",
              "type": "uint256"
            },
            {
              "internalType": "uint256",
              "name": "MATURITY",
              "type": "uint256"
            },
            {
              "internalType": "uint256",
              "name": "MATURITY_VEST",
              "type": "uint256"
            },
            {
              "internalType": "uint256",
              "name": "MATURITY_RATE",
              "type": "uint256"
            },
            {
              "internalType": "uint256",
              "name": "OPEN_RATE",
              "type": "uint256"
            }
          ],
          "internalType": "struct Config",
          "name": "config",
          "type": "tuple"
        }
      ],
      "stateMutability": "pure",
      "type": "function"
    },
    {
      "inputs": [
        {
          "internalType": "address",
          "name": "",
          "type": "address"
        },
        {
          "internalType": "address",
          "name": "",
          "type": "address"
        },
        {
          "internalType": "uint256[]",
          "name": "",
          "type": "uint256[]"
        },
        {
          "internalType": "uint256[]",
          "name": "",
          "type": "uint256[]"
        },
        {
          "internalType": "bytes",
          "name": "",
          "type": "bytes"
        }
      ],
      "name": "onERC1155BatchReceived",
      "outputs": [
        {
          "internalType": "bytes4",
          "name": "",
          "type": "bytes4"
        }
      ],
      "stateMutability": "nonpayable",
      "type": "function"
    },
    {
      "inputs": [
        {
          "internalType": "address",
          "name": "",
          "type": "address"
        },
        {
          "internalType": "address",
          "name": "",
          "type": "address"
        },
        {
          "internalType": "uint256",
          "name": "",
          "type": "uint256"
        },
        {
          "internalType": "uint256",
          "name": "",
          "type": "uint256"
        },
        {
          "internalType": "bytes",
          "name": "",
          "type": "bytes"
        }
      ],
      "name": "onERC1155Received",
      "outputs": [
        {
          "internalType": "bytes4",
          "name": "",
          "type": "bytes4"
        }
      ],
      "stateMutability": "nonpayable",
      "type": "function"
    },
    {
      "inputs": [
        {
          "internalType": "bytes4",
          "name": "interfaceId",
          "type": "bytes4"
        }
      ],
      "name": "supportsInterface",
      "outputs": [
        {
          "internalType": "bool",
          "name": "",
          "type": "bool"
        }
      ],
      "stateMutability": "view",
      "type": "function"
    },
    {
      "inputs": [
        {
          "components": [
            {
              "internalType": "uint256",
              "name": "sideIn",
              "type": "uint256"
            },
            {
              "internalType": "uint256",
              "name": "sideOut",
              "type": "uint256"
            },
            {
              "internalType": "uint256",
              "name": "maturity",
              "type": "uint256"
            },
            {
              "internalType": "address",
              "name": "helper",
              "type": "address"
            },
            {
              "internalType": "bytes",
              "name": "payload",
              "type": "bytes"
            }
          ],
          "internalType": "struct Param",
          "name": "param",
          "type": "tuple"
        },
        {
          "components": [
            {
              "internalType": "address",
              "name": "utr",
              "type": "address"
            },
            {
              "internalType": "address",
              "name": "payer",
              "type": "address"
            },
            {
              "internalType": "address",
              "name": "recipient",
              "type": "address"
            }
          ],
          "internalType": "struct Payment",
          "name": "payment",
          "type": "tuple"
        }
      ],
      "name": "swap",
      "outputs": [
        {
          "internalType": "uint256",
          "name": "amountIn",
          "type": "uint256"
        },
        {
          "internalType": "uint256",
          "name": "amountOut",
          "type": "uint256"
        }
      ],
      "stateMutability": "nonpayable",
      "type": "function"
    }
  ],
  "bytecode": "0x60e060405234801561001057600080fd5b506000608081905260a052600560c05260805160a05160c051614d2c6100a360003960008181611ae7015261290b01526000611b8c0152600081816107d8015281816108a60152818161090601528181610f5601528181611002015281816110b601528181611182015281816112aa01528181611ee901528181612158015281816121d701526122310152614d2c6000f3fe608060405234801561001057600080fd5b50600436106100a35760003560e01c8063b4e4738d11610076578063d8ab82741161005b578063d8ab8274146101ab578063eb7e50dd146101e4578063f23a6e61146101ec57600080fd5b8063b4e4738d14610122578063bc197c811461014257600080fd5b806301ffc9a7146100a8578063054d9b02146100d057806322d65951146100e5578063642ee5ea146100fa575b600080fd5b6100bb6100b6366004613f59565b610224565b60405190151581526020015b60405180910390f35b6100e36100de366004614100565b6102bd565b005b6100ed610a08565b6040516100c791906141d8565b61010d610108366004614275565b610aba565b604080519283526020830191909152016100c7565b61013561013036600461431e565b6113d5565b6040516100c7919061433b565b61017a61015036600461445f565b7fbc197c810000000000000000000000000000000000000000000000000000000095945050505050565b6040517fffffffff0000000000000000000000000000000000000000000000000000000090911681526020016100c7565b6101b36115cc565b6040805195865260208601949094529284019190915263ffffffff908116606084015216608082015260a0016100c7565b6100e36116c2565b61017a6101fa36600461450d565b7ff23a6e610000000000000000000000000000000000000000000000000000000095945050505050565b60007fffffffff0000000000000000000000000000000000000000000000000000000082167f4e2312e00000000000000000000000000000000000000000000000000000000014806102b757507f01ffc9a7000000000000000000000000000000000000000000000000000000007fffffffff000000000000000000000000000000000000000000000000000000008316145b92915050565b60005463ffffffff1615610332576040517f08c379a000000000000000000000000000000000000000000000000000000000815260206004820152600260248201527f414900000000000000000000000000000000000000000000000000000000000060448201526064015b60405180910390fd5b815160208301516040840151821580159061034d5750600082115b80156103595750600081115b6103bf576040517f08c379a000000000000000000000000000000000000000000000000000000000815260206004820152600260248201527f5a500000000000000000000000000000000000000000000000000000000000006044820152606401610329565b600183901c82111580156103d75750600183901c8111155b61043d576040517f08c379a000000000000000000000000000000000000000000000000000000000815260206004820152600260248201527f49500000000000000000000000000000000000000000000000000000000000006044820152606401610329565b6000610447610a08565b602086015190915073ffffffffffffffffffffffffffffffffffffffff16156106be5760208101516040517f70a0823100000000000000000000000000000000000000000000000000000000815230600482015260009173ffffffffffffffffffffffffffffffffffffffff16906370a0823190602401602060405180830381865afa1580156104db573d6000803e3d6000fd5b505050506040513d601f19601f820116820180604052508101906104ff9190614576565b61050990866145be565b8651602080890151908501516040517f03886f3c00000000000000000000000000000000000000000000000000000000815273ffffffffffffffffffffffffffffffffffffffff92831660048201523060248201526014604482015290821660648201526000608482015260a4810189905292935016906303886f3c9060c401600060405180830381600087803b1580156105a357600080fd5b505af11580156105b7573d6000803e3d6000fd5b50505060208301516040517f70a0823100000000000000000000000000000000000000000000000000000000815230600482015273ffffffffffffffffffffffffffffffffffffffff90911691506370a0823190602401602060405180830381865afa15801561062b573d6000803e3d6000fd5b505050506040513d601f19601f8201168201806040525081019061064f9190614576565b8111156106b8576040517f08c379a000000000000000000000000000000000000000000000000000000000815260206004820152600260248201527f42500000000000000000000000000000000000000000000000000000000000006044820152606401610329565b506106ce565b6106ce8160200151333087611745565b4263ffffffff81166401000000007bffffffffffffffffffffffffffffffffffffffffffffffffffffffff868116820292909217600090815563fffffffe90931691851602176001556107223060106118e4565b905060006107313060206118e4565b905060006107403060306118e4565b9050600061074f600389614605565b905060008560c001514261076391906145be565b60408b81015190517f702b9f2d00000000000000000000000000000000000000000000000000000000815273ffffffffffffffffffffffffffffffffffffffff9182166004820152602481018890526044810185905263ffffffff8316606482015260a06084820152600060a48201529192507f0000000000000000000000000000000000000000000000000000000000000000169063702b9f2d9060c401600060405180830381600087803b15801561081c57600080fd5b505af1158015610830573d6000803e3d6000fd5b5050505060408a81015190517f702b9f2d00000000000000000000000000000000000000000000000000000000815273ffffffffffffffffffffffffffffffffffffffff9182166004820152602481018690526044810184905263ffffffff8316606482015260a06084820152600060a48201527f00000000000000000000000000000000000000000000000000000000000000009091169063702b9f2d9060c401600060405180830381600087803b1580156108ec57600080fd5b505af1158015610900573d6000803e3d6000fd5b505050507f000000000000000000000000000000000000000000000000000000000000000073ffffffffffffffffffffffffffffffffffffffff1663702b9f2d8b6040015185600186901b8d6109569190614619565b6040517fffffffff0000000000000000000000000000000000000000000000000000000060e086901b16815273ffffffffffffffffffffffffffffffffffffffff90931660048401526024830191909152604482015263ffffffff8416606482015260a06084820152600060a482015260c401600060405180830381600087803b1580156109e357600080fd5b505af11580156109f7573d6000803e3d6000fd5b505050505050505050505050505050565b610a7760405180610140016040528060008019168152602001600073ffffffffffffffffffffffffffffffffffffffff16815260200160008152602001600081526020016000815260200160008152602001600081526020016000815260200160008152602001600081525090565b606060203603803580820391506040519250602081018301604052808352602083018183823750505080806020019051810190610ab49190614640565b91505090565b600080610ac56116c2565b600180547fffffffffffffffffffffffffffffffffffffffffffffffffffffffff00000000811663ffffffff90911617811790556000610b03610a08565b90506000856020015114610c255760008160c001514263ffffffff16610b2991906145be565b90508560400151600003610b435760408601819052610c23565b604086015163ffffffff1015610bb5576040517f08c379a000000000000000000000000000000000000000000000000000000000815260206004820152600260248201527f4d4f0000000000000000000000000000000000000000000000000000000000006044820152606401610329565b8086604001511015610c23576040517f08c379a000000000000000000000000000000000000000000000000000000000815260206004820152600260248201527f4d4d0000000000000000000000000000000000000000000000000000000000006044820152606401610329565b505b610c2f8186611911565b86519194509250610ec957602084015173ffffffffffffffffffffffffffffffffffffffff1615610eae5760208101516040517f70a0823100000000000000000000000000000000000000000000000000000000815230600482015260009173ffffffffffffffffffffffffffffffffffffffff16906370a0823190602401602060405180830381865afa158015610ccb573d6000803e3d6000fd5b505050506040513d601f19601f82011682018060405250810190610cef9190614576565b610cf990856145be565b8551602080880151908501516040517f03886f3c00000000000000000000000000000000000000000000000000000000815273ffffffffffffffffffffffffffffffffffffffff92831660048201523060248201526014604482015290821660648201526000608482015260a4810188905292935016906303886f3c9060c401600060405180830381600087803b158015610d9357600080fd5b505af1158015610da7573d6000803e3d6000fd5b50505060208301516040517f70a0823100000000000000000000000000000000000000000000000000000000815230600482015273ffffffffffffffffffffffffffffffffffffffff90911691506370a0823190602401602060405180830381865afa158015610e1b573d6000803e3d6000fd5b505050506040513d601f19601f82011682018060405250810190610e3f9190614576565b811115610ea8576040517f08c379a000000000000000000000000000000000000000000000000000000000815260206004820152600260248201527f42500000000000000000000000000000000000000000000000000000000000006044820152606401610329565b506111ff565b610ebe8160200151333086611745565b3360208501526111ff565b6000610ed93087600001516118e4565b602086015190915073ffffffffffffffffffffffffffffffffffffffff161561107a57845160208601516040517f03886f3c00000000000000000000000000000000000000000000000000000000815273ffffffffffffffffffffffffffffffffffffffff918216600482015230602482015261048360448201527f0000000000000000000000000000000000000000000000000000000000000000821660648201526084810184905260a481018790529116906303886f3c9060c401600060405180830381600087803b158015610fb057600080fd5b505af1158015610fc4573d6000803e3d6000fd5b50506040517ff5298aca00000000000000000000000000000000000000000000000000000000815230600482015260248101849052604481018790527f000000000000000000000000000000000000000000000000000000000000000073ffffffffffffffffffffffffffffffffffffffff16925063f5298aca9150606401600060405180830381600087803b15801561105d57600080fd5b505af1158015611071573d6000803e3d6000fd5b5050505061112e565b6040517ff5298aca00000000000000000000000000000000000000000000000000000000815233600482015260248101829052604481018590527f000000000000000000000000000000000000000000000000000000000000000073ffffffffffffffffffffffffffffffffffffffff169063f5298aca90606401600060405180830381600087803b15801561110f57600080fd5b505af1158015611123573d6000803e3d6000fd5b505033602088015250505b60208501516040517fcb263dc600000000000000000000000000000000000000000000000000000000815273ffffffffffffffffffffffffffffffffffffffff9182166004820152602481018390526000917f0000000000000000000000000000000000000000000000000000000000000000169063cb263dc690604401602060405180830381865afa1580156111c9573d6000803e3d6000fd5b505050506040513d601f19601f820116820180604052508101906111ed9190614576565b90506111fa83828661236a565b935050505b60208501516112205761121b81602001518560400151846123ee565b61130a565b60006112303087602001516118e4565b6040868101518882015191517f702b9f2d00000000000000000000000000000000000000000000000000000000815273ffffffffffffffffffffffffffffffffffffffff9182166004820152602481018490526044810187905263ffffffff909216606483015260a06084830152600060a48301529192507f00000000000000000000000000000000000000000000000000000000000000009091169063702b9f2d9060c401600060405180830381600087803b1580156112f057600080fd5b505af1158015611304573d6000803e3d6000fd5b50505050505b61131c85600001518660200151612584565b60408086015160208088015189518a8301518b86015186519283529382015293840191909152606083018790526080830186905273ffffffffffffffffffffffffffffffffffffffff918216929116907fa5a79273c52413fd319bf0be43c422824dc76fc4f69c671d8805d1aaf3cecc779060a00160405180910390a450600180547fffffffffffffffffffffffffffffffffffffffffffffffffffffffff00000000811663fffffffe90911617905590939092509050565b6113dd613e77565b60006113e7610a08565b905060006040518060600160405280611403846020015161259a565b8152600080547bffffffffffffffffffffffffffffffffffffffffffffffffffffffff6401000000008083048216602086015260015404166040909301929092529192506114659061145b9063ffffffff1642614619565b846080015161262b565b905061147f82602001516801000000000000000083612668565b6020830152604082015161149d906801000000000000000083612668565b604083015250815160009081906114b3906126c6565b915091506000806114cd6114c78786612843565b86612872565b915091506000806114e76114e18987612843565b88612872565b9150915060006115018960800151896000015187876128cc565b60808c01518b5192985090965091925061151d919085856128cc565b828b529094509250811015611530578088525b61153a85846129c0565b60a08b015261154984836129c0565b60c08b015261156a61155b85876145be565b61156584866145be565b612584565b88516115769190614619565b60e08b01526115868b60106129cf565b60408b01526115968b60206129cf565b60608b01526115a68b60306129cf565b60808b015250505050610100860192909252610120850152509082526020820152919050565b6000806000806000806115dd610a08565b60208101516040517f70a0823100000000000000000000000000000000000000000000000000000000815230600482015291925073ffffffffffffffffffffffffffffffffffffffff16906370a0823190602401602060405180830381865afa15801561164e573d6000803e3d6000fd5b505050506040513d601f19601f820116820180604052508101906116729190614576565b60005460015491987bffffffffffffffffffffffffffffffffffffffffffffffffffffffff64010000000080840482169a50840416975063ffffffff909116955063fffffffe9091169350915050565b6001805463ffffffff811691161580156116dc5750600081115b611742576040517f08c379a000000000000000000000000000000000000000000000000000000000815260206004820152600260248201527f53490000000000000000000000000000000000000000000000000000000000006044820152606401610329565b50565b6040805173ffffffffffffffffffffffffffffffffffffffff85811660248301528481166044830152606480830185905283518084039091018152608490920183526020820180517bffffffffffffffffffffffffffffffffffffffffffffffffffffffff167f23b872dd0000000000000000000000000000000000000000000000000000000017905291516000928392908816916117e491906146fe565b6000604051808303816000865af19150503d8060008114611821576040519150601f19603f3d011682016040523d82523d6000602084013e611826565b606091505b5091509150818015611850575080511580611850575080806020019051810190611850919061472a565b6118dc576040517f08c379a000000000000000000000000000000000000000000000000000000000815260206004820152603160248201527f5472616e7366657248656c7065723a3a7472616e7366657246726f6d3a20747260448201527f616e7366657246726f6d206661696c65640000000000000000000000000000006064820152608401610329565b505050505050565b600061190a73ffffffffffffffffffffffffffffffffffffffff841660a084901b6145be565b9392505050565b805160208201516000918291808203611986576040517f08c379a000000000000000000000000000000000000000000000000000000000815260206004820152600260248201527f53530000000000000000000000000000000000000000000000000000000000006044820152606401610329565b600060405180606001604052806119a0896020015161259a565b8152600080547bffffffffffffffffffffffffffffffffffffffffffffffffffffffff640100000000808304821660208601526001540416604090930192909252919250611a02906119f89063ffffffff1642614619565b896080015161262b565b90506000611a1e83602001516801000000000000000084612668565b90506000611a3a84604001516801000000000000000085612668565b90508360200151821080611a515750836040015181105b15611a95576020840182905260408401819052600080547fffffffffffffffffffffffffffffffffffffffffffffffffffffffff00000000164263ffffffff161790555b5050506000806000611aa98a858888612a56565b6001549295509093509150600090611acb9063fffffffe908116904216614745565b905063ffffffff811615611c0f576000611b1a8263ffffffff167f00000000000000000000000000000000000000000000000000000000000000008e60800151611b15919061476a565b61262b565b90506000611b32856801000000000000000084612668565b90506000611b4a856801000000000000000085612668565b905085821080611b5957508481105b15611c0b5760008186611b6c858a614619565b611b7691906145be565b611b809190614619565b9050611bb18f602001517f0000000000000000000000000000000000000000000000000000000000000000836123ee565b828280975081985050508089600001818151611bcd9190614619565b90525060018054869190600090611beb90849063ffffffff166147a7565b92506101000a81548163ffffffff021916908363ffffffff160217905550505b5050505b506000896060015173ffffffffffffffffffffffffffffffffffffffff1663dc0192e8604051806080016040528087815260200188600001518152602001868152602001858152508c608001516040518363ffffffff1660e01b8152600401611c799291906147cf565b606060405180830381865afa158015611c96573d6000803e3d6000fd5b505050506040513d601f19601f82011682018060405250810190611cba9190614846565b90507bffffffffffffffffffffffffffffffffffffffffffffffffffffffff801681602001511115611d48576040517f08c379a000000000000000000000000000000000000000000000000000000000815260206004820152600260248201527f4f410000000000000000000000000000000000000000000000000000000000006044820152606401610329565b60408101517bffffffffffffffffffffffffffffffffffffffffffffffffffffffff1015611dd2576040517f08c379a000000000000000000000000000000000000000000000000000000000815260206004820152600260248201527f4f420000000000000000000000000000000000000000000000000000000000006044820152606401610329565b600080611ddf8684612872565b909250905088611e7657848210158015611df95750838110155b611e61576040517f08c379a00000000000000000000000000000000000000000000000000000000081526004016103299060208082526004908201527f4d493a5200000000000000000000000000000000000000000000000000000000604082015260600190565b86518351611e6f9190614619565b9a506120f0565b825187511015611ee2576040517f08c379a000000000000000000000000000000000000000000000000000000000815260206004820152600560248201527f4d493a4e520000000000000000000000000000000000000000000000000000006044820152606401610329565b6000611f0e7f00000000000000000000000000000000000000000000000000000000000000008b6129cf565b905060108a03611f9f5784821015611f84576040517f08c379a00000000000000000000000000000000000000000000000000000000081526004016103299060208082526004908201527f4d493a4100000000000000000000000000000000000000000000000000000000604082015260600190565b611f9881611f928589614619565b88612668565b9b506120ee565b85831015612009576040517f08c379a000000000000000000000000000000000000000000000000000000000815260206004820152600560248201527f4d493a4e410000000000000000000000000000000000000000000000000000006044820152606401610329565b60208a0361202557611f988161201f8488614619565b87612668565b60308a036120ee5784821015612097576040517f08c379a000000000000000000000000000000000000000000000000000000000815260206004820152600560248201527f4d493a4e420000000000000000000000000000000000000000000000000000006044820152606401610329565b600085878a600001516120aa9190614619565b6120b49190614619565b90506000838587600001516120c99190614619565b6120d39190614619565b90506120e9836120e38385614619565b84612668565b9d5050505b505b8761210a57825187516121039190614619565b99506122b0565b60308803612196576000848689600001516121259190614619565b61212f9190614619565b90506000828486600001516121449190614619565b61214e9190614619565b905061218d61217d7f00000000000000000000000000000000000000000000000000000000000000008c6129cf565b6121878484614619565b84612b1b565b9b5050506122b0565b7001000000000000000000000000000000007ffffffffffffffffffffffffffffffffffffffffffffffffffffffffffffffff089016122215761220c6121fc7f00000000000000000000000000000000000000000000000000000000000000008b6129cf565b6122068886614619565b88612b1b565b9a5061221a8e858585612beb565b9050612277565b60208903612277576122666122567f00000000000000000000000000000000000000000000000000000000000000008b6129cf565b6122608785614619565b87612b1b565b9a506122748e858486612beb565b90505b70010000000000000000000000000000000081146122ae576122ab8c70010000000000000000000000000000000083612b1b565b9b505b505b8260200151600060046101000a8154817bffffffffffffffffffffffffffffffffffffffffffffffffffffffff02191690837bffffffffffffffffffffffffffffffffffffffffffffffffffffffff1602179055508260400151600160046101000a8154817bffffffffffffffffffffffffffffffffffffffffffffffffffffffff02191690837bffffffffffffffffffffffffffffffffffffffffffffffffffffffff1602179055505050505050505050509250929050565b600042831161237a57508061190a565b60c084015142840390811061239357600091505061190a565b6000818660c001510390508560e001518110156123c3578560e00151818502816123bf576123bf6145d6565b0493505b6123e484876101000151700100000000000000000000000000000000612b1b565b9695505050505050565b6040805173ffffffffffffffffffffffffffffffffffffffff8481166024830152604480830185905283518084039091018152606490920183526020820180517bffffffffffffffffffffffffffffffffffffffffffffffffffffffff167fa9059cbb00000000000000000000000000000000000000000000000000000000179052915160009283929087169161248591906146fe565b6000604051808303816000865af19150503d80600081146124c2576040519150601f19603f3d011682016040523d82523d6000602084013e6124c7565b606091505b50915091508180156124f15750805115806124f15750808060200190518101906124f1919061472a565b61257d576040517f08c379a000000000000000000000000000000000000000000000000000000000815260206004820152602d60248201527f5472616e7366657248656c7065723a3a736166655472616e736665723a20747260448201527f616e73666572206661696c6564000000000000000000000000000000000000006064820152608401610329565b5050505050565b6000818311612593578161190a565b5090919050565b6040517f70a0823100000000000000000000000000000000000000000000000000000000815230600482015260009073ffffffffffffffffffffffffffffffffffffffff8316906370a0823190602401602060405180830381865afa158015612607573d6000803e3d6000fd5b505050506040513d601f19601f820116820180604052508101906102b79190614576565b6000816000036126455750680100000000000000006102b7565b600061265d61265884604087901b614605565b612c73565b600f0b949350505050565b6000612675848484612b1b565b905060008280612687576126876145d6565b848609111561190a577fffffffffffffffffffffffffffffffffffffffffffffffffffffffffffffffff81106126bc57600080fd5b6001019392505050565b600080600083905060008173ffffffffffffffffffffffffffffffffffffffff16633850c7bd6040518163ffffffff1660e01b815260040160e060405180830381865afa15801561271b573d6000803e3d6000fd5b505050506040513d601f19601f8201168201806040525081019061273f91906148b4565b505050505050905060006127578360c088901c61375c565b509050600061276582613a20565b73ffffffffffffffffffffffffffffffffffffffff16905060208373ffffffffffffffffffffffffffffffffffffffff16901b73ffffffffffffffffffffffffffffffffffffffff169450602081901b95507f8000000000000000000000000000000000000000000000000000000000000000871660000361283a5761280b857fffffffffffffffffffffffffffffffffffffffffffffffffffffffffffffffff614605565b9450612837867fffffffffffffffffffffffffffffffffffffffffffffffffffffffffffffffff614605565b95505b50505050915091565b600061190a612868700100000000000000000000000000000000848660600151612b1b565b8460400151613d87565b6000806128888484602001518560000151613e0e565b91506128c36128b7857fffffffffffffffffffffffffffffffffffffffffffffffffffffffffffffffff614605565b60408501518551613e0e565b90509250929050565b6001546000908190819081906128ec9063fffffffe908116904216614745565b905063ffffffff8116156129b357600061293063ffffffff8316611b157f00000000000000000000000000000000000000000000000000000000000000008c61476a565b90506000612948886801000000000000000084612668565b90506000612960886801000000000000000085612668565b90508882108061296f57508781105b156129af5760008189612982858d614619565b61298c91906145be565b6129969190614619565b92995090975088918891506129ab818c614619565b9a50505b5050505b5094969395509193505050565b6000818310612593578161190a565b60008273ffffffffffffffffffffffffffffffffffffffff1663bd85b0396129f730856118e4565b6040518263ffffffff1660e01b8152600401612a1591815260200190565b602060405180830381865afa158015612a32573d6000803e3d6000fd5b505050506040513d601f19601f8201168201806040525081019061190a9190614576565b6000806000806000612a6e896000015160001c6126c6565b9150915080821115612a7c57905b6010861480612a8b5750602087145b15612ab057612a9a8982612843565b9450612aa68589612872565b9094509250612b0f565b6020861480612abf5750601087145b15612ace57612a9a8983612843565b612ad88983612843565b9450612ae48589612872565b9094509250838311871503612b0f57612afd8982612843565b9450612b098589612872565b90945092505b50509450945094915050565b600080807fffffffffffffffffffffffffffffffffffffffffffffffffffffffffffffffff85870985870292508281108382030391505080600003612b725760008411612b6757600080fd5b50829004905061190a565b808411612b7e57600080fd5b6000848688096000868103871696879004966002600389028118808a02820302808a02820302808a02820302808a02820302808a02820302808a02909103029181900381900460010186841190950394909402919094039290920491909117919091029150509392505050565b61012084015160a085015115801590612c0357508183115b15612c6b57600082848660000151612c1b9190614619565b612c259190614619565b90506000612c487001000000000000000000000000000000006121878688614619565b90508660a00151811115612c6857612c65838860a0015183612b1b565b92505b50505b949350505050565b60006840000000000000000082600f0b12612c8d57600080fd5b7fffffffffffffffffffffffffffffffffffffffffffffffc0000000000000000082600f0b1215612cc057506000919050565b6f8000000000000000000000000000000060006780000000000000008416600f0b1315612cfe5770016a09e667f3bcc908b2fb1366ea957d3e0260801c5b60008367400000000000000016600f0b1315612d2b577001306fe0a31b7152de8d5a46305c85edec0260801c5b60008367200000000000000016600f0b1315612d58577001172b83c7d517adcdf7c8c50eb14a791f0260801c5b60008367100000000000000016600f0b1315612d855770010b5586cf9890f6298b92b71842a983630260801c5b60008367080000000000000016600f0b1315612db2577001059b0d31585743ae7c548eb68ca417fd0260801c5b60008367040000000000000016600f0b1315612ddf57700102c9a3e778060ee6f7caca4f7a29bde80260801c5b60008367020000000000000016600f0b1315612e0c5770010163da9fb33356d84a66ae336dcdfa3f0260801c5b60008367010000000000000016600f0b1315612e3957700100b1afa5abcbed6129ab13ec11dc95430260801c5b600083668000000000000016600f0b1315612e655770010058c86da1c09ea1ff19d294cf2f679b0260801c5b600083664000000000000016600f0b1315612e91577001002c605e2e8cec506d21bfc89a23a00f0260801c5b600083662000000000000016600f0b1315612ebd57700100162f3904051fa128bca9c55c31e5df0260801c5b600083661000000000000016600f0b1315612ee9577001000b175effdc76ba38e31671ca9397250260801c5b600083660800000000000016600f0b1315612f1557700100058ba01fb9f96d6cacd4b180917c3d0260801c5b600083660400000000000016600f0b1315612f415770010002c5cc37da9491d0985c348c68e7b30260801c5b600083660200000000000016600f0b1315612f6d577001000162e525ee054754457d59952920260260801c5b600083660100000000000016600f0b1315612f995770010000b17255775c040618bf4a4ade83fc0260801c5b6000836580000000000016600f0b1315612fc4577001000058b91b5bc9ae2eed81e9b7d4cfab0260801c5b6000836540000000000016600f0b1315612fef57700100002c5c89d5ec6ca4d7c8acc017b7c90260801c5b6000836520000000000016600f0b131561301a5770010000162e43f4f831060e02d839a9d16d0260801c5b6000836510000000000016600f0b131561304557700100000b1721bcfc99d9f890ea069117630260801c5b6000836508000000000016600f0b13156130705770010000058b90cf1e6d97f9ca14dbcc16280260801c5b6000836504000000000016600f0b131561309b577001000002c5c863b73f016468f6bac5ca2b0260801c5b6000836502000000000016600f0b13156130c657700100000162e430e5a18f6119e3c02282a50260801c5b6000836501000000000016600f0b13156130f1577001000000b1721835514b86e6d96efd1bfe0260801c5b60008364800000000016600f0b131561311b57700100000058b90c0b48c6be5df846c5b2ef0260801c5b60008364400000000016600f0b13156131455770010000002c5c8601cc6b9e94213c72737a0260801c5b60008364200000000016600f0b131561316f577001000000162e42fff037df38aa2b219f060260801c5b60008364100000000016600f0b13156131995770010000000b17217fba9c739aa5819f44f90260801c5b60008364080000000016600f0b13156131c3577001000000058b90bfcdee5acd3c1cedc8230260801c5b60008364040000000016600f0b13156131ed57700100000002c5c85fe31f35a6a30da1be500260801c5b60008364020000000016600f0b13156132175770010000000162e42ff0999ce3541b9fffcf0260801c5b60008364010000000016600f0b131561324157700100000000b17217f80f4ef5aadda455540260801c5b600083638000000016600f0b131561326a5770010000000058b90bfbf8479bd5a81b51ad0260801c5b600083634000000016600f0b1315613293577001000000002c5c85fdf84bd62ae30a74cc0260801c5b600083632000000016600f0b13156132bc57700100000000162e42fefb2fed257559bdaa0260801c5b600083631000000016600f0b13156132e5577001000000000b17217f7d5a7716bba4a9ae0260801c5b600083630800000016600f0b131561330e57700100000000058b90bfbe9ddbac5e109cce0260801c5b600083630400000016600f0b13156133375770010000000002c5c85fdf4b15de6f17eb0d0260801c5b600083630200000016600f0b1315613360577001000000000162e42fefa494f1478fde050260801c5b600083630100000016600f0b13156133895770010000000000b17217f7d20cf927c8e94c0260801c5b6000836280000016600f0b13156133b1577001000000000058b90bfbe8f71cb4e4b33d0260801c5b6000836240000016600f0b13156133d957700100000000002c5c85fdf477b662b269450260801c5b6000836220000016600f0b13156134015770010000000000162e42fefa3ae53369388c0260801c5b6000836210000016600f0b131561342957700100000000000b17217f7d1d351a389d400260801c5b6000836208000016600f0b13156134515770010000000000058b90bfbe8e8b2d3d4ede0260801c5b6000836204000016600f0b1315613479577001000000000002c5c85fdf4741bea6e77e0260801c5b6000836202000016600f0b13156134a157700100000000000162e42fefa39fe95583c20260801c5b6000836201000016600f0b13156134c9577001000000000000b17217f7d1cfb72b45e10260801c5b60008361800016600f0b13156134f057700100000000000058b90bfbe8e7cc35c3f00260801c5b60008361400016600f0b13156135175770010000000000002c5c85fdf473e242ea380260801c5b60008361200016600f0b131561353e577001000000000000162e42fefa39f02b772c0260801c5b60008361100016600f0b13156135655770010000000000000b17217f7d1cf7d83c1a0260801c5b60008361080016600f0b131561358c577001000000000000058b90bfbe8e7bdcbe2e0260801c5b60008361040016600f0b13156135b357700100000000000002c5c85fdf473dea871f0260801c5b60008361020016600f0b13156135da5770010000000000000162e42fefa39ef44d910260801c5b60008361010016600f0b131561360157700100000000000000b17217f7d1cf79e9490260801c5b600083608016600f0b13156136275770010000000000000058b90bfbe8e7bce5440260801c5b600083604016600f0b131561364d577001000000000000002c5c85fdf473de6eca0260801c5b600083602016600f0b131561367357700100000000000000162e42fefa39ef366f0260801c5b600083601016600f0b1315613699577001000000000000000b17217f7d1cf79afa0260801c5b600083600816600f0b13156136bf57700100000000000000058b90bfbe8e7bcd6d0260801c5b600083600416600f0b13156136e55770010000000000000002c5c85fdf473de6b20260801c5b600083600216600f0b131561370b577001000000000000000162e42fefa39ef3580260801c5b600083600116600f0b13156137315770010000000000000000b17217f7d1cf79ab0260801c5b600f83810b60401d603f03900b1c6f7fffffffffffffffffffffffffffffff8111156102b757600080fd5b6000808263ffffffff166000036137cf576040517f08c379a000000000000000000000000000000000000000000000000000000000815260206004820152600260248201527f42500000000000000000000000000000000000000000000000000000000000006044820152606401610329565b60408051600280825260608201835260009260208301908036833701905050905083816000815181106138045761380461494e565b602002602001019063ffffffff16908163ffffffff16815250506000816001815181106138335761383361494e565b602002602001019063ffffffff16908163ffffffff16815250506000808673ffffffffffffffffffffffffffffffffffffffff1663883bdbfd846040518263ffffffff1660e01b8152600401613889919061497d565b600060405180830381865afa1580156138a6573d6000803e3d6000fd5b505050506040513d6000823e601f3d9081017fffffffffffffffffffffffffffffffffffffffffffffffffffffffffffffffe01682016040526138ec9190810190614a2b565b915091506000826000815181106139055761390561494e565b6020026020010151836001815181106139205761392061494e565b60200260200101516139329190614af7565b90506000826000815181106139495761394961494e565b6020026020010151836001815181106139645761396461494e565b60200260200101516139769190614b5f565b905061398863ffffffff891683614b8c565b965060008260060b1280156139ae57506139a863ffffffff891683614c00565b60060b15155b156139c157866139bd81614c22565b9750505b60006139e773ffffffffffffffffffffffffffffffffffffffff63ffffffff8b16614c7f565b9050613a1177ffffffffffffffffffffffffffffffffffffffff00000000602084901b1682614cbf565b96505050505050509250929050565b60008060008360020b12613a37578260020b613a3f565b8260020b6000035b9050620d89e8811115613a7e576040517f2bc80f3a00000000000000000000000000000000000000000000000000000000815260040160405180910390fd5b600081600116600003613aa257700100000000000000000000000000000000613ab4565b6ffffcb933bd6fad37aa2d162d1a5940015b70ffffffffffffffffffffffffffffffffff1690506002821615613ae8576ffff97272373d413259a46990580e213a0260801c5b6004821615613b07576ffff2e50f5f656932ef12357cf3c7fdcc0260801c5b6008821615613b26576fffe5caca7e10e4e61c3624eaa0941cd00260801c5b6010821615613b45576fffcb9843d60f6159c9db58835c9266440260801c5b6020821615613b64576fff973b41fa98c081472e6896dfb254c00260801c5b6040821615613b83576fff2ea16466c96a3843ec78b326b528610260801c5b6080821615613ba2576ffe5dee046a99a2a811c461f1969c30530260801c5b610100821615613bc2576ffcbe86c7900a88aedcffc83b479aa3a40260801c5b610200821615613be2576ff987a7253ac413176f2b074cf7815e540260801c5b610400821615613c02576ff3392b0822b70005940c7a398e4b70f30260801c5b610800821615613c22576fe7159475a2c29b7443b29c7fa6e889d90260801c5b611000821615613c42576fd097f3bdfd2022b8845ad8f792aa58250260801c5b612000821615613c62576fa9f746462d870fdf8a65dc1f90e061e50260801c5b614000821615613c82576f70d869a156d2a1b890bb3df62baf32f70260801c5b618000821615613ca2576f31be135f97d08fd981231505542fcfa60260801c5b62010000821615613cc3576f09aa508b5b7a84e1c677de54f3e99bc90260801c5b62020000821615613ce3576e5d6af8dedb81196699c329225ee6040260801c5b62040000821615613d02576d2216e584f5fa1ea926041bedfe980260801c5b62080000821615613d1f576b048a170391f7dc42444e8fa20260801c5b60008460020b1315613d5e57807fffffffffffffffffffffffffffffffffffffffffffffffffffffffffffffffff81613d5a57613d5a6145d6565b0490505b640100000000810615613d72576001613d75565b60005b60ff16602082901c0192505050919050565b6000808260011611613daa57700100000000000000000000000000000000613dac565b825b9050600182901c91505b81156102b757613dd88384700100000000000000000000000000000000612b1b565b92506001821615613e0257613dff8184700100000000000000000000000000000000612b1b565b90505b600182901c9150613db6565b6000613e2c8385700100000000000000000000000000000000612b1b565b9050600182901c81111561190a576000613e5c84600287901b700100000000000000000000000000000000612b1b565b90506000613e6b848584612b1b565b90506123e48185614619565b604051806101400160405280613ef260405180610140016040528060008019168152602001600073ffffffffffffffffffffffffffffffffffffffff16815260200160008152602001600081526020016000815260200160008152602001600081526020016000815260200160008152602001600081525090565b8152602001613f1b60405180606001604052806000815260200160008152602001600081525090565b815260200160008152602001600081526020016000815260200160008152602001600081526020016000815260200160008152602001600081525090565b600060208284031215613f6b57600080fd5b81357fffffffff000000000000000000000000000000000000000000000000000000008116811461190a57600080fd5b7f4e487b7100000000000000000000000000000000000000000000000000000000600052604160045260246000fd5b6040516060810167ffffffffffffffff81118282101715613fed57613fed613f9b565b60405290565b60405160a0810167ffffffffffffffff81118282101715613fed57613fed613f9b565b604051610140810167ffffffffffffffff81118282101715613fed57613fed613f9b565b604051601f82017fffffffffffffffffffffffffffffffffffffffffffffffffffffffffffffffe016810167ffffffffffffffff8111828210171561408157614081613f9b565b604052919050565b73ffffffffffffffffffffffffffffffffffffffff8116811461174257600080fd5b6000606082840312156140bd57600080fd5b6140c5613fca565b905081356140d281614089565b815260208201356140e281614089565b602082015260408201356140f581614089565b604082015292915050565b60008082840360c081121561411457600080fd5b606081121561412257600080fd5b5061412b613fca565b833581526020840135602082015260408401356040820152809250506128c384606085016140ab565b80518252602081015161417f602084018273ffffffffffffffffffffffffffffffffffffffff169052565b5060408101516040830152606081015160608301526080810151608083015260a081015160a083015260c081015160c083015260e081015160e08301526101008082015181840152506101208082015181840152505050565b61014081016102b78284614154565b600082601f8301126141f857600080fd5b813567ffffffffffffffff81111561421257614212613f9b565b61424360207fffffffffffffffffffffffffffffffffffffffffffffffffffffffffffffffe0601f8401160161403a565b81815284602083860101111561425857600080fd5b816020850160208301376000918101602001919091529392505050565b6000806080838503121561428857600080fd5b823567ffffffffffffffff808211156142a057600080fd5b9084019060a082870312156142b457600080fd5b6142bc613ff3565b82358152602083013560208201526040830135604082015260608301356142e281614089565b60608201526080830135828111156142f957600080fd5b614305888286016141e7565b6080830152508094505050506128c384602085016140ab565b60006020828403121561433057600080fd5b813561190a81614089565b60006102a08201905061434f828451614154565b6020838101518051610140850152908101516101608401526040908101516101808401528301516101a083015260608301516101c083015260808301516101e083015260a083015161020083015260c083015161022083015260e0830151610240830152610100830151610260830152610120909201516102809091015290565b600067ffffffffffffffff8211156143ea576143ea613f9b565b5060051b60200190565b600082601f83011261440557600080fd5b8135602061441a614415836143d0565b61403a565b82815260059290921b8401810191818101908684111561443957600080fd5b8286015b84811015614454578035835291830191830161443d565b509695505050505050565b600080600080600060a0868803121561447757600080fd5b853561448281614089565b9450602086013561449281614089565b9350604086013567ffffffffffffffff808211156144af57600080fd5b6144bb89838a016143f4565b945060608801359150808211156144d157600080fd5b6144dd89838a016143f4565b935060808801359150808211156144f357600080fd5b50614500888289016141e7565b9150509295509295909350565b600080600080600060a0868803121561452557600080fd5b853561453081614089565b9450602086013561454081614089565b93506040860135925060608601359150608086013567ffffffffffffffff81111561456a57600080fd5b614500888289016141e7565b60006020828403121561458857600080fd5b5051919050565b7f4e487b7100000000000000000000000000000000000000000000000000000000600052601160045260246000fd5b600082198211156145d1576145d161458f565b500190565b7f4e487b7100000000000000000000000000000000000000000000000000000000600052601260045260246000fd5b600082614614576146146145d6565b500490565b60008282101561462b5761462b61458f565b500390565b805161463b81614089565b919050565b6000610140828403121561465357600080fd5b61465b614016565b8251815261466b60208401614630565b602082015260408301516040820152606083015160608201526080830151608082015260a083015160a082015260c083015160c082015260e083015160e08201526101008084015181830152506101208084015181830152508091505092915050565b60005b838110156146e95781810151838201526020016146d1565b838111156146f8576000848401525b50505050565b600082516147108184602087016146ce565b9190910192915050565b8051801515811461463b57600080fd5b60006020828403121561473c57600080fd5b61190a8261471a565b600063ffffffff838116908316818110156147625761476261458f565b039392505050565b6000817fffffffffffffffffffffffffffffffffffffffffffffffffffffffffffffffff04831182151516156147a2576147a261458f565b500290565b600063ffffffff8083168185168083038211156147c6576147c661458f565b01949350505050565b8251815260208301516020820152604083015160408201526060830151606082015260a06080820152600082518060a08401526148138160c08501602087016146ce565b601f017fffffffffffffffffffffffffffffffffffffffffffffffffffffffffffffffe0169190910160c0019392505050565b60006060828403121561485857600080fd5b6040516060810181811067ffffffffffffffff8211171561487b5761487b613f9b565b80604052508251815260208301516020820152604083015160408201528091505092915050565b805161ffff8116811461463b57600080fd5b600080600080600080600060e0888a0312156148cf57600080fd5b87516148da81614089565b8097505060208801518060020b81146148f257600080fd5b9550614900604089016148a2565b945061490e606089016148a2565b935061491c608089016148a2565b925060a088015160ff8116811461493257600080fd5b915061494060c0890161471a565b905092959891949750929550565b7f4e487b7100000000000000000000000000000000000000000000000000000000600052603260045260246000fd5b6020808252825182820181905260009190848201906040850190845b818110156149bb57835163ffffffff1683529284019291840191600101614999565b50909695505050505050565b600082601f8301126149d857600080fd5b815160206149e8614415836143d0565b82815260059290921b84018101918181019086841115614a0757600080fd5b8286015b84811015614454578051614a1e81614089565b8352918301918301614a0b565b60008060408385031215614a3e57600080fd5b825167ffffffffffffffff80821115614a5657600080fd5b818501915085601f830112614a6a57600080fd5b81516020614a7a614415836143d0565b82815260059290921b84018101918181019089841115614a9957600080fd5b948201945b83861015614ac75785518060060b8114614ab85760008081fd5b82529482019490820190614a9e565b91880151919650909350505080821115614ae057600080fd5b50614aed858286016149c7565b9150509250929050565b60008160060b8360060b60008112817fffffffffffffffffffffffffffffffffffffffffffffffffff8000000000000001831281151615614b3a57614b3a61458f565b81667fffffffffffff018313811615614b5557614b5561458f565b5090039392505050565b600073ffffffffffffffffffffffffffffffffffffffff838116908316818110156147625761476261458f565b60008160060b8360060b80614ba357614ba36145d6565b7fffffffffffffffffffffffffffffffffffffffffffffffffffffffffffffffff81147fffffffffffffffffffffffffffffffffffffffffffffffffff8000000000000083141615614bf757614bf761458f565b90059392505050565b60008260060b80614c1357614c136145d6565b808360060b0791505092915050565b60008160020b7fffffffffffffffffffffffffffffffffffffffffffffffffffffffffff8000008103614c5757614c5761458f565b7fffffffffffffffffffffffffffffffffffffffffffffffffffffffffffffffff0192915050565b600077ffffffffffffffffffffffffffffffffffffffffffffffff80831681851681830481118215151615614cb657614cb661458f565b02949350505050565b600077ffffffffffffffffffffffffffffffffffffffffffffffff80841680614cea57614cea6145d6565b9216919091049291505056fea2646970667358221220bb99911615bcc7e2270bb7fe4c5178a8184e1a8816d2af5e7b6b7e5b79f1839864736f6c634300080d0033",
  "linkReferences": {},
  "deployedLinkReferences": {}
}