{
  "_format": "hh-sol-artifact-1",
  "contractName": "View",
  "sourceName": "contracts/View.sol",
  "abi": [
    {
      "inputs": [],
      "name": "T",
      "type": "error"
    },
    {
      "inputs": [
        {
          "internalType": "bytes32",
          "name": "ORACLE",
          "type": "bytes32"
        },
        {
          "internalType": "uint256",
          "name": "MARK",
          "type": "uint256"
        },
        {
          "internalType": "address",
          "name": "TOKEN_R",
          "type": "address"
        },
        {
          "internalType": "uint256",
          "name": "k",
          "type": "uint256"
        },
        {
          "internalType": "address",
          "name": "TOKEN",
          "type": "address"
        },
        {
          "internalType": "uint256",
          "name": "INIT_TIME",
          "type": "uint256"
        },
        {
          "internalType": "uint256",
          "name": "HALF_LIFE",
          "type": "uint256"
        }
      ],
      "name": "getStates",
      "outputs": [
        {
          "components": [
            {
              "internalType": "uint256",
              "name": "sA",
              "type": "uint256"
            },
            {
              "internalType": "uint256",
              "name": "sB",
              "type": "uint256"
            },
            {
              "internalType": "uint256",
              "name": "sC",
              "type": "uint256"
            },
            {
              "internalType": "uint256",
              "name": "R",
              "type": "uint256"
            },
            {
              "internalType": "uint256",
              "name": "rA",
              "type": "uint256"
            },
            {
              "internalType": "uint256",
              "name": "rB",
              "type": "uint256"
            },
            {
              "internalType": "uint256",
              "name": "rC",
              "type": "uint256"
            },
            {
              "internalType": "uint256",
              "name": "a",
              "type": "uint256"
            },
            {
              "internalType": "uint256",
              "name": "b",
              "type": "uint256"
            },
            {
              "internalType": "uint256",
              "name": "xk",
              "type": "uint256"
            },
            {
              "internalType": "uint256",
              "name": "xkA",
              "type": "uint256"
            },
            {
              "internalType": "uint256",
              "name": "twap",
              "type": "uint256"
            },
            {
              "internalType": "uint256",
              "name": "spot",
              "type": "uint256"
            },
            {
              "internalType": "bytes32",
              "name": "ORACLE",
              "type": "bytes32"
            }
          ],
          "internalType": "struct View.StateView",
          "name": "states",
          "type": "tuple"
        }
      ],
      "stateMutability": "view",
      "type": "function"
    },
    {
      "inputs": [],
      "name": "test",
      "outputs": [
        {
          "internalType": "uint256",
          "name": "",
          "type": "uint256"
        }
      ],
      "stateMutability": "pure",
      "type": "function"
    }
  ],
  "bytecode": "0x608060405234801561001057600080fd5b506120a4806100206000396000f3fe608060405234801561001057600080fd5b50600436106100365760003560e01c80634d2bd1621461003b578063f8a8fd6d146100f5575b600080fd5b61004e610049366004611a2f565b610105565b6040516100ec9190815181526020808301519082015260408083015190820152606080830151908201526080808301519082015260a0808301519082015260c0808301519082015260e08083015190820152610100808301519082015261012080830151908201526101408083015190820152610160808301519082015261018080830151908201526101a091820151918101919091526101c00190565b60405180910390f35b6040516103e881526020016100ec565b61017a604051806101c0016040528060008152602001600081526020016000815260200160008152602001600081526020016000815260200160008152602001600081526020016000815260200160008152602001600081526020016000815260200160008152602001600080191681525090565b6040517f70a0823100000000000000000000000000000000000000000000000000000000815230600482015273ffffffffffffffffffffffffffffffffffffffff8716906370a0823190602401602060405180830381865afa1580156101e4573d6000803e3d6000fd5b505050506040513d601f19601f820116820180604052508101906102089190611a97565b60608083019182526000805460e08501908152600154610100860181815260408051958601815295518552915160208501529081905292820192909252906102596102538642611adf565b8561045e565b90506102648a61049d565b6101808501819052610160850182905260009160019161028391611af6565b901c90506000610295898c8585610623565b90506102a181856106c2565b60a087015260808601525161014085015250505073ffffffffffffffffffffffffffffffffffffffff841663bd85b0396102dc3060106106fb565b6040518263ffffffff1660e01b81526004016102fa91815260200190565b602060405180830381865afa158015610317573d6000803e3d6000fd5b505050506040513d601f19601f8201168201806040525081019061033b9190611a97565b815273ffffffffffffffffffffffffffffffffffffffff841663bd85b0396103643060206106fb565b6040518263ffffffff1660e01b815260040161038291815260200190565b602060405180830381865afa15801561039f573d6000803e3d6000fd5b505050506040513d601f19601f820116820180604052508101906103c39190611a97565b602082015273ffffffffffffffffffffffffffffffffffffffff841663bd85b0396103ef3060306106fb565b6040518263ffffffff1660e01b815260040161040d91815260200190565b602060405180830381865afa15801561042a573d6000803e3d6000fd5b505050506040513d601f19601f8201168201806040525081019061044e9190611a97565b6040820152979650505050505050565b600081600003610478575068010000000000000000610497565b600061049061048b84604087901b611b3d565b610728565b600f0b9150505b92915050565b60008060008360001c905060008173ffffffffffffffffffffffffffffffffffffffff16633850c7bd6040518163ffffffff1660e01b815260040160e060405180830381865afa1580156104f5573d6000803e3d6000fd5b505050506040513d601f19601f820116820180604052508101906105199190611b68565b505050505050905060006105348360c08860001c901c611211565b5090506000610542826114d9565b602081811b77ffffffffffffffffffffffffffffffffffffffff0000000016975073ffffffffffffffffffffffffffffffff000000009085901b16955073ffffffffffffffffffffffffffffffffffffffff1690507f8000000000000000000000000000000000000000000000000000000000000000871660000361061a576105eb857fffffffffffffffffffffffffffffffffffffffffffffffffffffffffffffffff611b3d565b9450610617867fffffffffffffffffffffffffffffffffffffffffffffffffffffffffffffffff611b3d565b95505b50505050915091565b604080518082019091526000808252602082015261065c6106568370010000000000000000000000000000000087611840565b86611910565b80825261069d9061068d907fffffffffffffffffffffffffffffffffffffffffffffffffffffffffffffffff611b3d565b6801000000000000000085611840565b602082015280516106b8906801000000000000000085611840565b8152949350505050565b81516020820151825160009283926106d992611997565b91506106f2846020015184604001518560000151611997565b90509250929050565b600061072173ffffffffffffffffffffffffffffffffffffffff841660a084901b611af6565b9392505050565b60006840000000000000000082600f0b1261074257600080fd5b7fffffffffffffffffffffffffffffffffffffffffffffffc0000000000000000082600f0b121561077557506000919050565b6f8000000000000000000000000000000060006780000000000000008416600f0b13156107b35770016a09e667f3bcc908b2fb1366ea957d3e0260801c5b60008367400000000000000016600f0b13156107e0577001306fe0a31b7152de8d5a46305c85edec0260801c5b60008367200000000000000016600f0b131561080d577001172b83c7d517adcdf7c8c50eb14a791f0260801c5b60008367100000000000000016600f0b131561083a5770010b5586cf9890f6298b92b71842a983630260801c5b60008367080000000000000016600f0b1315610867577001059b0d31585743ae7c548eb68ca417fd0260801c5b60008367040000000000000016600f0b131561089457700102c9a3e778060ee6f7caca4f7a29bde80260801c5b60008367020000000000000016600f0b13156108c15770010163da9fb33356d84a66ae336dcdfa3f0260801c5b60008367010000000000000016600f0b13156108ee57700100b1afa5abcbed6129ab13ec11dc95430260801c5b600083668000000000000016600f0b131561091a5770010058c86da1c09ea1ff19d294cf2f679b0260801c5b600083664000000000000016600f0b1315610946577001002c605e2e8cec506d21bfc89a23a00f0260801c5b600083662000000000000016600f0b131561097257700100162f3904051fa128bca9c55c31e5df0260801c5b600083661000000000000016600f0b131561099e577001000b175effdc76ba38e31671ca9397250260801c5b600083660800000000000016600f0b13156109ca57700100058ba01fb9f96d6cacd4b180917c3d0260801c5b600083660400000000000016600f0b13156109f65770010002c5cc37da9491d0985c348c68e7b30260801c5b600083660200000000000016600f0b1315610a22577001000162e525ee054754457d59952920260260801c5b600083660100000000000016600f0b1315610a4e5770010000b17255775c040618bf4a4ade83fc0260801c5b6000836580000000000016600f0b1315610a79577001000058b91b5bc9ae2eed81e9b7d4cfab0260801c5b6000836540000000000016600f0b1315610aa457700100002c5c89d5ec6ca4d7c8acc017b7c90260801c5b6000836520000000000016600f0b1315610acf5770010000162e43f4f831060e02d839a9d16d0260801c5b6000836510000000000016600f0b1315610afa57700100000b1721bcfc99d9f890ea069117630260801c5b6000836508000000000016600f0b1315610b255770010000058b90cf1e6d97f9ca14dbcc16280260801c5b6000836504000000000016600f0b1315610b50577001000002c5c863b73f016468f6bac5ca2b0260801c5b6000836502000000000016600f0b1315610b7b57700100000162e430e5a18f6119e3c02282a50260801c5b6000836501000000000016600f0b1315610ba6577001000000b1721835514b86e6d96efd1bfe0260801c5b60008364800000000016600f0b1315610bd057700100000058b90c0b48c6be5df846c5b2ef0260801c5b60008364400000000016600f0b1315610bfa5770010000002c5c8601cc6b9e94213c72737a0260801c5b60008364200000000016600f0b1315610c24577001000000162e42fff037df38aa2b219f060260801c5b60008364100000000016600f0b1315610c4e5770010000000b17217fba9c739aa5819f44f90260801c5b60008364080000000016600f0b1315610c78577001000000058b90bfcdee5acd3c1cedc8230260801c5b60008364040000000016600f0b1315610ca257700100000002c5c85fe31f35a6a30da1be500260801c5b60008364020000000016600f0b1315610ccc5770010000000162e42ff0999ce3541b9fffcf0260801c5b60008364010000000016600f0b1315610cf657700100000000b17217f80f4ef5aadda455540260801c5b600083638000000016600f0b1315610d1f5770010000000058b90bfbf8479bd5a81b51ad0260801c5b600083634000000016600f0b1315610d48577001000000002c5c85fdf84bd62ae30a74cc0260801c5b600083632000000016600f0b1315610d7157700100000000162e42fefb2fed257559bdaa0260801c5b600083631000000016600f0b1315610d9a577001000000000b17217f7d5a7716bba4a9ae0260801c5b600083630800000016600f0b1315610dc357700100000000058b90bfbe9ddbac5e109cce0260801c5b600083630400000016600f0b1315610dec5770010000000002c5c85fdf4b15de6f17eb0d0260801c5b600083630200000016600f0b1315610e15577001000000000162e42fefa494f1478fde050260801c5b600083630100000016600f0b1315610e3e5770010000000000b17217f7d20cf927c8e94c0260801c5b6000836280000016600f0b1315610e66577001000000000058b90bfbe8f71cb4e4b33d0260801c5b6000836240000016600f0b1315610e8e57700100000000002c5c85fdf477b662b269450260801c5b6000836220000016600f0b1315610eb65770010000000000162e42fefa3ae53369388c0260801c5b6000836210000016600f0b1315610ede57700100000000000b17217f7d1d351a389d400260801c5b6000836208000016600f0b1315610f065770010000000000058b90bfbe8e8b2d3d4ede0260801c5b6000836204000016600f0b1315610f2e577001000000000002c5c85fdf4741bea6e77e0260801c5b6000836202000016600f0b1315610f5657700100000000000162e42fefa39fe95583c20260801c5b6000836201000016600f0b1315610f7e577001000000000000b17217f7d1cfb72b45e10260801c5b60008361800016600f0b1315610fa557700100000000000058b90bfbe8e7cc35c3f00260801c5b60008361400016600f0b1315610fcc5770010000000000002c5c85fdf473e242ea380260801c5b60008361200016600f0b1315610ff3577001000000000000162e42fefa39f02b772c0260801c5b60008361100016600f0b131561101a5770010000000000000b17217f7d1cf7d83c1a0260801c5b60008361080016600f0b1315611041577001000000000000058b90bfbe8e7bdcbe2e0260801c5b60008361040016600f0b131561106857700100000000000002c5c85fdf473dea871f0260801c5b60008361020016600f0b131561108f5770010000000000000162e42fefa39ef44d910260801c5b60008361010016600f0b13156110b657700100000000000000b17217f7d1cf79e9490260801c5b600083608016600f0b13156110dc5770010000000000000058b90bfbe8e7bce5440260801c5b600083604016600f0b1315611102577001000000000000002c5c85fdf473de6eca0260801c5b600083602016600f0b131561112857700100000000000000162e42fefa39ef366f0260801c5b600083601016600f0b131561114e577001000000000000000b17217f7d1cf79afa0260801c5b600083600816600f0b131561117457700100000000000000058b90bfbe8e7bcd6d0260801c5b600083600416600f0b131561119a5770010000000000000002c5c85fdf473de6b20260801c5b600083600216600f0b13156111c0577001000000000000000162e42fefa39ef3580260801c5b600083600116600f0b13156111e65770010000000000000000b17217f7d1cf79ab0260801c5b600f83810b60401d603f03900b1c6f7fffffffffffffffffffffffffffffff81111561049757600080fd5b6000808263ffffffff16600003611288576040517f08c379a000000000000000000000000000000000000000000000000000000000815260206004820152600260248201527f4250000000000000000000000000000000000000000000000000000000000000604482015260640160405180910390fd5b60408051600280825260608201835260009260208301908036833701905050905083816000815181106112bd576112bd611c3b565b602002602001019063ffffffff16908163ffffffff16815250506000816001815181106112ec576112ec611c3b565b602002602001019063ffffffff16908163ffffffff16815250506000808673ffffffffffffffffffffffffffffffffffffffff1663883bdbfd846040518263ffffffff1660e01b81526004016113429190611c6a565b600060405180830381865afa15801561135f573d6000803e3d6000fd5b505050506040513d6000823e601f3d9081017fffffffffffffffffffffffffffffffffffffffffffffffffffffffffffffffe01682016040526113a59190810190611d9b565b915091506000826000815181106113be576113be611c3b565b6020026020010151836001815181106113d9576113d9611c3b565b60200260200101516113eb9190611e67565b905060008260008151811061140257611402611c3b565b60200260200101518360018151811061141d5761141d611c3b565b602002602001015161142f9190611ecf565b905061144163ffffffff891683611f04565b965060008260060b128015611467575061146163ffffffff891683611f78565b60060b15155b1561147a578661147681611f9a565b9750505b60006114a073ffffffffffffffffffffffffffffffffffffffff63ffffffff8b16611ff7565b90506114ca77ffffffffffffffffffffffffffffffffffffffff00000000602084901b1682612037565b96505050505050509250929050565b60008060008360020b126114f0578260020b6114f8565b8260020b6000035b9050620d89e8811115611537576040517f2bc80f3a00000000000000000000000000000000000000000000000000000000815260040160405180910390fd5b60008160011660000361155b5770010000000000000000000000000000000061156d565b6ffffcb933bd6fad37aa2d162d1a5940015b70ffffffffffffffffffffffffffffffffff16905060028216156115a1576ffff97272373d413259a46990580e213a0260801c5b60048216156115c0576ffff2e50f5f656932ef12357cf3c7fdcc0260801c5b60088216156115df576fffe5caca7e10e4e61c3624eaa0941cd00260801c5b60108216156115fe576fffcb9843d60f6159c9db58835c9266440260801c5b602082161561161d576fff973b41fa98c081472e6896dfb254c00260801c5b604082161561163c576fff2ea16466c96a3843ec78b326b528610260801c5b608082161561165b576ffe5dee046a99a2a811c461f1969c30530260801c5b61010082161561167b576ffcbe86c7900a88aedcffc83b479aa3a40260801c5b61020082161561169b576ff987a7253ac413176f2b074cf7815e540260801c5b6104008216156116bb576ff3392b0822b70005940c7a398e4b70f30260801c5b6108008216156116db576fe7159475a2c29b7443b29c7fa6e889d90260801c5b6110008216156116fb576fd097f3bdfd2022b8845ad8f792aa58250260801c5b61200082161561171b576fa9f746462d870fdf8a65dc1f90e061e50260801c5b61400082161561173b576f70d869a156d2a1b890bb3df62baf32f70260801c5b61800082161561175b576f31be135f97d08fd981231505542fcfa60260801c5b6201000082161561177c576f09aa508b5b7a84e1c677de54f3e99bc90260801c5b6202000082161561179c576e5d6af8dedb81196699c329225ee6040260801c5b620400008216156117bb576d2216e584f5fa1ea926041bedfe980260801c5b620800008216156117d8576b048a170391f7dc42444e8fa20260801c5b60008460020b131561181757807fffffffffffffffffffffffffffffffffffffffffffffffffffffffffffffffff8161181357611813611b0e565b0490505b64010000000081061561182b57600161182e565b60005b60ff16602082901c0192505050919050565b600080807fffffffffffffffffffffffffffffffffffffffffffffffffffffffffffffffff85870985870292508281108382030391505080600003611897576000841161188c57600080fd5b508290049050610721565b8084116118a357600080fd5b6000848688096000868103871696879004966002600389028118808a02820302808a02820302808a02820302808a02820302808a02820302808a02909103029181900381900460010186841190950394909402919094039290920491909117919091029150509392505050565b600080826001161161193357700100000000000000000000000000000000611935565b825b9050600182901c91505b8115610497576119618384700100000000000000000000000000000000611840565b9250600182161561198b576119888184700100000000000000000000000000000000611840565b90505b600182901c915061193f565b60006119b58385700100000000000000000000000000000000611840565b9050600182901c8111156107215760006119e584600287901b700100000000000000000000000000000000611840565b905060006119f4848584611840565b9050611a008185611adf565b9695505050505050565b73ffffffffffffffffffffffffffffffffffffffff81168114611a2c57600080fd5b50565b600080600080600080600060e0888a031215611a4a57600080fd5b87359650602088013595506040880135611a6381611a0a565b9450606088013593506080880135611a7a81611a0a565b9699959850939692959460a0840135945060c09093013592915050565b600060208284031215611aa957600080fd5b5051919050565b7f4e487b7100000000000000000000000000000000000000000000000000000000600052601160045260246000fd5b600082821015611af157611af1611ab0565b500390565b60008219821115611b0957611b09611ab0565b500190565b7f4e487b7100000000000000000000000000000000000000000000000000000000600052601260045260246000fd5b600082611b4c57611b4c611b0e565b500490565b805161ffff81168114611b6357600080fd5b919050565b600080600080600080600060e0888a031215611b8357600080fd5b8751611b8e81611a0a565b8097505060208801518060020b8114611ba657600080fd5b9550611bb460408901611b51565b9450611bc260608901611b51565b9350611bd060808901611b51565b925060a088015160ff81168114611be657600080fd5b60c08901519092508015158114611bfc57600080fd5b8091505092959891949750929550565b7f4e487b7100000000000000000000000000000000000000000000000000000000600052604160045260246000fd5b7f4e487b7100000000000000000000000000000000000000000000000000000000600052603260045260246000fd5b6020808252825182820181905260009190848201906040850190845b81811015611ca857835163ffffffff1683529284019291840191600101611c86565b50909695505050505050565b604051601f82017fffffffffffffffffffffffffffffffffffffffffffffffffffffffffffffffe016810167ffffffffffffffff81118282101715611cfb57611cfb611c0c565b604052919050565b600067ffffffffffffffff821115611d1d57611d1d611c0c565b5060051b60200190565b600082601f830112611d3857600080fd5b81516020611d4d611d4883611d03565b611cb4565b82815260059290921b84018101918181019086841115611d6c57600080fd5b8286015b84811015611d90578051611d8381611a0a565b8352918301918301611d70565b509695505050505050565b60008060408385031215611dae57600080fd5b825167ffffffffffffffff80821115611dc657600080fd5b818501915085601f830112611dda57600080fd5b81516020611dea611d4883611d03565b82815260059290921b84018101918181019089841115611e0957600080fd5b948201945b83861015611e375785518060060b8114611e285760008081fd5b82529482019490820190611e0e565b91880151919650909350505080821115611e5057600080fd5b50611e5d85828601611d27565b9150509250929050565b60008160060b8360060b60008112817fffffffffffffffffffffffffffffffffffffffffffffffffff8000000000000001831281151615611eaa57611eaa611ab0565b81667fffffffffffff018313811615611ec557611ec5611ab0565b5090039392505050565b600073ffffffffffffffffffffffffffffffffffffffff83811690831681811015611efc57611efc611ab0565b039392505050565b60008160060b8360060b80611f1b57611f1b611b0e565b7fffffffffffffffffffffffffffffffffffffffffffffffffffffffffffffffff81147fffffffffffffffffffffffffffffffffffffffffffffffffff8000000000000083141615611f6f57611f6f611ab0565b90059392505050565b60008260060b80611f8b57611f8b611b0e565b808360060b0791505092915050565b60008160020b7fffffffffffffffffffffffffffffffffffffffffffffffffffffffffff8000008103611fcf57611fcf611ab0565b7fffffffffffffffffffffffffffffffffffffffffffffffffffffffffffffffff0192915050565b600077ffffffffffffffffffffffffffffffffffffffffffffffff8083168185168183048111821515161561202e5761202e611ab0565b02949350505050565b600077ffffffffffffffffffffffffffffffffffffffffffffffff8084168061206257612062611b0e565b9216919091049291505056fea2646970667358221220ce47c01dd432fd98007211f1d5cc1432704e7ead8df2e538764d8b03888bbad264736f6c634300080d0033",
  "linkReferences": {},
  "deployedLinkReferences": {}
}