{
  "_format": "hh-sol-artifact-1",
  "contractName": "View",
  "sourceName": "contracts/View.sol",
  "abi": [
    {
      "inputs": [],
      "name": "T",
      "type": "error"
    },
    {
      "inputs": [
        {
          "internalType": "bytes32",
          "name": "ORACLE",
          "type": "bytes32"
        },
        {
          "internalType": "uint224",
          "name": "MARK",
          "type": "uint224"
        },
        {
          "internalType": "address",
          "name": "TOKEN_R",
          "type": "address"
        },
        {
          "internalType": "uint256",
          "name": "k",
          "type": "uint256"
        },
        {
          "internalType": "address",
          "name": "TOKEN",
          "type": "address"
        }
      ],
      "name": "getStates",
      "outputs": [
        {
          "components": [
            {
              "internalType": "uint256",
              "name": "sA",
              "type": "uint256"
            },
            {
              "internalType": "uint256",
              "name": "sB",
              "type": "uint256"
            },
            {
              "internalType": "uint256",
              "name": "sC",
              "type": "uint256"
            },
            {
              "internalType": "uint256",
              "name": "R",
              "type": "uint256"
            },
            {
              "internalType": "uint256",
              "name": "rA",
              "type": "uint256"
            },
            {
              "internalType": "uint256",
              "name": "rB",
              "type": "uint256"
            },
            {
              "internalType": "uint256",
              "name": "rC",
              "type": "uint256"
            },
            {
              "internalType": "uint256",
              "name": "a",
              "type": "uint256"
            },
            {
              "internalType": "uint256",
              "name": "b",
              "type": "uint256"
            },
            {
              "internalType": "uint224",
              "name": "xk",
              "type": "uint224"
            },
            {
              "internalType": "uint224",
              "name": "twap",
              "type": "uint224"
            },
            {
              "internalType": "uint224",
              "name": "spot",
              "type": "uint224"
            },
            {
              "internalType": "bytes32",
              "name": "ORACLE",
              "type": "bytes32"
            }
          ],
          "internalType": "struct View.StateView",
          "name": "states",
          "type": "tuple"
        }
      ],
      "stateMutability": "view",
      "type": "function"
    },
    {
      "inputs": [],
      "name": "test",
      "outputs": [
        {
          "internalType": "uint256",
          "name": "test",
          "type": "uint256"
        }
      ],
      "stateMutability": "view",
      "type": "function"
    }
  ],
  "bytecode": "0x608060405234801561001057600080fd5b50611af1806100206000396000f3fe608060405234801561001057600080fd5b50600436106100365760003560e01c80633371db561461003b578063f8a8fd6d14610064575b600080fd5b61004e610049366004611339565b610074565b60405161005b91906113b9565b60405180910390f35b6040516103e8815260200161005b565b61013c604051806101a0016040528060008152602001600081526020016000815260200160008152602001600081526020016000815260200160008152602001600081526020016000815260200160007bffffffffffffffffffffffffffffffffffffffffffffffffffffffff16815260200160007bffffffffffffffffffffffffffffffffffffffffffffffffffffffff16815260200160007bffffffffffffffffffffffffffffffffffffffffffffffffffffffff168152602001600080191681525090565b6101458661047b565b7bffffffffffffffffffffffffffffffffffffffffffffffffffffffff90811661016084015216610140820152600061017f306010610608565b9050600061018e306020610608565b9050600061019d306030610608565b6000805460015460e08801829052610100880181905261014088015193945090929091906101cc908c8b610635565b7bffffffffffffffffffffffffffffffffffffffffffffffffffffffff81166101208901526040517f70a0823100000000000000000000000000000000000000000000000000000000815230600482015290915073ffffffffffffffffffffffffffffffffffffffff8b16906370a0823190602401602060405180830381865afa15801561025e573d6000803e3d6000fd5b505050506040513d601f19601f8201168201806040525081019061028291906114b1565b6060880181905261029690829085906106b2565b608088015260608701516102ad90829084906106b2565b60a08801526040517fbd85b0390000000000000000000000000000000000000000000000000000000081526004810187905273ffffffffffffffffffffffffffffffffffffffff89169063bd85b03990602401602060405180830381865afa15801561031d573d6000803e3d6000fd5b505050506040513d601f19601f8201168201806040525081019061034191906114b1565b87526040517fbd85b0390000000000000000000000000000000000000000000000000000000081526004810186905273ffffffffffffffffffffffffffffffffffffffff89169063bd85b03990602401602060405180830381865afa1580156103ae573d6000803e3d6000fd5b505050506040513d601f19601f820116820180604052508101906103d291906114b1565b60208801526040517fbd85b0390000000000000000000000000000000000000000000000000000000081526004810185905273ffffffffffffffffffffffffffffffffffffffff89169063bd85b03990602401602060405180830381865afa158015610442573d6000803e3d6000fd5b505050506040513d601f19601f8201168201806040525081019061046691906114b1565b604088015250949a9950505050505050505050565b60008060008360001c905060008173ffffffffffffffffffffffffffffffffffffffff16633850c7bd6040518163ffffffff1660e01b815260040160e060405180830381865afa1580156104d3573d6000803e3d6000fd5b505050506040513d601f19601f820116820180604052508101906104f791906114e1565b505050505050905060006105128360c08860001c901c61075d565b509050600061052082610a26565b75ffffffffffffffffffffffffffffffffffffffff0000601082811b8216985085901b16955090507f80000000000000000000000000000000000000000000000000000000000000008716156105ff576105b57bffffffffffffffffffffffffffffffffffffffffffffffffffffffff86167c01000000000000000000000000000000000000000000000000000000006115e3565b94506105fc7bffffffffffffffffffffffffffffffffffffffffffffffffffffffff87167c01000000000000000000000000000000000000000000000000000000006115e3565b95505b50505050915091565b600061062e73ffffffffffffffffffffffffffffffffffffffff841660a084901b6115f7565b9392505050565b60008061067e857bffffffffffffffffffffffffffffffffffffffffffffffffffffffff16857bffffffffffffffffffffffffffffffffffffffffffffffffffffffff16610d8d565b5190506106a97bffffffffffffffffffffffffffffffffffffffffffffffffffffffff821684610f51565b95945050505050565b60006106ec83857bffffffffffffffffffffffffffffffffffffffffffffffffffffffff166e010000000000000000000000000000611058565b9050600182901c81111561062e576000610738846002877bffffffffffffffffffffffffffffffffffffffffffffffffffffffff16901b6e010000000000000000000000000000611058565b90506000610747848584611058565b9050610753818561160f565b9695505050505050565b6000808263ffffffff166000036107d5576040517f08c379a000000000000000000000000000000000000000000000000000000000815260206004820152600260248201527f425000000000000000000000000000000000000000000000000000000000000060448201526064015b60405180910390fd5b604080516002808252606082018352600092602083019080368337019050509050838160008151811061080a5761080a611655565b602002602001019063ffffffff16908163ffffffff168152505060008160018151811061083957610839611655565b602002602001019063ffffffff16908163ffffffff16815250506000808673ffffffffffffffffffffffffffffffffffffffff1663883bdbfd846040518263ffffffff1660e01b815260040161088f9190611684565b600060405180830381865afa1580156108ac573d6000803e3d6000fd5b505050506040513d6000823e601f3d9081017fffffffffffffffffffffffffffffffffffffffffffffffffffffffffffffffe01682016040526108f291908101906117b5565b9150915060008260008151811061090b5761090b611655565b60200260200101518360018151811061092657610926611655565b60200260200101516109389190611877565b905060008260008151811061094f5761094f611655565b60200260200101518360018151811061096a5761096a611655565b602002602001015161097c91906118df565b905061098e63ffffffff891683611914565b965060008260060b1280156109b457506109ae63ffffffff891683611988565b60060b15155b156109c757866109c3816119aa565b9750505b60006109ed73ffffffffffffffffffffffffffffffffffffffff63ffffffff8b16611a07565b9050610a1777ffffffffffffffffffffffffffffffffffffffff00000000602084901b1682611a47565b96505050505050509250929050565b60008060008360020b12610a3d578260020b610a45565b8260020b6000035b9050620d89e8811115610a84576040517f2bc80f3a00000000000000000000000000000000000000000000000000000000815260040160405180910390fd5b600081600116600003610aa857700100000000000000000000000000000000610aba565b6ffffcb933bd6fad37aa2d162d1a5940015b70ffffffffffffffffffffffffffffffffff1690506002821615610aee576ffff97272373d413259a46990580e213a0260801c5b6004821615610b0d576ffff2e50f5f656932ef12357cf3c7fdcc0260801c5b6008821615610b2c576fffe5caca7e10e4e61c3624eaa0941cd00260801c5b6010821615610b4b576fffcb9843d60f6159c9db58835c9266440260801c5b6020821615610b6a576fff973b41fa98c081472e6896dfb254c00260801c5b6040821615610b89576fff2ea16466c96a3843ec78b326b528610260801c5b6080821615610ba8576ffe5dee046a99a2a811c461f1969c30530260801c5b610100821615610bc8576ffcbe86c7900a88aedcffc83b479aa3a40260801c5b610200821615610be8576ff987a7253ac413176f2b074cf7815e540260801c5b610400821615610c08576ff3392b0822b70005940c7a398e4b70f30260801c5b610800821615610c28576fe7159475a2c29b7443b29c7fa6e889d90260801c5b611000821615610c48576fd097f3bdfd2022b8845ad8f792aa58250260801c5b612000821615610c68576fa9f746462d870fdf8a65dc1f90e061e50260801c5b614000821615610c88576f70d869a156d2a1b890bb3df62baf32f70260801c5b618000821615610ca8576f31be135f97d08fd981231505542fcfa60260801c5b62010000821615610cc9576f09aa508b5b7a84e1c677de54f3e99bc90260801c5b62020000821615610ce9576e5d6af8dedb81196699c329225ee6040260801c5b62040000821615610d08576d2216e584f5fa1ea926041bedfe980260801c5b62080000821615610d25576b048a170391f7dc42444e8fa20260801c5b60008460020b1315610d6457807fffffffffffffffffffffffffffffffffffffffffffffffffffffffffffffffff81610d6057610d60611585565b0490505b640100000000810615610d78576001610d7b565b60005b60ff16602082901c0192505050919050565b60408051602081019091526000815260008211610e2c576040517f08c379a000000000000000000000000000000000000000000000000000000000815260206004820152602660248201527f4669786564506f696e743a3a6672616374696f6e3a206469766973696f6e206260448201527f79207a65726f000000000000000000000000000000000000000000000000000060648201526084016107cc565b82600003610e495750604080516020810190915260008152610f4b565b71ffffffffffffffffffffffffffffffffffff8311610f2f576000610e7283607086901b6115e3565b90507bffffffffffffffffffffffffffffffffffffffffffffffffffffffff811115610efa576040517f08c379a000000000000000000000000000000000000000000000000000000000815260206004820152601e60248201527f4669786564506f696e743a3a6672616374696f6e3a206f766572666c6f77000060448201526064016107cc565b6040518060200160405280827bffffffffffffffffffffffffffffffffffffffffffffffffffffffff16815250915050610f4b565b6000610e72846e01000000000000000000000000000085611058565b92915050565b6000808260011611610f72576e010000000000000000000000000000610f74565b825b9050600182901c91505b8115610fd257610f9e83846e010000000000000000000000000000611058565b92506001821615610fc657610fc381846e010000000000000000000000000000611058565b90505b600182901c9150610f7e565b7bffffffffffffffffffffffffffffffffffffffffffffffffffffffff811115610f4b576040517f08c379a000000000000000000000000000000000000000000000000000000000815260206004820152601460248201527f506f6f6c3a207570706572206f766572666c6f7700000000000000000000000060448201526064016107cc565b6000806000611067868661113d565b915091506000848061107b5761107b611585565b8688099050828111156110965761109360018361160f565b91505b6110a0818461160f565b9250816000036110be576110b485846115e3565b935050505061062e565b848210611127576040517f08c379a000000000000000000000000000000000000000000000000000000000815260206004820152601a60248201527f46756c6c4d6174683a2046554c4c4449565f4f564552464c4f5700000000000060448201526064016107cc565b61113283838761119d565b979650505050505050565b600080807fffffffffffffffffffffffffffffffffffffffffffffffffffffffffffffffff84860990506111718486611a7e565b925061117d838261160f565b9150828110156111955761119260018361160f565b91505b509250929050565b6000806111ac831960016115f7565b831690506111ba81846115e3565b92506111c681866115e3565b9450806111d5811960016115f7565b6111df91906115e3565b6111ea9060016115f7565b6111f49085611a7e565b6111fe90866115f7565b9450600161120c8185611a7e565b61121790600261160f565b6112219082611a7e565b905061122d8185611a7e565b61123890600261160f565b6112429082611a7e565b905061124e8185611a7e565b61125990600261160f565b6112639082611a7e565b905061126f8185611a7e565b61127a90600261160f565b6112849082611a7e565b90506112908185611a7e565b61129b90600261160f565b6112a59082611a7e565b90506112b18185611a7e565b6112bc90600261160f565b6112c69082611a7e565b90506112d28185611a7e565b6112dd90600261160f565b6112e79082611a7e565b90506112f38185611a7e565b6112fe90600261160f565b6113089082611a7e565b90506107538187611a7e565b73ffffffffffffffffffffffffffffffffffffffff8116811461133657600080fd5b50565b600080600080600060a0868803121561135157600080fd5b8535945060208601357bffffffffffffffffffffffffffffffffffffffffffffffffffffffff8116811461138457600080fd5b9350604086013561139481611314565b92506060860135915060808601356113ab81611314565b809150509295509295909350565b60006101a082019050825182526020830151602083015260408301516040830152606083015160608301526080830151608083015260a083015160a083015260c083015160c083015260e083015160e083015261010080840151818401525061012080840151611448828501827bffffffffffffffffffffffffffffffffffffffffffffffffffffffff169052565b5050610140838101517bffffffffffffffffffffffffffffffffffffffffffffffffffffffff8116848301525050610160838101517bffffffffffffffffffffffffffffffffffffffffffffffffffffffff811684830152505061018092830151919092015290565b6000602082840312156114c357600080fd5b5051919050565b805161ffff811681146114dc57600080fd5b919050565b600080600080600080600060e0888a0312156114fc57600080fd5b875161150781611314565b8097505060208801518060020b811461151f57600080fd5b955061152d604089016114ca565b945061153b606089016114ca565b9350611549608089016114ca565b925060a088015160ff8116811461155f57600080fd5b60c0890151909250801515811461157557600080fd5b8091505092959891949750929550565b7f4e487b7100000000000000000000000000000000000000000000000000000000600052601260045260246000fd5b7f4e487b7100000000000000000000000000000000000000000000000000000000600052601160045260246000fd5b6000826115f2576115f2611585565b500490565b6000821982111561160a5761160a6115b4565b500190565b600082821015611621576116216115b4565b500390565b7f4e487b7100000000000000000000000000000000000000000000000000000000600052604160045260246000fd5b7f4e487b7100000000000000000000000000000000000000000000000000000000600052603260045260246000fd5b6020808252825182820181905260009190848201906040850190845b818110156116c257835163ffffffff16835292840192918401916001016116a0565b50909695505050505050565b604051601f82017fffffffffffffffffffffffffffffffffffffffffffffffffffffffffffffffe016810167ffffffffffffffff8111828210171561171557611715611626565b604052919050565b600067ffffffffffffffff82111561173757611737611626565b5060051b60200190565b600082601f83011261175257600080fd5b815160206117676117628361171d565b6116ce565b82815260059290921b8401810191818101908684111561178657600080fd5b8286015b848110156117aa57805161179d81611314565b835291830191830161178a565b509695505050505050565b600080604083850312156117c857600080fd5b825167ffffffffffffffff808211156117e057600080fd5b818501915085601f8301126117f457600080fd5b815160206118046117628361171d565b82815260059290921b8401810191818101908984111561182357600080fd5b948201945b838610156118515785518060060b81146118425760008081fd5b82529482019490820190611828565b9188015191965090935050508082111561186a57600080fd5b5061119285828601611741565b60008160060b8360060b60008112817fffffffffffffffffffffffffffffffffffffffffffffffffff80000000000000018312811516156118ba576118ba6115b4565b81667fffffffffffff0183138116156118d5576118d56115b4565b5090039392505050565b600073ffffffffffffffffffffffffffffffffffffffff8381169083168181101561190c5761190c6115b4565b039392505050565b60008160060b8360060b8061192b5761192b611585565b7fffffffffffffffffffffffffffffffffffffffffffffffffffffffffffffffff81147fffffffffffffffffffffffffffffffffffffffffffffffffff800000000000008314161561197f5761197f6115b4565b90059392505050565b60008260060b8061199b5761199b611585565b808360060b0791505092915050565b60008160020b7fffffffffffffffffffffffffffffffffffffffffffffffffffffffffff80000081036119df576119df6115b4565b7fffffffffffffffffffffffffffffffffffffffffffffffffffffffffffffffff0192915050565b600077ffffffffffffffffffffffffffffffffffffffffffffffff80831681851681830481118215151615611a3e57611a3e6115b4565b02949350505050565b600077ffffffffffffffffffffffffffffffffffffffffffffffff80841680611a7257611a72611585565b92169190910492915050565b6000817fffffffffffffffffffffffffffffffffffffffffffffffffffffffffffffffff0483118215151615611ab657611ab66115b4565b50029056fea2646970667358221220cbb5f7d5d0b124e9097606fffdf94fac050e4a5deb1aabc54c672dd82ff6006664736f6c634300080d0033",
  "linkReferences": {},
  "deployedLinkReferences": {}
}