{
  "_format": "hh-sol-artifact-1",
  "contractName": "View",
  "sourceName": "contracts/support/View.sol",
  "abi": [
    {
      "inputs": [],
      "name": "T",
      "type": "error"
    },
    {
      "inputs": [
        {
          "internalType": "bytes32",
          "name": "ORACLE",
          "type": "bytes32"
        },
        {
          "internalType": "uint256",
          "name": "MARK",
          "type": "uint256"
        },
        {
          "internalType": "address",
          "name": "TOKEN_R",
          "type": "address"
        },
        {
          "internalType": "uint256",
          "name": "k",
          "type": "uint256"
        },
        {
          "internalType": "address",
          "name": "TOKEN",
          "type": "address"
        },
        {
          "internalType": "uint256",
          "name": "HALF_LIFE",
          "type": "uint256"
        }
      ],
      "name": "getStates",
      "outputs": [
        {
          "components": [
            {
              "internalType": "uint256",
              "name": "sA",
              "type": "uint256"
            },
            {
              "internalType": "uint256",
              "name": "sB",
              "type": "uint256"
            },
            {
              "internalType": "uint256",
              "name": "sC",
              "type": "uint256"
            },
            {
              "internalType": "uint256",
              "name": "R",
              "type": "uint256"
            },
            {
              "internalType": "uint256",
              "name": "rA",
              "type": "uint256"
            },
            {
              "internalType": "uint256",
              "name": "rB",
              "type": "uint256"
            },
            {
              "internalType": "uint256",
              "name": "rC",
              "type": "uint256"
            },
            {
              "internalType": "uint256",
              "name": "a",
              "type": "uint256"
            },
            {
              "internalType": "uint256",
              "name": "b",
              "type": "uint256"
            },
            {
              "internalType": "uint256",
              "name": "twap",
              "type": "uint256"
            },
            {
              "internalType": "uint256",
              "name": "spot",
              "type": "uint256"
            },
            {
              "internalType": "bytes32",
              "name": "ORACLE",
              "type": "bytes32"
            }
          ],
          "internalType": "struct View.StateView",
          "name": "states",
          "type": "tuple"
        }
      ],
      "stateMutability": "view",
      "type": "function"
    }
  ],
  "bytecode": "0x608060405234801561001057600080fd5b50612104806100206000396000f3fe608060405234801561001057600080fd5b506004361061002b5760003560e01c806359a44ce814610030575b600080fd5b61004361003e366004611a99565b6100d4565b6040516100cb9190815181526020808301519082015260408083015190820152606080830151908201526080808301519082015260a0808301519082015260c0808301519082015260e0808301519082015261010080830151908201526101208083015190820152610140808301519082015261016091820151918101919091526101800190565b60405180910390f35b61013b6040518061018001604052806000815260200160008152602001600081526020016000815260200160008152602001600081526020016000815260200160008152602001600081526020016000815260200160008152602001600080191681525090565b6040517f70a0823100000000000000000000000000000000000000000000000000000000815230600482015273ffffffffffffffffffffffffffffffffffffffff8616906370a0823190602401602060405180830381865afa1580156101a5573d6000803e3d6000fd5b505050506040513d601f19601f820116820180604052508101906101c99190611af7565b6060828101918252600080546401000000008082047bffffffffffffffffffffffffffffffffffffffffffffffffffffffff90811660e08801908152600154929092041661010087018181526040805196870181529651865291516020860152908190529383019390935290916102509061024a9063ffffffff1642611b3f565b856104c8565b905060008061025e8b610507565b610120870182905290925090508082111561027557905b60008061028d6102878b8e888861068d565b8761072c565b608089019190915290506102a66102878b8e888761068d565b60a089018190529092506102ba9083611b56565b8188608001516102ca9190611b56565b116102f25760a08701516102de9083611b56565b87606001516102ed9190611b3f565b610311565b8087608001516103029190611b56565b87606001516103119190611b3f565b8760c00181815250505050505050508273ffffffffffffffffffffffffffffffffffffffff1663bd85b039610347306010610765565b6040518263ffffffff1660e01b815260040161036591815260200190565b602060405180830381865afa158015610382573d6000803e3d6000fd5b505050506040513d601f19601f820116820180604052508101906103a69190611af7565b815273ffffffffffffffffffffffffffffffffffffffff831663bd85b0396103cf306020610765565b6040518263ffffffff1660e01b81526004016103ed91815260200190565b602060405180830381865afa15801561040a573d6000803e3d6000fd5b505050506040513d601f19601f8201168201806040525081019061042e9190611af7565b602082015273ffffffffffffffffffffffffffffffffffffffff831663bd85b03961045a306030610765565b6040518263ffffffff1660e01b815260040161047891815260200190565b602060405180830381865afa158015610495573d6000803e3d6000fd5b505050506040513d601f19601f820116820180604052508101906104b99190611af7565b60408201529695505050505050565b6000816000036104e2575068010000000000000000610501565b60006104fa6104f584604087901b611b9d565b610792565b600f0b9150505b92915050565b60008060008360001c905060008173ffffffffffffffffffffffffffffffffffffffff16633850c7bd6040518163ffffffff1660e01b815260040160e060405180830381865afa15801561055f573d6000803e3d6000fd5b505050506040513d601f19601f820116820180604052508101906105839190611bc8565b5050505050509050600061059e8360c08860001c901c61127b565b50905060006105ac82611543565b602081811b77ffffffffffffffffffffffffffffffffffffffff0000000016975073ffffffffffffffffffffffffffffffff000000009085901b16955073ffffffffffffffffffffffffffffffffffffffff1690507f8000000000000000000000000000000000000000000000000000000000000000871660000361068457610655857fffffffffffffffffffffffffffffffffffffffffffffffffffffffffffffffff611b9d565b9450610681867fffffffffffffffffffffffffffffffffffffffffffffffffffffffffffffffff611b9d565b95505b50505050915091565b60408051808201909152600080825260208201526106c66106c083700100000000000000000000000000000000876118aa565b8661197a565b808252610707906106f7907fffffffffffffffffffffffffffffffffffffffffffffffffffffffffffffffff611b9d565b68010000000000000000856118aa565b602082015280516107229068010000000000000000856118aa565b8152949350505050565b815160208201518251600092839261074392611a01565b915061075c846020015184604001518560000151611a01565b90509250929050565b600061078b73ffffffffffffffffffffffffffffffffffffffff841660a084901b611b56565b9392505050565b60006840000000000000000082600f0b126107ac57600080fd5b7fffffffffffffffffffffffffffffffffffffffffffffffc0000000000000000082600f0b12156107df57506000919050565b6f8000000000000000000000000000000060006780000000000000008416600f0b131561081d5770016a09e667f3bcc908b2fb1366ea957d3e0260801c5b60008367400000000000000016600f0b131561084a577001306fe0a31b7152de8d5a46305c85edec0260801c5b60008367200000000000000016600f0b1315610877577001172b83c7d517adcdf7c8c50eb14a791f0260801c5b60008367100000000000000016600f0b13156108a45770010b5586cf9890f6298b92b71842a983630260801c5b60008367080000000000000016600f0b13156108d1577001059b0d31585743ae7c548eb68ca417fd0260801c5b60008367040000000000000016600f0b13156108fe57700102c9a3e778060ee6f7caca4f7a29bde80260801c5b60008367020000000000000016600f0b131561092b5770010163da9fb33356d84a66ae336dcdfa3f0260801c5b60008367010000000000000016600f0b131561095857700100b1afa5abcbed6129ab13ec11dc95430260801c5b600083668000000000000016600f0b13156109845770010058c86da1c09ea1ff19d294cf2f679b0260801c5b600083664000000000000016600f0b13156109b0577001002c605e2e8cec506d21bfc89a23a00f0260801c5b600083662000000000000016600f0b13156109dc57700100162f3904051fa128bca9c55c31e5df0260801c5b600083661000000000000016600f0b1315610a08577001000b175effdc76ba38e31671ca9397250260801c5b600083660800000000000016600f0b1315610a3457700100058ba01fb9f96d6cacd4b180917c3d0260801c5b600083660400000000000016600f0b1315610a605770010002c5cc37da9491d0985c348c68e7b30260801c5b600083660200000000000016600f0b1315610a8c577001000162e525ee054754457d59952920260260801c5b600083660100000000000016600f0b1315610ab85770010000b17255775c040618bf4a4ade83fc0260801c5b6000836580000000000016600f0b1315610ae3577001000058b91b5bc9ae2eed81e9b7d4cfab0260801c5b6000836540000000000016600f0b1315610b0e57700100002c5c89d5ec6ca4d7c8acc017b7c90260801c5b6000836520000000000016600f0b1315610b395770010000162e43f4f831060e02d839a9d16d0260801c5b6000836510000000000016600f0b1315610b6457700100000b1721bcfc99d9f890ea069117630260801c5b6000836508000000000016600f0b1315610b8f5770010000058b90cf1e6d97f9ca14dbcc16280260801c5b6000836504000000000016600f0b1315610bba577001000002c5c863b73f016468f6bac5ca2b0260801c5b6000836502000000000016600f0b1315610be557700100000162e430e5a18f6119e3c02282a50260801c5b6000836501000000000016600f0b1315610c10577001000000b1721835514b86e6d96efd1bfe0260801c5b60008364800000000016600f0b1315610c3a57700100000058b90c0b48c6be5df846c5b2ef0260801c5b60008364400000000016600f0b1315610c645770010000002c5c8601cc6b9e94213c72737a0260801c5b60008364200000000016600f0b1315610c8e577001000000162e42fff037df38aa2b219f060260801c5b60008364100000000016600f0b1315610cb85770010000000b17217fba9c739aa5819f44f90260801c5b60008364080000000016600f0b1315610ce2577001000000058b90bfcdee5acd3c1cedc8230260801c5b60008364040000000016600f0b1315610d0c57700100000002c5c85fe31f35a6a30da1be500260801c5b60008364020000000016600f0b1315610d365770010000000162e42ff0999ce3541b9fffcf0260801c5b60008364010000000016600f0b1315610d6057700100000000b17217f80f4ef5aadda455540260801c5b600083638000000016600f0b1315610d895770010000000058b90bfbf8479bd5a81b51ad0260801c5b600083634000000016600f0b1315610db2577001000000002c5c85fdf84bd62ae30a74cc0260801c5b600083632000000016600f0b1315610ddb57700100000000162e42fefb2fed257559bdaa0260801c5b600083631000000016600f0b1315610e04577001000000000b17217f7d5a7716bba4a9ae0260801c5b600083630800000016600f0b1315610e2d57700100000000058b90bfbe9ddbac5e109cce0260801c5b600083630400000016600f0b1315610e565770010000000002c5c85fdf4b15de6f17eb0d0260801c5b600083630200000016600f0b1315610e7f577001000000000162e42fefa494f1478fde050260801c5b600083630100000016600f0b1315610ea85770010000000000b17217f7d20cf927c8e94c0260801c5b6000836280000016600f0b1315610ed0577001000000000058b90bfbe8f71cb4e4b33d0260801c5b6000836240000016600f0b1315610ef857700100000000002c5c85fdf477b662b269450260801c5b6000836220000016600f0b1315610f205770010000000000162e42fefa3ae53369388c0260801c5b6000836210000016600f0b1315610f4857700100000000000b17217f7d1d351a389d400260801c5b6000836208000016600f0b1315610f705770010000000000058b90bfbe8e8b2d3d4ede0260801c5b6000836204000016600f0b1315610f98577001000000000002c5c85fdf4741bea6e77e0260801c5b6000836202000016600f0b1315610fc057700100000000000162e42fefa39fe95583c20260801c5b6000836201000016600f0b1315610fe8577001000000000000b17217f7d1cfb72b45e10260801c5b60008361800016600f0b131561100f57700100000000000058b90bfbe8e7cc35c3f00260801c5b60008361400016600f0b13156110365770010000000000002c5c85fdf473e242ea380260801c5b60008361200016600f0b131561105d577001000000000000162e42fefa39f02b772c0260801c5b60008361100016600f0b13156110845770010000000000000b17217f7d1cf7d83c1a0260801c5b60008361080016600f0b13156110ab577001000000000000058b90bfbe8e7bdcbe2e0260801c5b60008361040016600f0b13156110d257700100000000000002c5c85fdf473dea871f0260801c5b60008361020016600f0b13156110f95770010000000000000162e42fefa39ef44d910260801c5b60008361010016600f0b131561112057700100000000000000b17217f7d1cf79e9490260801c5b600083608016600f0b13156111465770010000000000000058b90bfbe8e7bce5440260801c5b600083604016600f0b131561116c577001000000000000002c5c85fdf473de6eca0260801c5b600083602016600f0b131561119257700100000000000000162e42fefa39ef366f0260801c5b600083601016600f0b13156111b8577001000000000000000b17217f7d1cf79afa0260801c5b600083600816600f0b13156111de57700100000000000000058b90bfbe8e7bcd6d0260801c5b600083600416600f0b13156112045770010000000000000002c5c85fdf473de6b20260801c5b600083600216600f0b131561122a577001000000000000000162e42fefa39ef3580260801c5b600083600116600f0b13156112505770010000000000000000b17217f7d1cf79ab0260801c5b600f83810b60401d603f03900b1c6f7fffffffffffffffffffffffffffffff81111561050157600080fd5b6000808263ffffffff166000036112f2576040517f08c379a000000000000000000000000000000000000000000000000000000000815260206004820152600260248201527f4250000000000000000000000000000000000000000000000000000000000000604482015260640160405180910390fd5b604080516002808252606082018352600092602083019080368337019050509050838160008151811061132757611327611c9b565b602002602001019063ffffffff16908163ffffffff168152505060008160018151811061135657611356611c9b565b602002602001019063ffffffff16908163ffffffff16815250506000808673ffffffffffffffffffffffffffffffffffffffff1663883bdbfd846040518263ffffffff1660e01b81526004016113ac9190611cca565b600060405180830381865afa1580156113c9573d6000803e3d6000fd5b505050506040513d6000823e601f3d9081017fffffffffffffffffffffffffffffffffffffffffffffffffffffffffffffffe016820160405261140f9190810190611dfb565b9150915060008260008151811061142857611428611c9b565b60200260200101518360018151811061144357611443611c9b565b60200260200101516114559190611ec7565b905060008260008151811061146c5761146c611c9b565b60200260200101518360018151811061148757611487611c9b565b60200260200101516114999190611f2f565b90506114ab63ffffffff891683611f64565b965060008260060b1280156114d157506114cb63ffffffff891683611fd8565b60060b15155b156114e457866114e081611ffa565b9750505b600061150a73ffffffffffffffffffffffffffffffffffffffff63ffffffff8b16612057565b905061153477ffffffffffffffffffffffffffffffffffffffff00000000602084901b1682612097565b96505050505050509250929050565b60008060008360020b1261155a578260020b611562565b8260020b6000035b9050620d89e88111156115a1576040517f2bc80f3a00000000000000000000000000000000000000000000000000000000815260040160405180910390fd5b6000816001166000036115c5577001000000000000000000000000000000006115d7565b6ffffcb933bd6fad37aa2d162d1a5940015b70ffffffffffffffffffffffffffffffffff169050600282161561160b576ffff97272373d413259a46990580e213a0260801c5b600482161561162a576ffff2e50f5f656932ef12357cf3c7fdcc0260801c5b6008821615611649576fffe5caca7e10e4e61c3624eaa0941cd00260801c5b6010821615611668576fffcb9843d60f6159c9db58835c9266440260801c5b6020821615611687576fff973b41fa98c081472e6896dfb254c00260801c5b60408216156116a6576fff2ea16466c96a3843ec78b326b528610260801c5b60808216156116c5576ffe5dee046a99a2a811c461f1969c30530260801c5b6101008216156116e5576ffcbe86c7900a88aedcffc83b479aa3a40260801c5b610200821615611705576ff987a7253ac413176f2b074cf7815e540260801c5b610400821615611725576ff3392b0822b70005940c7a398e4b70f30260801c5b610800821615611745576fe7159475a2c29b7443b29c7fa6e889d90260801c5b611000821615611765576fd097f3bdfd2022b8845ad8f792aa58250260801c5b612000821615611785576fa9f746462d870fdf8a65dc1f90e061e50260801c5b6140008216156117a5576f70d869a156d2a1b890bb3df62baf32f70260801c5b6180008216156117c5576f31be135f97d08fd981231505542fcfa60260801c5b620100008216156117e6576f09aa508b5b7a84e1c677de54f3e99bc90260801c5b62020000821615611806576e5d6af8dedb81196699c329225ee6040260801c5b62040000821615611825576d2216e584f5fa1ea926041bedfe980260801c5b62080000821615611842576b048a170391f7dc42444e8fa20260801c5b60008460020b131561188157807fffffffffffffffffffffffffffffffffffffffffffffffffffffffffffffffff8161187d5761187d611b6e565b0490505b640100000000810615611895576001611898565b60005b60ff16602082901c0192505050919050565b600080807fffffffffffffffffffffffffffffffffffffffffffffffffffffffffffffffff8587098587029250828110838203039150508060000361190157600084116118f657600080fd5b50829004905061078b565b80841161190d57600080fd5b6000848688096000868103871696879004966002600389028118808a02820302808a02820302808a02820302808a02820302808a02820302808a02909103029181900381900460010186841190950394909402919094039290920491909117919091029150509392505050565b600080826001161161199d5770010000000000000000000000000000000061199f565b825b9050600182901c91505b8115610501576119cb83847001000000000000000000000000000000006118aa565b925060018216156119f5576119f281847001000000000000000000000000000000006118aa565b90505b600182901c91506119a9565b6000611a1f83857001000000000000000000000000000000006118aa565b9050600182901c81111561078b576000611a4f84600287901b7001000000000000000000000000000000006118aa565b90506000611a5e8485846118aa565b9050611a6a8185611b3f565b9695505050505050565b73ffffffffffffffffffffffffffffffffffffffff81168114611a9657600080fd5b50565b60008060008060008060c08789031215611ab257600080fd5b86359550602087013594506040870135611acb81611a74565b9350606087013592506080870135611ae281611a74565b8092505060a087013590509295509295509295565b600060208284031215611b0957600080fd5b5051919050565b7f4e487b7100000000000000000000000000000000000000000000000000000000600052601160045260246000fd5b600082821015611b5157611b51611b10565b500390565b60008219821115611b6957611b69611b10565b500190565b7f4e487b7100000000000000000000000000000000000000000000000000000000600052601260045260246000fd5b600082611bac57611bac611b6e565b500490565b805161ffff81168114611bc357600080fd5b919050565b600080600080600080600060e0888a031215611be357600080fd5b8751611bee81611a74565b8097505060208801518060020b8114611c0657600080fd5b9550611c1460408901611bb1565b9450611c2260608901611bb1565b9350611c3060808901611bb1565b925060a088015160ff81168114611c4657600080fd5b60c08901519092508015158114611c5c57600080fd5b8091505092959891949750929550565b7f4e487b7100000000000000000000000000000000000000000000000000000000600052604160045260246000fd5b7f4e487b7100000000000000000000000000000000000000000000000000000000600052603260045260246000fd5b6020808252825182820181905260009190848201906040850190845b81811015611d0857835163ffffffff1683529284019291840191600101611ce6565b50909695505050505050565b604051601f82017fffffffffffffffffffffffffffffffffffffffffffffffffffffffffffffffe016810167ffffffffffffffff81118282101715611d5b57611d5b611c6c565b604052919050565b600067ffffffffffffffff821115611d7d57611d7d611c6c565b5060051b60200190565b600082601f830112611d9857600080fd5b81516020611dad611da883611d63565b611d14565b82815260059290921b84018101918181019086841115611dcc57600080fd5b8286015b84811015611df0578051611de381611a74565b8352918301918301611dd0565b509695505050505050565b60008060408385031215611e0e57600080fd5b825167ffffffffffffffff80821115611e2657600080fd5b818501915085601f830112611e3a57600080fd5b81516020611e4a611da883611d63565b82815260059290921b84018101918181019089841115611e6957600080fd5b948201945b83861015611e975785518060060b8114611e885760008081fd5b82529482019490820190611e6e565b91880151919650909350505080821115611eb057600080fd5b50611ebd85828601611d87565b9150509250929050565b60008160060b8360060b60008112817fffffffffffffffffffffffffffffffffffffffffffffffffff8000000000000001831281151615611f0a57611f0a611b10565b81667fffffffffffff018313811615611f2557611f25611b10565b5090039392505050565b600073ffffffffffffffffffffffffffffffffffffffff83811690831681811015611f5c57611f5c611b10565b039392505050565b60008160060b8360060b80611f7b57611f7b611b6e565b7fffffffffffffffffffffffffffffffffffffffffffffffffffffffffffffffff81147fffffffffffffffffffffffffffffffffffffffffffffffffff8000000000000083141615611fcf57611fcf611b10565b90059392505050565b60008260060b80611feb57611feb611b6e565b808360060b0791505092915050565b60008160020b7fffffffffffffffffffffffffffffffffffffffffffffffffffffffffff800000810361202f5761202f611b10565b7fffffffffffffffffffffffffffffffffffffffffffffffffffffffffffffffff0192915050565b600077ffffffffffffffffffffffffffffffffffffffffffffffff8083168185168183048111821515161561208e5761208e611b10565b02949350505050565b600077ffffffffffffffffffffffffffffffffffffffffffffffff808416806120c2576120c2611b6e565b9216919091049291505056fea2646970667358221220aa050c067d1a7fcaeea54f7c670e0032e1158540cd6a78c782abe34f4b05540b64736f6c634300080d0033",
  "linkReferences": {},
  "deployedLinkReferences": {}
}