{
  "_format": "hh-sol-artifact-1",
  "contractName": "View",
  "sourceName": "contracts/View.sol",
  "abi": [
    {
      "inputs": [],
      "name": "T",
      "type": "error"
    },
    {
      "inputs": [
        {
          "internalType": "bytes32",
          "name": "ORACLE",
          "type": "bytes32"
        },
        {
          "internalType": "uint256",
          "name": "MARK",
          "type": "uint256"
        },
        {
          "internalType": "address",
          "name": "TOKEN_R",
          "type": "address"
        },
        {
          "internalType": "uint256",
          "name": "k",
          "type": "uint256"
        },
        {
          "internalType": "address",
          "name": "TOKEN",
          "type": "address"
        },
        {
          "internalType": "uint256",
          "name": "HALF_LIFE",
          "type": "uint256"
        }
      ],
      "name": "getStates",
      "outputs": [
        {
          "components": [
            {
              "internalType": "uint256",
              "name": "sA",
              "type": "uint256"
            },
            {
              "internalType": "uint256",
              "name": "sB",
              "type": "uint256"
            },
            {
              "internalType": "uint256",
              "name": "sC",
              "type": "uint256"
            },
            {
              "internalType": "uint256",
              "name": "R",
              "type": "uint256"
            },
            {
              "internalType": "uint256",
              "name": "rA",
              "type": "uint256"
            },
            {
              "internalType": "uint256",
              "name": "rB",
              "type": "uint256"
            },
            {
              "internalType": "uint256",
              "name": "rC",
              "type": "uint256"
            },
            {
              "internalType": "uint256",
              "name": "a",
              "type": "uint256"
            },
            {
              "internalType": "uint256",
              "name": "b",
              "type": "uint256"
            },
            {
              "internalType": "uint256",
              "name": "twap",
              "type": "uint256"
            },
            {
              "internalType": "uint256",
              "name": "spot",
              "type": "uint256"
            },
            {
              "internalType": "bytes32",
              "name": "ORACLE",
              "type": "bytes32"
            }
          ],
          "internalType": "struct View.StateView",
          "name": "states",
          "type": "tuple"
        }
      ],
      "stateMutability": "view",
      "type": "function"
    }
  ],
  "bytecode": "0x608060405234801561001057600080fd5b506120fb806100206000396000f3fe608060405234801561001057600080fd5b506004361061002b5760003560e01c806359a44ce814610030575b600080fd5b61004361003e366004611a90565b6100d4565b6040516100cb9190815181526020808301519082015260408083015190820152606080830151908201526080808301519082015260a0808301519082015260c0808301519082015260e0808301519082015261010080830151908201526101208083015190820152610140808301519082015261016091820151918101919091526101800190565b60405180910390f35b61013b6040518061018001604052806000815260200160008152602001600081526020016000815260200160008152602001600081526020016000815260200160008152602001600081526020016000815260200160008152602001600080191681525090565b6040517f70a0823100000000000000000000000000000000000000000000000000000000815230600482015273ffffffffffffffffffffffffffffffffffffffff8616906370a0823190602401602060405180830381865afa1580156101a5573d6000803e3d6000fd5b505050506040513d601f19601f820116820180604052508101906101c99190611aee565b6060828101918252600080546401000000008082047bffffffffffffffffffffffffffffffffffffffffffffffffffffffff90811660e08801908152600154929092041661010087018181526040805196870181529651865291516020860152908190529383019390935290916102509061024a9063ffffffff1642611b36565b856104bf565b905060008061025e8b6104fe565b915091508082111561026c57905b60008061028461027e8b8e8888610684565b87610723565b6080890191909152905061029d61027e8b8e8887610684565b60a089018190529092506102b19083611b4d565b8188608001516102c19190611b4d565b116102e95760a08701516102d59083611b4d565b87606001516102e49190611b36565b610308565b8087608001516102f99190611b4d565b87606001516103089190611b36565b8760c00181815250505050505050508273ffffffffffffffffffffffffffffffffffffffff1663bd85b03961033e30601061075c565b6040518263ffffffff1660e01b815260040161035c91815260200190565b602060405180830381865afa158015610379573d6000803e3d6000fd5b505050506040513d601f19601f8201168201806040525081019061039d9190611aee565b815273ffffffffffffffffffffffffffffffffffffffff831663bd85b0396103c630602061075c565b6040518263ffffffff1660e01b81526004016103e491815260200190565b602060405180830381865afa158015610401573d6000803e3d6000fd5b505050506040513d601f19601f820116820180604052508101906104259190611aee565b602082015273ffffffffffffffffffffffffffffffffffffffff831663bd85b03961045130603061075c565b6040518263ffffffff1660e01b815260040161046f91815260200190565b602060405180830381865afa15801561048c573d6000803e3d6000fd5b505050506040513d601f19601f820116820180604052508101906104b09190611aee565b60408201529695505050505050565b6000816000036104d95750680100000000000000006104f8565b60006104f16104ec84604087901b611b94565b610789565b600f0b9150505b92915050565b60008060008360001c905060008173ffffffffffffffffffffffffffffffffffffffff16633850c7bd6040518163ffffffff1660e01b815260040160e060405180830381865afa158015610556573d6000803e3d6000fd5b505050506040513d601f19601f8201168201806040525081019061057a9190611bbf565b505050505050905060006105958360c08860001c901c611272565b50905060006105a38261153a565b602081811b77ffffffffffffffffffffffffffffffffffffffff0000000016975073ffffffffffffffffffffffffffffffff000000009085901b16955073ffffffffffffffffffffffffffffffffffffffff1690507f8000000000000000000000000000000000000000000000000000000000000000871660000361067b5761064c857fffffffffffffffffffffffffffffffffffffffffffffffffffffffffffffffff611b94565b9450610678867fffffffffffffffffffffffffffffffffffffffffffffffffffffffffffffffff611b94565b95505b50505050915091565b60408051808201909152600080825260208201526106bd6106b783700100000000000000000000000000000000876118a1565b86611971565b8082526106fe906106ee907fffffffffffffffffffffffffffffffffffffffffffffffffffffffffffffffff611b94565b68010000000000000000856118a1565b602082015280516107199068010000000000000000856118a1565b8152949350505050565b815160208201518251600092839261073a926119f8565b91506107538460200151846040015185600001516119f8565b90509250929050565b600061078273ffffffffffffffffffffffffffffffffffffffff841660a084901b611b4d565b9392505050565b60006840000000000000000082600f0b126107a357600080fd5b7fffffffffffffffffffffffffffffffffffffffffffffffc0000000000000000082600f0b12156107d657506000919050565b6f8000000000000000000000000000000060006780000000000000008416600f0b13156108145770016a09e667f3bcc908b2fb1366ea957d3e0260801c5b60008367400000000000000016600f0b1315610841577001306fe0a31b7152de8d5a46305c85edec0260801c5b60008367200000000000000016600f0b131561086e577001172b83c7d517adcdf7c8c50eb14a791f0260801c5b60008367100000000000000016600f0b131561089b5770010b5586cf9890f6298b92b71842a983630260801c5b60008367080000000000000016600f0b13156108c8577001059b0d31585743ae7c548eb68ca417fd0260801c5b60008367040000000000000016600f0b13156108f557700102c9a3e778060ee6f7caca4f7a29bde80260801c5b60008367020000000000000016600f0b13156109225770010163da9fb33356d84a66ae336dcdfa3f0260801c5b60008367010000000000000016600f0b131561094f57700100b1afa5abcbed6129ab13ec11dc95430260801c5b600083668000000000000016600f0b131561097b5770010058c86da1c09ea1ff19d294cf2f679b0260801c5b600083664000000000000016600f0b13156109a7577001002c605e2e8cec506d21bfc89a23a00f0260801c5b600083662000000000000016600f0b13156109d357700100162f3904051fa128bca9c55c31e5df0260801c5b600083661000000000000016600f0b13156109ff577001000b175effdc76ba38e31671ca9397250260801c5b600083660800000000000016600f0b1315610a2b57700100058ba01fb9f96d6cacd4b180917c3d0260801c5b600083660400000000000016600f0b1315610a575770010002c5cc37da9491d0985c348c68e7b30260801c5b600083660200000000000016600f0b1315610a83577001000162e525ee054754457d59952920260260801c5b600083660100000000000016600f0b1315610aaf5770010000b17255775c040618bf4a4ade83fc0260801c5b6000836580000000000016600f0b1315610ada577001000058b91b5bc9ae2eed81e9b7d4cfab0260801c5b6000836540000000000016600f0b1315610b0557700100002c5c89d5ec6ca4d7c8acc017b7c90260801c5b6000836520000000000016600f0b1315610b305770010000162e43f4f831060e02d839a9d16d0260801c5b6000836510000000000016600f0b1315610b5b57700100000b1721bcfc99d9f890ea069117630260801c5b6000836508000000000016600f0b1315610b865770010000058b90cf1e6d97f9ca14dbcc16280260801c5b6000836504000000000016600f0b1315610bb1577001000002c5c863b73f016468f6bac5ca2b0260801c5b6000836502000000000016600f0b1315610bdc57700100000162e430e5a18f6119e3c02282a50260801c5b6000836501000000000016600f0b1315610c07577001000000b1721835514b86e6d96efd1bfe0260801c5b60008364800000000016600f0b1315610c3157700100000058b90c0b48c6be5df846c5b2ef0260801c5b60008364400000000016600f0b1315610c5b5770010000002c5c8601cc6b9e94213c72737a0260801c5b60008364200000000016600f0b1315610c85577001000000162e42fff037df38aa2b219f060260801c5b60008364100000000016600f0b1315610caf5770010000000b17217fba9c739aa5819f44f90260801c5b60008364080000000016600f0b1315610cd9577001000000058b90bfcdee5acd3c1cedc8230260801c5b60008364040000000016600f0b1315610d0357700100000002c5c85fe31f35a6a30da1be500260801c5b60008364020000000016600f0b1315610d2d5770010000000162e42ff0999ce3541b9fffcf0260801c5b60008364010000000016600f0b1315610d5757700100000000b17217f80f4ef5aadda455540260801c5b600083638000000016600f0b1315610d805770010000000058b90bfbf8479bd5a81b51ad0260801c5b600083634000000016600f0b1315610da9577001000000002c5c85fdf84bd62ae30a74cc0260801c5b600083632000000016600f0b1315610dd257700100000000162e42fefb2fed257559bdaa0260801c5b600083631000000016600f0b1315610dfb577001000000000b17217f7d5a7716bba4a9ae0260801c5b600083630800000016600f0b1315610e2457700100000000058b90bfbe9ddbac5e109cce0260801c5b600083630400000016600f0b1315610e4d5770010000000002c5c85fdf4b15de6f17eb0d0260801c5b600083630200000016600f0b1315610e76577001000000000162e42fefa494f1478fde050260801c5b600083630100000016600f0b1315610e9f5770010000000000b17217f7d20cf927c8e94c0260801c5b6000836280000016600f0b1315610ec7577001000000000058b90bfbe8f71cb4e4b33d0260801c5b6000836240000016600f0b1315610eef57700100000000002c5c85fdf477b662b269450260801c5b6000836220000016600f0b1315610f175770010000000000162e42fefa3ae53369388c0260801c5b6000836210000016600f0b1315610f3f57700100000000000b17217f7d1d351a389d400260801c5b6000836208000016600f0b1315610f675770010000000000058b90bfbe8e8b2d3d4ede0260801c5b6000836204000016600f0b1315610f8f577001000000000002c5c85fdf4741bea6e77e0260801c5b6000836202000016600f0b1315610fb757700100000000000162e42fefa39fe95583c20260801c5b6000836201000016600f0b1315610fdf577001000000000000b17217f7d1cfb72b45e10260801c5b60008361800016600f0b131561100657700100000000000058b90bfbe8e7cc35c3f00260801c5b60008361400016600f0b131561102d5770010000000000002c5c85fdf473e242ea380260801c5b60008361200016600f0b1315611054577001000000000000162e42fefa39f02b772c0260801c5b60008361100016600f0b131561107b5770010000000000000b17217f7d1cf7d83c1a0260801c5b60008361080016600f0b13156110a2577001000000000000058b90bfbe8e7bdcbe2e0260801c5b60008361040016600f0b13156110c957700100000000000002c5c85fdf473dea871f0260801c5b60008361020016600f0b13156110f05770010000000000000162e42fefa39ef44d910260801c5b60008361010016600f0b131561111757700100000000000000b17217f7d1cf79e9490260801c5b600083608016600f0b131561113d5770010000000000000058b90bfbe8e7bce5440260801c5b600083604016600f0b1315611163577001000000000000002c5c85fdf473de6eca0260801c5b600083602016600f0b131561118957700100000000000000162e42fefa39ef366f0260801c5b600083601016600f0b13156111af577001000000000000000b17217f7d1cf79afa0260801c5b600083600816600f0b13156111d557700100000000000000058b90bfbe8e7bcd6d0260801c5b600083600416600f0b13156111fb5770010000000000000002c5c85fdf473de6b20260801c5b600083600216600f0b1315611221577001000000000000000162e42fefa39ef3580260801c5b600083600116600f0b13156112475770010000000000000000b17217f7d1cf79ab0260801c5b600f83810b60401d603f03900b1c6f7fffffffffffffffffffffffffffffff8111156104f857600080fd5b6000808263ffffffff166000036112e9576040517f08c379a000000000000000000000000000000000000000000000000000000000815260206004820152600260248201527f4250000000000000000000000000000000000000000000000000000000000000604482015260640160405180910390fd5b604080516002808252606082018352600092602083019080368337019050509050838160008151811061131e5761131e611c92565b602002602001019063ffffffff16908163ffffffff168152505060008160018151811061134d5761134d611c92565b602002602001019063ffffffff16908163ffffffff16815250506000808673ffffffffffffffffffffffffffffffffffffffff1663883bdbfd846040518263ffffffff1660e01b81526004016113a39190611cc1565b600060405180830381865afa1580156113c0573d6000803e3d6000fd5b505050506040513d6000823e601f3d9081017fffffffffffffffffffffffffffffffffffffffffffffffffffffffffffffffe01682016040526114069190810190611df2565b9150915060008260008151811061141f5761141f611c92565b60200260200101518360018151811061143a5761143a611c92565b602002602001015161144c9190611ebe565b905060008260008151811061146357611463611c92565b60200260200101518360018151811061147e5761147e611c92565b60200260200101516114909190611f26565b90506114a263ffffffff891683611f5b565b965060008260060b1280156114c857506114c263ffffffff891683611fcf565b60060b15155b156114db57866114d781611ff1565b9750505b600061150173ffffffffffffffffffffffffffffffffffffffff63ffffffff8b1661204e565b905061152b77ffffffffffffffffffffffffffffffffffffffff00000000602084901b168261208e565b96505050505050509250929050565b60008060008360020b12611551578260020b611559565b8260020b6000035b9050620d89e8811115611598576040517f2bc80f3a00000000000000000000000000000000000000000000000000000000815260040160405180910390fd5b6000816001166000036115bc577001000000000000000000000000000000006115ce565b6ffffcb933bd6fad37aa2d162d1a5940015b70ffffffffffffffffffffffffffffffffff1690506002821615611602576ffff97272373d413259a46990580e213a0260801c5b6004821615611621576ffff2e50f5f656932ef12357cf3c7fdcc0260801c5b6008821615611640576fffe5caca7e10e4e61c3624eaa0941cd00260801c5b601082161561165f576fffcb9843d60f6159c9db58835c9266440260801c5b602082161561167e576fff973b41fa98c081472e6896dfb254c00260801c5b604082161561169d576fff2ea16466c96a3843ec78b326b528610260801c5b60808216156116bc576ffe5dee046a99a2a811c461f1969c30530260801c5b6101008216156116dc576ffcbe86c7900a88aedcffc83b479aa3a40260801c5b6102008216156116fc576ff987a7253ac413176f2b074cf7815e540260801c5b61040082161561171c576ff3392b0822b70005940c7a398e4b70f30260801c5b61080082161561173c576fe7159475a2c29b7443b29c7fa6e889d90260801c5b61100082161561175c576fd097f3bdfd2022b8845ad8f792aa58250260801c5b61200082161561177c576fa9f746462d870fdf8a65dc1f90e061e50260801c5b61400082161561179c576f70d869a156d2a1b890bb3df62baf32f70260801c5b6180008216156117bc576f31be135f97d08fd981231505542fcfa60260801c5b620100008216156117dd576f09aa508b5b7a84e1c677de54f3e99bc90260801c5b620200008216156117fd576e5d6af8dedb81196699c329225ee6040260801c5b6204000082161561181c576d2216e584f5fa1ea926041bedfe980260801c5b62080000821615611839576b048a170391f7dc42444e8fa20260801c5b60008460020b131561187857807fffffffffffffffffffffffffffffffffffffffffffffffffffffffffffffffff8161187457611874611b65565b0490505b64010000000081061561188c57600161188f565b60005b60ff16602082901c0192505050919050565b600080807fffffffffffffffffffffffffffffffffffffffffffffffffffffffffffffffff858709858702925082811083820303915050806000036118f857600084116118ed57600080fd5b508290049050610782565b80841161190457600080fd5b6000848688096000868103871696879004966002600389028118808a02820302808a02820302808a02820302808a02820302808a02820302808a02909103029181900381900460010186841190950394909402919094039290920491909117919091029150509392505050565b600080826001161161199457700100000000000000000000000000000000611996565b825b9050600182901c91505b81156104f8576119c283847001000000000000000000000000000000006118a1565b925060018216156119ec576119e981847001000000000000000000000000000000006118a1565b90505b600182901c91506119a0565b6000611a1683857001000000000000000000000000000000006118a1565b9050600182901c811115610782576000611a4684600287901b7001000000000000000000000000000000006118a1565b90506000611a558485846118a1565b9050611a618185611b36565b9695505050505050565b73ffffffffffffffffffffffffffffffffffffffff81168114611a8d57600080fd5b50565b60008060008060008060c08789031215611aa957600080fd5b86359550602087013594506040870135611ac281611a6b565b9350606087013592506080870135611ad981611a6b565b8092505060a087013590509295509295509295565b600060208284031215611b0057600080fd5b5051919050565b7f4e487b7100000000000000000000000000000000000000000000000000000000600052601160045260246000fd5b600082821015611b4857611b48611b07565b500390565b60008219821115611b6057611b60611b07565b500190565b7f4e487b7100000000000000000000000000000000000000000000000000000000600052601260045260246000fd5b600082611ba357611ba3611b65565b500490565b805161ffff81168114611bba57600080fd5b919050565b600080600080600080600060e0888a031215611bda57600080fd5b8751611be581611a6b565b8097505060208801518060020b8114611bfd57600080fd5b9550611c0b60408901611ba8565b9450611c1960608901611ba8565b9350611c2760808901611ba8565b925060a088015160ff81168114611c3d57600080fd5b60c08901519092508015158114611c5357600080fd5b8091505092959891949750929550565b7f4e487b7100000000000000000000000000000000000000000000000000000000600052604160045260246000fd5b7f4e487b7100000000000000000000000000000000000000000000000000000000600052603260045260246000fd5b6020808252825182820181905260009190848201906040850190845b81811015611cff57835163ffffffff1683529284019291840191600101611cdd565b50909695505050505050565b604051601f82017fffffffffffffffffffffffffffffffffffffffffffffffffffffffffffffffe016810167ffffffffffffffff81118282101715611d5257611d52611c63565b604052919050565b600067ffffffffffffffff821115611d7457611d74611c63565b5060051b60200190565b600082601f830112611d8f57600080fd5b81516020611da4611d9f83611d5a565b611d0b565b82815260059290921b84018101918181019086841115611dc357600080fd5b8286015b84811015611de7578051611dda81611a6b565b8352918301918301611dc7565b509695505050505050565b60008060408385031215611e0557600080fd5b825167ffffffffffffffff80821115611e1d57600080fd5b818501915085601f830112611e3157600080fd5b81516020611e41611d9f83611d5a565b82815260059290921b84018101918181019089841115611e6057600080fd5b948201945b83861015611e8e5785518060060b8114611e7f5760008081fd5b82529482019490820190611e65565b91880151919650909350505080821115611ea757600080fd5b50611eb485828601611d7e565b9150509250929050565b60008160060b8360060b60008112817fffffffffffffffffffffffffffffffffffffffffffffffffff8000000000000001831281151615611f0157611f01611b07565b81667fffffffffffff018313811615611f1c57611f1c611b07565b5090039392505050565b600073ffffffffffffffffffffffffffffffffffffffff83811690831681811015611f5357611f53611b07565b039392505050565b60008160060b8360060b80611f7257611f72611b65565b7fffffffffffffffffffffffffffffffffffffffffffffffffffffffffffffffff81147fffffffffffffffffffffffffffffffffffffffffffffffffff8000000000000083141615611fc657611fc6611b07565b90059392505050565b60008260060b80611fe257611fe2611b65565b808360060b0791505092915050565b60008160020b7fffffffffffffffffffffffffffffffffffffffffffffffffffffffffff800000810361202657612026611b07565b7fffffffffffffffffffffffffffffffffffffffffffffffffffffffffffffffff0192915050565b600077ffffffffffffffffffffffffffffffffffffffffffffffff8083168185168183048111821515161561208557612085611b07565b02949350505050565b600077ffffffffffffffffffffffffffffffffffffffffffffffff808416806120b9576120b9611b65565b9216919091049291505056fea264697066735822122077d0c9609b8fb9125278e3f432ee6cd8eddccb4960cce79690b77b2e06b5ed7864736f6c634300080d0033",
  "linkReferences": {},
  "deployedLinkReferences": {}
}