{
  "_format": "hh-sol-artifact-1",
  "contractName": "ReserveTokenPrice",
  "sourceName": "contracts/ReserveTokenPrice.sol",
  "abi": [
    {
      "inputs": [
        {
          "internalType": "address",
          "name": "token",
          "type": "address"
        },
        {
          "internalType": "address",
          "name": "factory",
          "type": "address"
        },
        {
          "internalType": "address[]",
          "name": "otherTokens",
          "type": "address[]"
        },
        {
          "internalType": "address",
          "name": "weth",
          "type": "address"
        },
        {
          "internalType": "address",
          "name": "usd",
          "type": "address"
        }
      ],
      "name": "fetchMarket",
      "outputs": [
        {
          "internalType": "uint256",
          "name": "sqrtPriceX96",
          "type": "uint256"
        }
      ],
      "stateMutability": "view",
      "type": "function"
    },
    {
      "inputs": [
        {
          "internalType": "address[]",
          "name": "tokens",
          "type": "address[]"
        },
        {
          "internalType": "address",
          "name": "factory",
          "type": "address"
        },
        {
          "internalType": "address[]",
          "name": "otherTokens",
          "type": "address[]"
        },
        {
          "internalType": "address",
          "name": "weth",
          "type": "address"
        },
        {
          "internalType": "address",
          "name": "usd",
          "type": "address"
        }
      ],
      "name": "fetchMarketBatch",
      "outputs": [
        {
          "internalType": "uint256[]",
          "name": "sqrtPriceX96",
          "type": "uint256[]"
        }
      ],
      "stateMutability": "view",
      "type": "function"
    },
    {
      "inputs": [],
      "name": "test",
      "outputs": [
        {
          "internalType": "uint256",
          "name": "",
          "type": "uint256"
        }
      ],
      "stateMutability": "view",
      "type": "function"
    }
  ],
  "bytecode": "0x608060405234801561001057600080fd5b50610ab8806100206000396000f3fe608060405234801561001057600080fd5b50600436106100415760003560e01c80633a327e96146100465780634de261491461006c578063f8a8fd6d1461008c575b600080fd5b61005961005436600461070f565b610094565b6040519081526020015b60405180910390f35b61007f61007a36600461079d565b610423565b6040516100639190610848565b6103e8610059565b604080516060810182526101f48152610bb8602082015261271091810191909152600190600080805b60038110156103115760005b888110156102fe5760008b73ffffffffffffffffffffffffffffffffffffffff16631698ee828e8d8d878181106101025761010261088c565b905060200201602081019061011791906108bb565b8987600381106101295761012961088c565b60200201516040517fffffffff0000000000000000000000000000000000000000000000000000000060e086901b16815273ffffffffffffffffffffffffffffffffffffffff938416600482015292909116602483015261ffff166044820152606401602060405180830381865afa1580156101a9573d6000803e3d6000fd5b505050506040513d601f19601f820116820180604052508101906101cd91906108d8565b905073ffffffffffffffffffffffffffffffffffffffff8116156102eb576040517f70a0823100000000000000000000000000000000000000000000000000000000815273ffffffffffffffffffffffffffffffffffffffff8281166004830152600091908f16906370a0823190602401602060405180830381865afa15801561025b573d6000803e3d6000fd5b505050506040513d601f19601f8201168201806040525081019061027f91906108f5565b9050808610156102e9578095508b8b8581811061029e5761029e61088c565b90506020020160208101906102b391906108bb565b94506102e6828f8e8e888181106102cc576102cc61088c565b90506020020160208101906102e191906108bb565b6104e4565b97505b505b50806102f68161090e565b9150506100c9565b50806103098161090e565b9150506100bd565b508573ffffffffffffffffffffffffffffffffffffffff168173ffffffffffffffffffffffffffffffffffffffff1603610416576040517f1698ee8200000000000000000000000000000000000000000000000000000000815273ffffffffffffffffffffffffffffffffffffffff8781166004830152868116602483015260c86044830152600091908b1690631698ee8290606401602060405180830381865afa1580156103c4573d6000803e3d6000fd5b505050506040513d601f19601f820116820180604052508101906103e891906108d8565b905060006103f78289896104e4565b905061041186826c010000000000000000000000006105cd565b955050505b5050509695505050505050565b60608667ffffffffffffffff81111561043e5761043e61096d565b604051908082528060200260200182016040528015610467578160200160208202803683370190505b50905060005b878110156104d8576104a989898381811061048a5761048a61088c565b905060200201602081019061049f91906108bb565b8888888888610094565b8282815181106104bb576104bb61088c565b6020908102919091010152806104d08161090e565b91505061046d565b50979650505050505050565b6000808473ffffffffffffffffffffffffffffffffffffffff16633850c7bd6040518163ffffffff1660e01b815260040160e060405180830381865afa158015610532573d6000803e3d6000fd5b505050506040513d601f19601f8201168201806040525081019061055691906109b3565b50505050505090508073ffffffffffffffffffffffffffffffffffffffff1691508273ffffffffffffffffffffffffffffffffffffffff168473ffffffffffffffffffffffffffffffffffffffff1611156105c5576105c2826c01000000000000000000000000610a47565b91505b509392505050565b600080807fffffffffffffffffffffffffffffffffffffffffffffffffffffffffffffffff85870985870292508281108382030391505080600003610624576000841161061957600080fd5b508290049050610697565b80841161063057600080fd5b6000848688096000868103871696879004966002600389028118808a02820302808a02820302808a02820302808a02820302808a02820302808a02909103029181900381900460010186841190950394909402919094039290920491909117919091029150505b9392505050565b73ffffffffffffffffffffffffffffffffffffffff811681146106c057600080fd5b50565b60008083601f8401126106d557600080fd5b50813567ffffffffffffffff8111156106ed57600080fd5b6020830191508360208260051b850101111561070857600080fd5b9250929050565b60008060008060008060a0878903121561072857600080fd5b86356107338161069e565b955060208701356107438161069e565b9450604087013567ffffffffffffffff81111561075f57600080fd5b61076b89828a016106c3565b909550935050606087013561077f8161069e565b9150608087013561078f8161069e565b809150509295509295509295565b600080600080600080600060a0888a0312156107b857600080fd5b873567ffffffffffffffff808211156107d057600080fd5b6107dc8b838c016106c3565b909950975060208a013591506107f18261069e565b9095506040890135908082111561080757600080fd5b506108148a828b016106c3565b90955093505060608801356108288161069e565b915060808801356108388161069e565b8091505092959891949750929550565b6020808252825182820181905260009190848201906040850190845b8181101561088057835183529284019291840191600101610864565b50909695505050505050565b7f4e487b7100000000000000000000000000000000000000000000000000000000600052603260045260246000fd5b6000602082840312156108cd57600080fd5b81356106978161069e565b6000602082840312156108ea57600080fd5b81516106978161069e565b60006020828403121561090757600080fd5b5051919050565b60007fffffffffffffffffffffffffffffffffffffffffffffffffffffffffffffffff8203610966577f4e487b7100000000000000000000000000000000000000000000000000000000600052601160045260246000fd5b5060010190565b7f4e487b7100000000000000000000000000000000000000000000000000000000600052604160045260246000fd5b805161ffff811681146109ae57600080fd5b919050565b600080600080600080600060e0888a0312156109ce57600080fd5b87516109d98161069e565b8097505060208801518060020b81146109f157600080fd5b95506109ff6040890161099c565b9450610a0d6060890161099c565b9350610a1b6080890161099c565b925060a088015160ff81168114610a3157600080fd5b60c0890151909250801515811461083857600080fd5b600082610a7d577f4e487b7100000000000000000000000000000000000000000000000000000000600052601260045260246000fd5b50049056fea2646970667358221220ce3a3100fd10225c8ab735af7d4b14da127fcdaaa615dff55b21d2f94810cdfc64736f6c634300080d0033",
  "linkReferences": {},
  "deployedLinkReferences": {}
}