{
  "_format": "hh-sol-artifact-1",
  "contractName": "UniversalTokenRouter",
  "sourceName": "contracts/UniversalTokenRouter.sol",
  "abi": [
    {
      "inputs": [
        {
          "components": [
            {
              "internalType": "address",
              "name": "recipient",
              "type": "address"
            },
            {
              "internalType": "uint256",
              "name": "eip",
              "type": "uint256"
            },
            {
              "internalType": "address",
              "name": "token",
              "type": "address"
            },
            {
              "internalType": "uint256",
              "name": "id",
              "type": "uint256"
            },
            {
              "internalType": "uint256",
              "name": "amountOutMin",
              "type": "uint256"
            }
          ],
          "internalType": "struct Output[]",
          "name": "outputs",
          "type": "tuple[]"
        },
        {
          "components": [
            {
              "components": [
                {
                  "internalType": "uint256",
                  "name": "mode",
                  "type": "uint256"
                },
                {
                  "internalType": "address",
                  "name": "recipient",
                  "type": "address"
                },
                {
                  "internalType": "uint256",
                  "name": "eip",
                  "type": "uint256"
                },
                {
                  "internalType": "address",
                  "name": "token",
                  "type": "address"
                },
                {
                  "internalType": "uint256",
                  "name": "id",
                  "type": "uint256"
                },
                {
                  "internalType": "uint256",
                  "name": "amountInMax",
                  "type": "uint256"
                },
                {
                  "internalType": "uint256",
                  "name": "amountSource",
                  "type": "uint256"
                }
              ],
              "internalType": "struct Input[]",
              "name": "inputs",
              "type": "tuple[]"
            },
            {
              "internalType": "uint256",
              "name": "flags",
              "type": "uint256"
            },
            {
              "internalType": "address",
              "name": "code",
              "type": "address"
            },
            {
              "internalType": "bytes",
              "name": "data",
              "type": "bytes"
            }
          ],
          "internalType": "struct Action[]",
          "name": "actions",
          "type": "tuple[]"
        }
      ],
      "name": "exec",
      "outputs": [
        {
          "internalType": "uint256[]",
          "name": "amountOuts",
          "type": "uint256[]"
        },
        {
          "internalType": "uint256",
          "name": "gasLeft",
          "type": "uint256"
        }
      ],
      "stateMutability": "payable",
      "type": "function"
    },
    {
      "inputs": [
        {
          "internalType": "address",
          "name": "sender",
          "type": "address"
        },
        {
          "internalType": "address",
          "name": "recipient",
          "type": "address"
        },
        {
          "internalType": "uint256",
          "name": "eip",
          "type": "uint256"
        },
        {
          "internalType": "address",
          "name": "token",
          "type": "address"
        },
        {
          "internalType": "uint256",
          "name": "id",
          "type": "uint256"
        },
        {
          "internalType": "uint256",
          "name": "amount",
          "type": "uint256"
        }
      ],
      "name": "pay",
      "outputs": [],
      "stateMutability": "nonpayable",
      "type": "function"
    },
    {
      "stateMutability": "payable",
      "type": "receive"
    }
  ],
  "bytecode": "0x608060405234801561001057600080fd5b50611cbf806100206000396000f3fe60806040526004361061002d5760003560e01c806303886f3c146100395780632a5baa781461005b57600080fd5b3661003457005b600080fd5b34801561004557600080fd5b50610059610054366004611672565b610085565b005b61006e610069366004611a6c565b6101c7565b60405161007c929190611b78565b60405180910390f35b6040517fffffffffffffffffffffffffffffffffffffffff000000000000000000000000606088811b8216602084015287811b821660348401526048830187905285901b166068820152607c8101839052600090609c016040516020818303038152906040528051906020012090508160008083815260200190815260200160002054101561019b576040517f08c379a000000000000000000000000000000000000000000000000000000000815260206004820152602c60248201527f556e6976657273616c546f6b656e526f757465723a20494e535546464943494560448201527f4e545f414c4c4f57414e4345000000000000000000000000000000000000000060648201526084015b60405180910390fd5b6000818152602081905260409020805483900390556101be878787878787610986565b50505050505050565b6060600060608060005b86518110156102b95760008782815181106101ee576101ee611bc0565b6020026020010151905060006102168260000151836020015184604001518560600151610c2b565b90508084848151811061022b5761022b611bc0565b602090810291909101015260808201518101818110156102a7576040517f08c379a000000000000000000000000000000000000000000000000000000000815260206004820152601e60248201527f556e6976657273616c546f6b656e526f757465723a204f564552464c4f5700006044820152606401610192565b608090920191909152506001016101d1565b506000606060005b87518110156106875760008882815181106102de576102de611bc0565b60200260200101519050600080600090505b8251518110156105a05760008360000151828151811061031257610312611bc0565b602002602001015190506000816000015190506000600182146103355733610337565b305b90506000808460c0015103610351575060a083015161041a565b60018460c001510361037c5761037582856040015186606001518760800151610c2b565b9050610386565b5060c08301518801515b8360a0015181111561041a576040517f08c379a000000000000000000000000000000000000000000000000000000000815260206004820152602c60248201527f556e6976657273616c546f6b656e526f757465723a204558434553534956455f60448201527f494e5055545f414d4f554e5400000000000000000000000000000000000000006064820152608401610192565b6002830361042d57945061059892505050565b82158061043a5750600183145b156104665761045d82856020015186604001518760600151886080015186610986565b50505050610598565b600483036105345760208085015160408087015160608089015160808a015193517fffffffffffffffffffffffffffffffffffffffff00000000000000000000000033841b81169782019790975294821b8616603486015260488501929092521b9092166068820152607c810191909152600090609c01604080517fffffffffffffffffffffffffffffffffffffffffffffffffffffffffffffffe0818403018152918152815160209283012060009081529182905290208054909201909155506001985061059892505050565b60088303610593576105748460200151856040015186606001517fffffffffffffffffffffffffffffffffffffffffffffffffffffffffffffffff610ed3565b61058e333086604001518760600151886080015186610986565b600199505b505050505b6001016102f0565b506060820151511561067d576020820151600416156105d157606082015180516105cb919086610fee565b60608301525b600080836040015173ffffffffffffffffffffffffffffffffffffffff168385606001516040516106029190611bef565b60006040518083038185875af1925050503d806000811461063f576040519150601f19603f3d011682016040523d82523d6000602084013e610644565b606091505b50915091508115801561065c57506020840151600116155b1561066957805160208201fd5b60208401516002161561067a578095505b50505b50506001016102c1565b5060005b88518110156107aa5760008982815181106106a8576106a8611bc0565b6020026020010151905060006106d08260000151836020015184604001518560600151610c2b565b90508583815181106106e4576106e4611bc0565b6020026020010151810387848151811061070057610700611bc0565b60200260200101818152505081608001518110156107a0576040517f08c379a000000000000000000000000000000000000000000000000000000000815260206004820152603060248201527f556e6976657273616c546f6b656e526f757465723a20494e535546464943494560448201527f4e545f4f55545055545f414d4f554e54000000000000000000000000000000006064820152608401610192565b505060010161068b565b5081156109645760005b87518110156109625760008882815181106107d1576107d1611bc0565b6020026020010151905060005b8151518110156109585760008260000151828151811061080057610800611bc0565b6020026020010151905060048160000151036108cf57602080820151604080840151606080860151608087015193517fffffffffffffffffffffffffffffffffffffffff00000000000000000000000033841b81169782019790975294821b8616603486015260488501929092521b9092166068820152607c810191909152600090609c01604080517fffffffffffffffffffffffffffffffffffffffffffffffffffffffffffffffe08184030181529181528151602092830120600090815291829052812055506109509050565b80517ffffffffffffffffffffffffffffffffffffffffffffffffffffffffffffffff80161094e576109108160200151826040015183606001516000610ed3565b600061092a30836040015184606001518560800151610c2b565b9050801561094c5761094c303384604001518560600151866080015186610986565b505b505b6001016107de565b50506001016107b4565b505b478015610975576109753382611072565b5a9499949850939650505050505050565b836014036109c7573073ffffffffffffffffffffffffffffffffffffffff8716036109bb576109b6838683611181565b610c23565b6109b683878784611317565b8361048303610a7b576040517ff242432a00000000000000000000000000000000000000000000000000000000815273ffffffffffffffffffffffffffffffffffffffff87811660048301528681166024830152604482018490526064820183905260a06084830152600060a483015284169063f242432a9060c4015b600060405180830381600087803b158015610a5e57600080fd5b505af1158015610a72573d6000803e3d6000fd5b50505050610c23565b836102d103610ae7576040517f42842e0e00000000000000000000000000000000000000000000000000000000815273ffffffffffffffffffffffffffffffffffffffff87811660048301528681166024830152604482018490528416906342842e0e90606401610a44565b83610b9b5773ffffffffffffffffffffffffffffffffffffffff86163014610b91576040517f08c379a000000000000000000000000000000000000000000000000000000000815260206004820152602860248201527f556e6976657273616c546f6b656e526f757465723a20494e56414c49445f455460448201527f485f53454e4445520000000000000000000000000000000000000000000000006064820152608401610192565b6109b68582611072565b6040517f08c379a000000000000000000000000000000000000000000000000000000000815260206004820152602160248201527f556e6976657273616c546f6b656e526f757465723a20494e56414c49445f454960448201527f50000000000000000000000000000000000000000000000000000000000000006064820152608401610192565b505050505050565b600083601403610ccd576040517f70a0823100000000000000000000000000000000000000000000000000000000815273ffffffffffffffffffffffffffffffffffffffff86811660048301528416906370a08231906024015b602060405180830381865afa158015610ca2573d6000803e3d6000fd5b505050506040513d601f19601f82011682018060405250810190610cc69190611c2a565b9050610ecb565b8361048303610d2f576040517efdd58e00000000000000000000000000000000000000000000000000000000815273ffffffffffffffffffffffffffffffffffffffff86811660048301526024820184905284169062fdd58e90604401610c85565b836102d103610eac577ff2b78321daf989e73321bb72cbe2a5fab2d75ae52e3240a42772118067c318108201610db3576040517f70a0823100000000000000000000000000000000000000000000000000000000815273ffffffffffffffffffffffffffffffffffffffff86811660048301528416906370a0823190602401610c85565b6040517f6352211e0000000000000000000000000000000000000000000000000000000081526004810183905273ffffffffffffffffffffffffffffffffffffffff841690636352211e90602401602060405180830381865afa925050508015610e58575060408051601f3d9081017fffffffffffffffffffffffffffffffffffffffffffffffffffffffffffffffe0168201909252610e5591810190611c43565b60015b610e6457506000610ecb565b8573ffffffffffffffffffffffffffffffffffffffff168173ffffffffffffffffffffffffffffffffffffffff1614610e9e576000610ea1565b60015b60ff16915050610ecb565b83610b9b575073ffffffffffffffffffffffffffffffffffffffff8416315b949350505050565b82601403610eeb57610ee68285836114ae565b610fe8565b8261048303610f83576040517fa22cb46500000000000000000000000000000000000000000000000000000000815273ffffffffffffffffffffffffffffffffffffffff8581166004830152821515602483015283169063a22cb465906044015b600060405180830381600087803b158015610f6657600080fd5b505af1158015610f7a573d6000803e3d6000fd5b50505050610fe8565b826102d103610b9b576040517fa22cb46500000000000000000000000000000000000000000000000000000000815273ffffffffffffffffffffffffffffffffffffffff8581166004830152821515602483015283169063a22cb46590604401610f4c565b50505050565b6060604051905082815260208101838101602086015b8183101561101c578051835260209283019201611004565b50835183518101845294507fffffffffffffffffffffffffffffffffffffffffffffffffffffffffffffffe0810191508401835b81831015611068578051835260209283019201611050565b5050509392505050565b6040805160008082526020820190925273ffffffffffffffffffffffffffffffffffffffff84169083906040516110a99190611bef565b60006040518083038185875af1925050503d80600081146110e6576040519150601f19603f3d011682016040523d82523d6000602084013e6110eb565b606091505b505090508061117c576040517f08c379a000000000000000000000000000000000000000000000000000000000815260206004820152603460248201527f5472616e7366657248656c7065723a3a736166655472616e736665724554483a60448201527f20455448207472616e73666572206661696c65640000000000000000000000006064820152608401610192565b505050565b6040805173ffffffffffffffffffffffffffffffffffffffff8481166024830152604480830185905283518084039091018152606490920183526020820180517bffffffffffffffffffffffffffffffffffffffffffffffffffffffff167fa9059cbb0000000000000000000000000000000000000000000000000000000017905291516000928392908716916112189190611bef565b6000604051808303816000865af19150503d8060008114611255576040519150601f19603f3d011682016040523d82523d6000602084013e61125a565b606091505b50915091508180156112845750805115806112845750808060200190518101906112849190611c67565b611310576040517f08c379a000000000000000000000000000000000000000000000000000000000815260206004820152602d60248201527f5472616e7366657248656c7065723a3a736166655472616e736665723a20747260448201527f616e73666572206661696c6564000000000000000000000000000000000000006064820152608401610192565b5050505050565b6040805173ffffffffffffffffffffffffffffffffffffffff85811660248301528481166044830152606480830185905283518084039091018152608490920183526020820180517bffffffffffffffffffffffffffffffffffffffffffffffffffffffff167f23b872dd0000000000000000000000000000000000000000000000000000000017905291516000928392908816916113b69190611bef565b6000604051808303816000865af19150503d80600081146113f3576040519150601f19603f3d011682016040523d82523d6000602084013e6113f8565b606091505b50915091508180156114225750805115806114225750808060200190518101906114229190611c67565b610c23576040517f08c379a000000000000000000000000000000000000000000000000000000000815260206004820152603160248201527f5472616e7366657248656c7065723a3a7472616e7366657246726f6d3a20747260448201527f616e7366657246726f6d206661696c65640000000000000000000000000000006064820152608401610192565b6040805173ffffffffffffffffffffffffffffffffffffffff8481166024830152604480830185905283518084039091018152606490920183526020820180517bffffffffffffffffffffffffffffffffffffffffffffffffffffffff167f095ea7b30000000000000000000000000000000000000000000000000000000017905291516000928392908716916115459190611bef565b6000604051808303816000865af19150503d8060008114611582576040519150601f19603f3d011682016040523d82523d6000602084013e611587565b606091505b50915091508180156115b15750805115806115b15750808060200190518101906115b19190611c67565b611310576040517f08c379a000000000000000000000000000000000000000000000000000000000815260206004820152602b60248201527f5472616e7366657248656c7065723a3a73616665417070726f76653a2061707060448201527f726f7665206661696c65640000000000000000000000000000000000000000006064820152608401610192565b73ffffffffffffffffffffffffffffffffffffffff8116811461165f57600080fd5b50565b803561166d8161163d565b919050565b60008060008060008060c0878903121561168b57600080fd5b86356116968161163d565b955060208701356116a68161163d565b94506040870135935060608701356116bd8161163d565b9598949750929560808101359460a0909101359350915050565b7f4e487b7100000000000000000000000000000000000000000000000000000000600052604160045260246000fd5b6040516080810167ffffffffffffffff81118282101715611729576117296116d7565b60405290565b60405160e0810167ffffffffffffffff81118282101715611729576117296116d7565b60405160a0810167ffffffffffffffff81118282101715611729576117296116d7565b604051601f82017fffffffffffffffffffffffffffffffffffffffffffffffffffffffffffffffe016810167ffffffffffffffff811182821017156117bc576117bc6116d7565b604052919050565b600067ffffffffffffffff8211156117de576117de6116d7565b5060051b60200190565b600082601f8301126117f957600080fd5b813567ffffffffffffffff811115611813576118136116d7565b61184460207fffffffffffffffffffffffffffffffffffffffffffffffffffffffffffffffe0601f84011601611775565b81815284602083860101111561185957600080fd5b816020850160208301376000918101602001919091529392505050565b600082601f83011261188757600080fd5b61189961189483356117c4565b611775565b82358082526020808301929160051b850101858111156118b857600080fd5b602085015b81811015611a615767ffffffffffffffff80823511156118dc57600080fd5b8135870160807fffffffffffffffffffffffffffffffffffffffffffffffffffffffffffffffe0828b0301121561191257600080fd5b61191a611706565b826020830135111561192b57600080fd5b602082013582018a603f82011261194157600080fd5b6020810135611952611894826117c4565b81815260e090910282016040019060208101908d83111561197257600080fd5b6040840193505b82841015611a085760e0848f03121561199157600080fd5b61199961172f565b843581526119aa602086013561163d565b60208501356020820152604085013560408201526119cb606086013561163d565b606085013560608201526080850135608082015260a085013560a082015260c085013560c08201528083525060208201915060e084019350611979565b845250505060408201356020820152611a2360608301611662565b60408201528260808301351115611a3957600080fd5b611a4c8a602060808501358501016117e8565b606082015286525050602093840193016118bd565b509095945050505050565b6000806040808486031215611a8057600080fd5b833567ffffffffffffffff80821115611a9857600080fd5b818601915086601f830112611aac57600080fd5b81356020611abc611894836117c4565b82815260a0928302850182019282820191908b851115611adb57600080fd5b958301955b84871015611b495780878d031215611af85760008081fd5b611b00611752565b8735611b0b8161163d565b8152878501358582015288880135611b228161163d565b818a0152606088810135908201526080808901359082015283529586019591830191611ae0565b5097505087013593505080831115611b6057600080fd5b5050611b6e85828601611876565b9150509250929050565b604080825283519082018190526000906020906060840190828701845b82811015611bb157815184529284019290840190600101611b95565b50505092019290925292915050565b7f4e487b7100000000000000000000000000000000000000000000000000000000600052603260045260246000fd5b6000825160005b81811015611c105760208186018101518583015201611bf6565b81811115611c1f576000828501525b509190910192915050565b600060208284031215611c3c57600080fd5b5051919050565b600060208284031215611c5557600080fd5b8151611c608161163d565b9392505050565b600060208284031215611c7957600080fd5b81518015158114611c6057600080fdfea2646970667358221220cbb69f9d516023b7e6d4302e2abce9fdb2ad10441b22770bc9bf854a8b12461e64736f6c634300080d0033",
  "linkReferences": {},
  "deployedLinkReferences": {}
}