{
  "_format": "hh-sol-artifact-1",
  "contractName": "UniversalTokenRouter",
  "sourceName": "contracts/UniversalTokenRouter.sol",
  "abi": [
    {
      "inputs": [
        {
          "internalType": "address",
          "name": "sender",
          "type": "address"
        },
        {
          "internalType": "uint256",
          "name": "eip",
          "type": "uint256"
        },
        {
          "internalType": "address",
          "name": "token",
          "type": "address"
        },
        {
          "internalType": "uint256",
          "name": "id",
          "type": "uint256"
        },
        {
          "internalType": "uint256",
          "name": "amount",
          "type": "uint256"
        }
      ],
      "name": "discard",
      "outputs": [],
      "stateMutability": "nonpayable",
      "type": "function"
    },
    {
      "inputs": [
        {
          "components": [
            {
              "internalType": "address",
              "name": "recipient",
              "type": "address"
            },
            {
              "internalType": "uint256",
              "name": "eip",
              "type": "uint256"
            },
            {
              "internalType": "address",
              "name": "token",
              "type": "address"
            },
            {
              "internalType": "uint256",
              "name": "id",
              "type": "uint256"
            },
            {
              "internalType": "uint256",
              "name": "amountOutMin",
              "type": "uint256"
            }
          ],
          "internalType": "struct Output[]",
          "name": "outputs",
          "type": "tuple[]"
        },
        {
          "components": [
            {
              "components": [
                {
                  "internalType": "uint256",
                  "name": "mode",
                  "type": "uint256"
                },
                {
                  "internalType": "address",
                  "name": "recipient",
                  "type": "address"
                },
                {
                  "internalType": "uint256",
                  "name": "eip",
                  "type": "uint256"
                },
                {
                  "internalType": "address",
                  "name": "token",
                  "type": "address"
                },
                {
                  "internalType": "uint256",
                  "name": "id",
                  "type": "uint256"
                },
                {
                  "internalType": "uint256",
                  "name": "amountIn",
                  "type": "uint256"
                }
              ],
              "internalType": "struct Input[]",
              "name": "inputs",
              "type": "tuple[]"
            },
            {
              "internalType": "address",
              "name": "code",
              "type": "address"
            },
            {
              "internalType": "bytes",
              "name": "data",
              "type": "bytes"
            }
          ],
          "internalType": "struct Action[]",
          "name": "actions",
          "type": "tuple[]"
        }
      ],
      "name": "exec",
      "outputs": [
        {
          "internalType": "uint256[]",
          "name": "amountOuts",
          "type": "uint256[]"
        },
        {
          "internalType": "uint256",
          "name": "gasLeft",
          "type": "uint256"
        }
      ],
      "stateMutability": "payable",
      "type": "function"
    },
    {
      "inputs": [
        {
          "internalType": "address",
          "name": "sender",
          "type": "address"
        },
        {
          "internalType": "address",
          "name": "recipient",
          "type": "address"
        },
        {
          "internalType": "uint256",
          "name": "eip",
          "type": "uint256"
        },
        {
          "internalType": "address",
          "name": "token",
          "type": "address"
        },
        {
          "internalType": "uint256",
          "name": "id",
          "type": "uint256"
        },
        {
          "internalType": "uint256",
          "name": "amount",
          "type": "uint256"
        }
      ],
      "name": "pay",
      "outputs": [],
      "stateMutability": "nonpayable",
      "type": "function"
    },
    {
      "stateMutability": "payable",
      "type": "receive"
    }
  ],
  "bytecode": "0x608060405234801561001057600080fd5b506117c7806100206000396000f3fe6080604052600436106100385760003560e01c806303886f3c146100445780631d2ec9ae14610066578063f02c9eab1461008657600080fd5b3661003f57005b600080fd5b34801561005057600080fd5b5061006461005f36600461114e565b6100b0565b005b34801561007257600080fd5b506100646100813660046111b3565b6100d4565b610099610094366004611587565b6100e9565b6040516100a7929190611693565b60405180910390f35b6100be86868686868661066d565b6100cc86868686868661079b565b505050505050565b6100e285338686868661066d565b5050505050565b6060600080845167ffffffffffffffff81111561010857610108611205565b604051908082528060200260200182016040528015610131578160200160208202803683370190505b5090506000855167ffffffffffffffff81111561015057610150611205565b604051908082528060200260200182016040528015610179578160200160208202803683370190505b50905060005b865181101561027f57600087828151811061019c5761019c6116db565b6020026020010151905060006101b182610a38565b9050808484815181106101c6576101c66116db565b6020908102919091010152608082015181018181101561026d576040517f08c379a000000000000000000000000000000000000000000000000000000000815260206004820152602d60248201527f556e6976657273616c546f6b656e526f757465723a204f55545055545f42414c60448201527f414e43455f4f564552464c4f570000000000000000000000000000000000000060648201526084015b60405180910390fd5b6080909201919091525060010161017f565b503360005b865181101561053b5760008782815181106102a1576102a16116db565b60200260200101519050600080600090505b8251518110156103c8576000836000015182815181106102d5576102d56116db565b602090810291909101015180519091508061037f57602082810151604080850151606080870151608088015184517fffffffffffffffffffffffffffffffffffffffff0000000000000000000000008f851b8116828a015296841b871660348201526048810194909452911b9093166068820152607c8082019390935281518082039093018352609c01815281519183019190912060a085015160009182529281905220556103be565b600181036103ae576103a98783602001518460400151856060015186608001518760a0015161079b565b6103be565b600281036103be578160a0015193505b50506001016102b3565b506040820151511561045c57600080836020015173ffffffffffffffffffffffffffffffffffffffff16838560400151604051610405919061170a565b60006040518083038185875af1925050503d8060008114610442576040519150601f19603f3d011682016040523d82523d6000602084013e610447565b606091505b50915091508161045957805160208201fd5b50505b60005b82515181101561052d57600083600001518281518110610481576104816116db565b60200260200101519050600081600001510361052457602081810151604080840151606080860151608087015184517fffffffffffffffffffffffffffffffffffffffff0000000000000000000000008e851b8116828a015296841b871660348201526048810194909452911b9093166068820152607c8082019390935281518082039093018352609c0181528151918301919091206000908152918290528120555b5060010161045f565b505050806001019050610284565b5047801561054d5761054d8282610ce4565b60005b885181101561065c57600089828151811061056d5761056d6116db565b60200260200101519050600061058282610a38565b9050858381518110610596576105966116db565b602002602001015181038784815181106105b2576105b26116db565b6020026020010181815250508160800151811015610652576040517f08c379a000000000000000000000000000000000000000000000000000000000815260206004820152603060248201527f556e6976657273616c546f6b656e526f757465723a20494e535546464943494560448201527f4e545f4f55545055545f414d4f554e54000000000000000000000000000000006064820152608401610264565b5050600101610550565b505a93989397509295505050505050565b6040517fffffffffffffffffffffffffffffffffffffffff000000000000000000000000606088811b8216602084015287811b821660348401526048830187905285901b166068820152607c8101839052600090609c016040516020818303038152906040528051906020012090508160008083815260200190815260200160002054101561077e576040517f08c379a000000000000000000000000000000000000000000000000000000000815260206004820152602a60248201527f556e6976657273616c546f6b656e526f757465723a20494e535546464943494560448201527f4e545f5041594d454e54000000000000000000000000000000000000000000006064820152608401610264565b600090815260208190526040902080549190910390555050505050565b836014036107dc573073ffffffffffffffffffffffffffffffffffffffff8716036107d0576107cb838683610df3565b6100cc565b6107cb83878784610f82565b8361048303610890576040517ff242432a00000000000000000000000000000000000000000000000000000000815273ffffffffffffffffffffffffffffffffffffffff87811660048301528681166024830152604482018490526064820183905260a06084830152600060a483015284169063f242432a9060c4015b600060405180830381600087803b15801561087357600080fd5b505af1158015610887573d6000803e3d6000fd5b505050506100cc565b836102d1036108fc576040517f42842e0e00000000000000000000000000000000000000000000000000000000815273ffffffffffffffffffffffffffffffffffffffff87811660048301528681166024830152604482018490528416906342842e0e90606401610859565b836109b05773ffffffffffffffffffffffffffffffffffffffff861630146109a6576040517f08c379a000000000000000000000000000000000000000000000000000000000815260206004820152602860248201527f556e6976657273616c546f6b656e526f757465723a20494e56414c49445f455460448201527f485f53454e4445520000000000000000000000000000000000000000000000006064820152608401610264565b6107cb8582610ce4565b6040517f08c379a000000000000000000000000000000000000000000000000000000000815260206004820152602160248201527f556e6976657273616c546f6b656e526f757465723a20494e56414c49445f454960448201527f50000000000000000000000000000000000000000000000000000000000000006064820152608401610264565b60208101516000906014819003610ae857604083810151845191517f70a0823100000000000000000000000000000000000000000000000000000000815273ffffffffffffffffffffffffffffffffffffffff92831660048201529116906370a08231906024015b602060405180830381865afa158015610abd573d6000803e3d6000fd5b505050506040513d601f19601f82011682018060405250810190610ae19190611739565b9392505050565b8061048303610b56576040838101518451606086015192517efdd58e00000000000000000000000000000000000000000000000000000000815273ffffffffffffffffffffffffffffffffffffffff91821660048201526024810193909352169062fdd58e90604401610aa0565b806102d103610cc25760608301517f0549972b314bb4225e5b334d0650d563c4e907124dcce9f2eae8c8b2d3d9d30d01610be557604083810151845191517f70a0823100000000000000000000000000000000000000000000000000000000815273ffffffffffffffffffffffffffffffffffffffff92831660048201529116906370a0823190602401610aa0565b826040015173ffffffffffffffffffffffffffffffffffffffff16636352211e84606001516040518263ffffffff1660e01b8152600401610c2891815260200190565b602060405180830381865afa925050508015610c7f575060408051601f3d9081017fffffffffffffffffffffffffffffffffffffffffffffffffffffffffffffffe0168201909252610c7c91810190611752565b60015b610c8c5750600092915050565b835173ffffffffffffffffffffffffffffffffffffffff828116911614610cb4576000610cb7565b60015b60ff16949350505050565b806109b05750505173ffffffffffffffffffffffffffffffffffffffff163190565b6040805160008082526020820190925273ffffffffffffffffffffffffffffffffffffffff8416908390604051610d1b919061170a565b60006040518083038185875af1925050503d8060008114610d58576040519150601f19603f3d011682016040523d82523d6000602084013e610d5d565b606091505b5050905080610dee576040517f08c379a000000000000000000000000000000000000000000000000000000000815260206004820152603460248201527f5472616e7366657248656c7065723a3a736166655472616e736665724554483a60448201527f20455448207472616e73666572206661696c65640000000000000000000000006064820152608401610264565b505050565b6040805173ffffffffffffffffffffffffffffffffffffffff8481166024830152604480830185905283518084039091018152606490920183526020820180517bffffffffffffffffffffffffffffffffffffffffffffffffffffffff167fa9059cbb000000000000000000000000000000000000000000000000000000001790529151600092839290871691610e8a919061170a565b6000604051808303816000865af19150503d8060008114610ec7576040519150601f19603f3d011682016040523d82523d6000602084013e610ecc565b606091505b5091509150818015610ef6575080511580610ef6575080806020019051810190610ef6919061176f565b6100e2576040517f08c379a000000000000000000000000000000000000000000000000000000000815260206004820152602d60248201527f5472616e7366657248656c7065723a3a736166655472616e736665723a20747260448201527f616e73666572206661696c6564000000000000000000000000000000000000006064820152608401610264565b6040805173ffffffffffffffffffffffffffffffffffffffff85811660248301528481166044830152606480830185905283518084039091018152608490920183526020820180517bffffffffffffffffffffffffffffffffffffffffffffffffffffffff167f23b872dd000000000000000000000000000000000000000000000000000000001790529151600092839290881691611021919061170a565b6000604051808303816000865af19150503d806000811461105e576040519150601f19603f3d011682016040523d82523d6000602084013e611063565b606091505b509150915081801561108d57508051158061108d57508080602001905181019061108d919061176f565b6100cc576040517f08c379a000000000000000000000000000000000000000000000000000000000815260206004820152603160248201527f5472616e7366657248656c7065723a3a7472616e7366657246726f6d3a20747260448201527f616e7366657246726f6d206661696c65640000000000000000000000000000006064820152608401610264565b73ffffffffffffffffffffffffffffffffffffffff8116811461113b57600080fd5b50565b803561114981611119565b919050565b60008060008060008060c0878903121561116757600080fd5b863561117281611119565b9550602087013561118281611119565b945060408701359350606087013561119981611119565b9598949750929560808101359460a0909101359350915050565b600080600080600060a086880312156111cb57600080fd5b85356111d681611119565b94506020860135935060408601356111ed81611119565b94979396509394606081013594506080013592915050565b7f4e487b7100000000000000000000000000000000000000000000000000000000600052604160045260246000fd5b6040516060810167ffffffffffffffff8111828210171561125757611257611205565b60405290565b60405160c0810167ffffffffffffffff8111828210171561125757611257611205565b60405160a0810167ffffffffffffffff8111828210171561125757611257611205565b604051601f82017fffffffffffffffffffffffffffffffffffffffffffffffffffffffffffffffe016810167ffffffffffffffff811182821017156112ea576112ea611205565b604052919050565b600067ffffffffffffffff82111561130c5761130c611205565b5060051b60200190565b600082601f83011261132757600080fd5b813567ffffffffffffffff81111561134157611341611205565b61137260207fffffffffffffffffffffffffffffffffffffffffffffffffffffffffffffffe0601f840116016112a3565b81815284602083860101111561138757600080fd5b816020850160208301376000918101602001919091529392505050565b600082601f8301126113b557600080fd5b6113c76113c283356112f2565b6112a3565b82358082526020808301929160051b850101858111156113e657600080fd5b602085015b8181101561157c5767ffffffffffffffff808235111561140a57600080fd5b8135870160607fffffffffffffffffffffffffffffffffffffffffffffffffffffffffffffffe0828b0301121561144057600080fd5b611448611234565b826020830135111561145957600080fd5b602082013582018a603f82011261146f57600080fd5b60208101356114806113c2826112f2565b81815260c090910282016040019060208101908d8311156114a057600080fd5b6040840193505b8284101561152c5760c0848f0312156114bf57600080fd5b6114c761125d565b843581526114d86020860135611119565b60208501356020820152604085013560408201526114f96060860135611119565b606085013560608201526080850135608082015260a085013560a08201528083525060208201915060c0840193506114a7565b84525061153e9150506040830161113e565b6020820152826060830135111561155457600080fd5b6115678a60206060850135850101611316565b604082015286525050602093840193016113eb565b509095945050505050565b600080604080848603121561159b57600080fd5b833567ffffffffffffffff808211156115b357600080fd5b818601915086601f8301126115c757600080fd5b813560206115d76113c2836112f2565b82815260a0928302850182019282820191908b8511156115f657600080fd5b958301955b848710156116645780878d0312156116135760008081fd5b61161b611280565b873561162681611119565b815287850135858201528888013561163d81611119565b818a01526060888101359082015260808089013590820152835295860195918301916115fb565b509750508701359350508083111561167b57600080fd5b5050611689858286016113a4565b9150509250929050565b604080825283519082018190526000906020906060840190828701845b828110156116cc578151845292840192908401906001016116b0565b50505092019290925292915050565b7f4e487b7100000000000000000000000000000000000000000000000000000000600052603260045260246000fd5b6000825160005b8181101561172b5760208186018101518583015201611711565b506000920191825250919050565b60006020828403121561174b57600080fd5b5051919050565b60006020828403121561176457600080fd5b8151610ae181611119565b60006020828403121561178157600080fd5b81518015158114610ae157600080fdfea2646970667358221220615693502412515ceb6bb137819cdf1c7ef1ec164ea745c1ea9db42f43eb935664736f6c63430008120033",
  "linkReferences": {},
  "deployedLinkReferences": {}
}