{
  "_format": "hh-sol-artifact-1",
  "contractName": "UniversalTokenRouter",
  "sourceName": "contracts/UniversalTokenRouter.sol",
  "abi": [
    {
      "inputs": [
        {
          "internalType": "bytes",
          "name": "payment",
          "type": "bytes"
        },
        {
          "internalType": "uint256",
          "name": "amount",
          "type": "uint256"
        }
      ],
      "name": "discard",
      "outputs": [],
      "stateMutability": "nonpayable",
      "type": "function"
    },
    {
      "inputs": [
        {
          "components": [
            {
              "internalType": "address",
              "name": "recipient",
              "type": "address"
            },
            {
              "internalType": "uint256",
              "name": "eip",
              "type": "uint256"
            },
            {
              "internalType": "address",
              "name": "token",
              "type": "address"
            },
            {
              "internalType": "uint256",
              "name": "id",
              "type": "uint256"
            },
            {
              "internalType": "uint256",
              "name": "amountOutMin",
              "type": "uint256"
            }
          ],
          "internalType": "struct Output[]",
          "name": "outputs",
          "type": "tuple[]"
        },
        {
          "components": [
            {
              "components": [
                {
                  "internalType": "uint256",
                  "name": "mode",
                  "type": "uint256"
                },
                {
                  "internalType": "address",
                  "name": "recipient",
                  "type": "address"
                },
                {
                  "internalType": "uint256",
                  "name": "eip",
                  "type": "uint256"
                },
                {
                  "internalType": "address",
                  "name": "token",
                  "type": "address"
                },
                {
                  "internalType": "uint256",
                  "name": "id",
                  "type": "uint256"
                },
                {
                  "internalType": "uint256",
                  "name": "amountIn",
                  "type": "uint256"
                }
              ],
              "internalType": "struct Input[]",
              "name": "inputs",
              "type": "tuple[]"
            },
            {
              "internalType": "address",
              "name": "code",
              "type": "address"
            },
            {
              "internalType": "bytes",
              "name": "data",
              "type": "bytes"
            }
          ],
          "internalType": "struct Action[]",
          "name": "actions",
          "type": "tuple[]"
        }
      ],
      "name": "exec",
      "outputs": [
        {
          "internalType": "uint256[]",
          "name": "amountOuts",
          "type": "uint256[]"
        },
        {
          "internalType": "uint256",
          "name": "gasLeft",
          "type": "uint256"
        }
      ],
      "stateMutability": "payable",
      "type": "function"
    },
    {
      "inputs": [
        {
          "internalType": "bytes",
          "name": "payment",
          "type": "bytes"
        },
        {
          "internalType": "uint256",
          "name": "amount",
          "type": "uint256"
        }
      ],
      "name": "pay",
      "outputs": [],
      "stateMutability": "nonpayable",
      "type": "function"
    },
    {
      "inputs": [
        {
          "internalType": "bytes4",
          "name": "interfaceId",
          "type": "bytes4"
        }
      ],
      "name": "supportsInterface",
      "outputs": [
        {
          "internalType": "bool",
          "name": "",
          "type": "bool"
        }
      ],
      "stateMutability": "view",
      "type": "function"
    },
    {
      "stateMutability": "payable",
      "type": "receive"
    }
  ],
  "bytecode": "0x608060405234801561000f575f80fd5b506116638061001d5f395ff3fe608060405260043610610041575f3560e01c806301ffc9a71461004c578063715ef7f914610080578063c175dd37146100a1578063f02c9eab146100c0575f80fd5b3661004857005b5f80fd5b348015610057575f80fd5b5061006b610066366004610fb4565b6100e1565b60405190151581526020015b60405180910390f35b34801561008b575f80fd5b5061009f61009a366004611168565b610179565b005b3480156100ac575f80fd5b5061009f6100bb366004611168565b6101bd565b6100d36100ce3660046113da565b610282565b6040516100779291906114df565b5f7fffffffff0000000000000000000000000000000000000000000000000000000082167f4007b46500000000000000000000000000000000000000000000000000000000148061017357507f01ffc9a7000000000000000000000000000000000000000000000000000000007fffffffff000000000000000000000000000000000000000000000000000000008316145b92915050565b61018382826101bd565b5f805f805f8680602001905181019061019c9190611526565b945094509450945094506101b485858585858b6108ad565b50505050505050565b81516020808401919091205f8181529182905260409091205482111561026a576040517f08c379a000000000000000000000000000000000000000000000000000000000815260206004820152602a60248201527f556e6976657273616c546f6b656e526f757465723a20494e535546464943494560448201527f4e545f5041594d454e540000000000000000000000000000000000000000000060648201526084015b60405180910390fd5b5f908152602081905260409020805491909103905550565b60605f80845167ffffffffffffffff8111156102a0576102a0610ff3565b6040519080825280602002602001820160405280156102c9578160200160208202803683370190505b5090505f855167ffffffffffffffff8111156102e7576102e7610ff3565b604051908082528060200260200182016040528015610310578160200160208202803683370190505b5090505f5b865181101561040e575f87828151811061033157610331611583565b602002602001015190505f61034582610a70565b90508084848151811061035a5761035a611583565b602090810291909101015260808201518101818110156103fc576040517f08c379a000000000000000000000000000000000000000000000000000000000815260206004820152602d60248201527f556e6976657273616c546f6b656e526f757465723a204f55545055545f42414c60448201527f414e43455f4f564552464c4f57000000000000000000000000000000000000006064820152608401610261565b60809092019190915250600101610315565b50335f5b865181101561077e575f87828151811061042e5761042e611583565b602002602001015190505f805f90505b8251518110156105f9575f835f0151828151811061045e5761045e611583565b602002602001015190505f815f0151905060028103610483578160a0015193506105ef565b80610538575f8783602001518460400151856060015186608001516040516020016104ed95949392919073ffffffffffffffffffffffffffffffffffffffff9586168152938516602085015260408401929092529092166060820152608081019190915260a00190565b604080517fffffffffffffffffffffffffffffffffffffffffffffffffffffffffffffffe0818403018152918152815160209283012060a08601515f918252928190522055506105ef565b60018103610567576105628783602001518460400151856060015186608001518760a001516108ad565b6105ef565b6040517f08c379a000000000000000000000000000000000000000000000000000000000815260206004820152602260248201527f556e6976657273616c546f6b656e526f757465723a20494e56414c49445f4d4f60448201527f44450000000000000000000000000000000000000000000000000000000000006064820152608401610261565b505060010161043e565b5060408201515115610689575f80836020015173ffffffffffffffffffffffffffffffffffffffff1683856040015160405161063591906115b0565b5f6040518083038185875af1925050503d805f811461066f576040519150601f19603f3d011682016040523d82523d5f602084013e610674565b606091505b50915091508161068657805160208201fd5b50505b5f5b825151811015610770575f835f015182815181106106ab576106ab611583565b602002602001015190505f815f015103610767575f86826020015183604001518460600151856080015160405160200161072495949392919073ffffffffffffffffffffffffffffffffffffffff9586168152938516602085015260408401929092529092166060820152608081019190915260a00190565b604080517fffffffffffffffffffffffffffffffffffffffffffffffffffffffffffffffe081840301815291815281516020928301205f90815291829052812055505b5060010161068b565b505050806001019050610412565b50478015610790576107908282610d17565b5f5b885181101561089c575f8982815181106107ae576107ae611583565b602002602001015190505f6107c282610a70565b90508583815181106107d6576107d6611583565b602002602001015181038784815181106107f2576107f2611583565b6020026020010181815250508160800151811015610892576040517f08c379a000000000000000000000000000000000000000000000000000000000815260206004820152603060248201527f556e6976657273616c546f6b656e526f757465723a20494e535546464943494560448201527f4e545f4f55545055545f414d4f554e54000000000000000000000000000000006064820152608401610261565b5050600101610792565b505a93989397509295505050505050565b836014036108c6576108c183878784610e22565b610a68565b8361048303610974576040517ff242432a00000000000000000000000000000000000000000000000000000000815273ffffffffffffffffffffffffffffffffffffffff87811660048301528681166024830152604482018490526064820183905260a060848301525f60a483015284169063f242432a9060c4015b5f604051808303815f87803b158015610959575f80fd5b505af115801561096b573d5f803e3d5ffd5b50505050610a68565b836102d1036109e0576040517f42842e0e00000000000000000000000000000000000000000000000000000000815273ffffffffffffffffffffffffffffffffffffffff87811660048301528681166024830152604482018490528416906342842e0e90606401610942565b6040517f08c379a000000000000000000000000000000000000000000000000000000000815260206004820152602160248201527f556e6976657273616c546f6b656e526f757465723a20494e56414c49445f454960448201527f50000000000000000000000000000000000000000000000000000000000000006064820152608401610261565b505050505050565b60208101515f906014819003610b1d57604083810151845191517f70a0823100000000000000000000000000000000000000000000000000000000815273ffffffffffffffffffffffffffffffffffffffff92831660048201529116906370a08231906024015b602060405180830381865afa158015610af2573d5f803e3d5ffd5b505050506040513d601f19601f82011682018060405250810190610b1691906115dc565b9392505050565b8061048303610b8b576040838101518451606086015192517efdd58e00000000000000000000000000000000000000000000000000000000815273ffffffffffffffffffffffffffffffffffffffff91821660048201526024810193909352169062fdd58e90604401610ad7565b806102d103610cf55760608301517f0549972b314bb4225e5b334d0650d563c4e907124dcce9f2eae8c8b2d3d9d30d01610c1a57604083810151845191517f70a0823100000000000000000000000000000000000000000000000000000000815273ffffffffffffffffffffffffffffffffffffffff92831660048201529116906370a0823190602401610ad7565b826040015173ffffffffffffffffffffffffffffffffffffffff16636352211e84606001516040518263ffffffff1660e01b8152600401610c5d91815260200190565b602060405180830381865afa925050508015610cb4575060408051601f3d9081017fffffffffffffffffffffffffffffffffffffffffffffffffffffffffffffffe0168201909252610cb1918101906115f3565b60015b610cc057505f92915050565b835173ffffffffffffffffffffffffffffffffffffffff828116911614610ce7575f610cea565b60015b60ff16949350505050565b806109e05750505173ffffffffffffffffffffffffffffffffffffffff163190565b604080515f8082526020820190925273ffffffffffffffffffffffffffffffffffffffff8416908390604051610d4d91906115b0565b5f6040518083038185875af1925050503d805f8114610d87576040519150601f19603f3d011682016040523d82523d5f602084013e610d8c565b606091505b5050905080610e1d576040517f08c379a000000000000000000000000000000000000000000000000000000000815260206004820152603460248201527f5472616e7366657248656c7065723a3a736166655472616e736665724554483a60448201527f20455448207472616e73666572206661696c65640000000000000000000000006064820152608401610261565b505050565b6040805173ffffffffffffffffffffffffffffffffffffffff85811660248301528481166044830152606480830185905283518084039091018152608490920183526020820180517bffffffffffffffffffffffffffffffffffffffffffffffffffffffff167f23b872dd0000000000000000000000000000000000000000000000000000000017905291515f92839290881691610ec091906115b0565b5f604051808303815f865af19150503d805f8114610ef9576040519150601f19603f3d011682016040523d82523d5f602084013e610efe565b606091505b5091509150818015610f28575080511580610f28575080806020019051810190610f28919061160e565b610a68576040517f08c379a000000000000000000000000000000000000000000000000000000000815260206004820152603160248201527f5472616e7366657248656c7065723a3a7472616e7366657246726f6d3a20747260448201527f616e7366657246726f6d206661696c65640000000000000000000000000000006064820152608401610261565b5f60208284031215610fc4575f80fd5b81357fffffffff0000000000000000000000000000000000000000000000000000000081168114610b16575f80fd5b7f4e487b71000000000000000000000000000000000000000000000000000000005f52604160045260245ffd5b6040516060810167ffffffffffffffff8111828210171561104357611043610ff3565b60405290565b60405160c0810167ffffffffffffffff8111828210171561104357611043610ff3565b60405160a0810167ffffffffffffffff8111828210171561104357611043610ff3565b604051601f82017fffffffffffffffffffffffffffffffffffffffffffffffffffffffffffffffe016810167ffffffffffffffff811182821017156110d6576110d6610ff3565b604052919050565b5f82601f8301126110ed575f80fd5b813567ffffffffffffffff81111561110757611107610ff3565b61113860207fffffffffffffffffffffffffffffffffffffffffffffffffffffffffffffffe0601f8401160161108f565b81815284602083860101111561114c575f80fd5b816020850160208301375f918101602001919091529392505050565b5f8060408385031215611179575f80fd5b823567ffffffffffffffff81111561118f575f80fd5b61119b858286016110de565b95602094909401359450505050565b5f67ffffffffffffffff8211156111c3576111c3610ff3565b5060051b60200190565b73ffffffffffffffffffffffffffffffffffffffff811681146111ee575f80fd5b50565b80356111fc816111cd565b919050565b5f82601f830112611210575f80fd5b61122261121d83356111aa565b61108f565b82358082526020808301929160051b85010185811115611240575f80fd5b602085015b818110156113cf5767ffffffffffffffff8082351115611263575f80fd5b8135870160607fffffffffffffffffffffffffffffffffffffffffffffffffffffffffffffffe0828b03011215611298575f80fd5b6112a0611020565b82602083013511156112b0575f80fd5b602082013582018a603f8201126112c5575f80fd5b60208101356112d661121d826111aa565b81815260c090910282016040019060208101908d8311156112f5575f80fd5b6040840193505b828410156113805760c0848f031215611313575f80fd5b61131b611049565b8435815261132c60208601356111cd565b602085013560208201526040850135604082015261134d60608601356111cd565b606085013560608201526080850135608082015260a085013560a08201528083525060208201915060c0840193506112fc565b845250611392915050604083016111f1565b602082015282606083013511156113a7575f80fd5b6113ba8a602060608501358501016110de565b60408201528652505060209384019301611245565b509095945050505050565b5f8060408084860312156113ec575f80fd5b833567ffffffffffffffff80821115611403575f80fd5b818601915086601f830112611416575f80fd5b8135602061142661121d836111aa565b82815260a0928302850182019282820191908b851115611444575f80fd5b958301955b848710156114b15780878d031215611460575f8081fd5b61146861106c565b8735611473816111cd565b815287850135858201528888013561148a816111cd565b818a0152606088810135908201526080808901359082015283529586019591830191611449565b50975050870135935050808311156114c7575f80fd5b50506114d585828601611201565b9150509250929050565b604080825283519082018190525f906020906060840190828701845b82811015611517578151845292840192908401906001016114fb565b50505092019290925292915050565b5f805f805f60a0868803121561153a575f80fd5b8551611545816111cd565b6020870151909550611556816111cd565b60408701516060880151919550935061156e816111cd565b80925050608086015190509295509295909350565b7f4e487b71000000000000000000000000000000000000000000000000000000005f52603260045260245ffd5b5f82515f5b818110156115cf57602081860181015185830152016115b5565b505f920191825250919050565b5f602082840312156115ec575f80fd5b5051919050565b5f60208284031215611603575f80fd5b8151610b16816111cd565b5f6020828403121561161e575f80fd5b81518015158114610b16575f80fdfea26469706673582212204faa33ce5a80b39a0e97537bcf370ea7eb6a6aced3e0f5c8d44adc067b41cdbb64736f6c63430008140033",
  "linkReferences": {},
  "deployedLinkReferences": {}
}