{
  "_format": "hh-sol-artifact-1",
  "contractName": "View",
  "sourceName": "contracts/support/View.sol",
  "abi": [
    {
      "inputs": [
        {
          "internalType": "address",
          "name": "token",
          "type": "address"
        },
        {
          "internalType": "address",
          "name": "feeTo",
          "type": "address"
        },
        {
          "internalType": "uint256",
          "name": "feeRate",
          "type": "uint256"
        }
      ],
      "stateMutability": "nonpayable",
      "type": "constructor"
    },
    {
      "inputs": [],
      "name": "T",
      "type": "error"
    },
    {
      "anonymous": false,
      "inputs": [
        {
          "indexed": true,
          "internalType": "address",
          "name": "payer",
          "type": "address"
        },
        {
          "indexed": true,
          "internalType": "address",
          "name": "recipient",
          "type": "address"
        },
        {
          "indexed": true,
          "internalType": "uint256",
          "name": "sideMax",
          "type": "uint256"
        },
        {
          "indexed": false,
          "internalType": "uint256",
          "name": "sideIn",
          "type": "uint256"
        },
        {
          "indexed": false,
          "internalType": "uint256",
          "name": "sideOut",
          "type": "uint256"
        },
        {
          "indexed": false,
          "internalType": "uint256",
          "name": "maturity",
          "type": "uint256"
        },
        {
          "indexed": false,
          "internalType": "uint256",
          "name": "amountIn",
          "type": "uint256"
        },
        {
          "indexed": false,
          "internalType": "uint256",
          "name": "amountOut",
          "type": "uint256"
        },
        {
          "indexed": false,
          "internalType": "uint256",
          "name": "price",
          "type": "uint256"
        }
      ],
      "name": "Swap",
      "type": "event"
    },
    {
      "inputs": [
        {
          "internalType": "address",
          "name": "TOKEN",
          "type": "address"
        }
      ],
      "name": "compute",
      "outputs": [
        {
          "components": [
            {
              "components": [
                {
                  "internalType": "address",
                  "name": "FETCHER",
                  "type": "address"
                },
                {
                  "internalType": "bytes32",
                  "name": "ORACLE",
                  "type": "bytes32"
                },
                {
                  "internalType": "address",
                  "name": "TOKEN_R",
                  "type": "address"
                },
                {
                  "internalType": "uint256",
                  "name": "K",
                  "type": "uint256"
                },
                {
                  "internalType": "uint256",
                  "name": "MARK",
                  "type": "uint256"
                },
                {
                  "internalType": "uint256",
                  "name": "INTEREST_HL",
                  "type": "uint256"
                },
                {
                  "internalType": "uint256",
                  "name": "PREMIUM_HL",
                  "type": "uint256"
                },
                {
                  "internalType": "uint256",
                  "name": "MATURITY",
                  "type": "uint256"
                },
                {
                  "internalType": "uint256",
                  "name": "MATURITY_VEST",
                  "type": "uint256"
                },
                {
                  "internalType": "uint256",
                  "name": "MATURITY_RATE",
                  "type": "uint256"
                },
                {
                  "internalType": "uint256",
                  "name": "OPEN_RATE",
                  "type": "uint256"
                }
              ],
              "internalType": "struct Config",
              "name": "config",
              "type": "tuple"
            },
            {
              "components": [
                {
                  "internalType": "uint256",
                  "name": "R",
                  "type": "uint256"
                },
                {
                  "internalType": "uint256",
                  "name": "a",
                  "type": "uint256"
                },
                {
                  "internalType": "uint256",
                  "name": "b",
                  "type": "uint256"
                }
              ],
              "internalType": "struct State",
              "name": "state",
              "type": "tuple"
            },
            {
              "internalType": "uint256",
              "name": "sA",
              "type": "uint256"
            },
            {
              "internalType": "uint256",
              "name": "sB",
              "type": "uint256"
            },
            {
              "internalType": "uint256",
              "name": "sC",
              "type": "uint256"
            },
            {
              "internalType": "uint256",
              "name": "rA",
              "type": "uint256"
            },
            {
              "internalType": "uint256",
              "name": "rB",
              "type": "uint256"
            },
            {
              "internalType": "uint256",
              "name": "rC",
              "type": "uint256"
            },
            {
              "internalType": "uint256",
              "name": "twap",
              "type": "uint256"
            },
            {
              "internalType": "uint256",
              "name": "spot",
              "type": "uint256"
            }
          ],
          "internalType": "struct View.StateView",
          "name": "stateView",
          "type": "tuple"
        }
      ],
      "stateMutability": "view",
      "type": "function"
    },
    {
      "inputs": [],
      "name": "ensureStateIntegrity",
      "outputs": [],
      "stateMutability": "view",
      "type": "function"
    },
    {
      "inputs": [
        {
          "internalType": "uint256",
          "name": "ORACLE",
          "type": "uint256"
        }
      ],
      "name": "fetch",
      "outputs": [
        {
          "internalType": "uint256",
          "name": "twap",
          "type": "uint256"
        },
        {
          "internalType": "uint256",
          "name": "spot",
          "type": "uint256"
        }
      ],
      "stateMutability": "view",
      "type": "function"
    },
    {
      "inputs": [],
      "name": "getStates",
      "outputs": [
        {
          "internalType": "uint256",
          "name": "R",
          "type": "uint256"
        },
        {
          "internalType": "uint256",
          "name": "a",
          "type": "uint256"
        },
        {
          "internalType": "uint256",
          "name": "b",
          "type": "uint256"
        },
        {
          "internalType": "uint32",
          "name": "i",
          "type": "uint32"
        },
        {
          "internalType": "uint32",
          "name": "f",
          "type": "uint32"
        }
      ],
      "stateMutability": "view",
      "type": "function"
    },
    {
      "inputs": [
        {
          "components": [
            {
              "internalType": "uint256",
              "name": "R",
              "type": "uint256"
            },
            {
              "internalType": "uint256",
              "name": "a",
              "type": "uint256"
            },
            {
              "internalType": "uint256",
              "name": "b",
              "type": "uint256"
            }
          ],
          "internalType": "struct State",
          "name": "state",
          "type": "tuple"
        },
        {
          "components": [
            {
              "internalType": "address",
              "name": "utr",
              "type": "address"
            },
            {
              "internalType": "address",
              "name": "payer",
              "type": "address"
            },
            {
              "internalType": "address",
              "name": "recipient",
              "type": "address"
            }
          ],
          "internalType": "struct Payment",
          "name": "payment",
          "type": "tuple"
        }
      ],
      "name": "init",
      "outputs": [],
      "stateMutability": "nonpayable",
      "type": "function"
    },
    {
      "inputs": [],
      "name": "loadConfig",
      "outputs": [
        {
          "components": [
            {
              "internalType": "address",
              "name": "FETCHER",
              "type": "address"
            },
            {
              "internalType": "bytes32",
              "name": "ORACLE",
              "type": "bytes32"
            },
            {
              "internalType": "address",
              "name": "TOKEN_R",
              "type": "address"
            },
            {
              "internalType": "uint256",
              "name": "K",
              "type": "uint256"
            },
            {
              "internalType": "uint256",
              "name": "MARK",
              "type": "uint256"
            },
            {
              "internalType": "uint256",
              "name": "INTEREST_HL",
              "type": "uint256"
            },
            {
              "internalType": "uint256",
              "name": "PREMIUM_HL",
              "type": "uint256"
            },
            {
              "internalType": "uint256",
              "name": "MATURITY",
              "type": "uint256"
            },
            {
              "internalType": "uint256",
              "name": "MATURITY_VEST",
              "type": "uint256"
            },
            {
              "internalType": "uint256",
              "name": "MATURITY_RATE",
              "type": "uint256"
            },
            {
              "internalType": "uint256",
              "name": "OPEN_RATE",
              "type": "uint256"
            }
          ],
          "internalType": "struct Config",
          "name": "config",
          "type": "tuple"
        }
      ],
      "stateMutability": "pure",
      "type": "function"
    },
    {
      "inputs": [
        {
          "internalType": "address",
          "name": "",
          "type": "address"
        },
        {
          "internalType": "address",
          "name": "",
          "type": "address"
        },
        {
          "internalType": "uint256[]",
          "name": "",
          "type": "uint256[]"
        },
        {
          "internalType": "uint256[]",
          "name": "",
          "type": "uint256[]"
        },
        {
          "internalType": "bytes",
          "name": "",
          "type": "bytes"
        }
      ],
      "name": "onERC1155BatchReceived",
      "outputs": [
        {
          "internalType": "bytes4",
          "name": "",
          "type": "bytes4"
        }
      ],
      "stateMutability": "nonpayable",
      "type": "function"
    },
    {
      "inputs": [
        {
          "internalType": "address",
          "name": "",
          "type": "address"
        },
        {
          "internalType": "address",
          "name": "",
          "type": "address"
        },
        {
          "internalType": "uint256",
          "name": "",
          "type": "uint256"
        },
        {
          "internalType": "uint256",
          "name": "",
          "type": "uint256"
        },
        {
          "internalType": "bytes",
          "name": "",
          "type": "bytes"
        }
      ],
      "name": "onERC1155Received",
      "outputs": [
        {
          "internalType": "bytes4",
          "name": "",
          "type": "bytes4"
        }
      ],
      "stateMutability": "nonpayable",
      "type": "function"
    },
    {
      "inputs": [
        {
          "internalType": "bytes4",
          "name": "interfaceId",
          "type": "bytes4"
        }
      ],
      "name": "supportsInterface",
      "outputs": [
        {
          "internalType": "bool",
          "name": "",
          "type": "bool"
        }
      ],
      "stateMutability": "view",
      "type": "function"
    },
    {
      "inputs": [
        {
          "components": [
            {
              "internalType": "uint256",
              "name": "sideIn",
              "type": "uint256"
            },
            {
              "internalType": "uint256",
              "name": "sideOut",
              "type": "uint256"
            },
            {
              "internalType": "address",
              "name": "helper",
              "type": "address"
            },
            {
              "internalType": "bytes",
              "name": "payload",
              "type": "bytes"
            }
          ],
          "internalType": "struct Param",
          "name": "param",
          "type": "tuple"
        },
        {
          "components": [
            {
              "internalType": "address",
              "name": "utr",
              "type": "address"
            },
            {
              "internalType": "address",
              "name": "payer",
              "type": "address"
            },
            {
              "internalType": "address",
              "name": "recipient",
              "type": "address"
            }
          ],
          "internalType": "struct Payment",
          "name": "payment",
          "type": "tuple"
        }
      ],
      "name": "swap",
      "outputs": [
        {
          "internalType": "uint256",
          "name": "amountIn",
          "type": "uint256"
        },
        {
          "internalType": "uint256",
          "name": "amountOut",
          "type": "uint256"
        },
        {
          "internalType": "uint256",
          "name": "price",
          "type": "uint256"
        }
      ],
      "stateMutability": "nonpayable",
      "type": "function"
    }
  ],
  "bytecode": "0x60e06040523480156200001157600080fd5b50604051620052b7380380620052b783398101604081905262000034916200006d565b6001600160a01b03928316608052911660a05260c052620000ae565b80516001600160a01b03811681146200006857600080fd5b919050565b6000806000606084860312156200008357600080fd5b6200008e8462000050565b92506200009e6020850162000050565b9150604084015190509250925092565b60805160a05160c0516151706200014760003960008181611d0301528181611d2a01528181611d63015281816131cc015281816131f5015261322501526000611d910152600081816108400152818161090e0152818161096e01528181610ec501528181610f3901528181611037015281816110db015281816111ff015281816112be0152818161140401526135bf01526151706000f3fe608060405234801561001057600080fd5b50600436106100be5760003560e01c8063b4e4738d11610076578063d8ab82741161005b578063d8ab8274146101f4578063eb7e50dd1461022d578063f23a6e611461023557600080fd5b8063b4e4738d1461016b578063bc197c811461018b57600080fd5b806322d65951116100a757806322d6595114610100578063466244b9146101155780637a33e3b01461014357600080fd5b806301ffc9a7146100c3578063054d9b02146100eb575b600080fd5b6100d66100d13660046143ab565b61026d565b60405190151581526020015b60405180910390f35b6100fe6100f936600461452f565b610306565b005b610108610a70565b6040516100e29190614623565b6101286101233660046146c0565b610b3f565b604080519384526020840192909252908201526060016100e2565b610156610151366004614777565b611536565b604080519283526020830191909152016100e2565b61017e610179366004614790565b6116b3565b6040516100e291906147ad565b6101c36101993660046148d1565b7fbc197c810000000000000000000000000000000000000000000000000000000095945050505050565b6040517fffffffff0000000000000000000000000000000000000000000000000000000090911681526020016100e2565b6101fc61185e565b6040805195865260208601949094529284019190915263ffffffff908116606084015216608082015260a0016100e2565b6100fe611954565b6101c361024336600461497f565b7ff23a6e610000000000000000000000000000000000000000000000000000000095945050505050565b60007fffffffff0000000000000000000000000000000000000000000000000000000082167f4e2312e000000000000000000000000000000000000000000000000000000000148061030057507f01ffc9a7000000000000000000000000000000000000000000000000000000007fffffffff000000000000000000000000000000000000000000000000000000008316145b92915050565b60005463ffffffff161561037b576040517f08c379a000000000000000000000000000000000000000000000000000000000815260206004820152600260248201527f414900000000000000000000000000000000000000000000000000000000000060448201526064015b60405180910390fd5b81516020830151604084015182158015906103965750600082115b80156103a25750600081115b610408576040517f08c379a000000000000000000000000000000000000000000000000000000000815260206004820152600260248201527f5a500000000000000000000000000000000000000000000000000000000000006044820152606401610372565b600183901c82111580156104205750600183901c8111155b610486576040517f08c379a000000000000000000000000000000000000000000000000000000000815260206004820152600260248201527f49500000000000000000000000000000000000000000000000000000000000006044820152606401610372565b6000610490610a70565b602086015190915073ffffffffffffffffffffffffffffffffffffffff16156107075760408082015190517f70a0823100000000000000000000000000000000000000000000000000000000815230600482015260009173ffffffffffffffffffffffffffffffffffffffff16906370a0823190602401602060405180830381865afa158015610524573d6000803e3d6000fd5b505050506040513d601f19601f8201168201806040525081019061054891906149e8565b6105529086614a30565b8651602088015160408581015190517f03886f3c00000000000000000000000000000000000000000000000000000000815273ffffffffffffffffffffffffffffffffffffffff92831660048201523060248201526014604482015290821660648201526000608482015260a4810189905292935016906303886f3c9060c401600060405180830381600087803b1580156105ec57600080fd5b505af1158015610600573d6000803e3d6000fd5b50505060408084015190517f70a0823100000000000000000000000000000000000000000000000000000000815230600482015273ffffffffffffffffffffffffffffffffffffffff90911691506370a0823190602401602060405180830381865afa158015610674573d6000803e3d6000fd5b505050506040513d601f19601f8201168201806040525081019061069891906149e8565b811115610701576040517f08c379a000000000000000000000000000000000000000000000000000000000815260206004820152600260248201527f42500000000000000000000000000000000000000000000000000000000000006044820152606401610372565b50610717565b61071781604001513330876119d7565b4263ffffffff81166401000000007bffffffffffffffffffffffffffffffffffffffffffffffffffffffff868116820292909217600090815563fffffffe9093169185160217600155741000000000000000000000000000000000000000003090811791742000000000000000000000000000000000000000008217917430000000000000000000000000000000000000000017906107b7600389614a77565b905060008560e00151426107cb9190614a30565b60408b81015190517f702b9f2d00000000000000000000000000000000000000000000000000000000815273ffffffffffffffffffffffffffffffffffffffff9182166004820152602481018890526044810185905263ffffffff8316606482015260a06084820152600060a48201529192507f0000000000000000000000000000000000000000000000000000000000000000169063702b9f2d9060c401600060405180830381600087803b15801561088457600080fd5b505af1158015610898573d6000803e3d6000fd5b5050505060408a81015190517f702b9f2d00000000000000000000000000000000000000000000000000000000815273ffffffffffffffffffffffffffffffffffffffff9182166004820152602481018690526044810184905263ffffffff8316606482015260a06084820152600060a48201527f00000000000000000000000000000000000000000000000000000000000000009091169063702b9f2d9060c401600060405180830381600087803b15801561095457600080fd5b505af1158015610968573d6000803e3d6000fd5b505050507f000000000000000000000000000000000000000000000000000000000000000073ffffffffffffffffffffffffffffffffffffffff1663702b9f2d8b6040015185600186901b8d6109be9190614a8b565b6040517fffffffff0000000000000000000000000000000000000000000000000000000060e086901b16815273ffffffffffffffffffffffffffffffffffffffff90931660048401526024830191909152604482015263ffffffff8416606482015260a06084820152600060a482015260c401600060405180830381600087803b158015610a4b57600080fd5b505af1158015610a5f573d6000803e3d6000fd5b505050505050505050505050505050565b610afc604051806101600160405280600073ffffffffffffffffffffffffffffffffffffffff16815260200160008019168152602001600073ffffffffffffffffffffffffffffffffffffffff16815260200160008152602001600081526020016000815260200160008152602001600081526020016000815260200160008152602001600081525090565b606060203603803580820391506040519250602081018301604052808352602083018183823750505080806020019051810190610b399190614ab2565b91505090565b6000806000610b4c611954565b600180547fffffffffffffffffffffffffffffffffffffffffffffffffffffffff00000000811663ffffffff90911617811790556000610b8a610a70565b90506000610b988288611b76565b8051602082015160408301518a519298509096509450909150610e4457602086015173ffffffffffffffffffffffffffffffffffffffff1615610e295760408083015190517f70a0823100000000000000000000000000000000000000000000000000000000815230600482015260009173ffffffffffffffffffffffffffffffffffffffff16906370a0823190602401602060405180830381865afa158015610c46573d6000803e3d6000fd5b505050506040513d601f19601f82011682018060405250810190610c6a91906149e8565b610c749087614a30565b8751602089015160408681015190517f03886f3c00000000000000000000000000000000000000000000000000000000815273ffffffffffffffffffffffffffffffffffffffff92831660048201523060248201526014604482015290821660648201526000608482015260a481018a905292935016906303886f3c9060c401600060405180830381600087803b158015610d0e57600080fd5b505af1158015610d22573d6000803e3d6000fd5b50505060408085015190517f70a0823100000000000000000000000000000000000000000000000000000000815230600482015273ffffffffffffffffffffffffffffffffffffffff90911691506370a0823190602401602060405180830381865afa158015610d96573d6000803e3d6000fd5b505050506040513d601f19601f82011682018060405250810190610dba91906149e8565b811115610e23576040517f08c379a000000000000000000000000000000000000000000000000000000000815260206004820152600260248201527f42500000000000000000000000000000000000000000000000000000000000006044820152606401610372565b50611346565b610e3982604001513330886119d7565b336020870152611346565b865160009060a01b3017602088015190915060009073ffffffffffffffffffffffffffffffffffffffff16156111ca5760208801516040517fcb263dc600000000000000000000000000000000000000000000000000000000815273ffffffffffffffffffffffffffffffffffffffff9182166004820152602481018490527f00000000000000000000000000000000000000000000000000000000000000009091169063cb263dc690604401602060405180830381865afa158015610f0e573d6000803e3d6000fd5b505050506040513d601f19601f82011682018060405250810190610f3291906149e8565b90506000877f000000000000000000000000000000000000000000000000000000000000000073ffffffffffffffffffffffffffffffffffffffff1663bd85b039856040518263ffffffff1660e01b8152600401610f9291815260200190565b602060405180830381865afa158015610faf573d6000803e3d6000fd5b505050506040513d601f19601f82011682018060405250810190610fd391906149e8565b610fdd9190614a8b565b895160208b01516040517f03886f3c00000000000000000000000000000000000000000000000000000000815273ffffffffffffffffffffffffffffffffffffffff918216600482015230602482015261048360448201527f0000000000000000000000000000000000000000000000000000000000000000821660648201526084810187905260a481018c905292935016906303886f3c9060c401600060405180830381600087803b15801561109357600080fd5b505af11580156110a7573d6000803e3d6000fd5b50506040517fbd85b039000000000000000000000000000000000000000000000000000000008152600481018690528392507f000000000000000000000000000000000000000000000000000000000000000073ffffffffffffffffffffffffffffffffffffffff16915063bd85b03990602401602060405180830381865afa158015611138573d6000803e3d6000fd5b505050506040513d601f19601f8201168201806040525081019061115c91906149e8565b11156111c4576040517f08c379a000000000000000000000000000000000000000000000000000000000815260206004820152600260248201527f49490000000000000000000000000000000000000000000000000000000000006044820152606401610372565b50611336565b6040517fcb263dc6000000000000000000000000000000000000000000000000000000008152336004820152602481018390527f000000000000000000000000000000000000000000000000000000000000000073ffffffffffffffffffffffffffffffffffffffff169063cb263dc690604401602060405180830381865afa15801561125b573d6000803e3d6000fd5b505050506040513d601f19601f8201168201806040525081019061127f91906149e8565b6040517ff5298aca00000000000000000000000000000000000000000000000000000000815233600482015260248101849052604481018990529091507f000000000000000000000000000000000000000000000000000000000000000073ffffffffffffffffffffffffffffffffffffffff169063f5298aca90606401600060405180830381600087803b15801561131757600080fd5b505af115801561132b573d6000803e3d6000fd5b50503360208b015250505b6113418482886126f7565b955050505b602087015160009061136a57611365836040015188604001518761277f565b611462565b602088015160009060a01b301790508360e001514263ffffffff1661138f9190614a30565b60408981015190517f702b9f2d00000000000000000000000000000000000000000000000000000000815273ffffffffffffffffffffffffffffffffffffffff9182166004820152602481018490526044810189905263ffffffff8316606482015260a06084820152600060a48201529193507f0000000000000000000000000000000000000000000000000000000000000000169063702b9f2d9060c401600060405180830381600087803b15801561144857600080fd5b505af115801561145c573d6000803e3d6000fd5b50505050505b61147488600001518960200151612915565b6040808901516020808b01518c518d830151855191825292810192909252928101859052606081018a90526080810189905260a0810188905273ffffffffffffffffffffffffffffffffffffffff91821692909116907f2ad8739d64c070ab4ae9d9c0743d56550b22c3c8c96e7a6045fac37b5b8e89e39060c00160405180910390a45050600180547fffffffffffffffffffffffffffffffffffffffffffffffffffffffff00000000811663fffffffe909116179055509194909350909150565b600080600083905060008173ffffffffffffffffffffffffffffffffffffffff16633850c7bd6040518163ffffffff1660e01b815260040160e060405180830381865afa15801561158b573d6000803e3d6000fd5b505050506040513d601f19601f820116820180604052508101906115af9190614b75565b505050505050905060006115c78360c088901c61292b565b50905060006115d582612bef565b73ffffffffffffffffffffffffffffffffffffffff16905060208373ffffffffffffffffffffffffffffffffffffffff16901b73ffffffffffffffffffffffffffffffffffffffff169450602081901b95507f800000000000000000000000000000000000000000000000000000000000000087166000036116aa5761167b857fffffffffffffffffffffffffffffffffffffffffffffffffffffffffffffffff614a77565b94506116a7867fffffffffffffffffffffffffffffffffffffffffffffffffffffffffffffffff614a77565b95505b50505050915091565b6116bb6142ac565b60006116c5610a70565b9050600060405180606001604052806116e18460400151612f56565b8152600080547bffffffffffffffffffffffffffffffffffffffffffffffffffffffff640100000000918290048116602080860191909152600154929092041660409093019290925284519185015192935091829161173f91612fe8565b9150915060008061175961175387866130ad565b866130dc565b9150915060008061177361176d89876130ad565b886130dc565b9150915060006117898989600001518787613136565b8a5191975095509091506117a0908a908585613136565b918a52935091506117b1858461336f565b60a08b01526117c0848361336f565b60c08b01526117fb846117d38784614a8b565b6117dd9190614a8b565b895184906117ec908790614a8b565b6117f69190614a8b565b61336f565b60e08b0152875181101561180d578088525b6118188b601061337e565b60408b01526118288b602061337e565b60608b01526118388b603061337e565b60808b015250505050610100860192909252610120850152509082526020820152919050565b60008060008060008061186f610a70565b60408082015190517f70a0823100000000000000000000000000000000000000000000000000000000815230600482015291925073ffffffffffffffffffffffffffffffffffffffff16906370a0823190602401602060405180830381865afa1580156118e0573d6000803e3d6000fd5b505050506040513d601f19601f8201168201806040525081019061190491906149e8565b60005460015491987bffffffffffffffffffffffffffffffffffffffffffffffffffffffff64010000000080840482169a50840416975063ffffffff909116955063fffffffe9091169350915050565b6001805463ffffffff8116911615801561196e5750600081115b6119d4576040517f08c379a000000000000000000000000000000000000000000000000000000000815260206004820152600260248201527f53490000000000000000000000000000000000000000000000000000000000006044820152606401610372565b50565b6040805173ffffffffffffffffffffffffffffffffffffffff85811660248301528481166044830152606480830185905283518084039091018152608490920183526020820180517bffffffffffffffffffffffffffffffffffffffffffffffffffffffff167f23b872dd000000000000000000000000000000000000000000000000000000001790529151600092839290881691611a769190614c3f565b6000604051808303816000865af19150503d8060008114611ab3576040519150601f19603f3d011682016040523d82523d6000602084013e611ab8565b606091505b5091509150818015611ae2575080511580611ae2575080806020019051810190611ae29190614c5b565b611b6e576040517f08c379a000000000000000000000000000000000000000000000000000000000815260206004820152603160248201527f5472616e7366657248656c7065723a3a7472616e7366657246726f6d3a20747260448201527f616e7366657246726f6d206661696c65640000000000000000000000000000006064820152608401610372565b505050505050565b611b9a60405180606001604052806000815260200160008152602001600081525090565b81516020830151808203611c0a576040517f08c379a000000000000000000000000000000000000000000000000000000000815260206004820152600260248201527f53530000000000000000000000000000000000000000000000000000000000006044820152606401610372565b60006040518060600160405280611c248860400151612f56565b8152600080547bffffffffffffffffffffffffffffffffffffffffffffffffffffffff640100000000918290048116602085015260015491909104166040909201919091529091508080611c7a89858888613415565b60408b0152600054929550909350915063ffffffff908116420390811615611dfc57600080611cb38363ffffffff168d60a001516134ed565b905068010000000000000000811115611df9576000611cdc86680100000000000000008461352a565b90506000611cf486680100000000000000008561352a565b905080828789010303935060007f00000000000000000000000000000000000000000000000000000000000000001115611d5b577f00000000000000000000000000000000000000000000000000000000000000008481611d5757611d57614a48565b0493505b8315611df6577f000000000000000000000000000000000000000000000000000000000000000015611dbe57611db68e604001517f00000000000000000000000000000000000000000000000000000000000000008661277f565b885184900389525b600080547fffffffffffffffffffffffffffffffffffffffffffffffffffffffff00000000164263ffffffff16179055909550935084845b50505b50505b5060015463fffffffe908116429091160363ffffffff811615611ef3576000611e2f8263ffffffff168c60c001516134ed565b905068010000000000000000811115611ef1576000838511611e5357848403611e57565b8385035b9050611e6d81680100000000000000008461352a565b8082039114611eef5783851115611e9d57611e8f8185878a600001510361352a565b840193508085039450611eb8565b611eae8186868a600001510361352a565b8501945080840393505b6001805463ffffffff8082168601167fffffffffffffffffffffffffffffffffffffffffffffffffffffffff000000009091161790555b505b505b506000886040015173ffffffffffffffffffffffffffffffffffffffff1663dc0192e8604051806080016040528087815260200188600001518152602001868152602001858152508b606001516040518363ffffffff1660e01b8152600401611f5d929190614c76565b606060405180830381865afa158015611f7a573d6000803e3d6000fd5b505050506040513d601f19601f82011682018060405250810190611f9e9190614ced565b90507bffffffffffffffffffffffffffffffffffffffffffffffffffffffff80168160200151111561202c576040517f08c379a000000000000000000000000000000000000000000000000000000000815260206004820152600260248201527f4f410000000000000000000000000000000000000000000000000000000000006044820152606401610372565b60408101517bffffffffffffffffffffffffffffffffffffffffffffffffffffffff10156120b6576040517f08c379a000000000000000000000000000000000000000000000000000000000815260206004820152600260248201527f4f420000000000000000000000000000000000000000000000000000000000006044820152606401610372565b6000806120c386846130dc565b90925090508861215a578482101580156120dd5750838110155b612145576040517f08c379a00000000000000000000000000000000000000000000000000000000081526004016103729060208082526004908201527f4d493a5200000000000000000000000000000000000000000000000000000000604082015260600190565b865183516121539190614a8b565b8a52612422565b8251875110156121c6576040517f08c379a000000000000000000000000000000000000000000000000000000000815260206004820152600560248201527f4d493a4e520000000000000000000000000000000000000000000000000000006044820152606401610372565b60006121d18a613588565b905060108a036122625784821015612247576040517f08c379a00000000000000000000000000000000000000000000000000000000081526004016103729060208082526004908201527f4d493a4100000000000000000000000000000000000000000000000000000000604082015260600190565b61225b816122558589614a8b565b8861352a565b8b526123b1565b858310156122cc576040517f08c379a000000000000000000000000000000000000000000000000000000000815260206004820152600560248201527f4d493a4e410000000000000000000000000000000000000000000000000000006044820152606401610372565b60208a036122e85761225b816122e28488614a8b565b8761352a565b60308a036123b1578482101561235a576040517f08c379a000000000000000000000000000000000000000000000000000000000815260206004820152600560248201527f4d493a4e420000000000000000000000000000000000000000000000000000006044820152606401610372565b600085878a6000015161236d9190614a8b565b6123779190614a8b565b905060008385876000015161238c9190614a8b565b6123969190614a8b565b90506123ac836123a68385614a8b565b8461352a565b8d5250505b8a5181036103e81115612420576040517f08c379a000000000000000000000000000000000000000000000000000000000815260206004820152600260248201527f4d530000000000000000000000000000000000000000000000000000000000006044820152606401610372565b505b8761243f57825187516124359190614a8b565b60208b0152612695565b6030880361251c5760008486896000015161245a9190614a8b565b6124649190614a8b565b90506000828486600001516124799190614a8b565b6124839190614a8b565b90506103e88110156124f3576040517f08c379a00000000000000000000000000000000000000000000000000000000081526004016103729060208082526004908201527f4d523a4300000000000000000000000000000000000000000000000000000000604082015260600190565b61250f6124ff8b613588565b6125098484614a8b565b84613603565b60208d0152506126959050565b601088036125b8576103e8821015612592576040517f08c379a00000000000000000000000000000000000000000000000000000000081526004016103729060208082526004908201527f4d523a4100000000000000000000000000000000000000000000000000000000604082015260600190565b6125ae61259e89613588565b6125a88785614a8b565b87613603565b60208b0152612650565b60208803612650576103e881101561262e576040517f08c379a00000000000000000000000000000000000000000000000000000000081526004016103729060208082526004908201527f4d523a4200000000000000000000000000000000000000000000000000000000604082015260600190565b61264a61263a89613588565b6126448684614a8b565b86613603565b60208b01525b7001000000000000000000000000000000008c610140015114612695576126928a600001517001000000000000000000000000000000008e6101400151613603565b8a525b505060208101516000805463ffffffff9081166401000000007bffffffffffffffffffffffffffffffffffffffffffffffffffffffff948516810291909117909255604090930151600180549094169216021790555094979650505050505050565b6000428311612707575080612778565b60e0840151428403908110612720576000915050612778565b6000818660e00151039050856101000151811015612752578561010001518185028161274e5761274e614a48565b0493505b61277384876101200151700100000000000000000000000000000000613603565b925050505b9392505050565b6040805173ffffffffffffffffffffffffffffffffffffffff8481166024830152604480830185905283518084039091018152606490920183526020820180517bffffffffffffffffffffffffffffffffffffffffffffffffffffffff167fa9059cbb0000000000000000000000000000000000000000000000000000000017905291516000928392908716916128169190614c3f565b6000604051808303816000865af19150503d8060008114612853576040519150601f19603f3d011682016040523d82523d6000602084013e612858565b606091505b50915091508180156128825750805115806128825750808060200190518101906128829190614c5b565b61290e576040517f08c379a000000000000000000000000000000000000000000000000000000000815260206004820152602d60248201527f5472616e7366657248656c7065723a3a736166655472616e736665723a20747260448201527f616e73666572206661696c6564000000000000000000000000000000000000006064820152608401610372565b5050505050565b60008183116129245781612778565b5090919050565b6000808263ffffffff1660000361299e576040517f08c379a000000000000000000000000000000000000000000000000000000000815260206004820152600260248201527f42500000000000000000000000000000000000000000000000000000000000006044820152606401610372565b60408051600280825260608201835260009260208301908036833701905050905083816000815181106129d3576129d3614d49565b602002602001019063ffffffff16908163ffffffff1681525050600081600181518110612a0257612a02614d49565b602002602001019063ffffffff16908163ffffffff16815250506000808673ffffffffffffffffffffffffffffffffffffffff1663883bdbfd846040518263ffffffff1660e01b8152600401612a589190614d78565b600060405180830381865afa158015612a75573d6000803e3d6000fd5b505050506040513d6000823e601f3d9081017fffffffffffffffffffffffffffffffffffffffffffffffffffffffffffffffe0168201604052612abb9190810190614e26565b91509150600082600081518110612ad457612ad4614d49565b602002602001015183600181518110612aef57612aef614d49565b6020026020010151612b019190614ef2565b9050600082600081518110612b1857612b18614d49565b602002602001015183600181518110612b3357612b33614d49565b6020026020010151612b459190614f5a565b9050612b5763ffffffff891683614f8f565b965060008260060b128015612b7d5750612b7763ffffffff891683615003565b60060b15155b15612b905786612b8c81615025565b9750505b6000612bb673ffffffffffffffffffffffffffffffffffffffff63ffffffff8b16615082565b9050612be077ffffffffffffffffffffffffffffffffffffffff00000000602084901b16826150c2565b96505050505050509250929050565b60008060008360020b12612c06578260020b612c0e565b8260020b6000035b9050620d89e8811115612c4d576040517f2bc80f3a00000000000000000000000000000000000000000000000000000000815260040160405180910390fd5b600081600116600003612c7157700100000000000000000000000000000000612c83565b6ffffcb933bd6fad37aa2d162d1a5940015b70ffffffffffffffffffffffffffffffffff1690506002821615612cb7576ffff97272373d413259a46990580e213a0260801c5b6004821615612cd6576ffff2e50f5f656932ef12357cf3c7fdcc0260801c5b6008821615612cf5576fffe5caca7e10e4e61c3624eaa0941cd00260801c5b6010821615612d14576fffcb9843d60f6159c9db58835c9266440260801c5b6020821615612d33576fff973b41fa98c081472e6896dfb254c00260801c5b6040821615612d52576fff2ea16466c96a3843ec78b326b528610260801c5b6080821615612d71576ffe5dee046a99a2a811c461f1969c30530260801c5b610100821615612d91576ffcbe86c7900a88aedcffc83b479aa3a40260801c5b610200821615612db1576ff987a7253ac413176f2b074cf7815e540260801c5b610400821615612dd1576ff3392b0822b70005940c7a398e4b70f30260801c5b610800821615612df1576fe7159475a2c29b7443b29c7fa6e889d90260801c5b611000821615612e11576fd097f3bdfd2022b8845ad8f792aa58250260801c5b612000821615612e31576fa9f746462d870fdf8a65dc1f90e061e50260801c5b614000821615612e51576f70d869a156d2a1b890bb3df62baf32f70260801c5b618000821615612e71576f31be135f97d08fd981231505542fcfa60260801c5b62010000821615612e92576f09aa508b5b7a84e1c677de54f3e99bc90260801c5b62020000821615612eb2576e5d6af8dedb81196699c329225ee6040260801c5b62040000821615612ed1576d2216e584f5fa1ea926041bedfe980260801c5b62080000821615612eee576b048a170391f7dc42444e8fa20260801c5b60008460020b1315612f2d57807fffffffffffffffffffffffffffffffffffffffffffffffffffffffffffffffff81612f2957612f29614a48565b0490505b640100000000810615612f41576001612f44565b60005b60ff16602082901c0192505050919050565b6040517f70a0823100000000000000000000000000000000000000000000000000000000815230600482015260009073ffffffffffffffffffffffffffffffffffffffff8316906370a08231906024015b602060405180830381865afa158015612fc4573d6000803e3d6000fd5b505050506040513d601f19601f8201168201806040525081019061030091906149e8565b60008073ffffffffffffffffffffffffffffffffffffffff84166130185761300f83611536565b915091506130a6565b6040517f7a33e3b00000000000000000000000000000000000000000000000000000000081526004810184905273ffffffffffffffffffffffffffffffffffffffff851690637a33e3b0906024016040805180830381865afa158015613082573d6000803e3d6000fd5b505050506040513d601f19601f8201168201806040525081019061300f91906150f9565b9250929050565b60006127786130d2700100000000000000000000000000000000848660800151613603565b84606001516136d3565b6000806130f2848460200151856000015161375a565b915061312d613121857fffffffffffffffffffffffffffffffffffffffffffffffffffffffffffffffff614a77565b6040850151855161375a565b90509250929050565b600080548190819081906131509063ffffffff164261511d565b905063ffffffff8116156132655760006131748263ffffffff168a60a001516134ed565b9050600061318c88680100000000000000008461352a565b905060006131a488680100000000000000008561352a565b9050600081836131b48b8d614a30565b6131be9190614a8b565b6131c89190614a8b565b90507f00000000000000000000000000000000000000000000000000000000000000001561321d5761321a7f000000000000000000000000000000000000000000000000000000000000000082614a77565b90505b8015613260577f00000000000000000000000000000000000000000000000000000000000000001561325657613253818c614a8b565b9a505b9198509650879087905b505050505b60015461327c9063fffffffe90811690421661511d565b905063ffffffff8116156133625760006132a08263ffffffff168a60c001516134ed565b9050680100000000000000008111156133605760008688116132cb576132c68888614a8b565b6132d5565b6132d58789614a8b565b90506132eb81680100000000000000008461352a565b6132f59082614a8b565b9050801561335e57868811156133365761331981886133148b8d614a8b565b61352a565b6133239088614a30565b965061332f8189614a8b565b975061335e565b61334581896133148a8d614a8b565b61334f9089614a30565b975061335b8188614a8b565b96505b505b505b5094969395509193505050565b60008183106129245781612778565b6040517fbd85b0390000000000000000000000000000000000000000000000000000000081523060a083901b17600482015260009073ffffffffffffffffffffffffffffffffffffffff84169063bd85b03990602401602060405180830381865afa1580156133f1573d6000803e3d6000fd5b505050506040513d601f19601f8201168201806040525081019061277891906149e8565b6000806000806000806134338a600001518b6020015160001c612fe8565b915091508082111561344157905b60108714806134505750602088145b15613478576134628a829450846130ad565b955061346e868a6130dc565b90955093506134e0565b60208714806134875750601088145b15613499576134628a839450846130ad565b6134a68a839450846130ad565b95506134b2868a6130dc565b90955093508484118815036134e0576134ce8a829450846130ad565b95506134da868a6130dc565b90955093505b5050945094509450949050565b600081600003613507575068010000000000000000610300565b600061351f61351a84604087901b614a77565b6137c3565b600f0b949350505050565b6000613537848484613603565b90506000828061354957613549614a48565b8486091115612778577fffffffffffffffffffffffffffffffffffffffffffffffffffffffffffffffff811061357e57600080fd5b6001019392505050565b6040517fbd85b0390000000000000000000000000000000000000000000000000000000081523060a083901b1760048201526000907f000000000000000000000000000000000000000000000000000000000000000073ffffffffffffffffffffffffffffffffffffffff169063bd85b03990602401612fa7565b600080807fffffffffffffffffffffffffffffffffffffffffffffffffffffffffffffffff8587098587029250828110838203039150508060000361365a576000841161364f57600080fd5b508290049050612778565b80841161366657600080fd5b6000848688096000868103871696879004966002600389028118808a02820302808a02820302808a02820302808a02820302808a02820302808a02909103029181900381900460010186841190950394909402919094039290920491909117919091029150509392505050565b60008082600116116136f6577001000000000000000000000000000000006136f8565b825b9050600182901c91505b8115610300576137248384700100000000000000000000000000000000613603565b9250600182161561374e5761374b8184700100000000000000000000000000000000613603565b90505b600182901c9150613702565b60006137788385700100000000000000000000000000000000613603565b9050600182901c8111156127785760006137a884600287901b700100000000000000000000000000000000613603565b905060006137b7848584613603565b90506127738185614a8b565b60006840000000000000000082600f0b126137dd57600080fd5b7fffffffffffffffffffffffffffffffffffffffffffffffc0000000000000000082600f0b121561381057506000919050565b6f8000000000000000000000000000000060006780000000000000008416600f0b131561384e5770016a09e667f3bcc908b2fb1366ea957d3e0260801c5b60008367400000000000000016600f0b131561387b577001306fe0a31b7152de8d5a46305c85edec0260801c5b60008367200000000000000016600f0b13156138a8577001172b83c7d517adcdf7c8c50eb14a791f0260801c5b60008367100000000000000016600f0b13156138d55770010b5586cf9890f6298b92b71842a983630260801c5b60008367080000000000000016600f0b1315613902577001059b0d31585743ae7c548eb68ca417fd0260801c5b60008367040000000000000016600f0b131561392f57700102c9a3e778060ee6f7caca4f7a29bde80260801c5b60008367020000000000000016600f0b131561395c5770010163da9fb33356d84a66ae336dcdfa3f0260801c5b60008367010000000000000016600f0b131561398957700100b1afa5abcbed6129ab13ec11dc95430260801c5b600083668000000000000016600f0b13156139b55770010058c86da1c09ea1ff19d294cf2f679b0260801c5b600083664000000000000016600f0b13156139e1577001002c605e2e8cec506d21bfc89a23a00f0260801c5b600083662000000000000016600f0b1315613a0d57700100162f3904051fa128bca9c55c31e5df0260801c5b600083661000000000000016600f0b1315613a39577001000b175effdc76ba38e31671ca9397250260801c5b600083660800000000000016600f0b1315613a6557700100058ba01fb9f96d6cacd4b180917c3d0260801c5b600083660400000000000016600f0b1315613a915770010002c5cc37da9491d0985c348c68e7b30260801c5b600083660200000000000016600f0b1315613abd577001000162e525ee054754457d59952920260260801c5b600083660100000000000016600f0b1315613ae95770010000b17255775c040618bf4a4ade83fc0260801c5b6000836580000000000016600f0b1315613b14577001000058b91b5bc9ae2eed81e9b7d4cfab0260801c5b6000836540000000000016600f0b1315613b3f57700100002c5c89d5ec6ca4d7c8acc017b7c90260801c5b6000836520000000000016600f0b1315613b6a5770010000162e43f4f831060e02d839a9d16d0260801c5b6000836510000000000016600f0b1315613b9557700100000b1721bcfc99d9f890ea069117630260801c5b6000836508000000000016600f0b1315613bc05770010000058b90cf1e6d97f9ca14dbcc16280260801c5b6000836504000000000016600f0b1315613beb577001000002c5c863b73f016468f6bac5ca2b0260801c5b6000836502000000000016600f0b1315613c1657700100000162e430e5a18f6119e3c02282a50260801c5b6000836501000000000016600f0b1315613c41577001000000b1721835514b86e6d96efd1bfe0260801c5b60008364800000000016600f0b1315613c6b57700100000058b90c0b48c6be5df846c5b2ef0260801c5b60008364400000000016600f0b1315613c955770010000002c5c8601cc6b9e94213c72737a0260801c5b60008364200000000016600f0b1315613cbf577001000000162e42fff037df38aa2b219f060260801c5b60008364100000000016600f0b1315613ce95770010000000b17217fba9c739aa5819f44f90260801c5b60008364080000000016600f0b1315613d13577001000000058b90bfcdee5acd3c1cedc8230260801c5b60008364040000000016600f0b1315613d3d57700100000002c5c85fe31f35a6a30da1be500260801c5b60008364020000000016600f0b1315613d675770010000000162e42ff0999ce3541b9fffcf0260801c5b60008364010000000016600f0b1315613d9157700100000000b17217f80f4ef5aadda455540260801c5b600083638000000016600f0b1315613dba5770010000000058b90bfbf8479bd5a81b51ad0260801c5b600083634000000016600f0b1315613de3577001000000002c5c85fdf84bd62ae30a74cc0260801c5b600083632000000016600f0b1315613e0c57700100000000162e42fefb2fed257559bdaa0260801c5b600083631000000016600f0b1315613e35577001000000000b17217f7d5a7716bba4a9ae0260801c5b600083630800000016600f0b1315613e5e57700100000000058b90bfbe9ddbac5e109cce0260801c5b600083630400000016600f0b1315613e875770010000000002c5c85fdf4b15de6f17eb0d0260801c5b600083630200000016600f0b1315613eb0577001000000000162e42fefa494f1478fde050260801c5b600083630100000016600f0b1315613ed95770010000000000b17217f7d20cf927c8e94c0260801c5b6000836280000016600f0b1315613f01577001000000000058b90bfbe8f71cb4e4b33d0260801c5b6000836240000016600f0b1315613f2957700100000000002c5c85fdf477b662b269450260801c5b6000836220000016600f0b1315613f515770010000000000162e42fefa3ae53369388c0260801c5b6000836210000016600f0b1315613f7957700100000000000b17217f7d1d351a389d400260801c5b6000836208000016600f0b1315613fa15770010000000000058b90bfbe8e8b2d3d4ede0260801c5b6000836204000016600f0b1315613fc9577001000000000002c5c85fdf4741bea6e77e0260801c5b6000836202000016600f0b1315613ff157700100000000000162e42fefa39fe95583c20260801c5b6000836201000016600f0b1315614019577001000000000000b17217f7d1cfb72b45e10260801c5b60008361800016600f0b131561404057700100000000000058b90bfbe8e7cc35c3f00260801c5b60008361400016600f0b13156140675770010000000000002c5c85fdf473e242ea380260801c5b60008361200016600f0b131561408e577001000000000000162e42fefa39f02b772c0260801c5b60008361100016600f0b13156140b55770010000000000000b17217f7d1cf7d83c1a0260801c5b60008361080016600f0b13156140dc577001000000000000058b90bfbe8e7bdcbe2e0260801c5b60008361040016600f0b131561410357700100000000000002c5c85fdf473dea871f0260801c5b60008361020016600f0b131561412a5770010000000000000162e42fefa39ef44d910260801c5b60008361010016600f0b131561415157700100000000000000b17217f7d1cf79e9490260801c5b600083608016600f0b13156141775770010000000000000058b90bfbe8e7bce5440260801c5b600083604016600f0b131561419d577001000000000000002c5c85fdf473de6eca0260801c5b600083602016600f0b13156141c357700100000000000000162e42fefa39ef366f0260801c5b600083601016600f0b13156141e9577001000000000000000b17217f7d1cf79afa0260801c5b600083600816600f0b131561420f57700100000000000000058b90bfbe8e7bcd6d0260801c5b600083600416600f0b13156142355770010000000000000002c5c85fdf473de6b20260801c5b600083600216600f0b131561425b577001000000000000000162e42fefa39ef3580260801c5b600083600116600f0b13156142815770010000000000000000b17217f7d1cf79ab0260801c5b600f83810b60401d603f03900b1c6f7fffffffffffffffffffffffffffffff81111561030057600080fd5b604051806101400160405280614344604051806101600160405280600073ffffffffffffffffffffffffffffffffffffffff16815260200160008019168152602001600073ffffffffffffffffffffffffffffffffffffffff16815260200160008152602001600081526020016000815260200160008152602001600081526020016000815260200160008152602001600081525090565b815260200161436d60405180606001604052806000815260200160008152602001600081525090565b815260200160008152602001600081526020016000815260200160008152602001600081526020016000815260200160008152602001600081525090565b6000602082840312156143bd57600080fd5b81357fffffffff000000000000000000000000000000000000000000000000000000008116811461277857600080fd5b7f4e487b7100000000000000000000000000000000000000000000000000000000600052604160045260246000fd5b6040516060810167ffffffffffffffff8111828210171561443f5761443f6143ed565b60405290565b604051610160810167ffffffffffffffff8111828210171561443f5761443f6143ed565b604051601f82017fffffffffffffffffffffffffffffffffffffffffffffffffffffffffffffffe016810167ffffffffffffffff811182821017156144b0576144b06143ed565b604052919050565b73ffffffffffffffffffffffffffffffffffffffff811681146119d457600080fd5b6000606082840312156144ec57600080fd5b6144f461441c565b90508135614501816144b8565b81526020820135614511816144b8565b60208201526040820135614524816144b8565b604082015292915050565b60008082840360c081121561454357600080fd5b606081121561455157600080fd5b5061455a61441c565b8335815260208401356020820152604084013560408201528092505061312d84606085016144da565b805173ffffffffffffffffffffffffffffffffffffffff1682526020810151602083015260408101516145ce604084018273ffffffffffffffffffffffffffffffffffffffff169052565b50606081810151908301526080808201519083015260a0808201519083015260c0808201519083015260e080820151908301526101008082015190830152610120808201519083015261014090810151910152565b61016081016103008284614583565b600082601f83011261464357600080fd5b813567ffffffffffffffff81111561465d5761465d6143ed565b61468e60207fffffffffffffffffffffffffffffffffffffffffffffffffffffffffffffffe0601f84011601614469565b8181528460208386010111156146a357600080fd5b816020850160208301376000918101602001919091529392505050565b600080608083850312156146d357600080fd5b823567ffffffffffffffff808211156146eb57600080fd5b90840190608082870312156146ff57600080fd5b60405160808101818110838211171561471a5761471a6143ed565b80604052508235815260208301356020820152604083013561473b816144b8565b604082015260608301358281111561475257600080fd5b61475e88828601614632565b60608301525080945050505061312d84602085016144da565b60006020828403121561478957600080fd5b5035919050565b6000602082840312156147a257600080fd5b8135612778816144b8565b60006102c0820190506147c1828451614583565b6020838101518051610160850152908101516101808401526040908101516101a08401528301516101c083015260608301516101e0830152608083015161020083015260a083015161022083015260c083015161024083015260e0830151610260830152610100830151610280830152610120909201516102a09091015290565b600067ffffffffffffffff82111561485c5761485c6143ed565b5060051b60200190565b600082601f83011261487757600080fd5b8135602061488c61488783614842565b614469565b82815260059290921b840181019181810190868411156148ab57600080fd5b8286015b848110156148c657803583529183019183016148af565b509695505050505050565b600080600080600060a086880312156148e957600080fd5b85356148f4816144b8565b94506020860135614904816144b8565b9350604086013567ffffffffffffffff8082111561492157600080fd5b61492d89838a01614866565b9450606088013591508082111561494357600080fd5b61494f89838a01614866565b9350608088013591508082111561496557600080fd5b5061497288828901614632565b9150509295509295909350565b600080600080600060a0868803121561499757600080fd5b85356149a2816144b8565b945060208601356149b2816144b8565b93506040860135925060608601359150608086013567ffffffffffffffff8111156149dc57600080fd5b61497288828901614632565b6000602082840312156149fa57600080fd5b5051919050565b7f4e487b7100000000000000000000000000000000000000000000000000000000600052601160045260246000fd5b60008219821115614a4357614a43614a01565b500190565b7f4e487b7100000000000000000000000000000000000000000000000000000000600052601260045260246000fd5b600082614a8657614a86614a48565b500490565b600082821015614a9d57614a9d614a01565b500390565b8051614aad816144b8565b919050565b60006101608284031215614ac557600080fd5b614acd614445565b614ad683614aa2565b815260208301516020820152614aee60408401614aa2565b6040820152606083015160608201526080830151608082015260a083015160a082015260c083015160c082015260e083015160e08201526101008084015181830152506101208084015181830152506101408084015181830152508091505092915050565b805161ffff81168114614aad57600080fd5b80518015158114614aad57600080fd5b600080600080600080600060e0888a031215614b9057600080fd5b8751614b9b816144b8565b8097505060208801518060020b8114614bb357600080fd5b9550614bc160408901614b53565b9450614bcf60608901614b53565b9350614bdd60808901614b53565b925060a088015160ff81168114614bf357600080fd5b9150614c0160c08901614b65565b905092959891949750929550565b60005b83811015614c2a578181015183820152602001614c12565b83811115614c39576000848401525b50505050565b60008251614c51818460208701614c0f565b9190910192915050565b600060208284031215614c6d57600080fd5b61277882614b65565b8251815260208301516020820152604083015160408201526060830151606082015260a06080820152600082518060a0840152614cba8160c0850160208701614c0f565b601f017fffffffffffffffffffffffffffffffffffffffffffffffffffffffffffffffe0169190910160c0019392505050565b600060608284031215614cff57600080fd5b6040516060810181811067ffffffffffffffff82111715614d2257614d226143ed565b80604052508251815260208301516020820152604083015160408201528091505092915050565b7f4e487b7100000000000000000000000000000000000000000000000000000000600052603260045260246000fd5b6020808252825182820181905260009190848201906040850190845b81811015614db657835163ffffffff1683529284019291840191600101614d94565b50909695505050505050565b600082601f830112614dd357600080fd5b81516020614de361488783614842565b82815260059290921b84018101918181019086841115614e0257600080fd5b8286015b848110156148c6578051614e19816144b8565b8352918301918301614e06565b60008060408385031215614e3957600080fd5b825167ffffffffffffffff80821115614e5157600080fd5b818501915085601f830112614e6557600080fd5b81516020614e7561488783614842565b82815260059290921b84018101918181019089841115614e9457600080fd5b948201945b83861015614ec25785518060060b8114614eb35760008081fd5b82529482019490820190614e99565b91880151919650909350505080821115614edb57600080fd5b50614ee885828601614dc2565b9150509250929050565b60008160060b8360060b60008112817fffffffffffffffffffffffffffffffffffffffffffffffffff8000000000000001831281151615614f3557614f35614a01565b81667fffffffffffff018313811615614f5057614f50614a01565b5090039392505050565b600073ffffffffffffffffffffffffffffffffffffffff83811690831681811015614f8757614f87614a01565b039392505050565b60008160060b8360060b80614fa657614fa6614a48565b7fffffffffffffffffffffffffffffffffffffffffffffffffffffffffffffffff81147fffffffffffffffffffffffffffffffffffffffffffffffffff8000000000000083141615614ffa57614ffa614a01565b90059392505050565b60008260060b8061501657615016614a48565b808360060b0791505092915050565b60008160020b7fffffffffffffffffffffffffffffffffffffffffffffffffffffffffff800000810361505a5761505a614a01565b7fffffffffffffffffffffffffffffffffffffffffffffffffffffffffffffffff0192915050565b600077ffffffffffffffffffffffffffffffffffffffffffffffff808316818516818304811182151516156150b9576150b9614a01565b02949350505050565b600077ffffffffffffffffffffffffffffffffffffffffffffffff808416806150ed576150ed614a48565b92169190910492915050565b6000806040838503121561510c57600080fd5b505080516020909101519092909150565b600063ffffffff83811690831681811015614f8757614f87614a0156fea2646970667358221220c83fc3173de2bddea98d0060be3baccb23af08d686eb51e39c41efd22e8c71c064736f6c634300080d0033",
  "linkReferences": {},
  "deployedLinkReferences": {}
}