{
    "_format": "hh-sol-artifact-1",
    "contractName": "FetcherV2",
    "sourceName": "contracts/FetcherV2.sol",
    "abi": [
        {
            "anonymous": false,
            "inputs": [
                {
                    "indexed": true,
                    "internalType": "bytes32",
                    "name": "ORACLE",
                    "type": "bytes32"
                },
                {
                    "indexed": false,
                    "internalType": "uint256",
                    "name": "proofBlock",
                    "type": "uint256"
                },
                {
                    "indexed": false,
                    "internalType": "uint256",
                    "name": "dataTime",
                    "type": "uint256"
                },
                {
                    "indexed": false,
                    "internalType": "uint256",
                    "name": "basePriceCumulative",
                    "type": "uint256"
                }
            ],
            "name": "Submit",
            "type": "event"
        },
        {
            "inputs": [
                {
                    "internalType": "uint256",
                    "name": "ORACLE",
                    "type": "uint256"
                }
            ],
            "name": "clear",
            "outputs": [],
            "stateMutability": "nonpayable",
            "type": "function"
        },
        {
            "inputs": [
                {
                    "internalType": "uint256",
                    "name": "ORACLE",
                    "type": "uint256"
                }
            ],
            "name": "ensureStateIntegrity",
            "outputs": [],
            "stateMutability": "view",
            "type": "function"
        },
        {
            "inputs": [
                {
                    "internalType": "uint256",
                    "name": "ORACLE",
                    "type": "uint256"
                }
            ],
            "name": "fetch",
            "outputs": [
                {
                    "internalType": "uint256",
                    "name": "twap",
                    "type": "uint256"
                },
                {
                    "internalType": "uint256",
                    "name": "spot",
                    "type": "uint256"
                }
            ],
            "stateMutability": "view",
            "type": "function"
        },
        {
            "inputs": [
                {
                    "internalType": "uint256",
                    "name": "ORACLE",
                    "type": "uint256"
                },
                {
                    "components": [
                        {
                            "internalType": "bytes",
                            "name": "block",
                            "type": "bytes"
                        },
                        {
                            "internalType": "bytes",
                            "name": "accountProofNodesRlp",
                            "type": "bytes"
                        },
                        {
                            "internalType": "bytes",
                            "name": "reserveAndTimestampProofNodesRlp",
                            "type": "bytes"
                        },
                        {
                            "internalType": "bytes",
                            "name": "priceAccumulatorProofNodesRlp",
                            "type": "bytes"
                        }
                    ],
                    "internalType": "struct FetcherV2.ProofData",
                    "name": "proofData",
                    "type": "tuple"
                }
            ],
            "name": "submit",
            "outputs": [],
            "stateMutability": "nonpayable",
            "type": "function"
        },
        {
            "inputs": [
                {
                    "internalType": "bytes4",
                    "name": "interfaceId",
                    "type": "bytes4"
                }
            ],
            "name": "supportsInterface",
            "outputs": [
                {
                    "internalType": "bool",
                    "name": "",
                    "type": "bool"
                }
            ],
            "stateMutability": "view",
            "type": "function"
        }
    ],
    "bytecode": "0x608060405234801561001057600080fd5b506100216301ffc9a760e01b610026565b6100b5565b6001600160e01b031980821614156100595760405162461bcd60e51b81526004016100509061007e565b60405180910390fd5b6001600160e01b0319166000908152602081905260409020805460ff19166001179055565b6020808252601c908201527f4552433136353a20696e76616c696420696e7465726661636520696400000000604082015260600190565b611e9f80620000c56000396000f3fe608060405234801561001057600080fd5b50600436106100675760003560e01c80637a33e3b0116100505780637a33e3b0146100aa578063c0fe1af8146100cb578063e2c1ba1c146100de57610067565b806301ffc9a71461006c578063209ae6a814610095575b600080fd5b61007f61007a366004611af2565b6100f1565b60405161008c9190611c3a565b60405180910390f35b6100a86100a3366004611b86565b61014f565b005b6100bd6100b8366004611b86565b6101a4565b60405161008c929190611ddc565b6100a86100d9366004611b86565b610396565b6100a86100ec366004611bb6565b6103e0565b60007f61206120000000000000000000000000000000000000000000000000000000007fffffffff00000000000000000000000000000000000000000000000000000000831614806101475750610147826107e0565b90505b919050565b60008181526001602052604090205460ff16156101a1576040517f08c379a000000000000000000000000000000000000000000000000000000000815260040161019890611cea565b60405180910390fd5b50565b600081815260016020526040812054819060c084901c90610100900467ffffffffffffffff164360c186901c637fffffff1682011115610210576040517f08c379a000000000000000000000000000000000000000000000000000000000815260040161019890611d58565b8460ff81901c6000806102238484610817565b60008b81526001602052604090205491935063ffffffff169150690100000000000000000090046fffffffffffffffffffffffffffffffff16818110610295576040517f08c379a000000000000000000000000000000000000000000000000000000000815260040161019890611c7c565b60008a815260026020526040902054601090828403908503816102b457fe5b04901b98506000808673ffffffffffffffffffffffffffffffffffffffff16630902f1ac6040518163ffffffff1660e01b815260040160606040518083038186803b15801561030257600080fd5b505afa158015610316573d6000803e3d6000fd5b505050506040513d601f19601f8201168201806040525081019061033a9190611b32565b506dffffffffffffffffffffffffffff1691506dffffffffffffffffffffffffffff169150856000141561036a57905b6103867001000000000000000000000000000000008284610a6d565b9950505050505050505050915091565b61039f8161014f565b600090815260016020908152604080832080547fffffffffffffff000000000000000000000000000000000000000000000000001690556002909152812055565b816103ea8161014f565b6000818152600160208190526040822080547fffffffffffffffffffffffffffffffffffffffffffffffffffffffffffffff001690911790558061042e8585610b3b565b909250905060c085901c63ffffffff8116430382101561047a576040517f08c379a000000000000000000000000000000000000000000000000000000000815260040161019890611cb3565b637fffffff600182901c1643038211156104c0576040517f08c379a000000000000000000000000000000000000000000000000000000000815260040161019890611c45565b50600085815260016020908152604080832080547fffffffffffffffffffffffffffffffffffffffffffffff0000000000000000ff1661010067ffffffffffffffff871602179055516105a49161059f9161059a918791610543916105289160089101611c31565b60405160208183030381529060405280519060200120610c2d565b61059561059061055660408d018d611dea565b8080601f016020809104026020016040519081016040528093929190818152602001838380828437600092019190915250610c5c92505050565b610c81565b610d69565b610c5c565b6110dc565b60008781526001602052604090205490915060e082901c90690100000000000000000090046fffffffffffffffffffffffffffffffff1681811115610615576040517f08c379a000000000000000000000000000000000000000000000000000000000815260040161019890611d8f565b80821415610667578760001b7fb0e292d4b4fe2ac9a9a5725b633044a008f2f62f8fcaaf711b7abfc4b4b93a7e8560008060405161065593929190611dc6565b60405180910390a250505050506107a8565b506000878152600160208190526040822080547fffffffffffffff00000000000000000000000000000000ffffffffffffffffff1669010000000000000000006fffffffffffffffffffffffffffffffff86160217905560ff89901c919082146106f857600a6040516020016106dd9190611c31565b60405160208183030381529060405280519060200120610721565b600960405160200161070a9190611c31565b604051602081830303815290604052805190602001205b9050600061074e61059f61059a8961073886610c2d565b6105956105908f80606001906105569190611dea565b60008b81526002602052604090819020829055519091508a907fb0e292d4b4fe2ac9a9a5725b633044a008f2f62f8fcaaf711b7abfc4b4b93a7e9061079890899088908690611dc6565b60405180910390a2505050505050505b600090815260016020526040902080547fffffffffffffffffffffffffffffffffffffffffffffffffffffffffffffff001690555050565b7fffffffff000000000000000000000000000000000000000000000000000000001660009081526020819052604090205460ff1690565b60008061082261112a565b9050826001146108af578373ffffffffffffffffffffffffffffffffffffffff16635a3d54936040518163ffffffff1660e01b815260040160206040518083038186803b15801561087257600080fd5b505afa158015610886573d6000803e3d6000fd5b505050506040513d601f19601f820116820180604052508101906108aa9190611b9e565b61092d565b8373ffffffffffffffffffffffffffffffffffffffff16635909c0d56040518163ffffffff1660e01b815260040160206040518083038186803b1580156108f557600080fd5b505afa158015610909573d6000803e3d6000fd5b505050506040513d601f19601f8201168201806040525081019061092d9190611b9e565b915060008060008673ffffffffffffffffffffffffffffffffffffffff16630902f1ac6040518163ffffffff1660e01b815260040160606040518083038186803b15801561097a57600080fd5b505afa15801561098e573d6000803e3d6000fd5b505050506040513d601f19601f820116820180604052508101906109b29190611b32565b9250925092508363ffffffff168163ffffffff1614610a6357808403600060018814610a1757610a126e010000000000000000000000000000866dffffffffffffffffffffffffffff16866dffffffffffffffffffffffffffff16610a6d565b610a51565b610a516e010000000000000000000000000000856dffffffffffffffffffffffffffff16876dffffffffffffffffffffffffffff16610a6d565b90508163ffffffff1681028701965050505b5050509250929050565b600080807fffffffffffffffffffffffffffffffffffffffffffffffffffffffffffffffff85870986860292508281109083900303905080610ac15760008411610ab657600080fd5b508290049050610b34565b808411610acd57600080fd5b6000848688096000868103871696879004966002600389028118808a02820302808a02820302808a02820302808a02820302808a02820302808a02909103029181900381900460010186841190950394909402919094039290920491909117919091029150505b9392505050565b60008080610b86610b4c8580611dea565b8080601f01602080910402602001604051908101604052809392919081815260200183838082843760009201919091525061113492505050565b9350909150508140610bc4576040517f08c379a000000000000000000000000000000000000000000000000000000000815260040161019890611d21565b6060610bf182610bde886040516020016105289190611c01565b61059561059061055660208b018b611dea565b90506060610c0161059083610c5c565b9050610c2081600281518110610c1357fe5b60200260200101516110dc565b94505050505b9250929050565b604080516021808252606082810190935260208201818036833701905050905081602182015261014781611269565b610c64611ad8565b506040805180820190915281518152602082810190820152919050565b6060610c8c82611407565b610c9557600080fd5b6000610ca083611441565b905060608167ffffffffffffffff81118015610cbb57600080fd5b50604051908082528060200260200182016040528015610cf557816020015b610ce2611ad8565b815260200190600190039081610cda5790505b5090506000610d078560200151611499565b60208601510190506000805b84811015610d5e57610d2483611538565b9150604051806040016040528083815260200184815250848281518110610d4757fe5b602090810291909101015291810191600101610d13565b509195945050505050565b60606000806060610d78611ad8565b8551610dc5577f56e81f171bcc55a6ff8345e692c0f86e5b48e01b996cadc001622fb5e363b4218814610daa57600080fd5b50506040805160008152602081019091529250610b34915050565b60005b86518110156110d05780158015610dfa5750610df6878281518110610de957fe5b602002602001015161160d565b8914155b15610e0457600080fd5b8015801590610e2e5750610e2a878281518110610e1d57fe5b6020026020010151611619565b8414155b15610e3857600080fd5b610e54878281518110610e4757fe5b6020026020010151610c81565b9250825160021415610fc35760006060610e89610e8486600081518110610e7757fe5b602002602001015161166e565b6116eb565b90925090506000610e9b888c84611781565b905080880197508151811015610efb5760018a5103841015610ebc57600080fd5b6000805b506040519080825280601f01601f191660200182016040528015610eeb576020820181803683370190505b5098505050505050505050610b34565b8215610f525760018a5103841015610f1257600080fd5b8a51881015610f2357600080610ec0565b85600181518110610f3057fe5b60200260200101519450610f438561166e565b98505050505050505050610b34565b60018a5103841415610f6357600080fd5b610f8086600181518110610f7357fe5b6020026020010151611407565b610fa857610fa186600181518110610f9457fe5b602002602001015161181e565b9650610fbb565b610fb886600181518110610de957fe5b96505b5050506110c8565b8251601114156110c8578751851461109c576000888681518110610fe357fe5b01602001516001969096019560f81c90506010811061100157600080fd5b611020848260ff168151811061101357fe5b6020026020010151611836565b15611052576001885103821461103557600080fd5b50506040805160008152602081019091529450610b349350505050565b611064848260ff1681518110610f7357fe5b6110815761107a848260ff1681518110610f9457fe5b9450611096565b611093848260ff1681518110610de957fe5b94505b506110c8565b600187510381146110ac57600080fd5b6110bc83601081518110610e7757fe5b95505050505050610b34565b600101610dc8565b50505050509392505050565b8051600090158015906110f157508151602110155b6110fa57600080fd5b60008061110684611859565b8151919350915060208210156111225760208290036101000a90045b949350505050565b63ffffffff421690565b60008060006111b6565b7f08c379a00000000000000000000000000000000000000000000000000000000060005260206004528160245280604452816044016000fd5b600080825160001a60808110600181146111965780156111a2576111af565b849350600192506111af565b6001850193506080820392505b5050915091565b83516020850194607b8101906101e0016111cf81611177565b0190506111db81611177565b91508181016111e981611177565b0190506111f581611177565b01905061120181611177565b9150825160088502610100031c965086409350858a20955085841461124b5761124b60147f626c6f636b4861736820213d20726c704861736800000000000000000000000061113e565b84519850805160088302610100031c97505050505050509193909250565b60608082516000141561127d57905061014a565b60008061128b60008661187f565b60f81c905060018114806112a257508060ff166003145b1561134957600185516002020367ffffffffffffffff811180156112c557600080fd5b506040519080825280601f01601f1916602001820160405280156112f0576020820181803683370190505b509250600061130060018761187f565b9050808460008151811061131057fe5b60200101907effffffffffffffffffffffffffffffffffffffffffffffffffffffffffffff1916908160001a905350600192505061139a565b600285516002020367ffffffffffffffff8111801561136757600080fd5b506040519080825280601f01601f191660200182016040528015611392576020820181803683370190505b509250600091505b60ff82165b83518110156113fd576113ba8360ff1682036002018761187f565b8482815181106113c657fe5b60200101907effffffffffffffffffffffffffffffffffffffffffffffffffffffffffffff1916908160001a90535060010161139f565b5091949350505050565b80516000906114185750600061014a565b6020820151805160001a9060c08210156114375760009250505061014a565b5060019392505050565b80516000906114525750600061014a565b6000806114628460200151611499565b602085015185519181019250015b808210156114905761148182611538565b60019093019290910190611470565b50909392505050565b8051600090811a60808110156114b357600091505061014a565b60b88110806114ce575060c081108015906114ce575060f881105b156114dd57600191505061014a565b60c081101561150f577fffffffffffffffffffffffffffffffffffffffffffffffffffffffffffffff4a01905061014a565b7fffffffffffffffffffffffffffffffffffffffffffffffffffffffffffffff0a01905061014a565b80516000908190811a60808110156115535760019150611606565b60b8811015611586577fffffffffffffffffffffffffffffffffffffffffffffffffffffffffffffff8181019150611606565b60c08110156115b35760b78103600185019450806020036101000a85510460018201810193505050611606565b60f88110156115e6577fffffffffffffffffffffffffffffffffffffffffffffffffffffffffffffff4181019150611606565b60f78103600185019450806020036101000a855104600182018101935050505b5092915050565b60208101519051902090565b6000602082600001511015611638576116318261160d565b905061014a565b6116418261160d565b6040516020016116519190611c31565b60405160208183030381529060405280519060200120905061014a565b805160609061167c57600080fd5b60008061168884611859565b9150915060608167ffffffffffffffff811180156116a557600080fd5b506040519080825280601f01601f1916602001820160405280156116d0576020820181803683370190505b509050602081016116e28482856118dc565b50949350505050565b6000606060008351116116fd57600080fd5b600060048460008151811061170e57fe5b60209101015160f81c901c600f169050600081611731575060009250600261176b565b8160011415611746575060009250600161176b565b816002141561175b575060019250600261176b565b8160031415610067575060019250825b836117768683611969565b935093505050915091565b6000805b83518582011080156117975750825181105b15611122578281815181106117a857fe5b602001015160f81c60f81b7effffffffffffffffffffffffffffffffffffffffffffffffffffffffffffff191684868301815181106117e357fe5b01602001517fff000000000000000000000000000000000000000000000000000000000000001614611816579050610b34565b600101611785565b600080600061182c84611859565b9020949350505050565b805160009060011461184a5750600061014a565b50602001515160001a60801490565b600080600061186b8460200151611499565b602085015194519481019594039392505050565b600060028306156118b057601082600285048151811061189b57fe5b016020015160f81c816118aa57fe5b066118d2565b60108260028504815181106118c157fe5b016020015160f81c816118d057fe5b045b60f81b9392505050565b806118e657611964565b5b602081106119245782518252602092830192909101907fffffffffffffffffffffffffffffffffffffffffffffffffffffffffffffffe0016118e7565b8015611964578251825160208390036101000a7fffffffffffffffffffffffffffffffffffffffffffffffffffffffffffffffff01801990921691161782525b505050565b6060600083511161197957600080fd5b82516002028083111561198b57600080fd5b8290038067ffffffffffffffff811180156119a557600080fd5b506040519080825280601f01601f1916602001820160405280156119d0576020820181803683370190505b5091506000835b828501811015611ac55760028106611a535760048660028304815181106119fa57fe5b602001015160f81c60f81b60f81c60ff16901c600f1660f81b848381518110611a1f57fe5b60200101907effffffffffffffffffffffffffffffffffffffffffffffffffffffffffffff1916908160001a905350611ab9565b6000866002830481518110611a6457fe5b602001015160f81c60f81b60f81c60ff16901c600f1660f81b848381518110611a8957fe5b60200101907effffffffffffffffffffffffffffffffffffffffffffffffffffffffffffff1916908160001a9053505b600191820191016119d7565b5082518114611ad057fe5b505092915050565b604051806040016040528060008152602001600081525090565b600060208284031215611b03578081fd5b81357fffffffff0000000000000000000000000000000000000000000000000000000081168114610b34578182fd5b600080600060608486031215611b46578182fd5b8351611b5181611e4d565b6020850151909350611b6281611e4d565b604085015190925063ffffffff81168114611b7b578182fd5b809150509250925092565b600060208284031215611b97578081fd5b5035919050565b600060208284031215611baf578081fd5b5051919050565b60008060408385031215611bc8578182fd5b82359150602083013567ffffffffffffffff811115611be5578182fd5b830160808186031215611bf6578182fd5b809150509250929050565b60609190911b7fffffffffffffffffffffffffffffffffffffffff00000000000000000000000016815260140190565b90815260200190565b901515815260200190565b60208082526009908201527f4e45575f50524f4f460000000000000000000000000000000000000000000000604082015260600190565b60208082526003908201527f4e4f570000000000000000000000000000000000000000000000000000000000604082015260600190565b60208082526009908201527f4f4c445f50524f4f460000000000000000000000000000000000000000000000604082015260600190565b6020808252601a908201527f4665746368657256323a2053544154455f494e54454752495459000000000000604082015260600190565b6020808252600d908201527f626c6f636b68617368203d203000000000000000000000000000000000000000604082015260600190565b60208082526003908201527f4e45570000000000000000000000000000000000000000000000000000000000604082015260600190565b60208082526008908201527f4f4c445f44415441000000000000000000000000000000000000000000000000604082015260600190565b9283526020830191909152604082015260600190565b918252602082015260400190565b60008083357fffffffffffffffffffffffffffffffffffffffffffffffffffffffffffffffe1843603018112611e1e578283fd5b83018035915067ffffffffffffffff821115611e38578283fd5b602001915036819003821315610c2657600080fd5b6dffffffffffffffffffffffffffff811681146101a157600080fdfea26469706673582212205f1e2ed179593825d8e6eaec49e20055cf27b821a67fb07c684f1b93c5902a0e64736f6c634300060c0033",
    "linkReferences": {},
    "deployedLinkReferences": {}
}