{
    "_format": "hh-sol-artifact-1",
    "contractName": "PairDetailsV3",
    "sourceName": "contracts/test/PairDetailsV3.sol",
    "abi": [
        {
            "inputs": [
                {
                    "internalType": "address[]",
                    "name": "pairs",
                    "type": "address[]"
                },
                {
                    "internalType": "uint256",
                    "name": "flags",
                    "type": "uint256"
                }
            ],
            "name": "query",
            "outputs": [
                {
                    "components": [
                        {
                            "internalType": "address",
                            "name": "factory",
                            "type": "address"
                        },
                        {
                            "internalType": "uint256",
                            "name": "fee",
                            "type": "uint256"
                        },
                        {
                            "components": [
                                {
                                    "internalType": "address",
                                    "name": "adr",
                                    "type": "address"
                                },
                                {
                                    "internalType": "string",
                                    "name": "symbol",
                                    "type": "string"
                                },
                                {
                                    "internalType": "string",
                                    "name": "name",
                                    "type": "string"
                                },
                                {
                                    "internalType": "uint256",
                                    "name": "decimals",
                                    "type": "uint256"
                                },
                                {
                                    "internalType": "uint256",
                                    "name": "totalSupply",
                                    "type": "uint256"
                                }
                            ],
                            "internalType": "struct PairDetailsV3.Token",
                            "name": "token0",
                            "type": "tuple"
                        },
                        {
                            "components": [
                                {
                                    "internalType": "address",
                                    "name": "adr",
                                    "type": "address"
                                },
                                {
                                    "internalType": "string",
                                    "name": "symbol",
                                    "type": "string"
                                },
                                {
                                    "internalType": "string",
                                    "name": "name",
                                    "type": "string"
                                },
                                {
                                    "internalType": "uint256",
                                    "name": "decimals",
                                    "type": "uint256"
                                },
                                {
                                    "internalType": "uint256",
                                    "name": "totalSupply",
                                    "type": "uint256"
                                }
                            ],
                            "internalType": "struct PairDetailsV3.Token",
                            "name": "token1",
                            "type": "tuple"
                        }
                    ],
                    "internalType": "struct PairDetailsV3.PairDetail[]",
                    "name": "details",
                    "type": "tuple[]"
                }
            ],
            "stateMutability": "view",
            "type": "function"
        }
    ],
    "bytecode": "0x608060405234801561001057600080fd5b50610ea8806100206000396000f3fe608060405234801561001057600080fd5b506004361061002b5760003560e01c8063de0c9b4914610030575b600080fd5b61004361003e366004610a14565b610059565b6040516100509190610b78565b60405180910390f35b60608267ffffffffffffffff81111561007457610074610c48565b6040519080825280602002602001820160405280156100ad57816020015b61009a61094b565b8152602001906001900390816100925790505b50905060005b838110156109435760008585838181106100cf576100cf610c77565b90506020020160208101906100e49190610ccb565b90507d01000000000000000000000000000000000000000000000000000000000084161561025d578073ffffffffffffffffffffffffffffffffffffffff1663c45a01556040518163ffffffff1660e01b8152600401602060405180830381865afa158015610157573d6000803e3d6000fd5b505050506040513d601f19601f8201168201806040525081019061017b9190610cef565b83838151811061018d5761018d610c77565b60200260200101516000019073ffffffffffffffffffffffffffffffffffffffff16908173ffffffffffffffffffffffffffffffffffffffff16815250508073ffffffffffffffffffffffffffffffffffffffff1663ddca3f436040518163ffffffff1660e01b8152600401602060405180830381865afa158015610216573d6000803e3d6000fd5b505050506040513d601f19601f8201168201806040525081019061023a9190610d0c565b83838151811061024c5761024c610c77565b602002602001015160200181815250505b60008173ffffffffffffffffffffffffffffffffffffffff16630dfe16816040518163ffffffff1660e01b8152600401602060405180830381865afa1580156102aa573d6000803e3d6000fd5b505050506040513d601f19601f820116820180604052508101906102ce9190610cef565b8484815181106102e0576102e0610c77565b6020026020010151604001516000019073ffffffffffffffffffffffffffffffffffffffff16908173ffffffffffffffffffffffffffffffffffffffff16815250905060008273ffffffffffffffffffffffffffffffffffffffff1663d21220a76040518163ffffffff1660e01b8152600401602060405180830381865afa158015610370573d6000803e3d6000fd5b505050506040513d601f19601f820116820180604052508101906103949190610cef565b8585815181106103a6576103a6610c77565b60209081029190910101516060015173ffffffffffffffffffffffffffffffffffffffff9091169081905290506001861615610549578173ffffffffffffffffffffffffffffffffffffffff166395d89b416040518163ffffffff1660e01b8152600401600060405180830381865afa158015610427573d6000803e3d6000fd5b505050506040513d6000823e601f3d9081017fffffffffffffffffffffffffffffffffffffffffffffffffffffffffffffffe016820160405261046d9190810190610d25565b85858151811061047f5761047f610c77565b602002602001015160400151602001819052508073ffffffffffffffffffffffffffffffffffffffff166395d89b416040518163ffffffff1660e01b8152600401600060405180830381865afa1580156104dd573d6000803e3d6000fd5b505050506040513d6000823e601f3d9081017fffffffffffffffffffffffffffffffffffffffffffffffffffffffffffffffe01682016040526105239190810190610d25565b85858151811061053557610535610c77565b602002602001015160600151602001819052505b60108616156106bf578173ffffffffffffffffffffffffffffffffffffffff166306fdde036040518163ffffffff1660e01b8152600401600060405180830381865afa15801561059d573d6000803e3d6000fd5b505050506040513d6000823e601f3d9081017fffffffffffffffffffffffffffffffffffffffffffffffffffffffffffffffe01682016040526105e39190810190610d25565b8585815181106105f5576105f5610c77565b602002602001015160400151604001819052508073ffffffffffffffffffffffffffffffffffffffff166306fdde036040518163ffffffff1660e01b8152600401600060405180830381865afa158015610653573d6000803e3d6000fd5b505050506040513d6000823e601f3d9081017fffffffffffffffffffffffffffffffffffffffffffffffffffffffffffffffe01682016040526106999190810190610d25565b8585815181106106ab576106ab610c77565b602002602001015160600151604001819052505b6101008616156107fa578173ffffffffffffffffffffffffffffffffffffffff1663313ce5676040518163ffffffff1660e01b8152600401602060405180830381865afa158015610714573d6000803e3d6000fd5b505050506040513d601f19601f820116820180604052508101906107389190610df0565b60ff1685858151811061074d5761074d610c77565b60200260200101516040015160600181815250508073ffffffffffffffffffffffffffffffffffffffff1663313ce5676040518163ffffffff1660e01b8152600401602060405180830381865afa1580156107ac573d6000803e3d6000fd5b505050506040513d601f19601f820116820180604052508101906107d09190610df0565b60ff168585815181106107e5576107e5610c77565b60200260200101516060015160600181815250505b61100086161561092f578173ffffffffffffffffffffffffffffffffffffffff166318160ddd6040518163ffffffff1660e01b8152600401602060405180830381865afa15801561084f573d6000803e3d6000fd5b505050506040513d601f19601f820116820180604052508101906108739190610d0c565b85858151811061088557610885610c77565b60200260200101516040015160800181815250508073ffffffffffffffffffffffffffffffffffffffff166318160ddd6040518163ffffffff1660e01b8152600401602060405180830381865afa1580156108e4573d6000803e3d6000fd5b505050506040513d601f19601f820116820180604052508101906109089190610d0c565b85858151811061091a5761091a610c77565b60200260200101516060015160800181815250505b5050508061093c90610e13565b90506100b3565b509392505050565b6040518060800160405280600073ffffffffffffffffffffffffffffffffffffffff168152602001600081526020016109c26040518060a00160405280600073ffffffffffffffffffffffffffffffffffffffff168152602001606081526020016060815260200160008152602001600081525090565b8152602001610a0f6040518060a00160405280600073ffffffffffffffffffffffffffffffffffffffff168152602001606081526020016060815260200160008152602001600081525090565b905290565b600080600060408486031215610a2957600080fd5b833567ffffffffffffffff80821115610a4157600080fd5b818601915086601f830112610a5557600080fd5b813581811115610a6457600080fd5b8760208260051b8501011115610a7957600080fd5b6020928301989097509590910135949350505050565b60005b83811015610aaa578181015183820152602001610a92565b83811115610ab9576000848401525b50505050565b60008151808452610ad7816020860160208601610a8f565b601f017fffffffffffffffffffffffffffffffffffffffffffffffffffffffffffffffe0169290920160200192915050565b73ffffffffffffffffffffffffffffffffffffffff81511682526000602082015160a06020850152610b3e60a0850182610abf565b905060408301518482036040860152610b578282610abf565b91505060608301516060850152608083015160808501528091505092915050565b60006020808301818452808551808352604092508286019150828160051b87010184880160005b83811015610c3a577fffffffffffffffffffffffffffffffffffffffffffffffffffffffffffffffc08984030185528151608073ffffffffffffffffffffffffffffffffffffffff82511685528882015189860152878201518189870152610c0982870182610b09565b91505060608083015192508582038187015250610c268183610b09565b968901969450505090860190600101610b9f565b509098975050505050505050565b7f4e487b7100000000000000000000000000000000000000000000000000000000600052604160045260246000fd5b7f4e487b7100000000000000000000000000000000000000000000000000000000600052603260045260246000fd5b73ffffffffffffffffffffffffffffffffffffffff81168114610cc857600080fd5b50565b600060208284031215610cdd57600080fd5b8135610ce881610ca6565b9392505050565b600060208284031215610d0157600080fd5b8151610ce881610ca6565b600060208284031215610d1e57600080fd5b5051919050565b600060208284031215610d3757600080fd5b815167ffffffffffffffff80821115610d4f57600080fd5b818401915084601f830112610d6357600080fd5b815181811115610d7557610d75610c48565b604051601f82017fffffffffffffffffffffffffffffffffffffffffffffffffffffffffffffffe0908116603f01168101908382118183101715610dbb57610dbb610c48565b81604052828152876020848701011115610dd457600080fd5b610de5836020830160208801610a8f565b979650505050505050565b600060208284031215610e0257600080fd5b815160ff81168114610ce857600080fd5b60007fffffffffffffffffffffffffffffffffffffffffffffffffffffffffffffffff8203610e6b577f4e487b7100000000000000000000000000000000000000000000000000000000600052601160045260246000fd5b506001019056fea2646970667358221220ae23ba5c344cb9ffa482818758ebe8a78e557f1bc746219ac0cfbd723d5e186764736f6c634300080d0033",
    "linkReferences": {},
    "deployedLinkReferences": {}
}