{
    "_format": "hh-sol-artifact-1",
    "contractName": "View",
    "sourceName": "contracts/support/View.sol",
    "abi": [
        {
            "inputs": [
                {
                    "internalType": "address",
                    "name": "token",
                    "type": "address"
                },
                {
                    "internalType": "address",
                    "name": "feeTo",
                    "type": "address"
                },
                {
                    "internalType": "uint256",
                    "name": "feeRate",
                    "type": "uint256"
                }
            ],
            "stateMutability": "nonpayable",
            "type": "constructor"
        },
        {
            "inputs": [],
            "name": "T",
            "type": "error"
        },
        {
            "anonymous": false,
            "inputs": [
                {
                    "indexed": true,
                    "internalType": "address",
                    "name": "payer",
                    "type": "address"
                },
                {
                    "indexed": true,
                    "internalType": "address",
                    "name": "recipient",
                    "type": "address"
                },
                {
                    "indexed": true,
                    "internalType": "uint256",
                    "name": "sideMax",
                    "type": "uint256"
                },
                {
                    "indexed": false,
                    "internalType": "uint256",
                    "name": "sideIn",
                    "type": "uint256"
                },
                {
                    "indexed": false,
                    "internalType": "uint256",
                    "name": "sideOut",
                    "type": "uint256"
                },
                {
                    "indexed": false,
                    "internalType": "uint256",
                    "name": "maturity",
                    "type": "uint256"
                },
                {
                    "indexed": false,
                    "internalType": "uint256",
                    "name": "amountIn",
                    "type": "uint256"
                },
                {
                    "indexed": false,
                    "internalType": "uint256",
                    "name": "amountOut",
                    "type": "uint256"
                },
                {
                    "indexed": false,
                    "internalType": "uint256",
                    "name": "price",
                    "type": "uint256"
                }
            ],
            "name": "Swap",
            "type": "event"
        },
        {
            "inputs": [
                {
                    "internalType": "address",
                    "name": "TOKEN",
                    "type": "address"
                },
                {
                    "internalType": "uint256",
                    "name": "FEE_RATE",
                    "type": "uint256"
                },
                {
                    "internalType": "uint256",
                    "name": "twap",
                    "type": "uint256"
                },
                {
                    "internalType": "uint256",
                    "name": "spot",
                    "type": "uint256"
                }
            ],
            "name": "compute",
            "outputs": [
                {
                    "components": [
                        {
                            "components": [
                                {
                                    "internalType": "address",
                                    "name": "FETCHER",
                                    "type": "address"
                                },
                                {
                                    "internalType": "bytes32",
                                    "name": "ORACLE",
                                    "type": "bytes32"
                                },
                                {
                                    "internalType": "address",
                                    "name": "TOKEN_R",
                                    "type": "address"
                                },
                                {
                                    "internalType": "uint256",
                                    "name": "K",
                                    "type": "uint256"
                                },
                                {
                                    "internalType": "uint256",
                                    "name": "MARK",
                                    "type": "uint256"
                                },
                                {
                                    "internalType": "uint256",
                                    "name": "INTEREST_HL",
                                    "type": "uint256"
                                },
                                {
                                    "internalType": "uint256",
                                    "name": "PREMIUM_HL",
                                    "type": "uint256"
                                },
                                {
                                    "internalType": "uint256",
                                    "name": "MATURITY",
                                    "type": "uint256"
                                },
                                {
                                    "internalType": "uint256",
                                    "name": "MATURITY_VEST",
                                    "type": "uint256"
                                },
                                {
                                    "internalType": "uint256",
                                    "name": "MATURITY_RATE",
                                    "type": "uint256"
                                },
                                {
                                    "internalType": "uint256",
                                    "name": "OPEN_RATE",
                                    "type": "uint256"
                                }
                            ],
                            "internalType": "struct Config",
                            "name": "config",
                            "type": "tuple"
                        },
                        {
                            "components": [
                                {
                                    "internalType": "uint256",
                                    "name": "R",
                                    "type": "uint256"
                                },
                                {
                                    "internalType": "uint256",
                                    "name": "a",
                                    "type": "uint256"
                                },
                                {
                                    "internalType": "uint256",
                                    "name": "b",
                                    "type": "uint256"
                                }
                            ],
                            "internalType": "struct State",
                            "name": "state",
                            "type": "tuple"
                        },
                        {
                            "internalType": "uint256",
                            "name": "sA",
                            "type": "uint256"
                        },
                        {
                            "internalType": "uint256",
                            "name": "sB",
                            "type": "uint256"
                        },
                        {
                            "internalType": "uint256",
                            "name": "sC",
                            "type": "uint256"
                        },
                        {
                            "internalType": "uint256",
                            "name": "rA",
                            "type": "uint256"
                        },
                        {
                            "internalType": "uint256",
                            "name": "rB",
                            "type": "uint256"
                        },
                        {
                            "internalType": "uint256",
                            "name": "rC",
                            "type": "uint256"
                        },
                        {
                            "internalType": "uint256",
                            "name": "twap",
                            "type": "uint256"
                        },
                        {
                            "internalType": "uint256",
                            "name": "spot",
                            "type": "uint256"
                        }
                    ],
                    "internalType": "struct View.StateView",
                    "name": "stateView",
                    "type": "tuple"
                }
            ],
            "stateMutability": "nonpayable",
            "type": "function"
        },
        {
            "inputs": [],
            "name": "ensureStateIntegrity",
            "outputs": [],
            "stateMutability": "view",
            "type": "function"
        },
        {
            "inputs": [
                {
                    "internalType": "uint256",
                    "name": "ORACLE",
                    "type": "uint256"
                }
            ],
            "name": "fetch",
            "outputs": [
                {
                    "internalType": "uint256",
                    "name": "twap",
                    "type": "uint256"
                },
                {
                    "internalType": "uint256",
                    "name": "spot",
                    "type": "uint256"
                }
            ],
            "stateMutability": "view",
            "type": "function"
        },
        {
            "inputs": [],
            "name": "getStates",
            "outputs": [
                {
                    "internalType": "uint256",
                    "name": "R",
                    "type": "uint256"
                },
                {
                    "internalType": "uint256",
                    "name": "a",
                    "type": "uint256"
                },
                {
                    "internalType": "uint256",
                    "name": "b",
                    "type": "uint256"
                },
                {
                    "internalType": "uint32",
                    "name": "i",
                    "type": "uint32"
                },
                {
                    "internalType": "uint32",
                    "name": "f",
                    "type": "uint32"
                }
            ],
            "stateMutability": "view",
            "type": "function"
        },
        {
            "inputs": [
                {
                    "components": [
                        {
                            "internalType": "uint256",
                            "name": "R",
                            "type": "uint256"
                        },
                        {
                            "internalType": "uint256",
                            "name": "a",
                            "type": "uint256"
                        },
                        {
                            "internalType": "uint256",
                            "name": "b",
                            "type": "uint256"
                        }
                    ],
                    "internalType": "struct State",
                    "name": "state",
                    "type": "tuple"
                },
                {
                    "components": [
                        {
                            "internalType": "address",
                            "name": "utr",
                            "type": "address"
                        },
                        {
                            "internalType": "bytes",
                            "name": "payer",
                            "type": "bytes"
                        },
                        {
                            "internalType": "address",
                            "name": "recipient",
                            "type": "address"
                        }
                    ],
                    "internalType": "struct Payment",
                    "name": "payment",
                    "type": "tuple"
                }
            ],
            "name": "init",
            "outputs": [],
            "stateMutability": "nonpayable",
            "type": "function"
        },
        {
            "inputs": [],
            "name": "loadConfig",
            "outputs": [
                {
                    "components": [
                        {
                            "internalType": "address",
                            "name": "FETCHER",
                            "type": "address"
                        },
                        {
                            "internalType": "bytes32",
                            "name": "ORACLE",
                            "type": "bytes32"
                        },
                        {
                            "internalType": "address",
                            "name": "TOKEN_R",
                            "type": "address"
                        },
                        {
                            "internalType": "uint256",
                            "name": "K",
                            "type": "uint256"
                        },
                        {
                            "internalType": "uint256",
                            "name": "MARK",
                            "type": "uint256"
                        },
                        {
                            "internalType": "uint256",
                            "name": "INTEREST_HL",
                            "type": "uint256"
                        },
                        {
                            "internalType": "uint256",
                            "name": "PREMIUM_HL",
                            "type": "uint256"
                        },
                        {
                            "internalType": "uint256",
                            "name": "MATURITY",
                            "type": "uint256"
                        },
                        {
                            "internalType": "uint256",
                            "name": "MATURITY_VEST",
                            "type": "uint256"
                        },
                        {
                            "internalType": "uint256",
                            "name": "MATURITY_RATE",
                            "type": "uint256"
                        },
                        {
                            "internalType": "uint256",
                            "name": "OPEN_RATE",
                            "type": "uint256"
                        }
                    ],
                    "internalType": "struct Config",
                    "name": "config",
                    "type": "tuple"
                }
            ],
            "stateMutability": "pure",
            "type": "function"
        },
        {
            "inputs": [
                {
                    "internalType": "address",
                    "name": "",
                    "type": "address"
                },
                {
                    "internalType": "address",
                    "name": "",
                    "type": "address"
                },
                {
                    "internalType": "uint256[]",
                    "name": "",
                    "type": "uint256[]"
                },
                {
                    "internalType": "uint256[]",
                    "name": "",
                    "type": "uint256[]"
                },
                {
                    "internalType": "bytes",
                    "name": "",
                    "type": "bytes"
                }
            ],
            "name": "onERC1155BatchReceived",
            "outputs": [
                {
                    "internalType": "bytes4",
                    "name": "",
                    "type": "bytes4"
                }
            ],
            "stateMutability": "nonpayable",
            "type": "function"
        },
        {
            "inputs": [
                {
                    "internalType": "address",
                    "name": "",
                    "type": "address"
                },
                {
                    "internalType": "address",
                    "name": "",
                    "type": "address"
                },
                {
                    "internalType": "uint256",
                    "name": "",
                    "type": "uint256"
                },
                {
                    "internalType": "uint256",
                    "name": "",
                    "type": "uint256"
                },
                {
                    "internalType": "bytes",
                    "name": "",
                    "type": "bytes"
                }
            ],
            "name": "onERC1155Received",
            "outputs": [
                {
                    "internalType": "bytes4",
                    "name": "",
                    "type": "bytes4"
                }
            ],
            "stateMutability": "nonpayable",
            "type": "function"
        },
        {
            "inputs": [
                {
                    "internalType": "bytes4",
                    "name": "interfaceId",
                    "type": "bytes4"
                }
            ],
            "name": "supportsInterface",
            "outputs": [
                {
                    "internalType": "bool",
                    "name": "",
                    "type": "bool"
                }
            ],
            "stateMutability": "view",
            "type": "function"
        },
        {
            "inputs": [
                {
                    "components": [
                        {
                            "internalType": "uint256",
                            "name": "sideIn",
                            "type": "uint256"
                        },
                        {
                            "internalType": "uint256",
                            "name": "sideOut",
                            "type": "uint256"
                        },
                        {
                            "internalType": "address",
                            "name": "helper",
                            "type": "address"
                        },
                        {
                            "internalType": "bytes",
                            "name": "payload",
                            "type": "bytes"
                        }
                    ],
                    "internalType": "struct Param",
                    "name": "param",
                    "type": "tuple"
                },
                {
                    "components": [
                        {
                            "internalType": "address",
                            "name": "utr",
                            "type": "address"
                        },
                        {
                            "internalType": "bytes",
                            "name": "payer",
                            "type": "bytes"
                        },
                        {
                            "internalType": "address",
                            "name": "recipient",
                            "type": "address"
                        }
                    ],
                    "internalType": "struct Payment",
                    "name": "payment",
                    "type": "tuple"
                }
            ],
            "name": "swap",
            "outputs": [
                {
                    "internalType": "uint256",
                    "name": "amountIn",
                    "type": "uint256"
                },
                {
                    "internalType": "uint256",
                    "name": "amountOut",
                    "type": "uint256"
                },
                {
                    "internalType": "uint256",
                    "name": "price",
                    "type": "uint256"
                }
            ],
            "stateMutability": "nonpayable",
            "type": "function"
        }
    ],
    "bytecode": "0x60e06040523480156200001157600080fd5b50604051620059673803806200596783398101604081905262000034916200012b565b828282826001600160a01b038116620000945760405162461bcd60e51b815260206004820152601660248201527f506f6f6c426173653a205a45524f5f414444524553530000000000000000000060448201526064015b60405180910390fd5b6001600160a01b039081166080528216620000f25760405162461bcd60e51b815260206004820152601760248201527f506f6f6c4c6f6769633a205a45524f5f4144445245535300000000000000000060448201526064016200008b565b6001600160a01b0390911660a05260c052506200016c92505050565b80516001600160a01b03811681146200012657600080fd5b919050565b6000806000606084860312156200014157600080fd5b6200014c846200010e565b92506200015c602085016200010e565b9150604084015190509250925092565b60805160a05160c051615770620001f76000396000818161208e01526120b60152600061210001526000818161075a0152818161081d015281816108de01528181610a0c01528181610b2e01528181610bed01528181610c9901528181610d5801528181610e9b0152818161173201528181611800015281816118600152613c6b01526157706000f3fe608060405234801561001057600080fd5b50600436106100be5760003560e01c8063d8ab827411610076578063eb7e50dd1161005b578063eb7e50dd1461020d578063ed57620414610215578063f23a6e611461023557600080fd5b8063d8ab8274146101bf578063dc1a6f33146101f857600080fd5b80632b2f2913116100a75780632b2f2913146101005780637a33e3b01461012e578063bc197c811461015657600080fd5b806301ffc9a7146100c357806322d65951146100eb575b600080fd5b6100d66100d13660046149cc565b61026d565b60405190151581526020015b60405180910390f35b6100f36102c9565b6040516100e29190614aae565b61011361010e366004614cc9565b610398565b604080519384526020840192909252908201526060016100e2565b61014161013c366004614d82565b610fc7565b604080519283526020830191909152016100e2565b61018e610164366004614e2a565b7fbc197c810000000000000000000000000000000000000000000000000000000095945050505050565b6040517fffffffff0000000000000000000000000000000000000000000000000000000090911681526020016100e2565b6101c76110a7565b6040805195865260208601949094529284019190915263ffffffff908116606084015216608082015260a0016100e2565b61020b610206366004614ed8565b61119d565b005b61020b611962565b610228610223366004614f45565b6119e5565b6040516100e29190614f80565b61018e610243366004615015565b7ff23a6e610000000000000000000000000000000000000000000000000000000095945050505050565b60007f61206120000000000000000000000000000000000000000000000000000000007fffffffff00000000000000000000000000000000000000000000000000000000831614806102c357506102c382611ba2565b92915050565b610355604051806101600160405280600073ffffffffffffffffffffffffffffffffffffffff16815260200160008019168152602001600073ffffffffffffffffffffffffffffffffffffffff16815260200160008152602001600081526020016000815260200160008152602001600081526020016000815260200160008152602001600081525090565b606060203603803580820391506040519250602081018301604052808352602083018183823750505080806020019051810190610392919061508e565b91505090565b60008060006103a5611962565b600180547fffffffffffffffffffffffffffffffffffffffffffffffffffffffff00000000811663ffffffff909116178117905560006103e36102c9565b905060006103f18288611c39565b8051602082015160408301518a51929850909650945090915060009061070857602087015151156106f1578660200151516014036104b85761043887602001516000612919565b604080850151815173ffffffffffffffffffffffffffffffffffffffff808516602083015230938201939093526014606082015291166080820152600060a082015290915060c001604080517fffffffffffffffffffffffffffffffffffffffffffffffffffffffffffffffe081840301815291905260208801526104bb565b50325b60408084015190517f70a0823100000000000000000000000000000000000000000000000000000000815230600482015260009173ffffffffffffffffffffffffffffffffffffffff16906370a0823190602401602060405180830381865afa15801561052c573d6000803e3d6000fd5b505050506040513d601f19601f82011682018060405250810190610550919061512f565b61055a9088615177565b885160208a01516040517f715ef7f900000000000000000000000000000000000000000000000000000000815292935073ffffffffffffffffffffffffffffffffffffffff9091169163715ef7f9916105b7918b906004016151f8565b600060405180830381600087803b1580156105d157600080fd5b505af11580156105e5573d6000803e3d6000fd5b50505060408086015190517f70a0823100000000000000000000000000000000000000000000000000000000815230600482015273ffffffffffffffffffffffffffffffffffffffff90911691506370a0823190602401602060405180830381865afa158015610659573d6000803e3d6000fd5b505050506040513d601f19601f8201168201806040525081019061067d919061512f565b8111156106eb576040517f08c379a000000000000000000000000000000000000000000000000000000000815260206004820152601e60248201527f506f6f6c426173653a20494e53554646494349454e545f5041594d454e54000060448201526064015b60405180910390fd5b50610ddd565b61070183604001513330896129a9565b5033610ddd565b875160009060a01b301790506000808960200151511115610c64576040517efdd58e000000000000000000000000000000000000000000000000000000008152306004820152602481018390526000907f000000000000000000000000000000000000000000000000000000000000000073ffffffffffffffffffffffffffffffffffffffff169062fdd58e90604401602060405180830381865afa1580156107b5573d6000803e3d6000fd5b505050506040513d601f19601f820116820180604052508101906107d9919061512f565b9050801561088f576040517ff5298aca00000000000000000000000000000000000000000000000000000000815230600482015260248101849052604481018290527f000000000000000000000000000000000000000000000000000000000000000073ffffffffffffffffffffffffffffffffffffffff169063f5298aca90606401600060405180830381600087803b15801561087657600080fd5b505af115801561088a573d6000803e3d6000fd5b505050505b89602001515160140361094a576108ab8a602001516000612919565b6040805173ffffffffffffffffffffffffffffffffffffffff8381166020830152309282019290925261048360608201527f0000000000000000000000000000000000000000000000000000000000000000909116608082015260a0810185905290945060c001604080517fffffffffffffffffffffffffffffffffffffffffffffffffffffffffffffffe081840301815291905260208b015261094e565b3293505b895160208b01516040517f715ef7f900000000000000000000000000000000000000000000000000000000815273ffffffffffffffffffffffffffffffffffffffff9092169163715ef7f9916109a8918d906004016151f8565b600060405180830381600087803b1580156109c257600080fd5b505af11580156109d6573d6000803e3d6000fd5b50506040517efdd58e000000000000000000000000000000000000000000000000000000008152306004820152602481018690527f000000000000000000000000000000000000000000000000000000000000000073ffffffffffffffffffffffffffffffffffffffff16925062fdd58e9150604401602060405180830381865afa158015610a69573d6000803e3d6000fd5b505050506040513d601f19601f82011682018060405250810190610a8d919061512f565b905080891115610af9576040517f08c379a000000000000000000000000000000000000000000000000000000000815260206004820152601e60248201527f506f6f6c426173653a20494e53554646494349454e545f5041594d454e54000060448201526064016106e2565b6040517fcb263dc6000000000000000000000000000000000000000000000000000000008152306004820152602481018490527f000000000000000000000000000000000000000000000000000000000000000073ffffffffffffffffffffffffffffffffffffffff169063cb263dc690604401602060405180830381865afa158015610b8a573d6000803e3d6000fd5b505050506040513d601f19601f82011682018060405250810190610bae919061512f565b6040517ff5298aca00000000000000000000000000000000000000000000000000000000815230600482015260248101859052604481018390529092507f000000000000000000000000000000000000000000000000000000000000000073ffffffffffffffffffffffffffffffffffffffff169063f5298aca90606401600060405180830381600087803b158015610c4657600080fd5b505af1158015610c5a573d6000803e3d6000fd5b5050505050610dcd565b6040517fcb263dc6000000000000000000000000000000000000000000000000000000008152336004820152602481018390527f000000000000000000000000000000000000000000000000000000000000000073ffffffffffffffffffffffffffffffffffffffff169063cb263dc690604401602060405180830381865afa158015610cf5573d6000803e3d6000fd5b505050506040513d601f19601f82011682018060405250810190610d19919061512f565b6040517ff5298aca00000000000000000000000000000000000000000000000000000000815233600482015260248101849052604481018a90529091507f000000000000000000000000000000000000000000000000000000000000000073ffffffffffffffffffffffffffffffffffffffff169063f5298aca90606401600060405180830381600087803b158015610db157600080fd5b505af1158015610dc5573d6000803e3d6000fd5b505050503392505b610dd8858289612b48565b965050505b6020880151600090610e0157610dfc8460400151896040015188612bd0565b610ef9565b602089015160009060a01b301790508460e001514263ffffffff16610e269190615177565b60408a81015190517f3c8cb4ef00000000000000000000000000000000000000000000000000000000815273ffffffffffffffffffffffffffffffffffffffff918216600482015260248101849052604481018a905263ffffffff8316606482015260a06084820152600060a48201529193507f00000000000000000000000000000000000000000000000000000000000000001690633c8cb4ef9060c401600060405180830381600087803b158015610edf57600080fd5b505af1158015610ef3573d6000803e3d6000fd5b50505050505b610f0b89600001518a60200151612d66565b6040808a01518b516020808e0151845192835290820152918201849052606082018a90526080820189905260a0820188905273ffffffffffffffffffffffffffffffffffffffff90811691908516907f2ad8739d64c070ab4ae9d9c0743d56550b22c3c8c96e7a6045fac37b5b8e89e39060c00160405180910390a45050600180547fffffffffffffffffffffffffffffffffffffffffffffffffffffffff00000000811663fffffffe90911617905550929591945092509050565b6000808281610fd582612d7c565b90506000610fe78360c088901c612e5e565b5090506000610ff582613122565b73ffffffffffffffffffffffffffffffffffffffff169050602083901b9450602081901b95507f8000000000000000000000000000000000000000000000000000000000000000871660000361109e5761106f857fffffffffffffffffffffffffffffffffffffffffffffffffffffffffffffffff615249565b945061109b867fffffffffffffffffffffffffffffffffffffffffffffffffffffffffffffffff615249565b95505b50505050915091565b6000806000806000806110b86102c9565b60408082015190517f70a0823100000000000000000000000000000000000000000000000000000000815230600482015291925073ffffffffffffffffffffffffffffffffffffffff16906370a0823190602401602060405180830381865afa158015611129573d6000803e3d6000fd5b505050506040513d601f19601f8201168201806040525081019061114d919061512f565b60005460015491987bffffffffffffffffffffffffffffffffffffffffffffffffffffffff64010000000080840482169a50840416975063ffffffff909116955063fffffffe9091169350915050565b60005463ffffffff161561120d576040517f08c379a000000000000000000000000000000000000000000000000000000000815260206004820152601d60248201527f506f6f6c426173653a20414c52454144595f494e495449414c495a454400000060448201526064016106e2565b81516020830151604084015182158015906112285750600082115b80156112345750600081115b61129a576040517f08c379a000000000000000000000000000000000000000000000000000000000815260206004820152601460248201527f506f6f6c426173653a205a45524f5f504152414d00000000000000000000000060448201526064016106e2565b600183901c82111580156112b25750600183901c8111155b611318576040517f08c379a000000000000000000000000000000000000000000000000000000000815260206004820152601760248201527f506f6f6c426173653a20494e56414c49445f504152414d00000000000000000060448201526064016106e2565b4263ffffffff81166401000000007bffffffffffffffffffffffffffffffffffffffffffffffffffffffff858116820292909217600090815563fffffffe90931691841602176001556113696102c9565b602086015151909150156116425760408082015190517f70a0823100000000000000000000000000000000000000000000000000000000815230600482015260009173ffffffffffffffffffffffffffffffffffffffff16906370a0823190602401602060405180830381865afa1580156113e8573d6000803e3d6000fd5b505050506040513d601f19601f8201168201806040525081019061140c919061512f565b6114169086615177565b90508560200151516014036114b357600061143687602001516000612919565b604080850151815173ffffffffffffffffffffffffffffffffffffffff808516602083015230938201939093526014606082015291166080820152600060a082015290915060c001604080517fffffffffffffffffffffffffffffffffffffffffffffffffffffffffffffffe08184030181529190526020880152505b855160208701516040517f715ef7f900000000000000000000000000000000000000000000000000000000815273ffffffffffffffffffffffffffffffffffffffff9092169163715ef7f99161150d9189906004016151f8565b600060405180830381600087803b15801561152757600080fd5b505af115801561153b573d6000803e3d6000fd5b50505060408084015190517f70a0823100000000000000000000000000000000000000000000000000000000815230600482015273ffffffffffffffffffffffffffffffffffffffff90911691506370a0823190602401602060405180830381865afa1580156115af573d6000803e3d6000fd5b505050506040513d601f19601f820116820180604052508101906115d3919061512f565b81111561163c576040517f08c379a000000000000000000000000000000000000000000000000000000000815260206004820152601e60248201527f506f6f6c426173653a20494e53554646494349454e545f5041594d454e54000060448201526064016106e2565b50611652565b61165281604001513330876129a9565b307410000000000000000000000000000000000000000081179074200000000000000000000000000000000000000000811790743000000000000000000000000000000000000000001760006116a9600389615249565b905060008560e00151426116bd9190615177565b60408b81015190517f3c8cb4ef00000000000000000000000000000000000000000000000000000000815273ffffffffffffffffffffffffffffffffffffffff9182166004820152602481018890526044810185905263ffffffff8316606482015260a06084820152600060a48201529192507f00000000000000000000000000000000000000000000000000000000000000001690633c8cb4ef9060c401600060405180830381600087803b15801561177657600080fd5b505af115801561178a573d6000803e3d6000fd5b5050505060408a81015190517f3c8cb4ef00000000000000000000000000000000000000000000000000000000815273ffffffffffffffffffffffffffffffffffffffff9182166004820152602481018690526044810184905263ffffffff8316606482015260a06084820152600060a48201527f000000000000000000000000000000000000000000000000000000000000000090911690633c8cb4ef9060c401600060405180830381600087803b15801561184657600080fd5b505af115801561185a573d6000803e3d6000fd5b505050507f000000000000000000000000000000000000000000000000000000000000000073ffffffffffffffffffffffffffffffffffffffff16633c8cb4ef8b6040015185600186901b8d6118b0919061525d565b6040517fffffffff0000000000000000000000000000000000000000000000000000000060e086901b16815273ffffffffffffffffffffffffffffffffffffffff90931660048401526024830191909152604482015263ffffffff8416606482015260a06084820152600060a482015260c401600060405180830381600087803b15801561193d57600080fd5b505af1158015611951573d6000803e3d6000fd5b505050505050505050505050505050565b6001805463ffffffff8116911615801561197c5750600081115b6119e2576040517f08c379a000000000000000000000000000000000000000000000000000000000815260206004820152601960248201527f506f6f6c426173653a2053544154455f494e544547524954590000000000000060448201526064016106e2565b50565b6119ed6148cd565b60006119f76102c9565b905060006040518060600160405280611a138460400151613489565b81526000547bffffffffffffffffffffffffffffffffffffffffffffffffffffffff64010000000091829004811660208401526001549190910416604090910152905084158015611a62575083155b15611a7e5781516020830151611a78919061351b565b90955093505b600080611a94611a8e85896135e2565b84613677565b91509150600080611aae611aa8878a6135e2565b86613677565b915091506000611ac58b88886000015188886136d1565b88519197509550909150611ade908c90899086866136d1565b91885293509150611aef858461395b565b60a0890152611afe848361395b565b60c0890152611b3984611b11878461525d565b611b1b919061525d565b87518490611b2a90879061525d565b611b34919061525d565b61395b565b60e08901528551811015611b4b578086525b611b568c601061396a565b6040890152611b668c602061396a565b6060890152611b768c603061396a565b608089015250505050610100840195909552610120830193909352815260208101919091529392505050565b60007fffffffff0000000000000000000000000000000000000000000000000000000082167f4e2312e00000000000000000000000000000000000000000000000000000000014806102c357507f01ffc9a7000000000000000000000000000000000000000000000000000000007fffffffff000000000000000000000000000000000000000000000000000000008316146102c3565b611c5d60405180606001604052806000815260200160008152602001600081525090565b81516020830151808203611ccd576040517f08c379a000000000000000000000000000000000000000000000000000000000815260206004820152601460248201527f506f6f6c4c6f6769633a2053414d455f5349444500000000000000000000000060448201526064016106e2565b811580611cda5750601082145b80611ce55750602082145b80611cf05750603082145b611d56576040517f08c379a000000000000000000000000000000000000000000000000000000000815260206004820152601a60248201527f506f6f6c4c6f6769633a20494e56414c49445f534944455f494e00000000000060448201526064016106e2565b801580611d635750601081145b80611d6e5750602081145b80611d795750603081145b611ddf576040517f08c379a000000000000000000000000000000000000000000000000000000000815260206004820152601b60248201527f506f6f6c4c6f6769633a20494e56414c49445f534944455f4f5554000000000060448201526064016106e2565b60006040518060600160405280611df98860400151613489565b8152600080547bffffffffffffffffffffffffffffffffffffffffffffffffffffffff640100000000918290048116602085015260015491909104166040909201919091529091508080611e4f89858888613a01565b60408b0152865160a08d015193965091945092508390038290039015611f285760005463ffffffff9081164203168015611f26576000611e93828d60a00151613ad9565b90506000611eab868368010000000000000000613b06565b90506000611ec3868468010000000000000000613b06565b905086821080611ed257508581105b15611f2257611ee2826001612d66565b9650611eef816001612d66565b600080547fffffffffffffffffffffffffffffffffffffffffffffffffffffffff00000000164263ffffffff1617905595505b5050505b505b60c08a01511561208c576000828411611f4357838303611f47565b8284035b9050600181111561208a5785516001547fffffffffffffffffffffffffffffffffffffffffffffffffffffffffffffffff9092019163fffffffe908116429091160363ffffffff16801561208757600085871115611fb557611fac8387868603613b64565b87039050611fc7565b611fc28388868603613b64565b860390505b6000611fd88f60c001518387613b06565b9050611fe5600182612d66565b90506000611ff38483613ad9565b9050612009838268010000000000000000613b06565b808403931461208357878911156120355761202783898b8803613b64565b88019750828903985061204c565b612042838a8a8803613b64565b8901985082880397505b6001805463ffffffff8082168701167fffffffffffffffffffffffffffffffffffffffffffffffffffffffff000000009091161790555b5050505b50505b505b7f00000000000000000000000000000000000000000000000000000000000000001561212f5760007f00000000000000000000000000000000000000000000000000000000000000008284868960000151030303816120ed576120ed61521a565b049050801561212d576121258b604001517f000000000000000000000000000000000000000000000000000000000000000083612bd0565b855181900386525b505b506000886040015173ffffffffffffffffffffffffffffffffffffffff1663dc0192e8604051806080016040528087815260200188600001518152602001868152602001858152508b606001516040518363ffffffff1660e01b8152600401612199929190615270565b606060405180830381865afa1580156121b6573d6000803e3d6000fd5b505050506040513d601f19601f820116820180604052508101906121da91906152b0565b90507bffffffffffffffffffffffffffffffffffffffffffffffffffffffff801681602001511115612268576040517f08c379a000000000000000000000000000000000000000000000000000000000815260206004820152601c60248201527f506f6f6c4c6f6769633a205354415445315f4f564552464c4f575f410000000060448201526064016106e2565b60408101517bffffffffffffffffffffffffffffffffffffffffffffffffffffffff10156122f2576040517f08c379a000000000000000000000000000000000000000000000000000000000815260206004820152601c60248201527f506f6f6c4c6f6769633a205354415445315f4f564552464c4f575f420000000060448201526064016106e2565b6000806122ff8684613677565b909250905088612394578482101580156123195750838110155b61237f576040517f08c379a000000000000000000000000000000000000000000000000000000000815260206004820152601b60248201527f506f6f6c4c6f6769633a20494e56414c49445f5354415445315f52000000000060448201526064016106e2565b8651835161238d919061525d565b8a52612652565b825187511015612400576040517f08c379a000000000000000000000000000000000000000000000000000000000815260206004820152601c60248201527f506f6f6c4c6f6769633a20494e56414c49445f5354415445315f4e520000000060448201526064016106e2565b600061240b8a613c34565b905060108a0361249a578482101561247f576040517f08c379a000000000000000000000000000000000000000000000000000000000815260206004820152601b60248201527f506f6f6c4c6f6769633a20494e56414c49445f5354415445315f41000000000060448201526064016106e2565b6124938161248d858961525d565b88613b06565b8b526125e1565b85831015612504576040517f08c379a000000000000000000000000000000000000000000000000000000000815260206004820152601c60248201527f506f6f6c4c6f6769633a20494e56414c49445f5354415445315f4e410000000060448201526064016106e2565b60208a03612520576124938161251a848861525d565b87613b06565b8482101561258a576040517f08c379a000000000000000000000000000000000000000000000000000000000815260206004820152601c60248201527f506f6f6c4c6f6769633a20494e56414c49445f5354415445315f4e420000000060448201526064016106e2565b600085878a6000015161259d919061525d565b6125a7919061525d565b90506000838587600001516125bc919061525d565b6125c6919061525d565b90506125dc836125d6838561525d565b84613b06565b8d5250505b8a5181036103e81115612650576040517f08c379a000000000000000000000000000000000000000000000000000000000815260206004820152601960248201527f506f6f6c4c6f6769633a204d494e494d554d5f535550504c590000000000000060448201526064016106e2565b505b8761266f5782518751612665919061525d565b60208b01526128b7565b6030880361274a5760008486896000015161268a919061525d565b612694919061525d565b90506000828486600001516126a9919061525d565b6126b3919061525d565b90506103e8811015612721576040517f08c379a000000000000000000000000000000000000000000000000000000000815260206004820152601c60248201527f506f6f6c4c6f6769633a204d494e494d554d5f524553455256455f430000000060448201526064016106e2565b61273d61272d8b613c34565b612737848461525d565b84613b64565b60208d0152506128b79050565b601088036127e4576103e88210156127be576040517f08c379a000000000000000000000000000000000000000000000000000000000815260206004820152601c60248201527f506f6f6c4c6f6769633a204d494e494d554d5f524553455256455f410000000060448201526064016106e2565b6127da6127ca89613c34565b6127d4878561525d565b87613b64565b60208b0152612872565b6103e8811015612850576040517f08c379a000000000000000000000000000000000000000000000000000000000815260206004820152601c60248201527f506f6f6c4c6f6769633a204d494e494d554d5f524553455256455f420000000060448201526064016106e2565b61286c61285c89613c34565b612866868461525d565b86613b64565b60208b01525b7001000000000000000000000000000000008c6101400151146128b7576128b48a600001517001000000000000000000000000000000008e6101400151613b64565b8a525b505060208101516000805463ffffffff9081166401000000007bffffffffffffffffffffffffffffffffffffffffffffffffffffffff948516810291909117909255604090930151600180549094169216021790555094979650505050505050565b6000612926826014615177565b83511015612990576040517f08c379a000000000000000000000000000000000000000000000000000000000815260206004820152601560248201527f746f416464726573735f6f75744f66426f756e6473000000000000000000000060448201526064016106e2565b5001602001516c01000000000000000000000000900490565b6040805173ffffffffffffffffffffffffffffffffffffffff85811660248301528481166044830152606480830185905283518084039091018152608490920183526020820180517bffffffffffffffffffffffffffffffffffffffffffffffffffffffff167f23b872dd000000000000000000000000000000000000000000000000000000001790529151600092839290881691612a4891906152ec565b6000604051808303816000865af19150503d8060008114612a85576040519150601f19603f3d011682016040523d82523d6000602084013e612a8a565b606091505b5091509150818015612ab4575080511580612ab4575080806020019051810190612ab49190615308565b612b40576040517f08c379a000000000000000000000000000000000000000000000000000000000815260206004820152603160248201527f5472616e7366657248656c7065723a3a7472616e7366657246726f6d3a20747260448201527f616e7366657246726f6d206661696c656400000000000000000000000000000060648201526084016106e2565b505050505050565b6000428311612b58575080612bc9565b60e0840151428403908110612b71576000915050612bc9565b6000818660e00151039050856101000151811015612ba35785610100015181850281612b9f57612b9f61521a565b0493505b612bc484876101200151700100000000000000000000000000000000613b64565b925050505b9392505050565b6040805173ffffffffffffffffffffffffffffffffffffffff8481166024830152604480830185905283518084039091018152606490920183526020820180517bffffffffffffffffffffffffffffffffffffffffffffffffffffffff167fa9059cbb000000000000000000000000000000000000000000000000000000001790529151600092839290871691612c6791906152ec565b6000604051808303816000865af19150503d8060008114612ca4576040519150601f19603f3d011682016040523d82523d6000602084013e612ca9565b606091505b5091509150818015612cd3575080511580612cd3575080806020019051810190612cd39190615308565b612d5f576040517f08c379a000000000000000000000000000000000000000000000000000000000815260206004820152602d60248201527f5472616e7366657248656c7065723a3a736166655472616e736665723a20747260448201527f616e73666572206661696c65640000000000000000000000000000000000000060648201526084016106e2565b5050505050565b6000818311612d755781612bc9565b5090919050565b60408051600481526024810182526020810180517bffffffffffffffffffffffffffffffffffffffffffffffffffffffff167f3850c7bd000000000000000000000000000000000000000000000000000000001790529051600091908290819073ffffffffffffffffffffffffffffffffffffffff861690612dff9085906152ec565b600060405180830381855afa9150503d8060008114612e3a576040519150601f19603f3d011682016040523d82523d6000602084013e612e3f565b606091505b50909250905081612e5257805160208201fd5b60200151949350505050565b6000808263ffffffff16600003612ed1576040517f08c379a000000000000000000000000000000000000000000000000000000000815260206004820152600260248201527f425000000000000000000000000000000000000000000000000000000000000060448201526064016106e2565b6040805160028082526060820183526000926020830190803683370190505090508381600081518110612f0657612f0661532a565b602002602001019063ffffffff16908163ffffffff1681525050600081600181518110612f3557612f3561532a565b602002602001019063ffffffff16908163ffffffff16815250506000808673ffffffffffffffffffffffffffffffffffffffff1663883bdbfd846040518263ffffffff1660e01b8152600401612f8b9190615359565b600060405180830381865afa158015612fa8573d6000803e3d6000fd5b505050506040513d6000823e601f3d9081017fffffffffffffffffffffffffffffffffffffffffffffffffffffffffffffffe0168201604052612fee9190810190615407565b915091506000826000815181106130075761300761532a565b6020026020010151836001815181106130225761302261532a565b602002602001015161303491906154c9565b905060008260008151811061304b5761304b61532a565b6020026020010151836001815181106130665761306661532a565b6020026020010151613078919061550e565b905061308a63ffffffff891683615542565b965060008260060b1280156130b057506130aa63ffffffff8916836155b6565b60060b15155b156130c357866130bf816155d8565b9750505b60006130e973ffffffffffffffffffffffffffffffffffffffff63ffffffff8b16615635565b905061311377ffffffffffffffffffffffffffffffffffffffff00000000602084901b1682615678565b96505050505050509250929050565b60008060008360020b12613139578260020b613141565b8260020b6000035b9050620d89e8811115613180576040517f2bc80f3a00000000000000000000000000000000000000000000000000000000815260040160405180910390fd5b6000816001166000036131a4577001000000000000000000000000000000006131b6565b6ffffcb933bd6fad37aa2d162d1a5940015b70ffffffffffffffffffffffffffffffffff16905060028216156131ea576ffff97272373d413259a46990580e213a0260801c5b6004821615613209576ffff2e50f5f656932ef12357cf3c7fdcc0260801c5b6008821615613228576fffe5caca7e10e4e61c3624eaa0941cd00260801c5b6010821615613247576fffcb9843d60f6159c9db58835c9266440260801c5b6020821615613266576fff973b41fa98c081472e6896dfb254c00260801c5b6040821615613285576fff2ea16466c96a3843ec78b326b528610260801c5b60808216156132a4576ffe5dee046a99a2a811c461f1969c30530260801c5b6101008216156132c4576ffcbe86c7900a88aedcffc83b479aa3a40260801c5b6102008216156132e4576ff987a7253ac413176f2b074cf7815e540260801c5b610400821615613304576ff3392b0822b70005940c7a398e4b70f30260801c5b610800821615613324576fe7159475a2c29b7443b29c7fa6e889d90260801c5b611000821615613344576fd097f3bdfd2022b8845ad8f792aa58250260801c5b612000821615613364576fa9f746462d870fdf8a65dc1f90e061e50260801c5b614000821615613384576f70d869a156d2a1b890bb3df62baf32f70260801c5b6180008216156133a4576f31be135f97d08fd981231505542fcfa60260801c5b620100008216156133c5576f09aa508b5b7a84e1c677de54f3e99bc90260801c5b620200008216156133e5576e5d6af8dedb81196699c329225ee6040260801c5b62040000821615613404576d2216e584f5fa1ea926041bedfe980260801c5b62080000821615613421576b048a170391f7dc42444e8fa20260801c5b60008460020b131561346057807fffffffffffffffffffffffffffffffffffffffffffffffffffffffffffffffff8161345c5761345c61521a565b0490505b640100000000810615613474576001613477565b60005b60ff16602082901c0192505050919050565b6040517f70a0823100000000000000000000000000000000000000000000000000000000815230600482015260009073ffffffffffffffffffffffffffffffffffffffff8316906370a08231906024015b602060405180830381865afa1580156134f7573d6000803e3d6000fd5b505050506040513d601f19601f820116820180604052508101906102c3919061512f565b60008073ffffffffffffffffffffffffffffffffffffffff841661354b5761354283610fc7565b915091506135db565b6040517f7a33e3b00000000000000000000000000000000000000000000000000000000081526004810184905273ffffffffffffffffffffffffffffffffffffffff851690637a33e3b09060240160408051808303816000875af11580156135b7573d6000803e3d6000fd5b505050506040513d601f19601f8201168201806040525081019061354291906156af565b9250929050565b608082015160009082811080156135f7579092905b6136206136167001000000000000000000000000000000008685613b64565b8660600151613caf565b92508260000361363c5761363984838760600151613d36565b92505b801561366f5761366c837fffffffffffffffffffffffffffffffffffffffffffffffffffffffffffffffff615249565b92505b505092915050565b60008061368d8484602001518560000151613d80565b91506136c86136bc857fffffffffffffffffffffffffffffffffffffffffffffffffffffffffffffffff615249565b60408501518551613d80565b90509250929050565b6000808080846136e1878961525d565b6136eb919061525d565b60a08901519091501561378f576000805461370c9063ffffffff16426156d3565b63ffffffff169050801561378d57600061372a828b60a00151613ad9565b90506000613742898368010000000000000000613b06565b9050600061375a898468010000000000000000613b06565b90508982108061376957508881105b1561378957613779826001612d66565b9950613786816001612d66565b98505b5050505b505b60c0880151156139015760008587116137b1576137ac878761525d565b6137bb565b6137bb868861525d565b905060018111156138ff576137cf816156f0565b6001549091506000906137ec9063fffffffe9081169042166156d3565b63ffffffff16905080156138fd57600087891115613829576138188a89613813868361525d565b613b64565b613822908a61525d565b9050613845565b6138388a8a613813868361525d565b613842908961525d565b90505b60006138568c60c001518386613b06565b9050613863600182612d66565b905060006138718483613ad9565b9050613887838268010000000000000000613b06565b613891908461525d565b925082156138f957898b11156138cf576138b2838b8d8f613813919061525d565b6138bc908b615177565b99506138c8838c61525d565b9a506138f9565b6138e0838c8c8f613813919061525d565b6138ea908c615177565b9a506138f6838b61525d565b99505b5050505b505b505b881561394b5760008982876139168a8c61525d565b613920919061525d565b61392a919061525d565b6139349190615249565b9050801561394957613946818961525d565b97505b505b5094979396509194509192505050565b6000818310612d755781612bc9565b6040517fbd85b0390000000000000000000000000000000000000000000000000000000081523060a083901b17600482015260009073ffffffffffffffffffffffffffffffffffffffff84169063bd85b03990602401602060405180830381865afa1580156139dd573d6000803e3d6000fd5b505050506040513d601f19601f82011682018060405250810190612bc9919061512f565b600080600080600080613a1f8a600001518b6020015160001c61351b565b9150915080821115613a2d57905b6010871480613a3c5750602088145b15613a6457613a4e8a829450846135e2565b9550613a5a868a613677565b9095509350613acc565b6020871480613a735750601088145b15613a8557613a4e8a839450846135e2565b613a928a839450846135e2565b9550613a9e868a613677565b9095509350848411881503613acc57613aba8a829450846135e2565b9550613ac6868a613677565b90955093505b5050945094509450949050565b600080613afb613aed84604087901b615249565b613af690615725565b613de4565b600f0b949350505050565b6000613b13848484613b64565b905060008280613b2557613b2561521a565b8486091115612bc9577fffffffffffffffffffffffffffffffffffffffffffffffffffffffffffffffff8110613b5a57600080fd5b6001019392505050565b600080807fffffffffffffffffffffffffffffffffffffffffffffffffffffffffffffffff85870985870292508281108382030391505080600003613bbb5760008411613bb057600080fd5b508290049050612bc9565b808411613bc757600080fd5b6000848688096000868103871696879004966002600389028118808a02820302808a02820302808a02820302808a02820302808a02820302808a02909103029181900381900460010186841190950394909402919094039290920491909117919091029150509392505050565b6040517fbd85b0390000000000000000000000000000000000000000000000000000000081523060a083901b1760048201526000907f000000000000000000000000000000000000000000000000000000000000000073ffffffffffffffffffffffffffffffffffffffff169063bd85b039906024016134da565b6000808260011611613cd257700100000000000000000000000000000000613cd4565b825b9050600182901c91505b81156102c357613d008384700100000000000000000000000000000000613b64565b92506001821615613d2a57613d278184700100000000000000000000000000000000613b64565b90505b600182901c9150613cde565b7001000000000000000000000000000000005b8115612bc9576000613d5c828686613b64565b905080600003613d6c5750612bc9565b905080613d78836156f0565b925050613d49565b6000613d9e8385700100000000000000000000000000000000613b64565b9050600182901c811115612bc9576000613dc984866f40000000000000000000000000000000613b64565b90506000613dd8848584613b06565b9050612bc4818561525d565b60006840000000000000000082600f0b12613dfe57600080fd5b7fffffffffffffffffffffffffffffffffffffffffffffffc0000000000000000082600f0b1215613e3157506000919050565b6f8000000000000000000000000000000060006780000000000000008416600f0b1315613e6f5770016a09e667f3bcc908b2fb1366ea957d3e0260801c5b60008367400000000000000016600f0b1315613e9c577001306fe0a31b7152de8d5a46305c85edec0260801c5b60008367200000000000000016600f0b1315613ec9577001172b83c7d517adcdf7c8c50eb14a791f0260801c5b60008367100000000000000016600f0b1315613ef65770010b5586cf9890f6298b92b71842a983630260801c5b60008367080000000000000016600f0b1315613f23577001059b0d31585743ae7c548eb68ca417fd0260801c5b60008367040000000000000016600f0b1315613f5057700102c9a3e778060ee6f7caca4f7a29bde80260801c5b60008367020000000000000016600f0b1315613f7d5770010163da9fb33356d84a66ae336dcdfa3f0260801c5b60008367010000000000000016600f0b1315613faa57700100b1afa5abcbed6129ab13ec11dc95430260801c5b600083668000000000000016600f0b1315613fd65770010058c86da1c09ea1ff19d294cf2f679b0260801c5b600083664000000000000016600f0b1315614002577001002c605e2e8cec506d21bfc89a23a00f0260801c5b600083662000000000000016600f0b131561402e57700100162f3904051fa128bca9c55c31e5df0260801c5b600083661000000000000016600f0b131561405a577001000b175effdc76ba38e31671ca9397250260801c5b600083660800000000000016600f0b131561408657700100058ba01fb9f96d6cacd4b180917c3d0260801c5b600083660400000000000016600f0b13156140b25770010002c5cc37da9491d0985c348c68e7b30260801c5b600083660200000000000016600f0b13156140de577001000162e525ee054754457d59952920260260801c5b600083660100000000000016600f0b131561410a5770010000b17255775c040618bf4a4ade83fc0260801c5b6000836580000000000016600f0b1315614135577001000058b91b5bc9ae2eed81e9b7d4cfab0260801c5b6000836540000000000016600f0b131561416057700100002c5c89d5ec6ca4d7c8acc017b7c90260801c5b6000836520000000000016600f0b131561418b5770010000162e43f4f831060e02d839a9d16d0260801c5b6000836510000000000016600f0b13156141b657700100000b1721bcfc99d9f890ea069117630260801c5b6000836508000000000016600f0b13156141e15770010000058b90cf1e6d97f9ca14dbcc16280260801c5b6000836504000000000016600f0b131561420c577001000002c5c863b73f016468f6bac5ca2b0260801c5b6000836502000000000016600f0b131561423757700100000162e430e5a18f6119e3c02282a50260801c5b6000836501000000000016600f0b1315614262577001000000b1721835514b86e6d96efd1bfe0260801c5b60008364800000000016600f0b131561428c57700100000058b90c0b48c6be5df846c5b2ef0260801c5b60008364400000000016600f0b13156142b65770010000002c5c8601cc6b9e94213c72737a0260801c5b60008364200000000016600f0b13156142e0577001000000162e42fff037df38aa2b219f060260801c5b60008364100000000016600f0b131561430a5770010000000b17217fba9c739aa5819f44f90260801c5b60008364080000000016600f0b1315614334577001000000058b90bfcdee5acd3c1cedc8230260801c5b60008364040000000016600f0b131561435e57700100000002c5c85fe31f35a6a30da1be500260801c5b60008364020000000016600f0b13156143885770010000000162e42ff0999ce3541b9fffcf0260801c5b60008364010000000016600f0b13156143b257700100000000b17217f80f4ef5aadda455540260801c5b600083638000000016600f0b13156143db5770010000000058b90bfbf8479bd5a81b51ad0260801c5b600083634000000016600f0b1315614404577001000000002c5c85fdf84bd62ae30a74cc0260801c5b600083632000000016600f0b131561442d57700100000000162e42fefb2fed257559bdaa0260801c5b600083631000000016600f0b1315614456577001000000000b17217f7d5a7716bba4a9ae0260801c5b600083630800000016600f0b131561447f57700100000000058b90bfbe9ddbac5e109cce0260801c5b600083630400000016600f0b13156144a85770010000000002c5c85fdf4b15de6f17eb0d0260801c5b600083630200000016600f0b13156144d1577001000000000162e42fefa494f1478fde050260801c5b600083630100000016600f0b13156144fa5770010000000000b17217f7d20cf927c8e94c0260801c5b6000836280000016600f0b1315614522577001000000000058b90bfbe8f71cb4e4b33d0260801c5b6000836240000016600f0b131561454a57700100000000002c5c85fdf477b662b269450260801c5b6000836220000016600f0b13156145725770010000000000162e42fefa3ae53369388c0260801c5b6000836210000016600f0b131561459a57700100000000000b17217f7d1d351a389d400260801c5b6000836208000016600f0b13156145c25770010000000000058b90bfbe8e8b2d3d4ede0260801c5b6000836204000016600f0b13156145ea577001000000000002c5c85fdf4741bea6e77e0260801c5b6000836202000016600f0b131561461257700100000000000162e42fefa39fe95583c20260801c5b6000836201000016600f0b131561463a577001000000000000b17217f7d1cfb72b45e10260801c5b60008361800016600f0b131561466157700100000000000058b90bfbe8e7cc35c3f00260801c5b60008361400016600f0b13156146885770010000000000002c5c85fdf473e242ea380260801c5b60008361200016600f0b13156146af577001000000000000162e42fefa39f02b772c0260801c5b60008361100016600f0b13156146d65770010000000000000b17217f7d1cf7d83c1a0260801c5b60008361080016600f0b13156146fd577001000000000000058b90bfbe8e7bdcbe2e0260801c5b60008361040016600f0b131561472457700100000000000002c5c85fdf473dea871f0260801c5b60008361020016600f0b131561474b5770010000000000000162e42fefa39ef44d910260801c5b60008361010016600f0b131561477257700100000000000000b17217f7d1cf79e9490260801c5b600083608016600f0b13156147985770010000000000000058b90bfbe8e7bce5440260801c5b600083604016600f0b13156147be577001000000000000002c5c85fdf473de6eca0260801c5b600083602016600f0b13156147e457700100000000000000162e42fefa39ef366f0260801c5b600083601016600f0b131561480a577001000000000000000b17217f7d1cf79afa0260801c5b600083600816600f0b131561483057700100000000000000058b90bfbe8e7bcd6d0260801c5b600083600416600f0b13156148565770010000000000000002c5c85fdf473de6b20260801c5b600083600216600f0b131561487c577001000000000000000162e42fefa39ef3580260801c5b600083600116600f0b13156148a25770010000000000000000b17217f7d1cf79ab0260801c5b600f83810b60401d603f03900b1c6f7fffffffffffffffffffffffffffffff8111156102c357600080fd5b604051806101400160405280614965604051806101600160405280600073ffffffffffffffffffffffffffffffffffffffff16815260200160008019168152602001600073ffffffffffffffffffffffffffffffffffffffff16815260200160008152602001600081526020016000815260200160008152602001600081526020016000815260200160008152602001600081525090565b815260200161498e60405180606001604052806000815260200160008152602001600081525090565b815260200160008152602001600081526020016000815260200160008152602001600081526020016000815260200160008152602001600081525090565b6000602082840312156149de57600080fd5b81357fffffffff0000000000000000000000000000000000000000000000000000000081168114612bc957600080fd5b805173ffffffffffffffffffffffffffffffffffffffff168252602081015160208301526040810151614a59604084018273ffffffffffffffffffffffffffffffffffffffff169052565b50606081810151908301526080808201519083015260a0808201519083015260c0808201519083015260e080820151908301526101008082015190830152610120808201519083015261014090810151910152565b61016081016102c38284614a0e565b7f4e487b7100000000000000000000000000000000000000000000000000000000600052604160045260246000fd5b6040516060810167ffffffffffffffff81118282101715614b0f57614b0f614abd565b60405290565b6040516080810167ffffffffffffffff81118282101715614b0f57614b0f614abd565b604051610160810167ffffffffffffffff81118282101715614b0f57614b0f614abd565b604051601f82017fffffffffffffffffffffffffffffffffffffffffffffffffffffffffffffffe016810167ffffffffffffffff81118282101715614ba357614ba3614abd565b604052919050565b73ffffffffffffffffffffffffffffffffffffffff811681146119e257600080fd5b600082601f830112614bde57600080fd5b813567ffffffffffffffff811115614bf857614bf8614abd565b614c2960207fffffffffffffffffffffffffffffffffffffffffffffffffffffffffffffffe0601f84011601614b5c565b818152846020838601011115614c3e57600080fd5b816020850160208301376000918101602001919091529392505050565b600060608284031215614c6d57600080fd5b614c75614aec565b90508135614c8281614bab565b8152602082013567ffffffffffffffff811115614c9e57600080fd5b614caa84828501614bcd565b6020830152506040820135614cbe81614bab565b604082015292915050565b60008060408385031215614cdc57600080fd5b823567ffffffffffffffff80821115614cf457600080fd5b9084019060808287031215614d0857600080fd5b614d10614b15565b82358152602083013560208201526040830135614d2c81614bab565b6040820152606083013582811115614d4357600080fd5b614d4f88828601614bcd565b60608301525093506020850135915080821115614d6b57600080fd5b50614d7885828601614c5b565b9150509250929050565b600060208284031215614d9457600080fd5b5035919050565b600067ffffffffffffffff821115614db557614db5614abd565b5060051b60200190565b600082601f830112614dd057600080fd5b81356020614de5614de083614d9b565b614b5c565b82815260059290921b84018101918181019086841115614e0457600080fd5b8286015b84811015614e1f5780358352918301918301614e08565b509695505050505050565b600080600080600060a08688031215614e4257600080fd5b8535614e4d81614bab565b94506020860135614e5d81614bab565b9350604086013567ffffffffffffffff80821115614e7a57600080fd5b614e8689838a01614dbf565b94506060880135915080821115614e9c57600080fd5b614ea889838a01614dbf565b93506080880135915080821115614ebe57600080fd5b50614ecb88828901614bcd565b9150509295509295909350565b6000808284036080811215614eec57600080fd5b6060811215614efa57600080fd5b50614f03614aec565b83358152602084013560208201526040840135604082015280925050606083013567ffffffffffffffff811115614f3957600080fd5b614d7885828601614c5b565b60008060008060808587031215614f5b57600080fd5b8435614f6681614bab565b966020860135965060408601359560600135945092505050565b60006102c082019050614f94828451614a0e565b6020838101518051610160850152908101516101808401526040908101516101a08401528301516101c083015260608301516101e0830152608083015161020083015260a083015161022083015260c083015161024083015260e0830151610260830152610100830151610280830152610120909201516102a09091015290565b600080600080600060a0868803121561502d57600080fd5b853561503881614bab565b9450602086013561504881614bab565b93506040860135925060608601359150608086013567ffffffffffffffff81111561507257600080fd5b614ecb88828901614bcd565b805161508981614bab565b919050565b600061016082840312156150a157600080fd5b6150a9614b38565b6150b28361507e565b8152602083015160208201526150ca6040840161507e565b6040820152606083015160608201526080830151608082015260a083015160a082015260c083015160c082015260e083015160e08201526101008084015181830152506101208084015181830152506101408084015181830152508091505092915050565b60006020828403121561514157600080fd5b5051919050565b7f4e487b7100000000000000000000000000000000000000000000000000000000600052601160045260246000fd5b808201808211156102c3576102c3615148565b60005b838110156151a557818101518382015260200161518d565b50506000910152565b600081518084526151c681602086016020860161518a565b601f017fffffffffffffffffffffffffffffffffffffffffffffffffffffffffffffffe0169290920160200192915050565b60408152600061520b60408301856151ae565b90508260208301529392505050565b7f4e487b7100000000000000000000000000000000000000000000000000000000600052601260045260246000fd5b6000826152585761525861521a565b500490565b818103818111156102c3576102c3615148565b8251815260208301516020820152604083015160408201526060830151606082015260a0608082015260006152a860a08301846151ae565b949350505050565b6000606082840312156152c257600080fd5b6152ca614aec565b8251815260208301516020820152604083015160408201528091505092915050565b600082516152fe81846020870161518a565b9190910192915050565b60006020828403121561531a57600080fd5b81518015158114612bc957600080fd5b7f4e487b7100000000000000000000000000000000000000000000000000000000600052603260045260246000fd5b6020808252825182820181905260009190848201906040850190845b8181101561539757835163ffffffff1683529284019291840191600101615375565b50909695505050505050565b600082601f8301126153b457600080fd5b815160206153c4614de083614d9b565b82815260059290921b840181019181810190868411156153e357600080fd5b8286015b84811015614e1f5780516153fa81614bab565b83529183019183016153e7565b6000806040838503121561541a57600080fd5b825167ffffffffffffffff8082111561543257600080fd5b818501915085601f83011261544657600080fd5b81516020615456614de083614d9b565b82815260059290921b8401810191818101908984111561547557600080fd5b948201945b838610156154a35785518060060b81146154945760008081fd5b8252948201949082019061547a565b918801519196509093505050808211156154bc57600080fd5b50614d78858286016153a3565b600682810b9082900b037fffffffffffffffffffffffffffffffffffffffffffffffffff800000000000008112667fffffffffffff821317156102c3576102c3615148565b73ffffffffffffffffffffffffffffffffffffffff82811682821603908082111561553b5761553b615148565b5092915050565b60008160060b8360060b806155595761555961521a565b7fffffffffffffffffffffffffffffffffffffffffffffffffffffffffffffffff81147fffffffffffffffffffffffffffffffffffffffffffffffffff80000000000000831416156155ad576155ad615148565b90059392505050565b60008260060b806155c9576155c961521a565b808360060b0791505092915050565b60008160020b7fffffffffffffffffffffffffffffffffffffffffffffffffffffffffff800000810361560d5761560d615148565b7fffffffffffffffffffffffffffffffffffffffffffffffffffffffffffffffff0192915050565b77ffffffffffffffffffffffffffffffffffffffffffffffff82811682821681810283169291811582850482141761566f5761566f615148565b50505092915050565b600077ffffffffffffffffffffffffffffffffffffffffffffffff808416806156a3576156a361521a565b92169190910492915050565b600080604083850312156156c257600080fd5b505080516020909101519092909150565b63ffffffff82811682821603908082111561553b5761553b615148565b6000816156ff576156ff615148565b507fffffffffffffffffffffffffffffffffffffffffffffffffffffffffffffffff0190565b600081600f0b7fffffffffffffffffffffffffffffffff80000000000000000000000000000000810361575a5761575a615148565b6000039291505056fea164736f6c6343000814000a",
    "linkReferences": {},
    "deployedLinkReferences": {}
}