{
    "_format": "hh-sol-artifact-1",
    "contractName": "View",
    "sourceName": "contracts/View.sol",
    "abi": [
        {
            "inputs": [],
            "name": "T",
            "type": "error"
        },
        {
            "inputs": [
                {
                    "internalType": "bytes32",
                    "name": "ORACLE",
                    "type": "bytes32"
                },
                {
                    "internalType": "uint256",
                    "name": "MARK",
                    "type": "uint256"
                },
                {
                    "internalType": "address",
                    "name": "TOKEN_R",
                    "type": "address"
                },
                {
                    "internalType": "uint256",
                    "name": "k",
                    "type": "uint256"
                },
                {
                    "internalType": "address",
                    "name": "TOKEN",
                    "type": "address"
                }
            ],
            "name": "getStates",
            "outputs": [
                {
                    "components": [
                        {
                            "internalType": "uint256",
                            "name": "sA",
                            "type": "uint256"
                        },
                        {
                            "internalType": "uint256",
                            "name": "sB",
                            "type": "uint256"
                        },
                        {
                            "internalType": "uint256",
                            "name": "sC",
                            "type": "uint256"
                        },
                        {
                            "internalType": "uint256",
                            "name": "R",
                            "type": "uint256"
                        },
                        {
                            "internalType": "uint256",
                            "name": "rA",
                            "type": "uint256"
                        },
                        {
                            "internalType": "uint256",
                            "name": "rB",
                            "type": "uint256"
                        },
                        {
                            "internalType": "uint256",
                            "name": "rC",
                            "type": "uint256"
                        },
                        {
                            "internalType": "uint256",
                            "name": "a",
                            "type": "uint256"
                        },
                        {
                            "internalType": "uint256",
                            "name": "b",
                            "type": "uint256"
                        },
                        {
                            "internalType": "uint256",
                            "name": "xk",
                            "type": "uint256"
                        },
                        {
                            "internalType": "uint256",
                            "name": "twap",
                            "type": "uint256"
                        },
                        {
                            "internalType": "uint256",
                            "name": "spot",
                            "type": "uint256"
                        },
                        {
                            "internalType": "bytes32",
                            "name": "ORACLE",
                            "type": "bytes32"
                        }
                    ],
                    "internalType": "struct View.StateView",
                    "name": "states",
                    "type": "tuple"
                }
            ],
            "stateMutability": "view",
            "type": "function"
        },
        {
            "inputs": [],
            "name": "test",
            "outputs": [
                {
                    "internalType": "uint256",
                    "name": "a",
                    "type": "uint256"
                }
            ],
            "stateMutability": "view",
            "type": "function"
        }
    ],
    "bytecode": "0x608060405234801561001057600080fd5b506111ae806100206000396000f3fe608060405234801561001057600080fd5b50600436106100365760003560e01c806378ace0fb1461003b578063f8a8fd6d146100ea575b600080fd5b61004e610049366004610b7b565b6100fa565b6040516100e19190815181526020808301519082015260408083015190820152606080830151908201526080808301519082015260a0808301519082015260c0808301519082015260e08083015190820152610100808301519082015261012080830151908201526101408083015190820152610160808301519082015261018091820151918101919091526101a00190565b60405180910390f35b6040516103e881526020016100e1565b610168604051806101a00160405280600081526020016000815260200160008152602001600081526020016000815260200160008152602001600081526020016000815260200160008152602001600081526020016000815260200160008152602001600080191681525090565b610171866101e3565b610160830152610140820152600061018a306010610369565b90506000610199306020610369565b905060006101a8306030610369565b6000805460e0870152600154610100870152610140860151919250906101cf908a89610396565b610120860152509298975050505050505050565b60008060008360001c905060008173ffffffffffffffffffffffffffffffffffffffff16633850c7bd6040518163ffffffff1660e01b815260040160e060405180830381865afa15801561023b573d6000803e3d6000fd5b505050506040513d601f19601f8201168201806040525081019061025f9190610be8565b5050505050509050600061027a8360c08860001c901c6103ca565b509050600061028882610692565b602081811b77ffffffffffffffffffffffffffffffffffffffff0000000016975073ffffffffffffffffffffffffffffffff000000009085901b16955073ffffffffffffffffffffffffffffffffffffffff1690507f8000000000000000000000000000000000000000000000000000000000000000871660000361036057610331857fffffffffffffffffffffffffffffffffffffffffffffffffffffffffffffffff610cea565b945061035d867fffffffffffffffffffffffffffffffffffffffffffffffffffffffffffffffff610cea565b95505b50505050915091565b600061038f73ffffffffffffffffffffffffffffffffffffffff841660a084901b610cfe565b9392505050565b6000806103b585700100000000000000000000000000000000866109f9565b90506103c18184610ac9565b95945050505050565b6000808263ffffffff16600003610441576040517f08c379a000000000000000000000000000000000000000000000000000000000815260206004820152600260248201527f4250000000000000000000000000000000000000000000000000000000000000604482015260640160405180910390fd5b604080516002808252606082018352600092602083019080368337019050509050838160008151811061047657610476610d45565b602002602001019063ffffffff16908163ffffffff16815250506000816001815181106104a5576104a5610d45565b602002602001019063ffffffff16908163ffffffff16815250506000808673ffffffffffffffffffffffffffffffffffffffff1663883bdbfd846040518263ffffffff1660e01b81526004016104fb9190610d74565b600060405180830381865afa158015610518573d6000803e3d6000fd5b505050506040513d6000823e601f3d9081017fffffffffffffffffffffffffffffffffffffffffffffffffffffffffffffffe016820160405261055e9190810190610ea5565b9150915060008260008151811061057757610577610d45565b60200260200101518360018151811061059257610592610d45565b60200260200101516105a49190610f71565b90506000826000815181106105bb576105bb610d45565b6020026020010151836001815181106105d6576105d6610d45565b60200260200101516105e89190610fd9565b90506105fa63ffffffff89168361100e565b965060008260060b128015610620575061061a63ffffffff891683611082565b60060b15155b15610633578661062f816110a4565b9750505b600061065973ffffffffffffffffffffffffffffffffffffffff63ffffffff8b16611101565b905061068377ffffffffffffffffffffffffffffffffffffffff00000000602084901b1682611141565b96505050505050509250929050565b60008060008360020b126106a9578260020b6106b1565b8260020b6000035b9050620d89e88111156106f0576040517f2bc80f3a00000000000000000000000000000000000000000000000000000000815260040160405180910390fd5b60008160011660000361071457700100000000000000000000000000000000610726565b6ffffcb933bd6fad37aa2d162d1a5940015b70ffffffffffffffffffffffffffffffffff169050600282161561075a576ffff97272373d413259a46990580e213a0260801c5b6004821615610779576ffff2e50f5f656932ef12357cf3c7fdcc0260801c5b6008821615610798576fffe5caca7e10e4e61c3624eaa0941cd00260801c5b60108216156107b7576fffcb9843d60f6159c9db58835c9266440260801c5b60208216156107d6576fff973b41fa98c081472e6896dfb254c00260801c5b60408216156107f5576fff2ea16466c96a3843ec78b326b528610260801c5b6080821615610814576ffe5dee046a99a2a811c461f1969c30530260801c5b610100821615610834576ffcbe86c7900a88aedcffc83b479aa3a40260801c5b610200821615610854576ff987a7253ac413176f2b074cf7815e540260801c5b610400821615610874576ff3392b0822b70005940c7a398e4b70f30260801c5b610800821615610894576fe7159475a2c29b7443b29c7fa6e889d90260801c5b6110008216156108b4576fd097f3bdfd2022b8845ad8f792aa58250260801c5b6120008216156108d4576fa9f746462d870fdf8a65dc1f90e061e50260801c5b6140008216156108f4576f70d869a156d2a1b890bb3df62baf32f70260801c5b618000821615610914576f31be135f97d08fd981231505542fcfa60260801c5b62010000821615610935576f09aa508b5b7a84e1c677de54f3e99bc90260801c5b62020000821615610955576e5d6af8dedb81196699c329225ee6040260801c5b62040000821615610974576d2216e584f5fa1ea926041bedfe980260801c5b62080000821615610991576b048a170391f7dc42444e8fa20260801c5b60008460020b13156109d057807fffffffffffffffffffffffffffffffffffffffffffffffffffffffffffffffff816109cc576109cc610c8c565b0490505b6401000000008106156109e45760016109e7565b60005b60ff16602082901c0192505050919050565b600080807fffffffffffffffffffffffffffffffffffffffffffffffffffffffffffffffff85870985870292508281108382030391505080600003610a505760008411610a4557600080fd5b50829004905061038f565b808411610a5c57600080fd5b6000848688096000868103871696879004966002600389028118808a02820302808a02820302808a02820302808a02820302808a02820302808a02909103029181900381900460010186841190950394909402919094039290920491909117919091029150509392505050565b6000808260011611610aec57700100000000000000000000000000000000610aee565b825b9050600182901c91505b8115610b5057610b1a83847001000000000000000000000000000000006109f9565b92506001821615610b4457610b4181847001000000000000000000000000000000006109f9565b90505b600182901c9150610af8565b92915050565b73ffffffffffffffffffffffffffffffffffffffff81168114610b7857600080fd5b50565b600080600080600060a08688031215610b9357600080fd5b85359450602086013593506040860135610bac81610b56565b9250606086013591506080860135610bc381610b56565b809150509295509295909350565b805161ffff81168114610be357600080fd5b919050565b600080600080600080600060e0888a031215610c0357600080fd5b8751610c0e81610b56565b8097505060208801518060020b8114610c2657600080fd5b9550610c3460408901610bd1565b9450610c4260608901610bd1565b9350610c5060808901610bd1565b925060a088015160ff81168114610c6657600080fd5b60c08901519092508015158114610c7c57600080fd5b8091505092959891949750929550565b7f4e487b7100000000000000000000000000000000000000000000000000000000600052601260045260246000fd5b7f4e487b7100000000000000000000000000000000000000000000000000000000600052601160045260246000fd5b600082610cf957610cf9610c8c565b500490565b60008219821115610d1157610d11610cbb565b500190565b7f4e487b7100000000000000000000000000000000000000000000000000000000600052604160045260246000fd5b7f4e487b7100000000000000000000000000000000000000000000000000000000600052603260045260246000fd5b6020808252825182820181905260009190848201906040850190845b81811015610db257835163ffffffff1683529284019291840191600101610d90565b50909695505050505050565b604051601f82017fffffffffffffffffffffffffffffffffffffffffffffffffffffffffffffffe016810167ffffffffffffffff81118282101715610e0557610e05610d16565b604052919050565b600067ffffffffffffffff821115610e2757610e27610d16565b5060051b60200190565b600082601f830112610e4257600080fd5b81516020610e57610e5283610e0d565b610dbe565b82815260059290921b84018101918181019086841115610e7657600080fd5b8286015b84811015610e9a578051610e8d81610b56565b8352918301918301610e7a565b509695505050505050565b60008060408385031215610eb857600080fd5b825167ffffffffffffffff80821115610ed057600080fd5b818501915085601f830112610ee457600080fd5b81516020610ef4610e5283610e0d565b82815260059290921b84018101918181019089841115610f1357600080fd5b948201945b83861015610f415785518060060b8114610f325760008081fd5b82529482019490820190610f18565b91880151919650909350505080821115610f5a57600080fd5b50610f6785828601610e31565b9150509250929050565b60008160060b8360060b60008112817fffffffffffffffffffffffffffffffffffffffffffffffffff8000000000000001831281151615610fb457610fb4610cbb565b81667fffffffffffff018313811615610fcf57610fcf610cbb565b5090039392505050565b600073ffffffffffffffffffffffffffffffffffffffff8381169083168181101561100657611006610cbb565b039392505050565b60008160060b8360060b8061102557611025610c8c565b7fffffffffffffffffffffffffffffffffffffffffffffffffffffffffffffffff81147fffffffffffffffffffffffffffffffffffffffffffffffffff800000000000008314161561107957611079610cbb565b90059392505050565b60008260060b8061109557611095610c8c565b808360060b0791505092915050565b60008160020b7fffffffffffffffffffffffffffffffffffffffffffffffffffffffffff80000081036110d9576110d9610cbb565b7fffffffffffffffffffffffffffffffffffffffffffffffffffffffffffffffff0192915050565b600077ffffffffffffffffffffffffffffffffffffffffffffffff8083168185168183048111821515161561113857611138610cbb565b02949350505050565b600077ffffffffffffffffffffffffffffffffffffffffffffffff8084168061116c5761116c610c8c565b9216919091049291505056fea26469706673582212205c9a966684a86b89671d4ba5e78ab0892d88874f44cec5ddcf41b1d29f4ac69d64736f6c634300080d0033",
    "linkReferences": {},
    "deployedLinkReferences": {}
}