{
    "_format": "hh-sol-artifact-1",
    "contractName": "View",
    "sourceName": "contracts/View.sol",
    "abi": [
        {
            "inputs": [],
            "name": "T",
            "type": "error"
        },
        {
            "inputs": [
                {
                    "internalType": "bytes32",
                    "name": "ORACLE",
                    "type": "bytes32"
                },
                {
                    "internalType": "uint256",
                    "name": "MARK",
                    "type": "uint256"
                },
                {
                    "internalType": "address",
                    "name": "TOKEN_R",
                    "type": "address"
                },
                {
                    "internalType": "uint256",
                    "name": "k",
                    "type": "uint256"
                },
                {
                    "internalType": "address",
                    "name": "TOKEN",
                    "type": "address"
                },
                {
                    "internalType": "uint256",
                    "name": "INIT_TIME",
                    "type": "uint256"
                },
                {
                    "internalType": "uint256",
                    "name": "HALF_LIFE",
                    "type": "uint256"
                }
            ],
            "name": "getStates",
            "outputs": [
                {
                    "components": [
                        {
                            "internalType": "uint256",
                            "name": "sA",
                            "type": "uint256"
                        },
                        {
                            "internalType": "uint256",
                            "name": "sB",
                            "type": "uint256"
                        },
                        {
                            "internalType": "uint256",
                            "name": "sC",
                            "type": "uint256"
                        },
                        {
                            "internalType": "uint256",
                            "name": "R",
                            "type": "uint256"
                        },
                        {
                            "internalType": "uint256",
                            "name": "rA",
                            "type": "uint256"
                        },
                        {
                            "internalType": "uint256",
                            "name": "rB",
                            "type": "uint256"
                        },
                        {
                            "internalType": "uint256",
                            "name": "rC",
                            "type": "uint256"
                        },
                        {
                            "internalType": "uint256",
                            "name": "a",
                            "type": "uint256"
                        },
                        {
                            "internalType": "uint256",
                            "name": "b",
                            "type": "uint256"
                        },
                        {
                            "internalType": "uint256",
                            "name": "xk",
                            "type": "uint256"
                        },
                        {
                            "internalType": "uint256",
                            "name": "xkA",
                            "type": "uint256"
                        },
                        {
                            "internalType": "uint256",
                            "name": "twap",
                            "type": "uint256"
                        },
                        {
                            "internalType": "uint256",
                            "name": "spot",
                            "type": "uint256"
                        },
                        {
                            "internalType": "bytes32",
                            "name": "ORACLE",
                            "type": "bytes32"
                        }
                    ],
                    "internalType": "struct View.StateView",
                    "name": "states",
                    "type": "tuple"
                }
            ],
            "stateMutability": "view",
            "type": "function"
        },
        {
            "inputs": [],
            "name": "test",
            "outputs": [
                {
                    "internalType": "uint256",
                    "name": "",
                    "type": "uint256"
                }
            ],
            "stateMutability": "pure",
            "type": "function"
        }
    ],
    "bytecode": "0x608060405234801561001057600080fd5b5061208f806100206000396000f3fe608060405234801561001057600080fd5b50600436106100365760003560e01c80634d2bd1621461003b578063f8a8fd6d146100f5575b600080fd5b61004e610049366004611a1a565b610105565b6040516100ec9190815181526020808301519082015260408083015190820152606080830151908201526080808301519082015260a0808301519082015260c0808301519082015260e08083015190820152610100808301519082015261012080830151908201526101408083015190820152610160808301519082015261018080830151908201526101a091820151918101919091526101c00190565b60405180910390f35b6040516103e881526020016100ec565b61017a604051806101c0016040528060008152602001600081526020016000815260200160008152602001600081526020016000815260200160008152602001600081526020016000815260200160008152602001600081526020016000815260200160008152602001600080191681525090565b6040517f70a0823100000000000000000000000000000000000000000000000000000000815230600482015273ffffffffffffffffffffffffffffffffffffffff8716906370a0823190602401602060405180830381865afa1580156101e4573d6000803e3d6000fd5b505050506040513d601f19601f820116820180604052508101906102089190611a82565b60608083019182526000805460e08501908152600154610100860181815260408051958601815295518552915160208501529081905292820192909252906102596102538642611aca565b85610449565b90506102648a610488565b61018085015261016084018190526000610280898c858561060e565b905061028c81856106ad565b60a087015260808601525161014085015250505073ffffffffffffffffffffffffffffffffffffffff841663bd85b0396102c73060106106e6565b6040518263ffffffff1660e01b81526004016102e591815260200190565b602060405180830381865afa158015610302573d6000803e3d6000fd5b505050506040513d601f19601f820116820180604052508101906103269190611a82565b815273ffffffffffffffffffffffffffffffffffffffff841663bd85b03961034f3060206106e6565b6040518263ffffffff1660e01b815260040161036d91815260200190565b602060405180830381865afa15801561038a573d6000803e3d6000fd5b505050506040513d601f19601f820116820180604052508101906103ae9190611a82565b602082015273ffffffffffffffffffffffffffffffffffffffff841663bd85b0396103da3060306106e6565b6040518263ffffffff1660e01b81526004016103f891815260200190565b602060405180830381865afa158015610415573d6000803e3d6000fd5b505050506040513d601f19601f820116820180604052508101906104399190611a82565b6040820152979650505050505050565b600081600003610463575068010000000000000000610482565b600061047b61047684604087901b611b10565b610713565b600f0b9150505b92915050565b60008060008360001c905060008173ffffffffffffffffffffffffffffffffffffffff16633850c7bd6040518163ffffffff1660e01b815260040160e060405180830381865afa1580156104e0573d6000803e3d6000fd5b505050506040513d601f19601f820116820180604052508101906105049190611b3b565b5050505050509050600061051f8360c08860001c901c6111fc565b509050600061052d826114c4565b602081811b77ffffffffffffffffffffffffffffffffffffffff0000000016975073ffffffffffffffffffffffffffffffff000000009085901b16955073ffffffffffffffffffffffffffffffffffffffff1690507f80000000000000000000000000000000000000000000000000000000000000008716600003610605576105d6857fffffffffffffffffffffffffffffffffffffffffffffffffffffffffffffffff611b10565b9450610602867fffffffffffffffffffffffffffffffffffffffffffffffffffffffffffffffff611b10565b95505b50505050915091565b6040805180820190915260008082526020820152610647610641837001000000000000000000000000000000008761182b565b866118fb565b80825261068890610678907fffffffffffffffffffffffffffffffffffffffffffffffffffffffffffffffff611b10565b680100000000000000008561182b565b602082015280516106a390680100000000000000008561182b565b8152949350505050565b81516020820151825160009283926106c492611982565b91506106dd846020015184604001518560000151611982565b90509250929050565b600061070c73ffffffffffffffffffffffffffffffffffffffff841660a084901b611bdf565b9392505050565b60006840000000000000000082600f0b1261072d57600080fd5b7fffffffffffffffffffffffffffffffffffffffffffffffc0000000000000000082600f0b121561076057506000919050565b6f8000000000000000000000000000000060006780000000000000008416600f0b131561079e5770016a09e667f3bcc908b2fb1366ea957d3e0260801c5b60008367400000000000000016600f0b13156107cb577001306fe0a31b7152de8d5a46305c85edec0260801c5b60008367200000000000000016600f0b13156107f8577001172b83c7d517adcdf7c8c50eb14a791f0260801c5b60008367100000000000000016600f0b13156108255770010b5586cf9890f6298b92b71842a983630260801c5b60008367080000000000000016600f0b1315610852577001059b0d31585743ae7c548eb68ca417fd0260801c5b60008367040000000000000016600f0b131561087f57700102c9a3e778060ee6f7caca4f7a29bde80260801c5b60008367020000000000000016600f0b13156108ac5770010163da9fb33356d84a66ae336dcdfa3f0260801c5b60008367010000000000000016600f0b13156108d957700100b1afa5abcbed6129ab13ec11dc95430260801c5b600083668000000000000016600f0b13156109055770010058c86da1c09ea1ff19d294cf2f679b0260801c5b600083664000000000000016600f0b1315610931577001002c605e2e8cec506d21bfc89a23a00f0260801c5b600083662000000000000016600f0b131561095d57700100162f3904051fa128bca9c55c31e5df0260801c5b600083661000000000000016600f0b1315610989577001000b175effdc76ba38e31671ca9397250260801c5b600083660800000000000016600f0b13156109b557700100058ba01fb9f96d6cacd4b180917c3d0260801c5b600083660400000000000016600f0b13156109e15770010002c5cc37da9491d0985c348c68e7b30260801c5b600083660200000000000016600f0b1315610a0d577001000162e525ee054754457d59952920260260801c5b600083660100000000000016600f0b1315610a395770010000b17255775c040618bf4a4ade83fc0260801c5b6000836580000000000016600f0b1315610a64577001000058b91b5bc9ae2eed81e9b7d4cfab0260801c5b6000836540000000000016600f0b1315610a8f57700100002c5c89d5ec6ca4d7c8acc017b7c90260801c5b6000836520000000000016600f0b1315610aba5770010000162e43f4f831060e02d839a9d16d0260801c5b6000836510000000000016600f0b1315610ae557700100000b1721bcfc99d9f890ea069117630260801c5b6000836508000000000016600f0b1315610b105770010000058b90cf1e6d97f9ca14dbcc16280260801c5b6000836504000000000016600f0b1315610b3b577001000002c5c863b73f016468f6bac5ca2b0260801c5b6000836502000000000016600f0b1315610b6657700100000162e430e5a18f6119e3c02282a50260801c5b6000836501000000000016600f0b1315610b91577001000000b1721835514b86e6d96efd1bfe0260801c5b60008364800000000016600f0b1315610bbb57700100000058b90c0b48c6be5df846c5b2ef0260801c5b60008364400000000016600f0b1315610be55770010000002c5c8601cc6b9e94213c72737a0260801c5b60008364200000000016600f0b1315610c0f577001000000162e42fff037df38aa2b219f060260801c5b60008364100000000016600f0b1315610c395770010000000b17217fba9c739aa5819f44f90260801c5b60008364080000000016600f0b1315610c63577001000000058b90bfcdee5acd3c1cedc8230260801c5b60008364040000000016600f0b1315610c8d57700100000002c5c85fe31f35a6a30da1be500260801c5b60008364020000000016600f0b1315610cb75770010000000162e42ff0999ce3541b9fffcf0260801c5b60008364010000000016600f0b1315610ce157700100000000b17217f80f4ef5aadda455540260801c5b600083638000000016600f0b1315610d0a5770010000000058b90bfbf8479bd5a81b51ad0260801c5b600083634000000016600f0b1315610d33577001000000002c5c85fdf84bd62ae30a74cc0260801c5b600083632000000016600f0b1315610d5c57700100000000162e42fefb2fed257559bdaa0260801c5b600083631000000016600f0b1315610d85577001000000000b17217f7d5a7716bba4a9ae0260801c5b600083630800000016600f0b1315610dae57700100000000058b90bfbe9ddbac5e109cce0260801c5b600083630400000016600f0b1315610dd75770010000000002c5c85fdf4b15de6f17eb0d0260801c5b600083630200000016600f0b1315610e00577001000000000162e42fefa494f1478fde050260801c5b600083630100000016600f0b1315610e295770010000000000b17217f7d20cf927c8e94c0260801c5b6000836280000016600f0b1315610e51577001000000000058b90bfbe8f71cb4e4b33d0260801c5b6000836240000016600f0b1315610e7957700100000000002c5c85fdf477b662b269450260801c5b6000836220000016600f0b1315610ea15770010000000000162e42fefa3ae53369388c0260801c5b6000836210000016600f0b1315610ec957700100000000000b17217f7d1d351a389d400260801c5b6000836208000016600f0b1315610ef15770010000000000058b90bfbe8e8b2d3d4ede0260801c5b6000836204000016600f0b1315610f19577001000000000002c5c85fdf4741bea6e77e0260801c5b6000836202000016600f0b1315610f4157700100000000000162e42fefa39fe95583c20260801c5b6000836201000016600f0b1315610f69577001000000000000b17217f7d1cfb72b45e10260801c5b60008361800016600f0b1315610f9057700100000000000058b90bfbe8e7cc35c3f00260801c5b60008361400016600f0b1315610fb75770010000000000002c5c85fdf473e242ea380260801c5b60008361200016600f0b1315610fde577001000000000000162e42fefa39f02b772c0260801c5b60008361100016600f0b13156110055770010000000000000b17217f7d1cf7d83c1a0260801c5b60008361080016600f0b131561102c577001000000000000058b90bfbe8e7bdcbe2e0260801c5b60008361040016600f0b131561105357700100000000000002c5c85fdf473dea871f0260801c5b60008361020016600f0b131561107a5770010000000000000162e42fefa39ef44d910260801c5b60008361010016600f0b13156110a157700100000000000000b17217f7d1cf79e9490260801c5b600083608016600f0b13156110c75770010000000000000058b90bfbe8e7bce5440260801c5b600083604016600f0b13156110ed577001000000000000002c5c85fdf473de6eca0260801c5b600083602016600f0b131561111357700100000000000000162e42fefa39ef366f0260801c5b600083601016600f0b1315611139577001000000000000000b17217f7d1cf79afa0260801c5b600083600816600f0b131561115f57700100000000000000058b90bfbe8e7bcd6d0260801c5b600083600416600f0b13156111855770010000000000000002c5c85fdf473de6b20260801c5b600083600216600f0b13156111ab577001000000000000000162e42fefa39ef3580260801c5b600083600116600f0b13156111d15770010000000000000000b17217f7d1cf79ab0260801c5b600f83810b60401d603f03900b1c6f7fffffffffffffffffffffffffffffff81111561048257600080fd5b6000808263ffffffff16600003611273576040517f08c379a000000000000000000000000000000000000000000000000000000000815260206004820152600260248201527f4250000000000000000000000000000000000000000000000000000000000000604482015260640160405180910390fd5b60408051600280825260608201835260009260208301908036833701905050905083816000815181106112a8576112a8611c26565b602002602001019063ffffffff16908163ffffffff16815250506000816001815181106112d7576112d7611c26565b602002602001019063ffffffff16908163ffffffff16815250506000808673ffffffffffffffffffffffffffffffffffffffff1663883bdbfd846040518263ffffffff1660e01b815260040161132d9190611c55565b600060405180830381865afa15801561134a573d6000803e3d6000fd5b505050506040513d6000823e601f3d9081017fffffffffffffffffffffffffffffffffffffffffffffffffffffffffffffffe01682016040526113909190810190611d86565b915091506000826000815181106113a9576113a9611c26565b6020026020010151836001815181106113c4576113c4611c26565b60200260200101516113d69190611e52565b90506000826000815181106113ed576113ed611c26565b60200260200101518360018151811061140857611408611c26565b602002602001015161141a9190611eba565b905061142c63ffffffff891683611eef565b965060008260060b128015611452575061144c63ffffffff891683611f63565b60060b15155b15611465578661146181611f85565b9750505b600061148b73ffffffffffffffffffffffffffffffffffffffff63ffffffff8b16611fe2565b90506114b577ffffffffffffffffffffffffffffffffffffffff00000000602084901b1682612022565b96505050505050509250929050565b60008060008360020b126114db578260020b6114e3565b8260020b6000035b9050620d89e8811115611522576040517f2bc80f3a00000000000000000000000000000000000000000000000000000000815260040160405180910390fd5b60008160011660000361154657700100000000000000000000000000000000611558565b6ffffcb933bd6fad37aa2d162d1a5940015b70ffffffffffffffffffffffffffffffffff169050600282161561158c576ffff97272373d413259a46990580e213a0260801c5b60048216156115ab576ffff2e50f5f656932ef12357cf3c7fdcc0260801c5b60088216156115ca576fffe5caca7e10e4e61c3624eaa0941cd00260801c5b60108216156115e9576fffcb9843d60f6159c9db58835c9266440260801c5b6020821615611608576fff973b41fa98c081472e6896dfb254c00260801c5b6040821615611627576fff2ea16466c96a3843ec78b326b528610260801c5b6080821615611646576ffe5dee046a99a2a811c461f1969c30530260801c5b610100821615611666576ffcbe86c7900a88aedcffc83b479aa3a40260801c5b610200821615611686576ff987a7253ac413176f2b074cf7815e540260801c5b6104008216156116a6576ff3392b0822b70005940c7a398e4b70f30260801c5b6108008216156116c6576fe7159475a2c29b7443b29c7fa6e889d90260801c5b6110008216156116e6576fd097f3bdfd2022b8845ad8f792aa58250260801c5b612000821615611706576fa9f746462d870fdf8a65dc1f90e061e50260801c5b614000821615611726576f70d869a156d2a1b890bb3df62baf32f70260801c5b618000821615611746576f31be135f97d08fd981231505542fcfa60260801c5b62010000821615611767576f09aa508b5b7a84e1c677de54f3e99bc90260801c5b62020000821615611787576e5d6af8dedb81196699c329225ee6040260801c5b620400008216156117a6576d2216e584f5fa1ea926041bedfe980260801c5b620800008216156117c3576b048a170391f7dc42444e8fa20260801c5b60008460020b131561180257807fffffffffffffffffffffffffffffffffffffffffffffffffffffffffffffffff816117fe576117fe611ae1565b0490505b640100000000810615611816576001611819565b60005b60ff16602082901c0192505050919050565b600080807fffffffffffffffffffffffffffffffffffffffffffffffffffffffffffffffff85870985870292508281108382030391505080600003611882576000841161187757600080fd5b50829004905061070c565b80841161188e57600080fd5b6000848688096000868103871696879004966002600389028118808a02820302808a02820302808a02820302808a02820302808a02820302808a02909103029181900381900460010186841190950394909402919094039290920491909117919091029150509392505050565b600080826001161161191e57700100000000000000000000000000000000611920565b825b9050600182901c91505b81156104825761194c838470010000000000000000000000000000000061182b565b9250600182161561197657611973818470010000000000000000000000000000000061182b565b90505b600182901c915061192a565b60006119a0838570010000000000000000000000000000000061182b565b9050600182901c81111561070c5760006119d084600287901b70010000000000000000000000000000000061182b565b905060006119df84858461182b565b90506119eb8185611aca565b9695505050505050565b73ffffffffffffffffffffffffffffffffffffffff81168114611a1757600080fd5b50565b600080600080600080600060e0888a031215611a3557600080fd5b87359650602088013595506040880135611a4e816119f5565b9450606088013593506080880135611a65816119f5565b9699959850939692959460a0840135945060c09093013592915050565b600060208284031215611a9457600080fd5b5051919050565b7f4e487b7100000000000000000000000000000000000000000000000000000000600052601160045260246000fd5b600082821015611adc57611adc611a9b565b500390565b7f4e487b7100000000000000000000000000000000000000000000000000000000600052601260045260246000fd5b600082611b1f57611b1f611ae1565b500490565b805161ffff81168114611b3657600080fd5b919050565b600080600080600080600060e0888a031215611b5657600080fd5b8751611b61816119f5565b8097505060208801518060020b8114611b7957600080fd5b9550611b8760408901611b24565b9450611b9560608901611b24565b9350611ba360808901611b24565b925060a088015160ff81168114611bb957600080fd5b60c08901519092508015158114611bcf57600080fd5b8091505092959891949750929550565b60008219821115611bf257611bf2611a9b565b500190565b7f4e487b7100000000000000000000000000000000000000000000000000000000600052604160045260246000fd5b7f4e487b7100000000000000000000000000000000000000000000000000000000600052603260045260246000fd5b6020808252825182820181905260009190848201906040850190845b81811015611c9357835163ffffffff1683529284019291840191600101611c71565b50909695505050505050565b604051601f82017fffffffffffffffffffffffffffffffffffffffffffffffffffffffffffffffe016810167ffffffffffffffff81118282101715611ce657611ce6611bf7565b604052919050565b600067ffffffffffffffff821115611d0857611d08611bf7565b5060051b60200190565b600082601f830112611d2357600080fd5b81516020611d38611d3383611cee565b611c9f565b82815260059290921b84018101918181019086841115611d5757600080fd5b8286015b84811015611d7b578051611d6e816119f5565b8352918301918301611d5b565b509695505050505050565b60008060408385031215611d9957600080fd5b825167ffffffffffffffff80821115611db157600080fd5b818501915085601f830112611dc557600080fd5b81516020611dd5611d3383611cee565b82815260059290921b84018101918181019089841115611df457600080fd5b948201945b83861015611e225785518060060b8114611e135760008081fd5b82529482019490820190611df9565b91880151919650909350505080821115611e3b57600080fd5b50611e4885828601611d12565b9150509250929050565b60008160060b8360060b60008112817fffffffffffffffffffffffffffffffffffffffffffffffffff8000000000000001831281151615611e9557611e95611a9b565b81667fffffffffffff018313811615611eb057611eb0611a9b565b5090039392505050565b600073ffffffffffffffffffffffffffffffffffffffff83811690831681811015611ee757611ee7611a9b565b039392505050565b60008160060b8360060b80611f0657611f06611ae1565b7fffffffffffffffffffffffffffffffffffffffffffffffffffffffffffffffff81147fffffffffffffffffffffffffffffffffffffffffffffffffff8000000000000083141615611f5a57611f5a611a9b565b90059392505050565b60008260060b80611f7657611f76611ae1565b808360060b0791505092915050565b60008160020b7fffffffffffffffffffffffffffffffffffffffffffffffffffffffffff8000008103611fba57611fba611a9b565b7fffffffffffffffffffffffffffffffffffffffffffffffffffffffffffffffff0192915050565b600077ffffffffffffffffffffffffffffffffffffffffffffffff8083168185168183048111821515161561201957612019611a9b565b02949350505050565b600077ffffffffffffffffffffffffffffffffffffffffffffffff8084168061204d5761204d611ae1565b9216919091049291505056fea26469706673582212201863658a4b117feed0aac111b4215a5f6b8d149830433cf0c708c831fdc4e0c164736f6c634300080d0033",
    "linkReferences": {},
    "deployedLinkReferences": {}
}