{
    "_format": "hh-sol-artifact-1",
    "contractName": "View",
    "sourceName": "contracts/View.sol",
    "abi": [
        {
            "inputs": [],
            "name": "T",
            "type": "error"
        },
        {
            "inputs": [
                {
                    "internalType": "bytes32",
                    "name": "ORACLE",
                    "type": "bytes32"
                },
                {
                    "internalType": "address",
                    "name": "TOKEN",
                    "type": "address"
                }
            ],
            "name": "getStates",
            "outputs": [
                {
                    "components": [
                        {
                            "internalType": "uint256",
                            "name": "sA",
                            "type": "uint256"
                        },
                        {
                            "internalType": "uint256",
                            "name": "sB",
                            "type": "uint256"
                        },
                        {
                            "internalType": "uint256",
                            "name": "sK",
                            "type": "uint256"
                        },
                        {
                            "internalType": "uint256",
                            "name": "rA",
                            "type": "uint256"
                        },
                        {
                            "internalType": "uint256",
                            "name": "rB",
                            "type": "uint256"
                        },
                        {
                            "internalType": "uint256",
                            "name": "rC",
                            "type": "uint256"
                        },
                        {
                            "internalType": "uint224",
                            "name": "twap",
                            "type": "uint224"
                        },
                        {
                            "internalType": "uint224",
                            "name": "spot",
                            "type": "uint224"
                        },
                        {
                            "internalType": "bytes32",
                            "name": "ORACLE",
                            "type": "bytes32"
                        }
                    ],
                    "internalType": "struct View.StateView",
                    "name": "states",
                    "type": "tuple"
                }
            ],
            "stateMutability": "view",
            "type": "function"
        },
        {
            "inputs": [],
            "name": "test",
            "outputs": [
                {
                    "internalType": "uint256",
                    "name": "test",
                    "type": "uint256"
                }
            ],
            "stateMutability": "view",
            "type": "function"
        }
    ],
    "bytecode": "0x608060405234801561001057600080fd5b50611514806100206000396000f3fe608060405234801561001057600080fd5b50600436106100355760003560e01c80621f38671461003a578063f8a8fd6d146100e7575b600080fd5b61004d610048366004610ea4565b6100f7565b6040516100de9190600061012082019050825182526020830151602083015260408301516040830152606083015160608301526080830151608083015260a083015160a083015260c08301517bffffffffffffffffffffffffffffffffffffffffffffffffffffffff80821660c08501528060e08601511660e0850152505061010080840151818401525092915050565b60405180910390f35b6040516103e881526020016100de565b61018560405180610120016040528060008152602001600081526020016000815260200160008152602001600081526020016000815260200160007bffffffffffffffffffffffffffffffffffffffffffffffffffffffff16815260200160007bffffffffffffffffffffffffffffffffffffffffffffffffffffffff168152602001600080191681525090565b61018e836103cd565b7bffffffffffffffffffffffffffffffffffffffffffffffffffffffff90811660e08401521660c082015260006101c630601061055c565b905060006101d530602061055c565b905060006101e430603061055c565b6040517efdd58e0000000000000000000000000000000000000000000000000000000081523060048201526024810185905290915073ffffffffffffffffffffffffffffffffffffffff86169062fdd58e90604401602060405180830381865afa158015610256573d6000803e3d6000fd5b505050506040513d601f19601f8201168201806040525081019061027a9190610ed4565b60608501526040517efdd58e0000000000000000000000000000000000000000000000000000000081523060048201526024810183905273ffffffffffffffffffffffffffffffffffffffff86169062fdd58e90604401602060405180830381865afa1580156102ee573d6000803e3d6000fd5b505050506040513d601f19601f820116820180604052508101906103129190610ed4565b60a08501526040517efdd58e0000000000000000000000000000000000000000000000000000000081523060048201526024810182905273ffffffffffffffffffffffffffffffffffffffff86169062fdd58e90604401602060405180830381865afa158015610386573d6000803e3d6000fd5b505050506040513d601f19601f820116820180604052508101906103aa9190610ed4565b608085015250506000548252506001546020820152600254604082015292915050565b60008060008360001c905060008173ffffffffffffffffffffffffffffffffffffffff16633850c7bd6040518163ffffffff1660e01b815260040160e060405180830381865afa158015610425573d6000803e3d6000fd5b505050506040513d601f19601f820116820180604052508101906104499190610f04565b505050505050905060006104648360c08860001c901c610589565b509050600061047282610852565b905060e087901c6000036104f7576104b973ffffffffffffffffffffffffffffffffffffffff84167801000000000000000000000000000000000000000000000000611006565b92506104f473ffffffffffffffffffffffffffffffffffffffff82167801000000000000000000000000000000000000000000000000611006565b90505b61052373ffffffffffffffffffffffffffffffffffffffff8216806a0100000000000000000000610bb9565b955061055173ffffffffffffffffffffffffffffffffffffffff8416806a0100000000000000000000610bb9565b945050505050915091565b600061058273ffffffffffffffffffffffffffffffffffffffff841660a084901b61101a565b9392505050565b6000808263ffffffff16600003610601576040517f08c379a000000000000000000000000000000000000000000000000000000000815260206004820152600260248201527f425000000000000000000000000000000000000000000000000000000000000060448201526064015b60405180910390fd5b604080516002808252606082018352600092602083019080368337019050509050838160008151811061063657610636611061565b602002602001019063ffffffff16908163ffffffff168152505060008160018151811061066557610665611061565b602002602001019063ffffffff16908163ffffffff16815250506000808673ffffffffffffffffffffffffffffffffffffffff1663883bdbfd846040518263ffffffff1660e01b81526004016106bb9190611090565b600060405180830381865afa1580156106d8573d6000803e3d6000fd5b505050506040513d6000823e601f3d9081017fffffffffffffffffffffffffffffffffffffffffffffffffffffffffffffffe016820160405261071e91908101906111c1565b9150915060008260008151811061073757610737611061565b60200260200101518360018151811061075257610752611061565b60200260200101516107649190611283565b905060008260008151811061077b5761077b611061565b60200260200101518360018151811061079657610796611061565b60200260200101516107a891906112eb565b90506107ba63ffffffff891683611320565b965060008260060b1280156107e057506107da63ffffffff891683611394565b60060b15155b156107f357866107ef816113b6565b9750505b600061081973ffffffffffffffffffffffffffffffffffffffff63ffffffff8b16611413565b905061084377ffffffffffffffffffffffffffffffffffffffff00000000602084901b1682611453565b96505050505050509250929050565b60008060008360020b12610869578260020b610871565b8260020b6000035b9050620d89e88111156108b0576040517f2bc80f3a00000000000000000000000000000000000000000000000000000000815260040160405180910390fd5b6000816001166000036108d4577001000000000000000000000000000000006108e6565b6ffffcb933bd6fad37aa2d162d1a5940015b70ffffffffffffffffffffffffffffffffff169050600282161561091a576ffff97272373d413259a46990580e213a0260801c5b6004821615610939576ffff2e50f5f656932ef12357cf3c7fdcc0260801c5b6008821615610958576fffe5caca7e10e4e61c3624eaa0941cd00260801c5b6010821615610977576fffcb9843d60f6159c9db58835c9266440260801c5b6020821615610996576fff973b41fa98c081472e6896dfb254c00260801c5b60408216156109b5576fff2ea16466c96a3843ec78b326b528610260801c5b60808216156109d4576ffe5dee046a99a2a811c461f1969c30530260801c5b6101008216156109f4576ffcbe86c7900a88aedcffc83b479aa3a40260801c5b610200821615610a14576ff987a7253ac413176f2b074cf7815e540260801c5b610400821615610a34576ff3392b0822b70005940c7a398e4b70f30260801c5b610800821615610a54576fe7159475a2c29b7443b29c7fa6e889d90260801c5b611000821615610a74576fd097f3bdfd2022b8845ad8f792aa58250260801c5b612000821615610a94576fa9f746462d870fdf8a65dc1f90e061e50260801c5b614000821615610ab4576f70d869a156d2a1b890bb3df62baf32f70260801c5b618000821615610ad4576f31be135f97d08fd981231505542fcfa60260801c5b62010000821615610af5576f09aa508b5b7a84e1c677de54f3e99bc90260801c5b62020000821615610b15576e5d6af8dedb81196699c329225ee6040260801c5b62040000821615610b34576d2216e584f5fa1ea926041bedfe980260801c5b62080000821615610b51576b048a170391f7dc42444e8fa20260801c5b60008460020b1315610b9057807fffffffffffffffffffffffffffffffffffffffffffffffffffffffffffffffff81610b8c57610b8c610fa8565b0490505b640100000000810615610ba4576001610ba7565b60005b60ff16602082901c0192505050919050565b6000806000610bc88686610c9e565b9150915060008480610bdc57610bdc610fa8565b868809905082811115610bf757610bf460018361148a565b91505b610c01818461148a565b925081600003610c1f57610c158584611006565b9350505050610582565b848210610c88576040517f08c379a000000000000000000000000000000000000000000000000000000000815260206004820152601a60248201527f46756c6c4d6174683a2046554c4c4449565f4f564552464c4f5700000000000060448201526064016105f8565b610c93838387610cfe565b979650505050505050565b600080807fffffffffffffffffffffffffffffffffffffffffffffffffffffffffffffffff8486099050610cd284866114a1565b9250610cde838261148a565b915082811015610cf657610cf360018361148a565b91505b509250929050565b600080610d0d8319600161101a565b83169050610d1b8184611006565b9250610d278186611006565b945080610d368119600161101a565b610d409190611006565b610d4b90600161101a565b610d5590856114a1565b610d5f908661101a565b94506001610d6d81856114a1565b610d7890600261148a565b610d8290826114a1565b9050610d8e81856114a1565b610d9990600261148a565b610da390826114a1565b9050610daf81856114a1565b610dba90600261148a565b610dc490826114a1565b9050610dd081856114a1565b610ddb90600261148a565b610de590826114a1565b9050610df181856114a1565b610dfc90600261148a565b610e0690826114a1565b9050610e1281856114a1565b610e1d90600261148a565b610e2790826114a1565b9050610e3381856114a1565b610e3e90600261148a565b610e4890826114a1565b9050610e5481856114a1565b610e5f90600261148a565b610e6990826114a1565b9050610e7581876114a1565b9695505050505050565b73ffffffffffffffffffffffffffffffffffffffff81168114610ea157600080fd5b50565b60008060408385031215610eb757600080fd5b823591506020830135610ec981610e7f565b809150509250929050565b600060208284031215610ee657600080fd5b5051919050565b805161ffff81168114610eff57600080fd5b919050565b600080600080600080600060e0888a031215610f1f57600080fd5b8751610f2a81610e7f565b8097505060208801518060020b8114610f4257600080fd5b9550610f5060408901610eed565b9450610f5e60608901610eed565b9350610f6c60808901610eed565b925060a088015160ff81168114610f8257600080fd5b60c08901519092508015158114610f9857600080fd5b8091505092959891949750929550565b7f4e487b7100000000000000000000000000000000000000000000000000000000600052601260045260246000fd5b7f4e487b7100000000000000000000000000000000000000000000000000000000600052601160045260246000fd5b60008261101557611015610fa8565b500490565b6000821982111561102d5761102d610fd7565b500190565b7f4e487b7100000000000000000000000000000000000000000000000000000000600052604160045260246000fd5b7f4e487b7100000000000000000000000000000000000000000000000000000000600052603260045260246000fd5b6020808252825182820181905260009190848201906040850190845b818110156110ce57835163ffffffff16835292840192918401916001016110ac565b50909695505050505050565b604051601f82017fffffffffffffffffffffffffffffffffffffffffffffffffffffffffffffffe016810167ffffffffffffffff8111828210171561112157611121611032565b604052919050565b600067ffffffffffffffff82111561114357611143611032565b5060051b60200190565b600082601f83011261115e57600080fd5b8151602061117361116e83611129565b6110da565b82815260059290921b8401810191818101908684111561119257600080fd5b8286015b848110156111b65780516111a981610e7f565b8352918301918301611196565b509695505050505050565b600080604083850312156111d457600080fd5b825167ffffffffffffffff808211156111ec57600080fd5b818501915085601f83011261120057600080fd5b8151602061121061116e83611129565b82815260059290921b8401810191818101908984111561122f57600080fd5b948201945b8386101561125d5785518060060b811461124e5760008081fd5b82529482019490820190611234565b9188015191965090935050508082111561127657600080fd5b50610cf38582860161114d565b60008160060b8360060b60008112817fffffffffffffffffffffffffffffffffffffffffffffffffff80000000000000018312811516156112c6576112c6610fd7565b81667fffffffffffff0183138116156112e1576112e1610fd7565b5090039392505050565b600073ffffffffffffffffffffffffffffffffffffffff8381169083168181101561131857611318610fd7565b039392505050565b60008160060b8360060b8061133757611337610fa8565b7fffffffffffffffffffffffffffffffffffffffffffffffffffffffffffffffff81147fffffffffffffffffffffffffffffffffffffffffffffffffff800000000000008314161561138b5761138b610fd7565b90059392505050565b60008260060b806113a7576113a7610fa8565b808360060b0791505092915050565b60008160020b7fffffffffffffffffffffffffffffffffffffffffffffffffffffffffff80000081036113eb576113eb610fd7565b7fffffffffffffffffffffffffffffffffffffffffffffffffffffffffffffffff0192915050565b600077ffffffffffffffffffffffffffffffffffffffffffffffff8083168185168183048111821515161561144a5761144a610fd7565b02949350505050565b600077ffffffffffffffffffffffffffffffffffffffffffffffff8084168061147e5761147e610fa8565b92169190910492915050565b60008282101561149c5761149c610fd7565b500390565b6000817fffffffffffffffffffffffffffffffffffffffffffffffffffffffffffffffff04831182151516156114d9576114d9610fd7565b50029056fea2646970667358221220d3121b3d1af98ca696681fb246bc10c207da6f468fdfc6f13ddf9a211afaf51d64736f6c634300080d0033",
    "linkReferences": {},
    "deployedLinkReferences": {}
}