{
    "_format": "hh-sol-artifact-1",
    "contractName": "TokenPriceByRoute",
    "sourceName": "contracts/TokenPriceByRoute.sol",
    "abi": [
        {
            "inputs": [
                {
                    "internalType": "address",
                    "name": "tokenBase",
                    "type": "address"
                },
                {
                    "internalType": "address",
                    "name": "tokenQuote",
                    "type": "address"
                },
                {
                    "components": [
                        {
                            "internalType": "address",
                            "name": "uniPool",
                            "type": "address"
                        },
                        {
                            "internalType": "uint256",
                            "name": "version",
                            "type": "uint256"
                        }
                    ],
                    "internalType": "struct TokenPriceByRoute.Route[]",
                    "name": "routes",
                    "type": "tuple[]"
                }
            ],
            "name": "fetchPrice",
            "outputs": [
                {
                    "internalType": "uint256",
                    "name": "price",
                    "type": "uint256"
                }
            ],
            "stateMutability": "view",
            "type": "function"
        },
        {
            "inputs": [
                {
                    "components": [
                        {
                            "internalType": "address",
                            "name": "tokenBase",
                            "type": "address"
                        },
                        {
                            "internalType": "address",
                            "name": "tokenQuote",
                            "type": "address"
                        },
                        {
                            "components": [
                                {
                                    "internalType": "address",
                                    "name": "uniPool",
                                    "type": "address"
                                },
                                {
                                    "internalType": "uint256",
                                    "name": "version",
                                    "type": "uint256"
                                }
                            ],
                            "internalType": "struct TokenPriceByRoute.Route[]",
                            "name": "routes",
                            "type": "tuple[]"
                        }
                    ],
                    "internalType": "struct TokenPriceByRoute.Params[]",
                    "name": "params",
                    "type": "tuple[]"
                }
            ],
            "name": "fetchPrices",
            "outputs": [
                {
                    "internalType": "uint256[]",
                    "name": "",
                    "type": "uint256[]"
                }
            ],
            "stateMutability": "view",
            "type": "function"
        }
    ],
    "bytecode": "0x608060405234801561001057600080fd5b50610c03806100206000396000f3fe608060405234801561001057600080fd5b50600436106100365760003560e01c8063216657f71461003b5780637e17f5ad14610061575b600080fd5b61004e610049366004610723565b610081565b6040519081526020015b60405180910390f35b61007461006f3660046107b8565b61018d565b604051610058919061082d565b6c01000000000000000000000000600085815b84811015610182578585828181106100ae576100ae610871565b90506040020160200135600203610106576100f08686838181106100d4576100d4610871565b6100ea92602060409092020190810191506108a0565b836102b4565b9093509150606061010184866108f3565b901c93505b85858281811061011857610118610871565b905060400201602001356003036101705761015a86868381811061013e5761013e610871565b61015492602060409092020190810191506108a0565b836104a4565b9093509150606061016b84866108f3565b901c93505b8061017a81610930565b915050610094565b505050949350505050565b606060008267ffffffffffffffff8111156101aa576101aa610968565b6040519080825280602002602001820160405280156101d3578160200160208202803683370190505b50905060005b838110156102ac5761027d8585838181106101f6576101f6610871565b90506020028101906102089190610997565b6102169060208101906108a0565b86868481811061022857610228610871565b905060200281019061023a9190610997565b61024b9060408101906020016108a0565b87878581811061025d5761025d610871565b905060200281019061026f9190610997565b6100499060408101906109d5565b82828151811061028f5761028f610871565b6020908102919091010152806102a481610930565b9150506101d9565b509392505050565b6000806000808573ffffffffffffffffffffffffffffffffffffffff16630902f1ac6040518163ffffffff1660e01b8152600401606060405180830381865afa158015610305573d6000803e3d6000fd5b505050506040513d601f19601f820116820180604052508101906103299190610a67565b506dffffffffffffffffffffffffffff1691506dffffffffffffffffffffffffffff16915060008673ffffffffffffffffffffffffffffffffffffffff16630dfe16816040518163ffffffff1660e01b8152600401602060405180830381865afa15801561039b573d6000803e3d6000fd5b505050506040513d601f19601f820116820180604052508101906103bf9190610ab7565b90508673ffffffffffffffffffffffffffffffffffffffff1663d21220a76040518163ffffffff1660e01b8152600401602060405180830381865afa15801561040c573d6000803e3d6000fd5b505050506040513d601f19601f820116820180604052508101906104309190610ab7565b935061043c8383610682565b94508073ffffffffffffffffffffffffffffffffffffffff168673ffffffffffffffffffffffffffffffffffffffff161461049a57610494857801000000000000000000000000000000000000000000000000610ad4565b94508093505b5050509250929050565b60008060008473ffffffffffffffffffffffffffffffffffffffff16633850c7bd6040518163ffffffff1660e01b815260040160e060405180830381865afa1580156104f4573d6000803e3d6000fd5b505050506040513d601f19601f820116820180604052508101906105189190610b21565b505050505050905060008573ffffffffffffffffffffffffffffffffffffffff16630dfe16816040518163ffffffff1660e01b8152600401602060405180830381865afa15801561056d573d6000803e3d6000fd5b505050506040513d601f19601f820116820180604052508101906105919190610ab7565b90508573ffffffffffffffffffffffffffffffffffffffff1663d21220a76040518163ffffffff1660e01b8152600401602060405180830381865afa1580156105de573d6000803e3d6000fd5b505050506040513d601f19601f820116820180604052508101906106029190610ab7565b92508173ffffffffffffffffffffffffffffffffffffffff1693508073ffffffffffffffffffffffffffffffffffffffff168573ffffffffffffffffffffffffffffffffffffffff161461067957610673847801000000000000000000000000000000000000000000000000610ad4565b93508092505b50509250929050565b6000603061069c61069785606086901b610ad4565b6106a5565b901b9392505050565b60008060026106b5846001610bb5565b6106bf9190610ad4565b90508291505b818110156106f8579050806002816106dd8186610ad4565b6106e79190610bb5565b6106f19190610ad4565b90506106c5565b50919050565b73ffffffffffffffffffffffffffffffffffffffff8116811461072057600080fd5b50565b6000806000806060858703121561073957600080fd5b8435610744816106fe565b93506020850135610754816106fe565b9250604085013567ffffffffffffffff8082111561077157600080fd5b818701915087601f83011261078557600080fd5b81358181111561079457600080fd5b8860208260061b85010111156107a957600080fd5b95989497505060200194505050565b600080602083850312156107cb57600080fd5b823567ffffffffffffffff808211156107e357600080fd5b818501915085601f8301126107f757600080fd5b81358181111561080657600080fd5b8660208260051b850101111561081b57600080fd5b60209290920196919550909350505050565b6020808252825182820181905260009190848201906040850190845b8181101561086557835183529284019291840191600101610849565b50909695505050505050565b7f4e487b7100000000000000000000000000000000000000000000000000000000600052603260045260246000fd5b6000602082840312156108b257600080fd5b81356108bd816106fe565b9392505050565b7f4e487b7100000000000000000000000000000000000000000000000000000000600052601160045260246000fd5b6000817fffffffffffffffffffffffffffffffffffffffffffffffffffffffffffffffff048311821515161561092b5761092b6108c4565b500290565b60007fffffffffffffffffffffffffffffffffffffffffffffffffffffffffffffffff8203610961576109616108c4565b5060010190565b7f4e487b7100000000000000000000000000000000000000000000000000000000600052604160045260246000fd5b600082357fffffffffffffffffffffffffffffffffffffffffffffffffffffffffffffffa18336030181126109cb57600080fd5b9190910192915050565b60008083357fffffffffffffffffffffffffffffffffffffffffffffffffffffffffffffffe1843603018112610a0a57600080fd5b83018035915067ffffffffffffffff821115610a2557600080fd5b6020019150600681901b3603821315610a3d57600080fd5b9250929050565b80516dffffffffffffffffffffffffffff81168114610a6257600080fd5b919050565b600080600060608486031215610a7c57600080fd5b610a8584610a44565b9250610a9360208501610a44565b9150604084015163ffffffff81168114610aac57600080fd5b809150509250925092565b600060208284031215610ac957600080fd5b81516108bd816106fe565b600082610b0a577f4e487b7100000000000000000000000000000000000000000000000000000000600052601260045260246000fd5b500490565b805161ffff81168114610a6257600080fd5b600080600080600080600060e0888a031215610b3c57600080fd5b8751610b47816106fe565b8097505060208801518060020b8114610b5f57600080fd5b9550610b6d60408901610b0f565b9450610b7b60608901610b0f565b9350610b8960808901610b0f565b925060a0880151915060c08801518015158114610ba557600080fd5b8091505092959891949750929550565b60008219821115610bc857610bc86108c4565b50019056fea2646970667358221220f2b9cc78e479745e0b81e164974780245e300c53cfee96c93a5de7712f274c7664736f6c634300080d0033",
    "linkReferences": {},
    "deployedLinkReferences": {}
}