{
    "_format": "hh-sol-artifact-1",
    "contractName": "TokenInfo",
    "sourceName": "contracts/test/TokenInfo.sol",
    "abi": [
        {
            "inputs": [
                {
                    "internalType": "address[]",
                    "name": "tokens",
                    "type": "address[]"
                }
            ],
            "name": "getTokenInfo",
            "outputs": [
                {
                    "components": [
                        {
                            "internalType": "string",
                            "name": "symbol",
                            "type": "string"
                        },
                        {
                            "internalType": "string",
                            "name": "name",
                            "type": "string"
                        },
                        {
                            "internalType": "uint8",
                            "name": "decimals",
                            "type": "uint8"
                        },
                        {
                            "internalType": "uint256",
                            "name": "totalSupply",
                            "type": "uint256"
                        }
                    ],
                    "internalType": "struct TokenInfo.Info[]",
                    "name": "infos",
                    "type": "tuple[]"
                }
            ],
            "stateMutability": "view",
            "type": "function"
        }
    ],
    "bytecode": "0x608060405234801561001057600080fd5b50610902806100206000396000f3fe608060405234801561001057600080fd5b506004361061002b5760003560e01c80634a69ac5014610030575b600080fd5b61004361003e366004610432565b610059565b6040516100509190610515565b60405180910390f35b60608167ffffffffffffffff811115610074576100746105d1565b6040519080825280602002602001820160405280156100d357816020015b6100c060405180608001604052806060815260200160608152602001600060ff168152602001600081525090565b8152602001906001900390816100925790505b50905060005b8281101561042b5760008484838181106100f5576100f5610600565b905060200201602081019061010a919061062f565b90508073ffffffffffffffffffffffffffffffffffffffff166395d89b416040518163ffffffff1660e01b8152600401600060405180830381865afa92505050801561019657506040513d6000823e601f3d9081017fffffffffffffffffffffffffffffffffffffffffffffffffffffffffffffffe016820160405261019391908101906106b7565b60015b6101d4576101a261076d565b806308c379a0036101c857506101b6610789565b806101c157506101ca565b505061041b565b505b3d6000803e3d6000fd5b808484815181106101e7576101e7610600565b602090810291909101015152508073ffffffffffffffffffffffffffffffffffffffff166306fdde036040518163ffffffff1660e01b8152600401600060405180830381865afa92505050801561027e57506040513d6000823e601f3d9081017fffffffffffffffffffffffffffffffffffffffffffffffffffffffffffffffe016820160405261027b91908101906106b7565b60015b610288575061041b565b8084848151811061029b5761029b610600565b602002602001015160200181905250508073ffffffffffffffffffffffffffffffffffffffff1663313ce5676040518163ffffffff1660e01b8152600401602060405180830381865afa925050508015610330575060408051601f3d9081017fffffffffffffffffffffffffffffffffffffffffffffffffffffffffffffffe016820190925261032d91810190610831565b60015b61033a575061041b565b8084848151811061034d5761034d610600565b60200260200101516040019060ff16908160ff1681525050508073ffffffffffffffffffffffffffffffffffffffff166318160ddd6040518163ffffffff1660e01b8152600401602060405180830381865afa9250505080156103eb575060408051601f3d9081017fffffffffffffffffffffffffffffffffffffffffffffffffffffffffffffffe01682019092526103e891810190610854565b60015b6103f5575061041b565b8084848151811061040857610408610600565b6020026020010151606001818152505050505b6104248161086d565b90506100d9565b5092915050565b6000806020838503121561044557600080fd5b823567ffffffffffffffff8082111561045d57600080fd5b818501915085601f83011261047157600080fd5b81358181111561048057600080fd5b8660208260051b850101111561049557600080fd5b60209290920196919550909350505050565b60005b838110156104c25781810151838201526020016104aa565b50506000910152565b600081518084526104e38160208601602086016104a7565b601f017fffffffffffffffffffffffffffffffffffffffffffffffffffffffffffffffe0169290920160200192915050565b60006020808301818452808551808352604092508286019150828160051b87010184880160005b838110156105c3577fffffffffffffffffffffffffffffffffffffffffffffffffffffffffffffffc0898403018552815160808151818652610580828701826104cb565b915050888201518582038a87015261059882826104cb565b838a015160ff16878b015260609384015193909601929092525050938601939086019060010161053c565b509098975050505050505050565b7f4e487b7100000000000000000000000000000000000000000000000000000000600052604160045260246000fd5b7f4e487b7100000000000000000000000000000000000000000000000000000000600052603260045260246000fd5b60006020828403121561064157600080fd5b813573ffffffffffffffffffffffffffffffffffffffff8116811461066557600080fd5b9392505050565b7fffffffffffffffffffffffffffffffffffffffffffffffffffffffffffffffe0601f830116810181811067ffffffffffffffff821117156106b0576106b06105d1565b6040525050565b6000602082840312156106c957600080fd5b815167ffffffffffffffff808211156106e157600080fd5b818401915084601f8301126106f557600080fd5b815181811115610707576107076105d1565b604051915061073e60207fffffffffffffffffffffffffffffffffffffffffffffffffffffffffffffffe0601f840116018361066c565b80825285602082850101111561075357600080fd5b6107648160208401602086016104a7565b50949350505050565b600060033d11156107865760046000803e5060005160e01c5b90565b600060443d10156107975790565b6040517ffffffffffffffffffffffffffffffffffffffffffffffffffffffffffffffffc803d016004833e81513d67ffffffffffffffff81602484011181841117156107e557505050505090565b82850191508151818111156107fd5750505050505090565b843d87010160208285010111156108175750505050505090565b6108266020828601018761066c565b509095945050505050565b60006020828403121561084357600080fd5b815160ff8116811461066557600080fd5b60006020828403121561086657600080fd5b5051919050565b60007fffffffffffffffffffffffffffffffffffffffffffffffffffffffffffffffff82036108c5577f4e487b7100000000000000000000000000000000000000000000000000000000600052601160045260246000fd5b506001019056fea26469706673582212200a691374485824765bf8d62a694151190303475eb1fc39dde039c6b9ffe4a92f64736f6c63430008140033",
    "linkReferences": {},
    "deployedLinkReferences": {}
}