{
    "_format": "hh-sol-artifact-1",
    "contractName": "TokenPriceByRoute",
    "sourceName": "contracts/TokenPriceByRoute.sol",
    "abi": [
        {
            "inputs": [
                {
                    "internalType": "address",
                    "name": "tokenBase",
                    "type": "address"
                },
                {
                    "internalType": "address",
                    "name": "tokenQuote",
                    "type": "address"
                },
                {
                    "components": [
                        {
                            "internalType": "address",
                            "name": "uniPool",
                            "type": "address"
                        },
                        {
                            "internalType": "uint256",
                            "name": "version",
                            "type": "uint256"
                        }
                    ],
                    "internalType": "struct TokenPriceByRoute.Route[]",
                    "name": "routes",
                    "type": "tuple[]"
                }
            ],
            "name": "fetchPrice",
            "outputs": [
                {
                    "internalType": "uint256",
                    "name": "price",
                    "type": "uint256"
                }
            ],
            "stateMutability": "view",
            "type": "function"
        },
        {
            "inputs": [
                {
                    "components": [
                        {
                            "internalType": "address",
                            "name": "tokenBase",
                            "type": "address"
                        },
                        {
                            "internalType": "address",
                            "name": "tokenQuote",
                            "type": "address"
                        },
                        {
                            "components": [
                                {
                                    "internalType": "address",
                                    "name": "uniPool",
                                    "type": "address"
                                },
                                {
                                    "internalType": "uint256",
                                    "name": "version",
                                    "type": "uint256"
                                }
                            ],
                            "internalType": "struct TokenPriceByRoute.Route[]",
                            "name": "routes",
                            "type": "tuple[]"
                        }
                    ],
                    "internalType": "struct TokenPriceByRoute.Params[]",
                    "name": "params",
                    "type": "tuple[]"
                }
            ],
            "name": "fetchPrices",
            "outputs": [
                {
                    "internalType": "uint256[]",
                    "name": "",
                    "type": "uint256[]"
                }
            ],
            "stateMutability": "view",
            "type": "function"
        }
    ],
    "bytecode": "0x608060405234801561001057600080fd5b50610c4b806100206000396000f3fe608060405234801561001057600080fd5b50600436106100365760003560e01c8063216657f71461003b5780637e17f5ad14610061575b600080fd5b61004e6100493660046107dd565b610081565b6040519081526020015b60405180910390f35b61007461006f366004610872565b6101af565b60405161005891906108e7565b6c01000000000000000000000000600085815b848110156101a3578585828181106100ae576100ae61092b565b905060400201602001356002036100fa576100f08686838181106100d4576100d461092b565b6100ea926020604090920201908101915061095a565b836102d6565b909350915061015a565b85858281811061010c5761010c61092b565b9050604002016020013560030361014e576100f08686838181106101325761013261092b565b610148926020604090920201908101915061095a565b836104e2565b600093505050506101a7565b73ffffffffffffffffffffffffffffffffffffffff821661018157600093505050506101a7565b606061018d84866109ad565b901c93508061019b816109ea565b915050610094565b5050505b949350505050565b606060008267ffffffffffffffff8111156101cc576101cc610a22565b6040519080825280602002602001820160405280156101f5578160200160208202803683370190505b50905060005b838110156102ce5761029f8585838181106102185761021861092b565b905060200281019061022a9190610a51565b61023890602081019061095a565b86868481811061024a5761024a61092b565b905060200281019061025c9190610a51565b61026d90604081019060200161095a565b87878581811061027f5761027f61092b565b90506020028101906102919190610a51565b610049906040810190610a8f565b8282815181106102b1576102b161092b565b6020908102919091010152806102c6816109ea565b9150506101fb565b509392505050565b6000806000808573ffffffffffffffffffffffffffffffffffffffff16630902f1ac6040518163ffffffff1660e01b8152600401606060405180830381865afa925050508015610361575060408051601f3d9081017fffffffffffffffffffffffffffffffffffffffffffffffffffffffffffffffe016820190925261035e91810190610b1a565b60015b610373576000809350935050506104db565b506dffffffffffffffffffffffffffff918216935016905060008673ffffffffffffffffffffffffffffffffffffffff16630dfe16816040518163ffffffff1660e01b8152600401602060405180830381865afa1580156103d8573d6000803e3d6000fd5b505050506040513d601f19601f820116820180604052508101906103fc9190610b6a565b90508673ffffffffffffffffffffffffffffffffffffffff1663d21220a76040518163ffffffff1660e01b8152600401602060405180830381865afa158015610449573d6000803e3d6000fd5b505050506040513d601f19601f8201168201806040525081019061046d9190610b6a565b9350610479838361064b565b94508073ffffffffffffffffffffffffffffffffffffffff168673ffffffffffffffffffffffffffffffffffffffff16146104d7576104d1857801000000000000000000000000000000000000000000000000610b87565b94508093505b5050505b9250929050565b6000806104ee8461066e565b915081600003610503575060009050806104db565b60008473ffffffffffffffffffffffffffffffffffffffff16630dfe16816040518163ffffffff1660e01b8152600401602060405180830381865afa158015610550573d6000803e3d6000fd5b505050506040513d601f19601f820116820180604052508101906105749190610b6a565b90508473ffffffffffffffffffffffffffffffffffffffff1663d21220a76040518163ffffffff1660e01b8152600401602060405180830381865afa1580156105c1573d6000803e3d6000fd5b505050506040513d601f19601f820116820180604052508101906105e59190610b6a565b91508073ffffffffffffffffffffffffffffffffffffffff168473ffffffffffffffffffffffffffffffffffffffff16146106435761063d837801000000000000000000000000000000000000000000000000610b87565b92508091505b509250929050565b6000603061066561066085606086901b610b87565b61075f565b901b9392505050565b60408051600481526024810182526020810180517bffffffffffffffffffffffffffffffffffffffffffffffffffffffff167f3850c7bd000000000000000000000000000000000000000000000000000000001790529051600091908290819073ffffffffffffffffffffffffffffffffffffffff8616906106f1908590610bc2565b600060405180830381855afa9150503d806000811461072c576040519150601f19603f3d011682016040523d82523d6000602084013e610731565b606091505b50915091508161074657506000949350505050565b8161075357805160208201fd5b60200151949350505050565b600080600261076f846001610bfd565b6107799190610b87565b90508291505b818110156107b2579050806002816107978186610b87565b6107a19190610bfd565b6107ab9190610b87565b905061077f565b50919050565b73ffffffffffffffffffffffffffffffffffffffff811681146107da57600080fd5b50565b600080600080606085870312156107f357600080fd5b84356107fe816107b8565b9350602085013561080e816107b8565b9250604085013567ffffffffffffffff8082111561082b57600080fd5b818701915087601f83011261083f57600080fd5b81358181111561084e57600080fd5b8860208260061b850101111561086357600080fd5b95989497505060200194505050565b6000806020838503121561088557600080fd5b823567ffffffffffffffff8082111561089d57600080fd5b818501915085601f8301126108b157600080fd5b8135818111156108c057600080fd5b8660208260051b85010111156108d557600080fd5b60209290920196919550909350505050565b6020808252825182820181905260009190848201906040850190845b8181101561091f57835183529284019291840191600101610903565b50909695505050505050565b7f4e487b7100000000000000000000000000000000000000000000000000000000600052603260045260246000fd5b60006020828403121561096c57600080fd5b8135610977816107b8565b9392505050565b7f4e487b7100000000000000000000000000000000000000000000000000000000600052601160045260246000fd5b6000817fffffffffffffffffffffffffffffffffffffffffffffffffffffffffffffffff04831182151516156109e5576109e561097e565b500290565b60007fffffffffffffffffffffffffffffffffffffffffffffffffffffffffffffffff8203610a1b57610a1b61097e565b5060010190565b7f4e487b7100000000000000000000000000000000000000000000000000000000600052604160045260246000fd5b600082357fffffffffffffffffffffffffffffffffffffffffffffffffffffffffffffffa1833603018112610a8557600080fd5b9190910192915050565b60008083357fffffffffffffffffffffffffffffffffffffffffffffffffffffffffffffffe1843603018112610ac457600080fd5b83018035915067ffffffffffffffff821115610adf57600080fd5b6020019150600681901b36038213156104db57600080fd5b80516dffffffffffffffffffffffffffff81168114610b1557600080fd5b919050565b600080600060608486031215610b2f57600080fd5b610b3884610af7565b9250610b4660208501610af7565b9150604084015163ffffffff81168114610b5f57600080fd5b809150509250925092565b600060208284031215610b7c57600080fd5b8151610977816107b8565b600082610bbd577f4e487b7100000000000000000000000000000000000000000000000000000000600052601260045260246000fd5b500490565b6000825160005b81811015610be35760208186018101518583015201610bc9565b81811115610bf2576000828501525b509190910192915050565b60008219821115610c1057610c1061097e565b50019056fea264697066735822122025b092fe322ae469583a41c94ef0bb2b07c021693063b5c18302afe4f6cc1b6864736f6c634300080d0033",
    "linkReferences": {},
    "deployedLinkReferences": {}
}