{
    "_format": "hh-sol-artifact-1",
    "contractName": "UniversalTokenRouter",
    "sourceName": "contracts/UniversalTokenRouter.sol",
    "abi": [
        {
            "inputs": [
                {
                    "components": [
                        {
                            "internalType": "address",
                            "name": "recipient",
                            "type": "address"
                        },
                        {
                            "internalType": "uint256",
                            "name": "eip",
                            "type": "uint256"
                        },
                        {
                            "internalType": "address",
                            "name": "token",
                            "type": "address"
                        },
                        {
                            "internalType": "uint256",
                            "name": "id",
                            "type": "uint256"
                        },
                        {
                            "internalType": "uint256",
                            "name": "amountOutMin",
                            "type": "uint256"
                        }
                    ],
                    "internalType": "struct Output[]",
                    "name": "outputs",
                    "type": "tuple[]"
                },
                {
                    "components": [
                        {
                            "components": [
                                {
                                    "internalType": "uint256",
                                    "name": "mode",
                                    "type": "uint256"
                                },
                                {
                                    "internalType": "address",
                                    "name": "recipient",
                                    "type": "address"
                                },
                                {
                                    "internalType": "uint256",
                                    "name": "eip",
                                    "type": "uint256"
                                },
                                {
                                    "internalType": "address",
                                    "name": "token",
                                    "type": "address"
                                },
                                {
                                    "internalType": "uint256",
                                    "name": "id",
                                    "type": "uint256"
                                },
                                {
                                    "internalType": "uint256",
                                    "name": "amountInMax",
                                    "type": "uint256"
                                },
                                {
                                    "internalType": "uint256",
                                    "name": "amountSource",
                                    "type": "uint256"
                                }
                            ],
                            "internalType": "struct Input[]",
                            "name": "inputs",
                            "type": "tuple[]"
                        },
                        {
                            "internalType": "uint256",
                            "name": "flags",
                            "type": "uint256"
                        },
                        {
                            "internalType": "address",
                            "name": "code",
                            "type": "address"
                        },
                        {
                            "internalType": "bytes",
                            "name": "data",
                            "type": "bytes"
                        }
                    ],
                    "internalType": "struct Action[]",
                    "name": "actions",
                    "type": "tuple[]"
                }
            ],
            "name": "exec",
            "outputs": [
                {
                    "internalType": "uint256[]",
                    "name": "amountOuts",
                    "type": "uint256[]"
                },
                {
                    "internalType": "uint256",
                    "name": "gasLeft",
                    "type": "uint256"
                }
            ],
            "stateMutability": "payable",
            "type": "function"
        },
        {
            "inputs": [
                {
                    "internalType": "address",
                    "name": "sender",
                    "type": "address"
                },
                {
                    "internalType": "address",
                    "name": "recipient",
                    "type": "address"
                },
                {
                    "internalType": "uint256",
                    "name": "eip",
                    "type": "uint256"
                },
                {
                    "internalType": "address",
                    "name": "token",
                    "type": "address"
                },
                {
                    "internalType": "uint256",
                    "name": "id",
                    "type": "uint256"
                },
                {
                    "internalType": "uint256",
                    "name": "amount",
                    "type": "uint256"
                }
            ],
            "name": "pay",
            "outputs": [],
            "stateMutability": "nonpayable",
            "type": "function"
        },
        {
            "stateMutability": "payable",
            "type": "receive"
        }
    ],
    "bytecode": "0x608060405234801561001057600080fd5b50611d4b806100206000396000f3fe60806040526004361061002d5760003560e01c806303886f3c146100395780632a5baa781461005b57600080fd5b3661003457005b600080fd5b34801561004557600080fd5b506100596100543660046116fe565b610085565b005b61006e610069366004611af8565b6101c7565b60405161007c929190611c04565b60405180910390f35b6040517fffffffffffffffffffffffffffffffffffffffff000000000000000000000000606088811b8216602084015287811b821660348401526048830187905285901b166068820152607c8101839052600090609c016040516020818303038152906040528051906020012090508160008083815260200190815260200160002054101561019b576040517f08c379a000000000000000000000000000000000000000000000000000000000815260206004820152602c60248201527f556e6976657273616c546f6b656e526f757465723a20494e535546464943494560448201527f4e545f414c4c4f57414e4345000000000000000000000000000000000000000060648201526084015b60405180910390fd5b6000818152602081905260409020805483900390556101be878787878787610a12565b50505050505050565b6060600080845167ffffffffffffffff8111156101e6576101e6611763565b60405190808252806020026020018201604052801561020f578160200160208202803683370190505b5090506000855167ffffffffffffffff81111561022e5761022e611763565b604051908082528060200260200182016040528015610257578160200160208202803683370190505b50905060005b865181101561034557600087828151811061027a5761027a611c4c565b6020026020010151905060006102a28260000151836020015184604001518560600151610cb7565b9050808484815181106102b7576102b7611c4c565b60209081029190910101526080820151810181811015610333576040517f08c379a000000000000000000000000000000000000000000000000000000000815260206004820152601e60248201527f556e6976657273616c546f6b656e526f757465723a204f564552464c4f5700006044820152606401610192565b6080909201919091525060010161025d565b506000606060005b875181101561071357600088828151811061036a5761036a611c4c565b60200260200101519050600080600090505b82515181101561062c5760008360000151828151811061039e5761039e611c4c565b602002602001015190506000816000015190506000600182146103c157336103c3565b305b90506000808460c00151036103dd575060a08301516104a6565b60018460c00151036104085761040182856040015186606001518760800151610cb7565b9050610412565b5060c08301518801515b8360a001518111156104a6576040517f08c379a000000000000000000000000000000000000000000000000000000000815260206004820152602c60248201527f556e6976657273616c546f6b656e526f757465723a204558434553534956455f60448201527f494e5055545f414d4f554e5400000000000000000000000000000000000000006064820152608401610192565b600283036104b957945061062492505050565b8215806104c65750600183145b156104f2576104e982856020015186604001518760600151886080015186610a12565b50505050610624565b600483036105c05760208085015160408087015160608089015160808a015193517fffffffffffffffffffffffffffffffffffffffff00000000000000000000000033841b81169782019790975294821b8616603486015260488501929092521b9092166068820152607c810191909152600090609c01604080517fffffffffffffffffffffffffffffffffffffffffffffffffffffffffffffffe0818403018152918152815160209283012060009081529182905290208054909201909155506001985061062492505050565b6008830361061f576106008460200151856040015186606001517fffffffffffffffffffffffffffffffffffffffffffffffffffffffffffffffff610f5f565b61061a333086604001518760600151886080015186610a12565b600199505b505050505b60010161037c565b50606082015151156107095760208201516004161561065d576060820151805161065791908661107a565b60608301525b600080836040015173ffffffffffffffffffffffffffffffffffffffff1683856060015160405161068e9190611c7b565b60006040518083038185875af1925050503d80600081146106cb576040519150601f19603f3d011682016040523d82523d6000602084013e6106d0565b606091505b5091509150811580156106e857506020840151600116155b156106f557805160208201fd5b602084015160021615610706578095505b50505b505060010161034d565b5060005b885181101561083657600089828151811061073457610734611c4c565b60200260200101519050600061075c8260000151836020015184604001518560600151610cb7565b905085838151811061077057610770611c4c565b6020026020010151810387848151811061078c5761078c611c4c565b602002602001018181525050816080015181101561082c576040517f08c379a000000000000000000000000000000000000000000000000000000000815260206004820152603060248201527f556e6976657273616c546f6b656e526f757465723a20494e535546464943494560448201527f4e545f4f55545055545f414d4f554e54000000000000000000000000000000006064820152608401610192565b5050600101610717565b5081156109f05760005b87518110156109ee57600088828151811061085d5761085d611c4c565b6020026020010151905060005b8151518110156109e45760008260000151828151811061088c5761088c611c4c565b60200260200101519050600481600001510361095b57602080820151604080840151606080860151608087015193517fffffffffffffffffffffffffffffffffffffffff00000000000000000000000033841b81169782019790975294821b8616603486015260488501929092521b9092166068820152607c810191909152600090609c01604080517fffffffffffffffffffffffffffffffffffffffffffffffffffffffffffffffe08184030181529181528151602092830120600090815291829052812055506109dc9050565b80517ffffffffffffffffffffffffffffffffffffffffffffffffffffffffffffffff8016109da5761099c8160200151826040015183606001516000610f5f565b60006109b630836040015184606001518560800151610cb7565b905080156109d8576109d8303384604001518560600151866080015186610a12565b505b505b60010161086a565b5050600101610840565b505b478015610a0157610a0133826110fe565b5a9499949850939650505050505050565b83601403610a53573073ffffffffffffffffffffffffffffffffffffffff871603610a4757610a4283868361120d565b610caf565b610a42838787846113a3565b8361048303610b07576040517ff242432a00000000000000000000000000000000000000000000000000000000815273ffffffffffffffffffffffffffffffffffffffff87811660048301528681166024830152604482018490526064820183905260a06084830152600060a483015284169063f242432a9060c4015b600060405180830381600087803b158015610aea57600080fd5b505af1158015610afe573d6000803e3d6000fd5b50505050610caf565b836102d103610b73576040517f42842e0e00000000000000000000000000000000000000000000000000000000815273ffffffffffffffffffffffffffffffffffffffff87811660048301528681166024830152604482018490528416906342842e0e90606401610ad0565b83610c275773ffffffffffffffffffffffffffffffffffffffff86163014610c1d576040517f08c379a000000000000000000000000000000000000000000000000000000000815260206004820152602860248201527f556e6976657273616c546f6b656e526f757465723a20494e56414c49445f455460448201527f485f53454e4445520000000000000000000000000000000000000000000000006064820152608401610192565b610a4285826110fe565b6040517f08c379a000000000000000000000000000000000000000000000000000000000815260206004820152602160248201527f556e6976657273616c546f6b656e526f757465723a20494e56414c49445f454960448201527f50000000000000000000000000000000000000000000000000000000000000006064820152608401610192565b505050505050565b600083601403610d59576040517f70a0823100000000000000000000000000000000000000000000000000000000815273ffffffffffffffffffffffffffffffffffffffff86811660048301528416906370a08231906024015b602060405180830381865afa158015610d2e573d6000803e3d6000fd5b505050506040513d601f19601f82011682018060405250810190610d529190611cb6565b9050610f57565b8361048303610dbb576040517efdd58e00000000000000000000000000000000000000000000000000000000815273ffffffffffffffffffffffffffffffffffffffff86811660048301526024820184905284169062fdd58e90604401610d11565b836102d103610f38577ff2b78321daf989e73321bb72cbe2a5fab2d75ae52e3240a42772118067c318108201610e3f576040517f70a0823100000000000000000000000000000000000000000000000000000000815273ffffffffffffffffffffffffffffffffffffffff86811660048301528416906370a0823190602401610d11565b6040517f6352211e0000000000000000000000000000000000000000000000000000000081526004810183905273ffffffffffffffffffffffffffffffffffffffff841690636352211e90602401602060405180830381865afa925050508015610ee4575060408051601f3d9081017fffffffffffffffffffffffffffffffffffffffffffffffffffffffffffffffe0168201909252610ee191810190611ccf565b60015b610ef057506000610f57565b8573ffffffffffffffffffffffffffffffffffffffff168173ffffffffffffffffffffffffffffffffffffffff1614610f2a576000610f2d565b60015b60ff16915050610f57565b83610c27575073ffffffffffffffffffffffffffffffffffffffff8416315b949350505050565b82601403610f7757610f7282858361153a565b611074565b826104830361100f576040517fa22cb46500000000000000000000000000000000000000000000000000000000815273ffffffffffffffffffffffffffffffffffffffff8581166004830152821515602483015283169063a22cb465906044015b600060405180830381600087803b158015610ff257600080fd5b505af1158015611006573d6000803e3d6000fd5b50505050611074565b826102d103610c27576040517fa22cb46500000000000000000000000000000000000000000000000000000000815273ffffffffffffffffffffffffffffffffffffffff8581166004830152821515602483015283169063a22cb46590604401610fd8565b50505050565b6060604051905082815260208101838101602086015b818310156110a8578051835260209283019201611090565b50835183518101845294507fffffffffffffffffffffffffffffffffffffffffffffffffffffffffffffffe0810191508401835b818310156110f45780518352602092830192016110dc565b5050509392505050565b6040805160008082526020820190925273ffffffffffffffffffffffffffffffffffffffff84169083906040516111359190611c7b565b60006040518083038185875af1925050503d8060008114611172576040519150601f19603f3d011682016040523d82523d6000602084013e611177565b606091505b5050905080611208576040517f08c379a000000000000000000000000000000000000000000000000000000000815260206004820152603460248201527f5472616e7366657248656c7065723a3a736166655472616e736665724554483a60448201527f20455448207472616e73666572206661696c65640000000000000000000000006064820152608401610192565b505050565b6040805173ffffffffffffffffffffffffffffffffffffffff8481166024830152604480830185905283518084039091018152606490920183526020820180517bffffffffffffffffffffffffffffffffffffffffffffffffffffffff167fa9059cbb0000000000000000000000000000000000000000000000000000000017905291516000928392908716916112a49190611c7b565b6000604051808303816000865af19150503d80600081146112e1576040519150601f19603f3d011682016040523d82523d6000602084013e6112e6565b606091505b50915091508180156113105750805115806113105750808060200190518101906113109190611cf3565b61139c576040517f08c379a000000000000000000000000000000000000000000000000000000000815260206004820152602d60248201527f5472616e7366657248656c7065723a3a736166655472616e736665723a20747260448201527f616e73666572206661696c6564000000000000000000000000000000000000006064820152608401610192565b5050505050565b6040805173ffffffffffffffffffffffffffffffffffffffff85811660248301528481166044830152606480830185905283518084039091018152608490920183526020820180517bffffffffffffffffffffffffffffffffffffffffffffffffffffffff167f23b872dd0000000000000000000000000000000000000000000000000000000017905291516000928392908816916114429190611c7b565b6000604051808303816000865af19150503d806000811461147f576040519150601f19603f3d011682016040523d82523d6000602084013e611484565b606091505b50915091508180156114ae5750805115806114ae5750808060200190518101906114ae9190611cf3565b610caf576040517f08c379a000000000000000000000000000000000000000000000000000000000815260206004820152603160248201527f5472616e7366657248656c7065723a3a7472616e7366657246726f6d3a20747260448201527f616e7366657246726f6d206661696c65640000000000000000000000000000006064820152608401610192565b6040805173ffffffffffffffffffffffffffffffffffffffff8481166024830152604480830185905283518084039091018152606490920183526020820180517bffffffffffffffffffffffffffffffffffffffffffffffffffffffff167f095ea7b30000000000000000000000000000000000000000000000000000000017905291516000928392908716916115d19190611c7b565b6000604051808303816000865af19150503d806000811461160e576040519150601f19603f3d011682016040523d82523d6000602084013e611613565b606091505b509150915081801561163d57508051158061163d57508080602001905181019061163d9190611cf3565b61139c576040517f08c379a000000000000000000000000000000000000000000000000000000000815260206004820152602b60248201527f5472616e7366657248656c7065723a3a73616665417070726f76653a2061707060448201527f726f7665206661696c65640000000000000000000000000000000000000000006064820152608401610192565b73ffffffffffffffffffffffffffffffffffffffff811681146116eb57600080fd5b50565b80356116f9816116c9565b919050565b60008060008060008060c0878903121561171757600080fd5b8635611722816116c9565b95506020870135611732816116c9565b9450604087013593506060870135611749816116c9565b9598949750929560808101359460a0909101359350915050565b7f4e487b7100000000000000000000000000000000000000000000000000000000600052604160045260246000fd5b6040516080810167ffffffffffffffff811182821017156117b5576117b5611763565b60405290565b60405160e0810167ffffffffffffffff811182821017156117b5576117b5611763565b60405160a0810167ffffffffffffffff811182821017156117b5576117b5611763565b604051601f82017fffffffffffffffffffffffffffffffffffffffffffffffffffffffffffffffe016810167ffffffffffffffff8111828210171561184857611848611763565b604052919050565b600067ffffffffffffffff82111561186a5761186a611763565b5060051b60200190565b600082601f83011261188557600080fd5b813567ffffffffffffffff81111561189f5761189f611763565b6118d060207fffffffffffffffffffffffffffffffffffffffffffffffffffffffffffffffe0601f84011601611801565b8181528460208386010111156118e557600080fd5b816020850160208301376000918101602001919091529392505050565b600082601f83011261191357600080fd5b6119256119208335611850565b611801565b82358082526020808301929160051b8501018581111561194457600080fd5b602085015b81811015611aed5767ffffffffffffffff808235111561196857600080fd5b8135870160807fffffffffffffffffffffffffffffffffffffffffffffffffffffffffffffffe0828b0301121561199e57600080fd5b6119a6611792565b82602083013511156119b757600080fd5b602082013582018a603f8201126119cd57600080fd5b60208101356119de61192082611850565b81815260e090910282016040019060208101908d8311156119fe57600080fd5b6040840193505b82841015611a945760e0848f031215611a1d57600080fd5b611a256117bb565b84358152611a3660208601356116c9565b6020850135602082015260408501356040820152611a5760608601356116c9565b606085013560608201526080850135608082015260a085013560a082015260c085013560c08201528083525060208201915060e084019350611a05565b845250505060408201356020820152611aaf606083016116ee565b60408201528260808301351115611ac557600080fd5b611ad88a60206080850135850101611874565b60608201528652505060209384019301611949565b509095945050505050565b6000806040808486031215611b0c57600080fd5b833567ffffffffffffffff80821115611b2457600080fd5b818601915086601f830112611b3857600080fd5b81356020611b4861192083611850565b82815260a0928302850182019282820191908b851115611b6757600080fd5b958301955b84871015611bd55780878d031215611b845760008081fd5b611b8c6117de565b8735611b97816116c9565b8152878501358582015288880135611bae816116c9565b818a0152606088810135908201526080808901359082015283529586019591830191611b6c565b5097505087013593505080831115611bec57600080fd5b5050611bfa85828601611902565b9150509250929050565b604080825283519082018190526000906020906060840190828701845b82811015611c3d57815184529284019290840190600101611c21565b50505092019290925292915050565b7f4e487b7100000000000000000000000000000000000000000000000000000000600052603260045260246000fd5b6000825160005b81811015611c9c5760208186018101518583015201611c82565b81811115611cab576000828501525b509190910192915050565b600060208284031215611cc857600080fd5b5051919050565b600060208284031215611ce157600080fd5b8151611cec816116c9565b9392505050565b600060208284031215611d0557600080fd5b81518015158114611cec57600080fdfea2646970667358221220eaadba59491476e5d20ae8eb9597cc3e0c7364845be7bfab3380d7be766e8df664736f6c634300080d0033",
    "linkReferences": {},
    "deployedLinkReferences": {}
}