{
  "_format": "hh-sol-artifact-1",
  "contractName": "UniversalTokenRouter",
  "sourceName": "contracts/UniversalTokenRouter.sol",
  "abi": [
    {
      "inputs": [
        {
          "internalType": "bytes",
          "name": "payment",
          "type": "bytes"
        },
        {
          "internalType": "uint256",
          "name": "amount",
          "type": "uint256"
        }
      ],
      "name": "discard",
      "outputs": [],
      "stateMutability": "nonpayable",
      "type": "function"
    },
    {
      "inputs": [
        {
          "components": [
            {
              "internalType": "address",
              "name": "recipient",
              "type": "address"
            },
            {
              "internalType": "uint256",
              "name": "eip",
              "type": "uint256"
            },
            {
              "internalType": "address",
              "name": "token",
              "type": "address"
            },
            {
              "internalType": "uint256",
              "name": "id",
              "type": "uint256"
            },
            {
              "internalType": "uint256",
              "name": "amountOutMin",
              "type": "uint256"
            }
          ],
          "internalType": "struct Output[]",
          "name": "outputs",
          "type": "tuple[]"
        },
        {
          "components": [
            {
              "components": [
                {
                  "internalType": "uint256",
                  "name": "mode",
                  "type": "uint256"
                },
                {
                  "internalType": "address",
                  "name": "recipient",
                  "type": "address"
                },
                {
                  "internalType": "uint256",
                  "name": "eip",
                  "type": "uint256"
                },
                {
                  "internalType": "address",
                  "name": "token",
                  "type": "address"
                },
                {
                  "internalType": "uint256",
                  "name": "id",
                  "type": "uint256"
                },
                {
                  "internalType": "uint256",
                  "name": "amountIn",
                  "type": "uint256"
                }
              ],
              "internalType": "struct Input[]",
              "name": "inputs",
              "type": "tuple[]"
            },
            {
              "internalType": "address",
              "name": "code",
              "type": "address"
            },
            {
              "internalType": "bytes",
              "name": "data",
              "type": "bytes"
            }
          ],
          "internalType": "struct Action[]",
          "name": "actions",
          "type": "tuple[]"
        }
      ],
      "name": "exec",
      "outputs": [
        {
          "internalType": "uint256[]",
          "name": "amountOuts",
          "type": "uint256[]"
        },
        {
          "internalType": "uint256",
          "name": "gasLeft",
          "type": "uint256"
        }
      ],
      "stateMutability": "payable",
      "type": "function"
    },
    {
      "inputs": [
        {
          "internalType": "bytes",
          "name": "payment",
          "type": "bytes"
        },
        {
          "internalType": "uint256",
          "name": "amount",
          "type": "uint256"
        }
      ],
      "name": "pay",
      "outputs": [],
      "stateMutability": "nonpayable",
      "type": "function"
    },
    {
      "inputs": [
        {
          "internalType": "bytes4",
          "name": "interfaceId",
          "type": "bytes4"
        }
      ],
      "name": "supportsInterface",
      "outputs": [
        {
          "internalType": "bool",
          "name": "",
          "type": "bool"
        }
      ],
      "stateMutability": "view",
      "type": "function"
    },
    {
      "stateMutability": "payable",
      "type": "receive"
    }
  ],
  "bytecode": "0x608060405234801561000f575f80fd5b506116c58061001d5f395ff3fe608060405260043610610041575f3560e01c806301ffc9a71461004c578063715ef7f914610080578063c175dd37146100a1578063f02c9eab146100c0575f80fd5b3661004857005b5f80fd5b348015610057575f80fd5b5061006b610066366004611016565b6100e1565b60405190151581526020015b60405180910390f35b34801561008b575f80fd5b5061009f61009a3660046111ca565b610179565b005b3480156100ac575f80fd5b5061009f6100bb3660046111ca565b6101bd565b6100d36100ce36600461143c565b610282565b604051610077929190611541565b5f7fffffffff0000000000000000000000000000000000000000000000000000000082167f4007b46500000000000000000000000000000000000000000000000000000000148061017357507f01ffc9a7000000000000000000000000000000000000000000000000000000007fffffffff000000000000000000000000000000000000000000000000000000008316145b92915050565b61018382826101bd565b5f805f805f8680602001905181019061019c9190611588565b945094509450945094506101b485858585858b61090f565b50505050505050565b81516020808401919091205f8181529182905260409091205482111561026a576040517f08c379a000000000000000000000000000000000000000000000000000000000815260206004820152602a60248201527f556e6976657273616c546f6b656e526f757465723a20494e535546464943494560448201527f4e545f5041594d454e540000000000000000000000000000000000000000000060648201526084015b60405180910390fd5b5f908152602081905260409020805491909103905550565b60605f80845167ffffffffffffffff8111156102a0576102a0611055565b6040519080825280602002602001820160405280156102c9578160200160208202803683370190505b5090505f855167ffffffffffffffff8111156102e7576102e7611055565b604051908082528060200260200182016040528015610310578160200160208202803683370190505b5090506040517f08c379a00000000000000000000000000000000000000000000000000000000081526004016102619060208082526004908201527f7465737400000000000000000000000000000000000000000000000000000000604082015260600190565b8651811015610470575f878281518110610393576103936115e5565b602002602001015190505f6103a782610ad2565b9050808484815181106103bc576103bc6115e5565b6020908102919091010152608082015181018181101561045e576040517f08c379a000000000000000000000000000000000000000000000000000000000815260206004820152602d60248201527f556e6976657273616c546f6b656e526f757465723a204f55545055545f42414c60448201527f414e43455f4f564552464c4f57000000000000000000000000000000000000006064820152608401610261565b60809092019190915250600101610377565b50335f5b86518110156107e0575f878281518110610490576104906115e5565b602002602001015190505f805f90505b82515181101561065b575f835f015182815181106104c0576104c06115e5565b602002602001015190505f815f01519050600281036104e5578160a001519350610651565b8061059a575f87836020015184604001518560600151866080015160405160200161054f95949392919073ffffffffffffffffffffffffffffffffffffffff9586168152938516602085015260408401929092529092166060820152608081019190915260a00190565b604080517fffffffffffffffffffffffffffffffffffffffffffffffffffffffffffffffe0818403018152918152815160209283012060a08601515f91825292819052205550610651565b600181036105c9576105c48783602001518460400151856060015186608001518760a0015161090f565b610651565b6040517f08c379a000000000000000000000000000000000000000000000000000000000815260206004820152602260248201527f556e6976657273616c546f6b656e526f757465723a20494e56414c49445f4d4f60448201527f44450000000000000000000000000000000000000000000000000000000000006064820152608401610261565b50506001016104a0565b50604082015151156106eb575f80836020015173ffffffffffffffffffffffffffffffffffffffff168385604001516040516106979190611612565b5f6040518083038185875af1925050503d805f81146106d1576040519150601f19603f3d011682016040523d82523d5f602084013e6106d6565b606091505b5091509150816106e857805160208201fd5b50505b5f5b8251518110156107d2575f835f0151828151811061070d5761070d6115e5565b602002602001015190505f815f0151036107c9575f86826020015183604001518460600151856080015160405160200161078695949392919073ffffffffffffffffffffffffffffffffffffffff9586168152938516602085015260408401929092529092166060820152608081019190915260a00190565b604080517fffffffffffffffffffffffffffffffffffffffffffffffffffffffffffffffe081840301815291815281516020928301205f90815291829052812055505b506001016106ed565b505050806001019050610474565b504780156107f2576107f28282610d79565b5f5b88518110156108fe575f898281518110610810576108106115e5565b602002602001015190505f61082482610ad2565b9050858381518110610838576108386115e5565b60200260200101518103878481518110610854576108546115e5565b60200260200101818152505081608001518110156108f4576040517f08c379a000000000000000000000000000000000000000000000000000000000815260206004820152603060248201527f556e6976657273616c546f6b656e526f757465723a20494e535546464943494560448201527f4e545f4f55545055545f414d4f554e54000000000000000000000000000000006064820152608401610261565b50506001016107f4565b505a93989397509295505050505050565b836014036109285761092383878784610e84565b610aca565b83610483036109d6576040517ff242432a00000000000000000000000000000000000000000000000000000000815273ffffffffffffffffffffffffffffffffffffffff87811660048301528681166024830152604482018490526064820183905260a060848301525f60a483015284169063f242432a9060c4015b5f604051808303815f87803b1580156109bb575f80fd5b505af11580156109cd573d5f803e3d5ffd5b50505050610aca565b836102d103610a42576040517f42842e0e00000000000000000000000000000000000000000000000000000000815273ffffffffffffffffffffffffffffffffffffffff87811660048301528681166024830152604482018490528416906342842e0e906064016109a4565b6040517f08c379a000000000000000000000000000000000000000000000000000000000815260206004820152602160248201527f556e6976657273616c546f6b656e526f757465723a20494e56414c49445f454960448201527f50000000000000000000000000000000000000000000000000000000000000006064820152608401610261565b505050505050565b60208101515f906014819003610b7f57604083810151845191517f70a0823100000000000000000000000000000000000000000000000000000000815273ffffffffffffffffffffffffffffffffffffffff92831660048201529116906370a08231906024015b602060405180830381865afa158015610b54573d5f803e3d5ffd5b505050506040513d601f19601f82011682018060405250810190610b78919061163e565b9392505050565b8061048303610bed576040838101518451606086015192517efdd58e00000000000000000000000000000000000000000000000000000000815273ffffffffffffffffffffffffffffffffffffffff91821660048201526024810193909352169062fdd58e90604401610b39565b806102d103610d575760608301517f0549972b314bb4225e5b334d0650d563c4e907124dcce9f2eae8c8b2d3d9d30d01610c7c57604083810151845191517f70a0823100000000000000000000000000000000000000000000000000000000815273ffffffffffffffffffffffffffffffffffffffff92831660048201529116906370a0823190602401610b39565b826040015173ffffffffffffffffffffffffffffffffffffffff16636352211e84606001516040518263ffffffff1660e01b8152600401610cbf91815260200190565b602060405180830381865afa925050508015610d16575060408051601f3d9081017fffffffffffffffffffffffffffffffffffffffffffffffffffffffffffffffe0168201909252610d1391810190611655565b60015b610d2257505f92915050565b835173ffffffffffffffffffffffffffffffffffffffff828116911614610d49575f610d4c565b60015b60ff16949350505050565b80610a425750505173ffffffffffffffffffffffffffffffffffffffff163190565b604080515f8082526020820190925273ffffffffffffffffffffffffffffffffffffffff8416908390604051610daf9190611612565b5f6040518083038185875af1925050503d805f8114610de9576040519150601f19603f3d011682016040523d82523d5f602084013e610dee565b606091505b5050905080610e7f576040517f08c379a000000000000000000000000000000000000000000000000000000000815260206004820152603460248201527f5472616e7366657248656c7065723a3a736166655472616e736665724554483a60448201527f20455448207472616e73666572206661696c65640000000000000000000000006064820152608401610261565b505050565b6040805173ffffffffffffffffffffffffffffffffffffffff85811660248301528481166044830152606480830185905283518084039091018152608490920183526020820180517bffffffffffffffffffffffffffffffffffffffffffffffffffffffff167f23b872dd0000000000000000000000000000000000000000000000000000000017905291515f92839290881691610f229190611612565b5f604051808303815f865af19150503d805f8114610f5b576040519150601f19603f3d011682016040523d82523d5f602084013e610f60565b606091505b5091509150818015610f8a575080511580610f8a575080806020019051810190610f8a9190611670565b610aca576040517f08c379a000000000000000000000000000000000000000000000000000000000815260206004820152603160248201527f5472616e7366657248656c7065723a3a7472616e7366657246726f6d3a20747260448201527f616e7366657246726f6d206661696c65640000000000000000000000000000006064820152608401610261565b5f60208284031215611026575f80fd5b81357fffffffff0000000000000000000000000000000000000000000000000000000081168114610b78575f80fd5b7f4e487b71000000000000000000000000000000000000000000000000000000005f52604160045260245ffd5b6040516060810167ffffffffffffffff811182821017156110a5576110a5611055565b60405290565b60405160c0810167ffffffffffffffff811182821017156110a5576110a5611055565b60405160a0810167ffffffffffffffff811182821017156110a5576110a5611055565b604051601f82017fffffffffffffffffffffffffffffffffffffffffffffffffffffffffffffffe016810167ffffffffffffffff8111828210171561113857611138611055565b604052919050565b5f82601f83011261114f575f80fd5b813567ffffffffffffffff81111561116957611169611055565b61119a60207fffffffffffffffffffffffffffffffffffffffffffffffffffffffffffffffe0601f840116016110f1565b8181528460208386010111156111ae575f80fd5b816020850160208301375f918101602001919091529392505050565b5f80604083850312156111db575f80fd5b823567ffffffffffffffff8111156111f1575f80fd5b6111fd85828601611140565b95602094909401359450505050565b5f67ffffffffffffffff82111561122557611225611055565b5060051b60200190565b73ffffffffffffffffffffffffffffffffffffffff81168114611250575f80fd5b50565b803561125e8161122f565b919050565b5f82601f830112611272575f80fd5b61128461127f833561120c565b6110f1565b82358082526020808301929160051b850101858111156112a2575f80fd5b602085015b818110156114315767ffffffffffffffff80823511156112c5575f80fd5b8135870160607fffffffffffffffffffffffffffffffffffffffffffffffffffffffffffffffe0828b030112156112fa575f80fd5b611302611082565b8260208301351115611312575f80fd5b602082013582018a603f820112611327575f80fd5b602081013561133861127f8261120c565b81815260c090910282016040019060208101908d831115611357575f80fd5b6040840193505b828410156113e25760c0848f031215611375575f80fd5b61137d6110ab565b8435815261138e602086013561122f565b60208501356020820152604085013560408201526113af606086013561122f565b606085013560608201526080850135608082015260a085013560a08201528083525060208201915060c08401935061135e565b8452506113f491505060408301611253565b60208201528260608301351115611409575f80fd5b61141c8a60206060850135850101611140565b604082015286525050602093840193016112a7565b509095945050505050565b5f80604080848603121561144e575f80fd5b833567ffffffffffffffff80821115611465575f80fd5b818601915086601f830112611478575f80fd5b8135602061148861127f8361120c565b82815260a0928302850182019282820191908b8511156114a6575f80fd5b958301955b848710156115135780878d0312156114c2575f8081fd5b6114ca6110ce565b87356114d58161122f565b81528785013585820152888801356114ec8161122f565b818a01526060888101359082015260808089013590820152835295860195918301916114ab565b5097505087013593505080831115611529575f80fd5b505061153785828601611263565b9150509250929050565b604080825283519082018190525f906020906060840190828701845b828110156115795781518452928401929084019060010161155d565b50505092019290925292915050565b5f805f805f60a0868803121561159c575f80fd5b85516115a78161122f565b60208701519095506115b88161122f565b6040870151606088015191955093506115d08161122f565b80925050608086015190509295509295909350565b7f4e487b71000000000000000000000000000000000000000000000000000000005f52603260045260245ffd5b5f82515f5b818110156116315760208186018101518583015201611617565b505f920191825250919050565b5f6020828403121561164e575f80fd5b5051919050565b5f60208284031215611665575f80fd5b8151610b788161122f565b5f60208284031215611680575f80fd5b81518015158114610b78575f80fdfea2646970667358221220a79562acd58b7a125f6fc67d00dc060eb065cf93323b123afb04a2a514c3bd1364736f6c63430008140033",
  "linkReferences": {},
  "deployedLinkReferences": {}
}